{
  "_format": "hh-sol-artifact-1",
  "contractName": "HatchyGen1ProxySale",
  "sourceName": "contracts/HatchyGen1ProxySale.sol",
  "abi": [
    {
      "anonymous": false,
      "inputs": [
        {
          "indexed": false,
          "internalType": "uint256",
          "name": "tokenId",
          "type": "uint256"
        }
      ],
      "name": "HatchyMinted",
      "type": "event"
    },
    {
      "anonymous": false,
      "inputs": [
        {
          "indexed": false,
          "internalType": "uint8",
          "name": "version",
          "type": "uint8"
        }
      ],
      "name": "Initialized",
      "type": "event"
    },
    {
      "anonymous": false,
      "inputs": [
        {
          "indexed": true,
          "internalType": "address",
          "name": "previousOwner",
          "type": "address"
        },
        {
          "indexed": true,
          "internalType": "address",
          "name": "newOwner",
          "type": "address"
        }
      ],
      "name": "OwnershipTransferred",
      "type": "event"
    },
    {
      "anonymous": false,
      "inputs": [
        {
          "indexed": false,
          "internalType": "uint256",
          "name": "amount",
          "type": "uint256"
        }
      ],
      "name": "ReceivedFunds",
      "type": "event"
    },
    {
      "stateMutability": "payable",
      "type": "fallback"
    },
    {
      "inputs": [],
      "name": "addFunds",
      "outputs": [],
      "stateMutability": "payable",
      "type": "function"
    },
    {
      "inputs": [],
      "name": "avaxPrice",
      "outputs": [
        {
          "internalType": "uint256",
          "name": "",
          "type": "uint256"
        }
      ],
      "stateMutability": "view",
      "type": "function"
    },
    {
      "inputs": [
        {
          "internalType": "uint256",
          "name": "amount",
          "type": "uint256"
        }
      ],
      "name": "buyWithAvax",
      "outputs": [],
      "stateMutability": "payable",
      "type": "function"
    },
    {
      "inputs": [
        {
          "internalType": "uint256",
          "name": "amount",
          "type": "uint256"
        }
      ],
      "name": "buyWithHatchy",
      "outputs": [],
      "stateMutability": "nonpayable",
      "type": "function"
    },
    {
      "inputs": [
        {
          "internalType": "uint256",
          "name": "amount",
          "type": "uint256"
        }
      ],
      "name": "buyWithTicket",
      "outputs": [],
      "stateMutability": "nonpayable",
      "type": "function"
    },
    {
      "inputs": [],
      "name": "flipState",
      "outputs": [],
      "stateMutability": "nonpayable",
      "type": "function"
    },
    {
      "inputs": [],
      "name": "gen1Address",
      "outputs": [
        {
          "internalType": "address",
          "name": "",
          "type": "address"
        }
      ],
      "stateMutability": "view",
      "type": "function"
    },
    {
      "inputs": [],
      "name": "getHatchyTicketsContract",
      "outputs": [
        {
          "internalType": "address",
          "name": "",
          "type": "address"
        }
      ],
      "stateMutability": "view",
      "type": "function"
    },
    {
      "inputs": [],
      "name": "hatchyAddress",
      "outputs": [
        {
          "internalType": "address",
          "name": "",
          "type": "address"
        }
      ],
      "stateMutability": "view",
      "type": "function"
    },
    {
      "inputs": [],
      "name": "hatchyPrice",
      "outputs": [
        {
          "internalType": "uint256",
          "name": "",
          "type": "uint256"
        }
      ],
      "stateMutability": "view",
      "type": "function"
    },
    {
      "inputs": [
        {
          "internalType": "uint256",
          "name": "_avaxPrice",
          "type": "uint256"
        },
        {
          "internalType": "uint256",
          "name": "_hatchyPrice",
          "type": "uint256"
        },
        {
          "internalType": "address",
          "name": "_gen1Address",
          "type": "address"
        },
        {
          "internalType": "address",
          "name": "_hatchyAddress",
          "type": "address"
        }
      ],
      "name": "initialize",
      "outputs": [],
      "stateMutability": "nonpayable",
      "type": "function"
    },
    {
      "inputs": [],
      "name": "isActive",
      "outputs": [
        {
          "internalType": "bool",
          "name": "",
          "type": "bool"
        }
      ],
      "stateMutability": "view",
      "type": "function"
    },
    {
      "inputs": [
        {
          "internalType": "address",
          "name": "",
          "type": "address"
        },
        {
          "internalType": "address",
          "name": "",
          "type": "address"
        },
        {
          "internalType": "uint256",
          "name": "",
          "type": "uint256"
        },
        {
          "internalType": "bytes",
          "name": "",
          "type": "bytes"
        }
      ],
      "name": "onERC721Received",
      "outputs": [
        {
          "internalType": "bytes4",
          "name": "",
          "type": "bytes4"
        }
      ],
      "stateMutability": "nonpayable",
      "type": "function"
    },
    {
      "inputs": [],
      "name": "owner",
      "outputs": [
        {
          "internalType": "address",
          "name": "",
          "type": "address"
        }
      ],
      "stateMutability": "view",
      "type": "function"
    },
    {
      "inputs": [],
      "name": "renounceOwnership",
      "outputs": [],
      "stateMutability": "nonpayable",
      "type": "function"
    },
    {
      "inputs": [
        {
          "internalType": "uint256",
          "name": "_price",
          "type": "uint256"
        }
      ],
      "name": "setAvaxPrice",
      "outputs": [],
      "stateMutability": "nonpayable",
      "type": "function"
    },
    {
      "inputs": [
        {
          "internalType": "address",
          "name": "_address",
          "type": "address"
        }
      ],
      "name": "setGen1Address",
      "outputs": [],
      "stateMutability": "nonpayable",
      "type": "function"
    },
    {
      "inputs": [
        {
          "internalType": "address",
          "name": "_address",
          "type": "address"
        }
      ],
      "name": "setHatchyAddress",
      "outputs": [],
      "stateMutability": "nonpayable",
      "type": "function"
    },
    {
      "inputs": [
        {
          "internalType": "uint256",
          "name": "_price",
          "type": "uint256"
        }
      ],
      "name": "setHatchyPrice",
      "outputs": [],
      "stateMutability": "nonpayable",
      "type": "function"
    },
    {
      "inputs": [
        {
          "internalType": "address",
          "name": "_hatchyTickets",
          "type": "address"
        }
      ],
      "name": "setHatchyTicketsContract",
      "outputs": [],
      "stateMutability": "nonpayable",
      "type": "function"
    },
    {
      "inputs": [
        {
          "internalType": "address",
          "name": "newOwner",
          "type": "address"
        }
      ],
      "name": "transferOwnership",
      "outputs": [],
      "stateMutability": "nonpayable",
      "type": "function"
    },
    {
      "inputs": [],
      "name": "withdrawAvax",
      "outputs": [],
      "stateMutability": "nonpayable",
      "type": "function"
    },
    {
      "inputs": [],
      "name": "withdrawHatchy",
      "outputs": [],
      "stateMutability": "nonpayable",
      "type": "function"
    },
    {
      "stateMutability": "payable",
      "type": "receive"
    }
  ],
  "bytecode": "0x608060405234801561001057600080fd5b50611305806100206000396000f3fe6080604052600436106101445760003560e01c806385a71704116100b6578063a49b7a5e1161006f578063a49b7a5e14610386578063b4fad1b51461039b578063e712a048146103b0578063f2fde38b146103d0578063fd576114146103f0578063fd97ab741461041057610153565b806385a71704146102f35780638da5cb5b146103135780638e92035114610331578063954b03421461034657806396247a8e14610366578063a26759cb1461015357610153565b806327a34dbf1161010857806327a34dbf1461023557806343a7c30e14610255578063467a0d2f14610287578063529a2d8d1461029a5780635f95fa49146102be578063715018a6146102de57610153565b8063019e27291461015b578063068d4fcc1461017b578063150b7a021461019b5780631e07e55a146101e457806322f3e2d41461020457610153565b3661015357610151610426565b005b610151610426565b34801561016757600080fd5b50610151610176366004610fb4565b61045b565b34801561018757600080fd5b50610151610196366004610ffa565b6105c0565b3480156101a757600080fd5b506101c66101b6366004611063565b630a85bd0160e11b949350505050565b6040516001600160e01b031990911681526020015b60405180910390f35b3480156101f057600080fd5b506101516101ff366004610ffa565b6105ea565b34801561021057600080fd5b50609a5461022590600160a01b900460ff1681565b60405190151581526020016101db565b34801561024157600080fd5b50610151610250366004611123565b610614565b34801561026157600080fd5b50609b546001600160a01b03165b6040516001600160a01b0390911681526020016101db565b610151610295366004611123565b610621565b3480156102a657600080fd5b506102b060975481565b6040519081526020016101db565b3480156102ca57600080fd5b506101516102d9366004610ffa565b61069f565b3480156102ea57600080fd5b506101516106c9565b3480156102ff57600080fd5b5061015161030e366004611123565b6106dd565b34801561031f57600080fd5b506033546001600160a01b031661026f565b34801561033d57600080fd5b506101516107f3565b34801561035257600080fd5b50609a5461026f906001600160a01b031681565b34801561037257600080fd5b50610151610381366004611123565b61081c565b34801561039257600080fd5b506101516109b4565b3480156103a757600080fd5b50610151610af4565b3480156103bc57600080fd5b5060995461026f906001600160a01b031681565b3480156103dc57600080fd5b506101516103eb366004610ffa565b610b54565b3480156103fc57600080fd5b5061015161040b366004611123565b610bca565b34801561041c57600080fd5b506102b060985481565b6040513481527f5e7b5f7f93e42781a9409de40a40b733d65d7a883d83e26ae6bbb925cfede8bb9060200160405180910390a1565b600054610100900460ff161580801561047b5750600054600160ff909116105b806104955750303b158015610495575060005460ff166001145b6104fd5760405162461bcd60e51b815260206004820152602e60248201527f496e697469616c697a61626c653a20636f6e747261637420697320616c72656160448201526d191e481a5b9a5d1a585b1a5e995960921b60648201526084015b60405180910390fd5b6000805460ff191660011790558015610520576000805461ff0019166101001790555b610528610bd7565b610530610c06565b60978590556098849055609980546001600160a01b038086166001600160a01b031990921691909117909155609a80546001600160a81b03191691841691909117905580156105b9576000805461ff0019169055604051600181527f7f26b83ff96e1f2b6a682f133852f6798a09c465da95921460cefb38474024989060200160405180910390a15b5050505050565b6105c8610c2d565b609980546001600160a01b0319166001600160a01b0392909216919091179055565b6105f2610c2d565b609b80546001600160a01b0319166001600160a01b0392909216919091179055565b61061c610c2d565b609755565b8080609754610630919061113c565b3410156106695760405162461bcd60e51b81526020600482015260076024820152661b1bddd8985b1b60ca1b60448201526064016104f4565b609a54600160a01b900460ff166106925760405162461bcd60e51b81526004016104f490611169565b61069b82610c87565b5050565b6106a7610c2d565b609a80546001600160a01b0319166001600160a01b0392909216919091179055565b6106d1610c2d565b6106db6000610f16565b565b609a54600160a01b900460ff166107065760405162461bcd60e51b81526004016104f490611169565b609a546098546001600160a01b039091169060009061072690849061113c565b6040516323b872dd60e01b8152336004820152306024820152604481018290529091506001600160a01b038316906323b872dd906064016020604051808303816000875af115801561077c573d6000803e3d6000fd5b505050506040513d601f19601f820116820180604052508101906107a0919061118d565b6107e55760405162461bcd60e51b815260206004820152601660248201527512185d18da1e481d1c985b9cd9995c8819985a5b195960521b60448201526064016104f4565b6107ee83610c87565b505050565b6107fb610c2d565b609a805460ff60a01b198116600160a01b9182900460ff1615909102179055565b609a54600160a01b900460ff166108455760405162461bcd60e51b81526004016104f490611169565b609b54604051627eeac760e11b81523360048201526002602482015282916001600160a01b03169062fdd58e90604401602060405180830381865afa158015610892573d6000803e3d6000fd5b505050506040513d601f19601f820116820180604052508101906108b691906111af565b10156108f95760405162461bcd60e51b81526020600482015260126024820152714e6f7420656e6f756768207469636b65747360701b60448201526064016104f4565b609b546001600160a01b031663f242432a3361091d6033546001600160a01b031690565b6040516001600160e01b031960e085901b1681526001600160a01b03928316600482015291166024820152600260448201526064810184905260a06084820152600660a48201526572656465656d60d01b60c482015260e401600060405180830381600087803b15801561099057600080fd5b505af11580156109a4573d6000803e3d6000fd5b505050506109b181610c87565b50565b6109bc610c2d565b609a546001600160a01b03168063a9059cbb6109e06033546001600160a01b031690565b6040516370a0823160e01b81523060048201526001600160a01b038516906370a0823190602401602060405180830381865afa158015610a24573d6000803e3d6000fd5b505050506040513d601f19601f82011682018060405250810190610a4891906111af565b6040516001600160e01b031960e085901b1681526001600160a01b03909216600483015260248201526044016020604051808303816000875af1158015610a93573d6000803e3d6000fd5b505050506040513d601f19601f82011682018060405250810190610ab7919061118d565b6109b15760405162461bcd60e51b815260206004820152600e60248201526d3a3930b739b332b91032b93937b960911b60448201526064016104f4565b610afc610c2d565b6033546040516001600160a01b03909116904780156108fc02916000818181858888f193505050506106db5760405162461bcd60e51b81526020600482015260016024820152603f60f81b60448201526064016104f4565b610b5c610c2d565b6001600160a01b038116610bc15760405162461bcd60e51b815260206004820152602660248201527f4f776e61626c653a206e6577206f776e657220697320746865207a65726f206160448201526564647265737360d01b60648201526084016104f4565b6109b181610f16565b610bd2610c2d565b609855565b600054610100900460ff16610bfe5760405162461bcd60e51b81526004016104f4906111c8565b6106db610f68565b600054610100900460ff166106db5760405162461bcd60e51b81526004016104f4906111c8565b6033546001600160a01b031633146106db5760405162461bcd60e51b815260206004820181905260248201527f4f776e61626c653a2063616c6c6572206973206e6f7420746865206f776e657260448201526064016104f4565b6099546040805163d348b40960e01b815290516001600160a01b0390921691600091839163d348b409916004808201926020929091908290030181865afa158015610cd6573d6000803e3d6000fd5b505050506040513d601f19601f82011682018060405250810190610cfa91906111af565b90506000610d08848361113c565b905080471015610d465760405162461bcd60e51b81526020600482015260096024820152686c6f772066756e647360b81b60448201526064016104f4565b604051638e0712c160e01b8152600481018590526001600160a01b03841690638e0712c19083906024016000604051808303818588803b158015610d8957600080fd5b505af1158015610d9d573d6000803e3d6000fd5b5050604051632118854760e21b8152306004820152600093506001600160a01b0387169250638462151c9150602401600060405180830381865afa158015610de9573d6000803e3d6000fd5b505050506040513d6000823e601f3d908101601f19168201604052610e119190810190611213565b905060005b8151811015610f0e57846001600160a01b03166323b872dd3033858581518110610e4257610e426112b9565b60209081029190910101516040516001600160e01b031960e086901b1681526001600160a01b0393841660048201529290911660248301526044820152606401600060405180830381600087803b158015610e9c57600080fd5b505af1158015610eb0573d6000803e3d6000fd5b505050507ff47eabb74eb60ba5c6697a1f65e319d5d0f0c9d7c526addf5103df6acf73efea828281518110610ee757610ee76112b9565b6020026020010151604051610efe91815260200190565b60405180910390a1600101610e16565b505050505050565b603380546001600160a01b038381166001600160a01b0319831681179093556040519116919082907f8be0079c531659141344cd1fd0a4f28419497f9722a3daafe3b4186f6b6457e090600090a35050565b600054610100900460ff16610f8f5760405162461bcd60e51b81526004016104f4906111c8565b6106db33610f16565b80356001600160a01b0381168114610faf57600080fd5b919050565b60008060008060808587031215610fca57600080fd5b8435935060208501359250610fe160408601610f98565b9150610fef60608601610f98565b905092959194509250565b60006020828403121561100c57600080fd5b61101582610f98565b9392505050565b634e487b7160e01b600052604160045260246000fd5b604051601f8201601f1916810167ffffffffffffffff8111828210171561105b5761105b61101c565b604052919050565b6000806000806080858703121561107957600080fd5b61108285610f98565b93506020611091818701610f98565b935060408601359250606086013567ffffffffffffffff808211156110b557600080fd5b818801915088601f8301126110c957600080fd5b8135818111156110db576110db61101c565b6110ed601f8201601f19168501611032565b9150808252898482850101111561110357600080fd5b808484018584013760008482840101525080935050505092959194509250565b60006020828403121561113557600080fd5b5035919050565b600081600019048311821515161561116457634e487b7160e01b600052601160045260246000fd5b500290565b6020808252600a90820152696e6f742061637469766560b01b604082015260600190565b60006020828403121561119f57600080fd5b8151801515811461101557600080fd5b6000602082840312156111c157600080fd5b5051919050565b6020808252602b908201527f496e697469616c697a61626c653a20636f6e7472616374206973206e6f74206960408201526a6e697469616c697a696e6760a81b606082015260800190565b6000602080838503121561122657600080fd5b825167ffffffffffffffff8082111561123e57600080fd5b818501915085601f83011261125257600080fd5b8151818111156112645761126461101c565b8060051b9150611275848301611032565b818152918301840191848101908884111561128f57600080fd5b938501935b838510156112ad57845182529385019390850190611294565b98975050505050505050565b634e487b7160e01b600052603260045260246000fdfea264697066735822122027c32ef86c86e997dacc4089ba926a7fbfd03565388e13541adb74d04d0bfc1364736f6c634300080f0033",
  "linkReferences": {},
  "deployedLinkReferences": {}
}