{
  "_format": "hh-sol-artifact-1",
  "contractName": "HatchySalary",
  "sourceName": "contracts/HatchySalary.sol",
  "abi": [
    {
      "anonymous": false,
      "inputs": [
        {
          "indexed": false,
          "internalType": "address",
          "name": "previousAdmin",
          "type": "address"
        },
        {
          "indexed": false,
          "internalType": "address",
          "name": "newAdmin",
          "type": "address"
        }
      ],
      "name": "AdminChanged",
      "type": "event"
    },
    {
      "anonymous": false,
      "inputs": [
        {
          "indexed": true,
          "internalType": "address",
          "name": "beacon",
          "type": "address"
        }
      ],
      "name": "BeaconUpgraded",
      "type": "event"
    },
    {
      "anonymous": false,
      "inputs": [
        {
          "indexed": true,
          "internalType": "address",
          "name": "_address",
          "type": "address"
        },
        {
          "indexed": false,
          "internalType": "uint256",
          "name": "_amount",
          "type": "uint256"
        }
      ],
      "name": "ClaimSalary",
      "type": "event"
    },
    {
      "anonymous": false,
      "inputs": [
        {
          "indexed": false,
          "internalType": "uint8",
          "name": "version",
          "type": "uint8"
        }
      ],
      "name": "Initialized",
      "type": "event"
    },
    {
      "anonymous": false,
      "inputs": [
        {
          "indexed": true,
          "internalType": "address",
          "name": "previousOwner",
          "type": "address"
        },
        {
          "indexed": true,
          "internalType": "address",
          "name": "newOwner",
          "type": "address"
        }
      ],
      "name": "OwnershipTransferred",
      "type": "event"
    },
    {
      "anonymous": false,
      "inputs": [
        {
          "indexed": true,
          "internalType": "address",
          "name": "implementation",
          "type": "address"
        }
      ],
      "name": "Upgraded",
      "type": "event"
    },
    {
      "inputs": [],
      "name": "HATCHY",
      "outputs": [
        {
          "internalType": "contract IERC20",
          "name": "",
          "type": "address"
        }
      ],
      "stateMutability": "view",
      "type": "function"
    },
    {
      "inputs": [
        {
          "components": [
            {
              "internalType": "address",
              "name": "_address",
              "type": "address"
            },
            {
              "internalType": "uint256",
              "name": "amount",
              "type": "uint256"
            },
            {
              "internalType": "uint256",
              "name": "cycleHours",
              "type": "uint256"
            },
            {
              "internalType": "uint256",
              "name": "role",
              "type": "uint256"
            },
            {
              "internalType": "uint256",
              "name": "group",
              "type": "uint256"
            }
          ],
          "internalType": "struct HatchySalary.AddMemberData[]",
          "name": "_data",
          "type": "tuple[]"
        }
      ],
      "name": "addMembers",
      "outputs": [],
      "stateMutability": "nonpayable",
      "type": "function"
    },
    {
      "inputs": [
        {
          "internalType": "address",
          "name": "_address",
          "type": "address"
        }
      ],
      "name": "calculateLifetimeSalary",
      "outputs": [
        {
          "internalType": "uint256",
          "name": "",
          "type": "uint256"
        }
      ],
      "stateMutability": "view",
      "type": "function"
    },
    {
      "inputs": [],
      "name": "claimSalary",
      "outputs": [],
      "stateMutability": "nonpayable",
      "type": "function"
    },
    {
      "inputs": [
        {
          "internalType": "uint256",
          "name": "_index",
          "type": "uint256"
        }
      ],
      "name": "getMember",
      "outputs": [
        {
          "internalType": "address",
          "name": "",
          "type": "address"
        }
      ],
      "stateMutability": "view",
      "type": "function"
    },
    {
      "inputs": [],
      "name": "getMembersLength",
      "outputs": [
        {
          "internalType": "uint256",
          "name": "",
          "type": "uint256"
        }
      ],
      "stateMutability": "view",
      "type": "function"
    },
    {
      "inputs": [],
      "name": "getTokensBack",
      "outputs": [],
      "stateMutability": "nonpayable",
      "type": "function"
    },
    {
      "inputs": [
        {
          "internalType": "address",
          "name": "_hatchyToken",
          "type": "address"
        }
      ],
      "name": "initialize",
      "outputs": [],
      "stateMutability": "nonpayable",
      "type": "function"
    },
    {
      "inputs": [
        {
          "internalType": "address",
          "name": "_address",
          "type": "address"
        }
      ],
      "name": "isMember",
      "outputs": [
        {
          "internalType": "bool",
          "name": "",
          "type": "bool"
        }
      ],
      "stateMutability": "view",
      "type": "function"
    },
    {
      "inputs": [],
      "name": "owner",
      "outputs": [
        {
          "internalType": "address",
          "name": "",
          "type": "address"
        }
      ],
      "stateMutability": "view",
      "type": "function"
    },
    {
      "inputs": [],
      "name": "paused",
      "outputs": [
        {
          "internalType": "bool",
          "name": "",
          "type": "bool"
        }
      ],
      "stateMutability": "view",
      "type": "function"
    },
    {
      "inputs": [],
      "name": "proxiableUUID",
      "outputs": [
        {
          "internalType": "bytes32",
          "name": "",
          "type": "bytes32"
        }
      ],
      "stateMutability": "view",
      "type": "function"
    },
    {
      "inputs": [
        {
          "internalType": "address[]",
          "name": "_addresses",
          "type": "address[]"
        }
      ],
      "name": "removeMembers",
      "outputs": [],
      "stateMutability": "nonpayable",
      "type": "function"
    },
    {
      "inputs": [],
      "name": "renounceOwnership",
      "outputs": [],
      "stateMutability": "nonpayable",
      "type": "function"
    },
    {
      "inputs": [
        {
          "internalType": "address",
          "name": "",
          "type": "address"
        }
      ],
      "name": "salaries",
      "outputs": [
        {
          "internalType": "uint256",
          "name": "claimDate",
          "type": "uint256"
        },
        {
          "internalType": "uint256",
          "name": "salaryAmount",
          "type": "uint256"
        },
        {
          "internalType": "uint256",
          "name": "claimedAmount",
          "type": "uint256"
        },
        {
          "internalType": "uint256",
          "name": "salaryCycle",
          "type": "uint256"
        },
        {
          "internalType": "uint256",
          "name": "role",
          "type": "uint256"
        },
        {
          "internalType": "uint256",
          "name": "group",
          "type": "uint256"
        }
      ],
      "stateMutability": "view",
      "type": "function"
    },
    {
      "inputs": [
        {
          "internalType": "address",
          "name": "newOwner",
          "type": "address"
        }
      ],
      "name": "transferOwnership",
      "outputs": [],
      "stateMutability": "nonpayable",
      "type": "function"
    },
    {
      "inputs": [
        {
          "internalType": "address",
          "name": "_address",
          "type": "address"
        },
        {
          "internalType": "uint256",
          "name": "_role",
          "type": "uint256"
        },
        {
          "internalType": "uint256",
          "name": "_group",
          "type": "uint256"
        }
      ],
      "name": "updateMemberRole",
      "outputs": [],
      "stateMutability": "nonpayable",
      "type": "function"
    },
    {
      "inputs": [
        {
          "internalType": "address",
          "name": "_address",
          "type": "address"
        },
        {
          "internalType": "uint256",
          "name": "_amount",
          "type": "uint256"
        },
        {
          "internalType": "uint256",
          "name": "cycleHours",
          "type": "uint256"
        }
      ],
      "name": "updateMemberSalary",
      "outputs": [],
      "stateMutability": "nonpayable",
      "type": "function"
    },
    {
      "inputs": [
        {
          "internalType": "address",
          "name": "newImplementation",
          "type": "address"
        }
      ],
      "name": "upgradeTo",
      "outputs": [],
      "stateMutability": "nonpayable",
      "type": "function"
    },
    {
      "inputs": [
        {
          "internalType": "address",
          "name": "newImplementation",
          "type": "address"
        },
        {
          "internalType": "bytes",
          "name": "data",
          "type": "bytes"
        }
      ],
      "name": "upgradeToAndCall",
      "outputs": [],
      "stateMutability": "payable",
      "type": "function"
    }
  ],
  "bytecode": "0x60a06040523060805234801561001457600080fd5b50608051611bed61004c600039600081816103ff01528181610448015281816105f30152818161063301526106c60152611bed6000f3fe60806040526004361061011f5760003560e01c8063a230c524116100a0578063d7b92d4511610064578063d7b92d451461036b578063dc054a5c14610380578063f2fde38b146103a0578063f4ff4b25146103c0578063fc53c821146103e057600080fd5b8063a230c524146102cb578063a93c23a1146102eb578063ab3545e51461030b578063c4d66de81461032b578063c810f8af1461034b57600080fd5b80635c975abb116100e75780635c975abb1461021e578063715018a61461024f5780637d851c70146102645780638da5cb5b1461027957806393d2abd0146102ab57600080fd5b80633659cfe61461012457806346ee84b0146101465780634f1ef28614610166578063518c9f5b1461017957806352d1902d146101fb575b600080fd5b34801561013057600080fd5b5061014461013f3660046116f5565b6103f5565b005b34801561015257600080fd5b50610144610161366004611710565b6104dd565b61014461017436600461179b565b6105e9565b34801561018557600080fd5b506101c96101943660046116f5565b60fe60205260009081526040902080546001820154600283015460038401546004850154600590950154939492939192909186565b604080519687526020870195909552938501929092526060840152608083015260a082015260c0015b60405180910390f35b34801561020757600080fd5b506102106106b9565b6040519081526020016101f2565b34801561022a57600080fd5b5060fb5461023f90600160a01b900460ff1681565b60405190151581526020016101f2565b34801561025b57600080fd5b5061014461076c565b34801561027057600080fd5b50610144610780565b34801561028557600080fd5b5060c9546001600160a01b03165b6040516001600160a01b0390911681526020016101f2565b3480156102b757600080fd5b5060fb54610293906001600160a01b031681565b3480156102d757600080fd5b5061023f6102e63660046116f5565b61088f565b3480156102f757600080fd5b5061014461030636600461185d565b6108a2565b34801561031757600080fd5b50610293610326366004611890565b610900565b34801561033757600080fd5b506101446103463660046116f5565b61090d565b34801561035757600080fd5b506102106103663660046116f5565b610a41565b34801561037757600080fd5b50610144610b07565b34801561038c57600080fd5b5061014461039b36600461185d565b610cf4565b3480156103ac57600080fd5b506101446103bb3660046116f5565b610d23565b3480156103cc57600080fd5b506101446103db3660046118a9565b610d99565b3480156103ec57600080fd5b50610210610f87565b6001600160a01b037f00000000000000000000000000000000000000000000000000000000000000001630036104465760405162461bcd60e51b815260040161043d9061190c565b60405180910390fd5b7f00000000000000000000000000000000000000000000000000000000000000006001600160a01b031661048f600080516020611b71833981519152546001600160a01b031690565b6001600160a01b0316146104b55760405162461bcd60e51b815260040161043d90611958565b6104be81610f98565b604080516000808252602082019092526104da91839190610fa0565b50565b6104e561110b565b60005b818110156105e4576040518060c001604052806000815260200160008152602001600081526020016000815260200160008152602001600081525060fe6000858585818110610539576105396119a4565b905060200201602081019061054e91906116f5565b6001600160a01b031681526020808201929092526040908101600020835181559183015160018301558201516002820155606082015160038201556080820151600482015560a0909101516005909101556105d18383838181106105b4576105b46119a4565b90506020020160208101906105c991906116f5565b60fc90611165565b50806105dc816119d0565b9150506104e8565b505050565b6001600160a01b037f00000000000000000000000000000000000000000000000000000000000000001630036106315760405162461bcd60e51b815260040161043d9061190c565b7f00000000000000000000000000000000000000000000000000000000000000006001600160a01b031661067a600080516020611b71833981519152546001600160a01b031690565b6001600160a01b0316146106a05760405162461bcd60e51b815260040161043d90611958565b6106a982610f98565b6106b582826001610fa0565b5050565b6000306001600160a01b037f000000000000000000000000000000000000000000000000000000000000000016146107595760405162461bcd60e51b815260206004820152603860248201527f555550535570677261646561626c653a206d757374206e6f742062652063616c60448201527f6c6564207468726f7567682064656c656761746563616c6c0000000000000000606482015260840161043d565b50600080516020611b7183398151915290565b61077461110b565b61077e6000611181565b565b61078861110b565b60fb546001600160a01b031663a9059cbb6107ab60c9546001600160a01b031690565b60fb546040516370a0823160e01b81523060048201526001600160a01b03909116906370a0823190602401602060405180830381865afa1580156107f3573d6000803e3d6000fd5b505050506040513d601f19601f8201168201806040525081019061081791906119e9565b6040516001600160e01b031960e085901b1681526001600160a01b03909216600483015260248201526044016020604051808303816000875af1158015610862573d6000803e3d6000fd5b505050506040513d601f19601f820116820180604052508101906108869190611a02565b61077e57600080fd5b600061089c60fc836111d3565b92915050565b6108aa61110b565b6001600160a01b038316600090815260fe6020526040812042815560018101849055600201556108dc81610e10611a24565b6001600160a01b03909316600090815260fe60205260409020600301929092555050565b600061089c60fc836111f5565b600054610100900460ff161580801561092d5750600054600160ff909116105b806109475750303b158015610947575060005460ff166001145b6109aa5760405162461bcd60e51b815260206004820152602e60248201527f496e697469616c697a61626c653a20636f6e747261637420697320616c72656160448201526d191e481a5b9a5d1a585b1a5e995960921b606482015260840161043d565b6000805460ff1916600117905580156109cd576000805461ff0019166101001790555b6109d5611201565b6109dd611230565b60fb80546001600160a01b0319166001600160a01b03841617905580156106b5576000805461ff0019169055604051600181527f7f26b83ff96e1f2b6a682f133852f6798a09c465da95921460cefb38474024989060200160405180910390a15050565b6000610a4e60fc836111d3565b610a895760405162461bcd60e51b815260206004820152600c60248201526b6f6e6c79206d656d6265727360a01b604482015260640161043d565b6001600160a01b038216600090815260fe6020526040812054610aac9042611a43565b6001600160a01b038416600090815260fe602052604081206003015491925090610ad69083611a5a565b6001600160a01b038516600090815260fe6020526040902060010154909150610aff9082611a24565b949350505050565b60fb54600160a01b900460ff1615610b4e5760405162461bcd60e51b815260206004820152600a6024820152696f6e6c7941637469766560b01b604482015260640161043d565b610b5960fc336111d3565b610b945760405162461bcd60e51b815260206004820152600c60248201526b6f6e6c79206d656d6265727360a01b604482015260640161043d565b610b9c61125f565b33600081815260fe6020526040812060020154918290610bbb90610a41565b610bc59190611a43565b905060008111610c0f5760405162461bcd60e51b81526020600482015260156024820152741b9bc81cd85b185c9e481858d8dd5b5d5b185d1959605a1b604482015260640161043d565b33600090815260fe602052604081206002018054839290610c31908490611a7c565b909155505060fb5460405163a9059cbb60e01b8152336004820152602481018390526001600160a01b039091169063a9059cbb906044016020604051808303816000875af1158015610c87573d6000803e3d6000fd5b505050506040513d601f19601f82011682018060405250810190610cab9190611a02565b610cb457600080fd5b60405181815233907f7f068cd971c8d0ea63418790c7d20fa2057598f48f1821f28e65df40458ef2bc9060200160405180910390a2505061077e60018055565b610cfc61110b565b6001600160a01b03909216600090815260fe60205260409020600481019190915560050155565b610d2b61110b565b6001600160a01b038116610d905760405162461bcd60e51b815260206004820152602660248201527f4f776e61626c653a206e6577206f776e657220697320746865207a65726f206160448201526564647265737360d01b606482015260840161043d565b6104da81611181565b610da161110b565b60005b818110156105e457610ddf838383818110610dc157610dc16119a4565b610dd792602060a09092020190810191506116f5565b60fc906111d3565b15610e1d5760405162461bcd60e51b815260206004820152600e60248201526d30b63932b0b23c9036b2b6b132b960911b604482015260640161043d565b6040518060c00160405280428152602001848484818110610e4057610e406119a4565b905060a0020160200135815260200160008152602001848484818110610e6857610e686119a4565b905060a0020160400135610e10610e7f9190611a24565b8152602001848484818110610e9657610e966119a4565b905060a00201606001358152602001848484818110610eb757610eb76119a4565b905060a002016080013581525060fe6000858585818110610eda57610eda6119a4565b610ef092602060a09092020190810191506116f5565b6001600160a01b031681526020808201929092526040908101600020835181559183015160018301558201516002820155606082015160038201556080820151600482015560a090910151600590910155610f74838383818110610f5657610f566119a4565b610f6c92602060a09092020190810191506116f5565b60fc906112be565b5080610f7f816119d0565b915050610da4565b6000610f9360fc6112d3565b905090565b6104da61110b565b7f4910fdfa16fed3260ed0e7147f7cc6da11a60208b5b9406d12a635614ffd91435460ff1615610fd3576105e4836112dd565b826001600160a01b03166352d1902d6040518163ffffffff1660e01b8152600401602060405180830381865afa92505050801561102d575060408051601f3d908101601f1916820190925261102a918101906119e9565b60015b6110905760405162461bcd60e51b815260206004820152602e60248201527f45524331393637557067726164653a206e657720696d706c656d656e7461746960448201526d6f6e206973206e6f74205555505360901b606482015260840161043d565b600080516020611b7183398151915281146110ff5760405162461bcd60e51b815260206004820152602960248201527f45524331393637557067726164653a20756e737570706f727465642070726f786044820152681a58589b195555525160ba1b606482015260840161043d565b506105e4838383611379565b60c9546001600160a01b0316331461077e5760405162461bcd60e51b815260206004820181905260248201527f4f776e61626c653a2063616c6c6572206973206e6f7420746865206f776e6572604482015260640161043d565b600061117a836001600160a01b0384166113a4565b9392505050565b60c980546001600160a01b038381166001600160a01b0319831681179093556040519116919082907f8be0079c531659141344cd1fd0a4f28419497f9722a3daafe3b4186f6b6457e090600090a35050565b6001600160a01b0381166000908152600183016020526040812054151561117a565b600061117a8383611497565b600054610100900460ff166112285760405162461bcd60e51b815260040161043d90611a94565b61077e6114c1565b600054610100900460ff166112575760405162461bcd60e51b815260040161043d90611a94565b61077e6114f1565b6002600154036112b15760405162461bcd60e51b815260206004820152601f60248201527f5265656e7472616e637947756172643a207265656e7472616e742063616c6c00604482015260640161043d565b6002600155565b60018055565b600061117a836001600160a01b038416611518565b600061089c825490565b6001600160a01b0381163b61134a5760405162461bcd60e51b815260206004820152602d60248201527f455243313936373a206e657720696d706c656d656e746174696f6e206973206e60448201526c1bdd08184818dbdb9d1c9858dd609a1b606482015260840161043d565b600080516020611b7183398151915280546001600160a01b0319166001600160a01b0392909216919091179055565b61138283611567565b60008251118061138f5750805b156105e45761139e83836115a7565b50505050565b6000818152600183016020526040812054801561148d5760006113c8600183611a43565b85549091506000906113dc90600190611a43565b90508181146114415760008660000182815481106113fc576113fc6119a4565b906000526020600020015490508087600001848154811061141f5761141f6119a4565b6000918252602080832090910192909255918252600188019052604090208390555b855486908061145257611452611adf565b60019003818190600052602060002001600090559055856001016000868152602001908152602001600020600090556001935050505061089c565b600091505061089c565b60008260000182815481106114ae576114ae6119a4565b9060005260206000200154905092915050565b600054610100900460ff166114e85760405162461bcd60e51b815260040161043d90611a94565b61077e33611181565b600054610100900460ff166112b85760405162461bcd60e51b815260040161043d90611a94565b600081815260018301602052604081205461155f5750815460018181018455600084815260208082209093018490558454848252828601909352604090209190915561089c565b50600061089c565b611570816112dd565b6040516001600160a01b038216907fbc7cd75a20ee27fd9adebab32041f755214dbc6bffa90cc0225b39da2e5c2d3b90600090a250565b60606001600160a01b0383163b61160f5760405162461bcd60e51b815260206004820152602660248201527f416464726573733a2064656c65676174652063616c6c20746f206e6f6e2d636f6044820152651b9d1c9858dd60d21b606482015260840161043d565b600080846001600160a01b03168460405161162a9190611b21565b600060405180830381855af49150503d8060008114611665576040519150601f19603f3d011682016040523d82523d6000602084013e61166a565b606091505b50915091506116928282604051806060016040528060278152602001611b916027913961169b565b95945050505050565b606083156116aa57508161117a565b61117a83838151156116bf5781518083602001fd5b8060405162461bcd60e51b815260040161043d9190611b3d565b80356001600160a01b03811681146116f057600080fd5b919050565b60006020828403121561170757600080fd5b61117a826116d9565b6000806020838503121561172357600080fd5b823567ffffffffffffffff8082111561173b57600080fd5b818501915085601f83011261174f57600080fd5b81358181111561175e57600080fd5b8660208260051b850101111561177357600080fd5b60209290920196919550909350505050565b634e487b7160e01b600052604160045260246000fd5b600080604083850312156117ae57600080fd5b6117b7836116d9565b9150602083013567ffffffffffffffff808211156117d457600080fd5b818501915085601f8301126117e857600080fd5b8135818111156117fa576117fa611785565b604051601f8201601f19908116603f0116810190838211818310171561182257611822611785565b8160405282815288602084870101111561183b57600080fd5b8260208601602083013760006020848301015280955050505050509250929050565b60008060006060848603121561187257600080fd5b61187b846116d9565b95602085013595506040909401359392505050565b6000602082840312156118a257600080fd5b5035919050565b600080602083850312156118bc57600080fd5b823567ffffffffffffffff808211156118d457600080fd5b818501915085601f8301126118e857600080fd5b8135818111156118f757600080fd5b86602060a08302850101111561177357600080fd5b6020808252602c908201527f46756e6374696f6e206d7573742062652063616c6c6564207468726f7567682060408201526b19195b1959d85d1958d85b1b60a21b606082015260800190565b6020808252602c908201527f46756e6374696f6e206d7573742062652063616c6c6564207468726f7567682060408201526b6163746976652070726f787960a01b606082015260800190565b634e487b7160e01b600052603260045260246000fd5b634e487b7160e01b600052601160045260246000fd5b6000600182016119e2576119e26119ba565b5060010190565b6000602082840312156119fb57600080fd5b5051919050565b600060208284031215611a1457600080fd5b8151801515811461117a57600080fd5b6000816000190483118215151615611a3e57611a3e6119ba565b500290565b600082821015611a5557611a556119ba565b500390565b600082611a7757634e487b7160e01b600052601260045260246000fd5b500490565b60008219821115611a8f57611a8f6119ba565b500190565b6020808252602b908201527f496e697469616c697a61626c653a20636f6e7472616374206973206e6f74206960408201526a6e697469616c697a696e6760a81b606082015260800190565b634e487b7160e01b600052603160045260246000fd5b60005b83811015611b10578181015183820152602001611af8565b8381111561139e5750506000910152565b60008251611b33818460208701611af5565b9190910192915050565b6020815260008251806020840152611b5c816040850160208701611af5565b601f01601f1916919091016040019291505056fe360894a13ba1a3210667c828492db98dca3e2076cc3735a920a3ca505d382bbc416464726573733a206c6f772d6c6576656c2064656c65676174652063616c6c206661696c6564a2646970667358221220c9a74a26c5fb0daa65aa1531db2c7ab7ca42c3abc2e19be636a2f61bdeb68fb064736f6c634300080f0033",
  "linkReferences": {},
  "deployedLinkReferences": {}
}