{
  "_format": "hh-sol-artifact-1",
  "contractName": "HatchyLPStake",
  "sourceName": "contracts/HatchyLPStake.sol",
  "abi": [
    {
      "anonymous": false,
      "inputs": [
        {
          "indexed": true,
          "internalType": "address",
          "name": "user",
          "type": "address"
        },
        {
          "indexed": false,
          "internalType": "uint256",
          "name": "amount",
          "type": "uint256"
        }
      ],
      "name": "Deposit",
      "type": "event"
    },
    {
      "anonymous": false,
      "inputs": [
        {
          "indexed": true,
          "internalType": "address",
          "name": "user",
          "type": "address"
        },
        {
          "indexed": false,
          "internalType": "uint256",
          "name": "amount",
          "type": "uint256"
        }
      ],
      "name": "EmergencyWithdraw",
      "type": "event"
    },
    {
      "anonymous": false,
      "inputs": [
        {
          "indexed": false,
          "internalType": "uint8",
          "name": "version",
          "type": "uint8"
        }
      ],
      "name": "Initialized",
      "type": "event"
    },
    {
      "anonymous": false,
      "inputs": [
        {
          "indexed": true,
          "internalType": "address",
          "name": "previousOwner",
          "type": "address"
        },
        {
          "indexed": true,
          "internalType": "address",
          "name": "newOwner",
          "type": "address"
        }
      ],
      "name": "OwnershipTransferred",
      "type": "event"
    },
    {
      "anonymous": false,
      "inputs": [
        {
          "indexed": true,
          "internalType": "address",
          "name": "user",
          "type": "address"
        },
        {
          "indexed": false,
          "internalType": "uint256",
          "name": "amount",
          "type": "uint256"
        }
      ],
      "name": "Withdraw",
      "type": "event"
    },
    {
      "inputs": [],
      "name": "BONUS_MULTIPLIER",
      "outputs": [
        {
          "internalType": "uint256",
          "name": "",
          "type": "uint256"
        }
      ],
      "stateMutability": "view",
      "type": "function"
    },
    {
      "inputs": [],
      "name": "DIVIDER",
      "outputs": [
        {
          "internalType": "uint256",
          "name": "",
          "type": "uint256"
        }
      ],
      "stateMutability": "view",
      "type": "function"
    },
    {
      "inputs": [],
      "name": "accHatchyPerShare",
      "outputs": [
        {
          "internalType": "uint256",
          "name": "",
          "type": "uint256"
        }
      ],
      "stateMutability": "view",
      "type": "function"
    },
    {
      "inputs": [],
      "name": "allocPoint",
      "outputs": [
        {
          "internalType": "uint256",
          "name": "",
          "type": "uint256"
        }
      ],
      "stateMutability": "view",
      "type": "function"
    },
    {
      "inputs": [],
      "name": "claim",
      "outputs": [],
      "stateMutability": "nonpayable",
      "type": "function"
    },
    {
      "inputs": [
        {
          "internalType": "uint256",
          "name": "_amount",
          "type": "uint256"
        }
      ],
      "name": "deposit",
      "outputs": [],
      "stateMutability": "nonpayable",
      "type": "function"
    },
    {
      "inputs": [],
      "name": "emergencyWithdraw",
      "outputs": [],
      "stateMutability": "nonpayable",
      "type": "function"
    },
    {
      "inputs": [],
      "name": "hatchy",
      "outputs": [
        {
          "internalType": "contract IERC20",
          "name": "",
          "type": "address"
        }
      ],
      "stateMutability": "view",
      "type": "function"
    },
    {
      "inputs": [],
      "name": "hatchyPerBlock",
      "outputs": [
        {
          "internalType": "uint256",
          "name": "",
          "type": "uint256"
        }
      ],
      "stateMutability": "view",
      "type": "function"
    },
    {
      "inputs": [
        {
          "internalType": "contract IERC20",
          "name": "_hatchy",
          "type": "address"
        },
        {
          "internalType": "contract IERC20",
          "name": "_lpToken",
          "type": "address"
        },
        {
          "internalType": "uint256",
          "name": "_hatchyPerBlock",
          "type": "uint256"
        },
        {
          "internalType": "uint256",
          "name": "_startBlock",
          "type": "uint256"
        }
      ],
      "name": "initialize",
      "outputs": [],
      "stateMutability": "nonpayable",
      "type": "function"
    },
    {
      "inputs": [],
      "name": "lastRewardBlock",
      "outputs": [
        {
          "internalType": "uint256",
          "name": "",
          "type": "uint256"
        }
      ],
      "stateMutability": "view",
      "type": "function"
    },
    {
      "inputs": [],
      "name": "lpToken",
      "outputs": [
        {
          "internalType": "contract IERC20",
          "name": "",
          "type": "address"
        }
      ],
      "stateMutability": "view",
      "type": "function"
    },
    {
      "inputs": [],
      "name": "lpTokenSupply",
      "outputs": [
        {
          "internalType": "uint256",
          "name": "",
          "type": "uint256"
        }
      ],
      "stateMutability": "view",
      "type": "function"
    },
    {
      "inputs": [],
      "name": "owner",
      "outputs": [
        {
          "internalType": "address",
          "name": "",
          "type": "address"
        }
      ],
      "stateMutability": "view",
      "type": "function"
    },
    {
      "inputs": [
        {
          "internalType": "address",
          "name": "_user",
          "type": "address"
        }
      ],
      "name": "pendingReward",
      "outputs": [
        {
          "internalType": "uint256",
          "name": "",
          "type": "uint256"
        },
        {
          "internalType": "uint256",
          "name": "",
          "type": "uint256"
        }
      ],
      "stateMutability": "view",
      "type": "function"
    },
    {
      "inputs": [],
      "name": "renounceOwnership",
      "outputs": [],
      "stateMutability": "nonpayable",
      "type": "function"
    },
    {
      "inputs": [
        {
          "internalType": "uint256",
          "name": "_allocPoint",
          "type": "uint256"
        }
      ],
      "name": "set",
      "outputs": [],
      "stateMutability": "nonpayable",
      "type": "function"
    },
    {
      "inputs": [
        {
          "internalType": "address",
          "name": "_hatchy",
          "type": "address"
        }
      ],
      "name": "setHatchy",
      "outputs": [],
      "stateMutability": "nonpayable",
      "type": "function"
    },
    {
      "inputs": [],
      "name": "startBlock",
      "outputs": [
        {
          "internalType": "uint256",
          "name": "",
          "type": "uint256"
        }
      ],
      "stateMutability": "view",
      "type": "function"
    },
    {
      "inputs": [],
      "name": "totalAllocPoint",
      "outputs": [
        {
          "internalType": "uint256",
          "name": "",
          "type": "uint256"
        }
      ],
      "stateMutability": "view",
      "type": "function"
    },
    {
      "inputs": [
        {
          "internalType": "address",
          "name": "newOwner",
          "type": "address"
        }
      ],
      "name": "transferOwnership",
      "outputs": [],
      "stateMutability": "nonpayable",
      "type": "function"
    },
    {
      "inputs": [
        {
          "internalType": "uint256",
          "name": "multiplierNumber",
          "type": "uint256"
        }
      ],
      "name": "updateMultiplier",
      "outputs": [],
      "stateMutability": "nonpayable",
      "type": "function"
    },
    {
      "inputs": [],
      "name": "updatePool",
      "outputs": [],
      "stateMutability": "nonpayable",
      "type": "function"
    },
    {
      "inputs": [
        {
          "internalType": "address",
          "name": "",
          "type": "address"
        }
      ],
      "name": "userInfo",
      "outputs": [
        {
          "internalType": "uint256",
          "name": "amount",
          "type": "uint256"
        },
        {
          "internalType": "uint256",
          "name": "rewardDebt",
          "type": "uint256"
        }
      ],
      "stateMutability": "view",
      "type": "function"
    },
    {
      "inputs": [
        {
          "internalType": "uint256",
          "name": "_amount",
          "type": "uint256"
        }
      ],
      "name": "withdraw",
      "outputs": [],
      "stateMutability": "nonpayable",
      "type": "function"
    },
    {
      "inputs": [
        {
          "internalType": "uint256",
          "name": "_amount",
          "type": "uint256"
        }
      ],
      "name": "withdrawHatchy",
      "outputs": [],
      "stateMutability": "nonpayable",
      "type": "function"
    }
  ],
  "bytecode": "0x608060405234801561001057600080fd5b506111cf806100206000396000f3fe608060405234801561001057600080fd5b506004361061018e5760003560e01c806362043bd8116100de578063b6b55f2511610097578063e3161ddd11610071578063e3161ddd14610310578063eb990c5914610318578063f2fde38b1461032b578063f40f0f521461033e57600080fd5b8063b6b55f25146102ec578063d3dd7eb7146102ff578063db2e21bc1461030857600080fd5b806362043bd8146102ac578063715018a6146102b85780637cb4c525146102c05780638aa28550146102c95780638da5cb5b146102d2578063a9f8d181146102e357600080fd5b80633c0090691161014b5780635fb31dcf116101255780635fb31dcf1461026a5780635fcbd285146102735780635ffe61461461028657806360fe47b11461029957600080fd5b80633c0090691461024657806348cd4cb1146102595780634e71d92d1461026257600080fd5b80630fe0d929146101935780630ff34201146101a857806310c626e3146101c357806317caf6f1146101ee5780631959a002146101f75780632e1a7d4d14610233575b600080fd5b6101a66101a1366004610ffc565b610351565b005b6101b06103d2565b6040519081526020015b60405180910390f35b6097546101d6906001600160a01b031681565b6040516001600160a01b0390911681526020016101ba565b6101b0609c5481565b61021e61020536600461102a565b609b602052600090815260409020805460019091015482565b604080519283526020830191909152016101ba565b6101a6610241366004610ffc565b610444565b6101a661025436600461102a565b610618565b6101b0609d5481565b6101a6610642565b6101b0609f5481565b6098546101d6906001600160a01b031681565b6101a6610294366004610ffc565b610705565b6101a66102a7366004610ffc565b610712565b6101b064e8d4a5100081565b6101a6610753565b6101b060995481565b6101b0609a5481565b6033546001600160a01b03166101d6565b6101b060a05481565b6101a66102fa366004610ffc565b610765565b6101b0609e5481565b6101a66108ea565b6101a66109c5565b6101a6610326366004611047565b610a72565b6101a661033936600461102a565b610be5565b61021e61034c36600461102a565b610c5b565b610359610d2f565b60975460405163a9059cbb60e01b8152336004820152602481018390526001600160a01b039091169063a9059cbb906044016020604051808303816000875af11580156103aa573d6000803e3d6000fd5b505050506040513d601f19601f820116820180604052508101906103ce919061108d565b5050565b6098546040516370a0823160e01b81523060048201526000916001600160a01b0316906370a0823190602401602060405180830381865afa15801561041b573d6000803e3d6000fd5b505050506040513d601f19601f8201168201806040525081019061043f91906110af565b905090565b61044c610d89565b336000908152609b6020526040902080548211156104a65760405162461bcd60e51b81526020600482015260126024820152711dda5d1a191c985dce881b9bdd0819dbdbd960721b60448201526064015b60405180910390fd5b6104ae6109c5565b60006104bc82609f54610de2565b9050801561053b5760975460405163a9059cbb60e01b8152336004820152602481018390526001600160a01b039091169063a9059cbb906044016020604051808303816000875af1158015610515573d6000803e3d6000fd5b505050506040513d601f19601f82011682018060405250810190610539919061108d565b505b82156105c657815461054d9084610e1f565b825560985460405163a9059cbb60e01b8152336004820152602481018590526001600160a01b039091169063a9059cbb906044016020604051808303816000875af11580156105a0573d6000803e3d6000fd5b505050506040513d601f19601f820116820180604052508101906105c4919061108d565b505b6105cf82610e2b565b600183015560405183815233907f884edad9ce6fa2440d8a54cc123490eb96d2768479d49ff9c7366125a94243649060200160405180910390a250506106156001606555565b50565b610620610d2f565b609780546001600160a01b0319166001600160a01b0392909216919091179055565b61064a610d89565b336000908152609b602052604090206106616109c5565b600061066f82609f54610de2565b905080156106ee5760975460405163a9059cbb60e01b8152336004820152602481018390526001600160a01b039091169063a9059cbb906044016020604051808303816000875af11580156106c8573d6000803e3d6000fd5b505050506040513d601f19601f820116820180604052508101906106ec919061108d565b505b6106f782610e2b565b60019283015550606555565b565b61070d610d2f565b609a55565b61071a610d2f565b609e8054908290558181146103ce576107488261074283609c54610e1f90919063ffffffff16565b90610e5c565b609c556103ce6109c5565b61075b610d2f565b6107036000610e68565b336000908152609b6020526040902061077c6109c5565b80541561081257600061079182609f54610de2565b905080156108105760975460405163a9059cbb60e01b8152336004820152602481018390526001600160a01b039091169063a9059cbb906044016020604051808303816000875af11580156107ea573d6000803e3d6000fd5b505050506040513d601f19601f8201168201806040525081019061080e919061108d565b505b505b81156108a3576098546040516323b872dd60e01b8152336004820152306024820152604481018490526001600160a01b03909116906323b872dd906064016020604051808303816000875af115801561086f573d6000803e3d6000fd5b505050506040513d601f19601f82011682018060405250810190610893919061108d565b5080546108a09083610e5c565b81555b6108ac81610e2b565b600182015560405182815233907fe1fffcc4923d04b559f4d29a8bfc6cda04eb5b0d3c460751c2402c5c5cc9109c9060200160405180910390a25050565b6108f2610d89565b336000818152609b6020526040908190206098548154925163a9059cbb60e01b815260048101949094526024840192909252916001600160a01b039091169063a9059cbb906044016020604051808303816000875af1158015610959573d6000803e3d6000fd5b505050506040513d601f19601f8201168201806040525081019061097d919061108d565b50805460405190815233907f5fafa99d0643513820be26656b45130b01e1c03062e1266bf36f88cbd3bd96959060200160405180910390a26000808255600191820155606555565b60a05443116109d057565b6098546040516370a0823160e01b81523060048201526000916001600160a01b0316906370a0823190602401602060405180830381865afa158015610a19573d6000803e3d6000fd5b505050506040513d601f19601f82011682018060405250810190610a3d91906110af565b905080600003610a4e57504360a055565b6000610a58610eba565b9050610a67609f548284610ef4565b609f5550504360a055565b600054610100900460ff1615808015610a925750600054600160ff909116105b80610aac5750303b158015610aac575060005460ff166001145b610b0f5760405162461bcd60e51b815260206004820152602e60248201527f496e697469616c697a61626c653a20636f6e747261637420697320616c72656160448201526d191e481a5b9a5d1a585b1a5e995960921b606482015260840161049d565b6000805460ff191660011790558015610b32576000805461ff0019166101001790555b610b3a610f1b565b610b42610f4a565b609780546001600160a01b038088166001600160a01b03199283161790925560988054928716929091169190911790556099839055609d8290556001609e81905560a08390556000609f819055609c91909155609a558015610bde576000805461ff0019169055604051600181527f7f26b83ff96e1f2b6a682f133852f6798a09c465da95921460cefb38474024989060200160405180910390a15b5050505050565b610bed610d2f565b6001600160a01b038116610c525760405162461bcd60e51b815260206004820152602660248201527f4f776e61626c653a206e6577206f776e657220697320746865207a65726f206160448201526564647265737360d01b606482015260840161049d565b61061581610e68565b6001600160a01b038181166000908152609b602052604080822060985491516370a0823160e01b815230600482015292938493919284929116906370a0823190602401602060405180830381865afa158015610cbb573d6000803e3d6000fd5b505050506040513d601f19601f82011682018060405250810190610cdf91906110af565b609f5460a0549192509043118015610cf657508115155b15610d16576000610d05610eba565b9050610d12828285610ef4565b9150505b6000610d228483610de2565b9791965090945050505050565b6033546001600160a01b031633146107035760405162461bcd60e51b815260206004820181905260248201527f4f776e61626c653a2063616c6c6572206973206e6f7420746865206f776e6572604482015260640161049d565b600260655403610ddb5760405162461bcd60e51b815260206004820152601f60248201527f5265656e7472616e637947756172643a207265656e7472616e742063616c6c00604482015260640161049d565b6002606555565b6000610e188360010154610e1264e8d4a51000610e0c868860000154610f7990919063ffffffff16565b90610f85565b90610e1f565b9392505050565b6000610e1882846110de565b6000610e4f64e8d4a51000610e0c609f548560000154610f7990919063ffffffff16565b92915050565b6001606555565b6000610e1882846110f5565b603380546001600160a01b038381166001600160a01b0319831681179093556040519116919082907f8be0079c531659141344cd1fd0a4f28419497f9722a3daafe3b4186f6b6457e090600090a35050565b600080610ec960a05443610f91565b90506000610e18609c54610e0c609e54610eee60995487610f7990919063ffffffff16565b90610f79565b6000610f13610f0c83610e0c8664e8d4a51000610f79565b8590610e5c565b949350505050565b600054610100900460ff16610f425760405162461bcd60e51b815260040161049d9061110d565b610703610fa5565b600054610100900460ff16610f715760405162461bcd60e51b815260040161049d9061110d565b610703610fd5565b6000610e188284611158565b6000610e188284611177565b609a54600090610e1890610eee8486610e1f565b600054610100900460ff16610fcc5760405162461bcd60e51b815260040161049d9061110d565b61070333610e68565b600054610100900460ff16610e555760405162461bcd60e51b815260040161049d9061110d565b60006020828403121561100e57600080fd5b5035919050565b6001600160a01b038116811461061557600080fd5b60006020828403121561103c57600080fd5b8135610e1881611015565b6000806000806080858703121561105d57600080fd5b843561106881611015565b9350602085013561107881611015565b93969395505050506040820135916060013590565b60006020828403121561109f57600080fd5b81518015158114610e1857600080fd5b6000602082840312156110c157600080fd5b5051919050565b634e487b7160e01b600052601160045260246000fd5b6000828210156110f0576110f06110c8565b500390565b60008219821115611108576111086110c8565b500190565b6020808252602b908201527f496e697469616c697a61626c653a20636f6e7472616374206973206e6f74206960408201526a6e697469616c697a696e6760a81b606082015260800190565b6000816000190483118215151615611172576111726110c8565b500290565b60008261119457634e487b7160e01b600052601260045260246000fd5b50049056fea2646970667358221220bbcf40bb0804055d48fccb06b8244b983b33cd5c33abe9510cfc0df71c18285f64736f6c634300080f0033",
  "linkReferences": {},
  "deployedLinkReferences": {}
}