{
  "_format": "hh-sol-artifact-1",
  "contractName": "HatchyGen1Staking",
  "sourceName": "contracts/HatchyGen1Staking.sol",
  "abi": [
    {
      "anonymous": false,
      "inputs": [
        {
          "indexed": false,
          "internalType": "address",
          "name": "previousAdmin",
          "type": "address"
        },
        {
          "indexed": false,
          "internalType": "address",
          "name": "newAdmin",
          "type": "address"
        }
      ],
      "name": "AdminChanged",
      "type": "event"
    },
    {
      "anonymous": false,
      "inputs": [
        {
          "indexed": true,
          "internalType": "address",
          "name": "account",
          "type": "address"
        },
        {
          "indexed": false,
          "internalType": "uint256",
          "name": "weight",
          "type": "uint256"
        }
      ],
      "name": "BatchStaked",
      "type": "event"
    },
    {
      "anonymous": false,
      "inputs": [
        {
          "indexed": true,
          "internalType": "address",
          "name": "account",
          "type": "address"
        },
        {
          "indexed": false,
          "internalType": "uint256[]",
          "name": "tokenIds",
          "type": "uint256[]"
        },
        {
          "indexed": false,
          "internalType": "uint256",
          "name": "weight",
          "type": "uint256"
        }
      ],
      "name": "BatchWithdrawn",
      "type": "event"
    },
    {
      "anonymous": false,
      "inputs": [
        {
          "indexed": true,
          "internalType": "address",
          "name": "beacon",
          "type": "address"
        }
      ],
      "name": "BeaconUpgraded",
      "type": "event"
    },
    {
      "anonymous": false,
      "inputs": [
        {
          "indexed": false,
          "internalType": "uint8",
          "name": "version",
          "type": "uint8"
        }
      ],
      "name": "Initialized",
      "type": "event"
    },
    {
      "anonymous": false,
      "inputs": [
        {
          "indexed": true,
          "internalType": "address",
          "name": "previousOwner",
          "type": "address"
        },
        {
          "indexed": true,
          "internalType": "address",
          "name": "newOwner",
          "type": "address"
        }
      ],
      "name": "OwnershipTransferred",
      "type": "event"
    },
    {
      "anonymous": false,
      "inputs": [
        {
          "indexed": false,
          "internalType": "address",
          "name": "account",
          "type": "address"
        }
      ],
      "name": "Paused",
      "type": "event"
    },
    {
      "anonymous": false,
      "inputs": [
        {
          "indexed": true,
          "internalType": "address",
          "name": "account",
          "type": "address"
        }
      ],
      "name": "SignerAdded",
      "type": "event"
    },
    {
      "anonymous": false,
      "inputs": [
        {
          "indexed": true,
          "internalType": "address",
          "name": "account",
          "type": "address"
        }
      ],
      "name": "SignerRemoved",
      "type": "event"
    },
    {
      "anonymous": false,
      "inputs": [
        {
          "indexed": true,
          "internalType": "address",
          "name": "account",
          "type": "address"
        },
        {
          "indexed": false,
          "internalType": "uint256",
          "name": "tokenId",
          "type": "uint256"
        },
        {
          "indexed": false,
          "internalType": "uint256",
          "name": "weight",
          "type": "uint256"
        }
      ],
      "name": "Staked",
      "type": "event"
    },
    {
      "anonymous": false,
      "inputs": [
        {
          "indexed": false,
          "internalType": "address",
          "name": "account",
          "type": "address"
        }
      ],
      "name": "Unpaused",
      "type": "event"
    },
    {
      "anonymous": false,
      "inputs": [
        {
          "indexed": true,
          "internalType": "address",
          "name": "implementation",
          "type": "address"
        }
      ],
      "name": "Upgraded",
      "type": "event"
    },
    {
      "anonymous": false,
      "inputs": [
        {
          "indexed": true,
          "internalType": "address",
          "name": "account",
          "type": "address"
        },
        {
          "indexed": false,
          "internalType": "uint256",
          "name": "tokenId",
          "type": "uint256"
        },
        {
          "indexed": false,
          "internalType": "uint256",
          "name": "weight",
          "type": "uint256"
        }
      ],
      "name": "Withdrawn",
      "type": "event"
    },
    {
      "inputs": [
        {
          "internalType": "bytes32",
          "name": "",
          "type": "bytes32"
        }
      ],
      "name": "BannedR",
      "outputs": [
        {
          "internalType": "bool",
          "name": "",
          "type": "bool"
        }
      ],
      "stateMutability": "view",
      "type": "function"
    },
    {
      "inputs": [
        {
          "internalType": "bytes32",
          "name": "",
          "type": "bytes32"
        }
      ],
      "name": "BannedS",
      "outputs": [
        {
          "internalType": "bool",
          "name": "",
          "type": "bool"
        }
      ],
      "stateMutability": "view",
      "type": "function"
    },
    {
      "inputs": [],
      "name": "MAX_HATCHIES",
      "outputs": [
        {
          "internalType": "uint256",
          "name": "",
          "type": "uint256"
        }
      ],
      "stateMutability": "view",
      "type": "function"
    },
    {
      "inputs": [
        {
          "internalType": "address",
          "name": "account",
          "type": "address"
        }
      ],
      "name": "addSigner",
      "outputs": [],
      "stateMutability": "nonpayable",
      "type": "function"
    },
    {
      "inputs": [
        {
          "internalType": "address",
          "name": "account",
          "type": "address"
        }
      ],
      "name": "addSignerRole",
      "outputs": [],
      "stateMutability": "nonpayable",
      "type": "function"
    },
    {
      "inputs": [
        {
          "internalType": "bytes32",
          "name": "r",
          "type": "bytes32"
        },
        {
          "internalType": "bytes32",
          "name": "s",
          "type": "bytes32"
        }
      ],
      "name": "banSignature",
      "outputs": [],
      "stateMutability": "nonpayable",
      "type": "function"
    },
    {
      "inputs": [
        {
          "components": [
            {
              "internalType": "uint256",
              "name": "_tokenId",
              "type": "uint256"
            },
            {
              "internalType": "uint256",
              "name": "_monsterId",
              "type": "uint256"
            },
            {
              "internalType": "uint256",
              "name": "_shiny",
              "type": "uint256"
            },
            {
              "internalType": "uint256",
              "name": "_serial",
              "type": "uint256"
            },
            {
              "internalType": "uint256",
              "name": "_element",
              "type": "uint256"
            },
            {
              "internalType": "uint8",
              "name": "v",
              "type": "uint8"
            },
            {
              "internalType": "bytes32",
              "name": "r",
              "type": "bytes32"
            },
            {
              "internalType": "bytes32",
              "name": "s",
              "type": "bytes32"
            }
          ],
          "internalType": "struct HatchyGen1Staking.MetaInfo[]",
          "name": "_stakeParams",
          "type": "tuple[]"
        },
        {
          "internalType": "address",
          "name": "referrer",
          "type": "address"
        }
      ],
      "name": "batchStake",
      "outputs": [],
      "stateMutability": "nonpayable",
      "type": "function"
    },
    {
      "inputs": [
        {
          "internalType": "uint256[]",
          "name": "_tokenIds",
          "type": "uint256[]"
        }
      ],
      "name": "batchWithdraw",
      "outputs": [],
      "stateMutability": "nonpayable",
      "type": "function"
    },
    {
      "inputs": [
        {
          "internalType": "address",
          "name": "_account",
          "type": "address"
        }
      ],
      "name": "calculateWeight",
      "outputs": [
        {
          "internalType": "uint256",
          "name": "",
          "type": "uint256"
        },
        {
          "internalType": "uint256",
          "name": "",
          "type": "uint256"
        }
      ],
      "stateMutability": "view",
      "type": "function"
    },
    {
      "inputs": [
        {
          "internalType": "address",
          "name": "_account",
          "type": "address"
        }
      ],
      "name": "checkSetInfo",
      "outputs": [
        {
          "internalType": "uint256",
          "name": "",
          "type": "uint256"
        },
        {
          "internalType": "uint256",
          "name": "",
          "type": "uint256"
        }
      ],
      "stateMutability": "view",
      "type": "function"
    },
    {
      "inputs": [
        {
          "internalType": "address",
          "name": "_account",
          "type": "address"
        }
      ],
      "name": "checkShinySetInfo",
      "outputs": [
        {
          "internalType": "uint256",
          "name": "",
          "type": "uint256"
        },
        {
          "internalType": "uint256",
          "name": "",
          "type": "uint256"
        }
      ],
      "stateMutability": "view",
      "type": "function"
    },
    {
      "inputs": [
        {
          "internalType": "uint256",
          "name": "_tokenId",
          "type": "uint256"
        },
        {
          "internalType": "uint256",
          "name": "_monsterId",
          "type": "uint256"
        },
        {
          "internalType": "uint256",
          "name": "_serial",
          "type": "uint256"
        },
        {
          "internalType": "uint256",
          "name": "_element",
          "type": "uint256"
        },
        {
          "internalType": "uint256",
          "name": "_shiny",
          "type": "uint256"
        }
      ],
      "name": "encodePackedData",
      "outputs": [
        {
          "internalType": "bytes32",
          "name": "",
          "type": "bytes32"
        }
      ],
      "stateMutability": "pure",
      "type": "function"
    },
    {
      "inputs": [],
      "name": "feeAddress",
      "outputs": [
        {
          "internalType": "address",
          "name": "",
          "type": "address"
        }
      ],
      "stateMutability": "view",
      "type": "function"
    },
    {
      "inputs": [],
      "name": "hatchyNft",
      "outputs": [
        {
          "internalType": "address",
          "name": "",
          "type": "address"
        }
      ],
      "stateMutability": "view",
      "type": "function"
    },
    {
      "inputs": [],
      "name": "hatchyRewarder",
      "outputs": [
        {
          "internalType": "address",
          "name": "",
          "type": "address"
        }
      ],
      "stateMutability": "view",
      "type": "function"
    },
    {
      "inputs": [
        {
          "internalType": "address",
          "name": "_hatchyNft",
          "type": "address"
        },
        {
          "internalType": "address",
          "name": "_feeAddress",
          "type": "address"
        },
        {
          "internalType": "address",
          "name": "_signer",
          "type": "address"
        }
      ],
      "name": "initialize",
      "outputs": [],
      "stateMutability": "nonpayable",
      "type": "function"
    },
    {
      "inputs": [
        {
          "internalType": "address",
          "name": "account",
          "type": "address"
        }
      ],
      "name": "isSigner",
      "outputs": [
        {
          "internalType": "bool",
          "name": "",
          "type": "bool"
        }
      ],
      "stateMutability": "view",
      "type": "function"
    },
    {
      "inputs": [
        {
          "internalType": "address",
          "name": "account",
          "type": "address"
        },
        {
          "internalType": "uint256",
          "name": "tokenId",
          "type": "uint256"
        }
      ],
      "name": "isStaked",
      "outputs": [
        {
          "internalType": "bool",
          "name": "",
          "type": "bool"
        }
      ],
      "stateMutability": "view",
      "type": "function"
    },
    {
      "inputs": [
        {
          "internalType": "uint256",
          "name": "",
          "type": "uint256"
        }
      ],
      "name": "metadatas",
      "outputs": [
        {
          "internalType": "uint256",
          "name": "_tokenId",
          "type": "uint256"
        },
        {
          "internalType": "uint256",
          "name": "_monsterId",
          "type": "uint256"
        },
        {
          "internalType": "uint256",
          "name": "_shiny",
          "type": "uint256"
        },
        {
          "internalType": "uint256",
          "name": "_serial",
          "type": "uint256"
        },
        {
          "internalType": "uint256",
          "name": "_element",
          "type": "uint256"
        },
        {
          "internalType": "uint8",
          "name": "v",
          "type": "uint8"
        },
        {
          "internalType": "bytes32",
          "name": "r",
          "type": "bytes32"
        },
        {
          "internalType": "bytes32",
          "name": "s",
          "type": "bytes32"
        }
      ],
      "stateMutability": "view",
      "type": "function"
    },
    {
      "inputs": [
        {
          "internalType": "address",
          "name": "",
          "type": "address"
        },
        {
          "internalType": "address",
          "name": "",
          "type": "address"
        },
        {
          "internalType": "uint256",
          "name": "",
          "type": "uint256"
        },
        {
          "internalType": "bytes",
          "name": "",
          "type": "bytes"
        }
      ],
      "name": "onERC721Received",
      "outputs": [
        {
          "internalType": "bytes4",
          "name": "",
          "type": "bytes4"
        }
      ],
      "stateMutability": "nonpayable",
      "type": "function"
    },
    {
      "inputs": [],
      "name": "owner",
      "outputs": [
        {
          "internalType": "address",
          "name": "",
          "type": "address"
        }
      ],
      "stateMutability": "view",
      "type": "function"
    },
    {
      "inputs": [],
      "name": "paused",
      "outputs": [
        {
          "internalType": "bool",
          "name": "",
          "type": "bool"
        }
      ],
      "stateMutability": "view",
      "type": "function"
    },
    {
      "inputs": [],
      "name": "proxiableUUID",
      "outputs": [
        {
          "internalType": "bytes32",
          "name": "",
          "type": "bytes32"
        }
      ],
      "stateMutability": "view",
      "type": "function"
    },
    {
      "inputs": [
        {
          "internalType": "address",
          "name": "account",
          "type": "address"
        }
      ],
      "name": "removeSignerRole",
      "outputs": [],
      "stateMutability": "nonpayable",
      "type": "function"
    },
    {
      "inputs": [],
      "name": "renounceOwnership",
      "outputs": [],
      "stateMutability": "nonpayable",
      "type": "function"
    },
    {
      "inputs": [],
      "name": "renounceSigner",
      "outputs": [],
      "stateMutability": "nonpayable",
      "type": "function"
    },
    {
      "inputs": [
        {
          "internalType": "address",
          "name": "gen1",
          "type": "address"
        }
      ],
      "name": "setHatchyGen1",
      "outputs": [],
      "stateMutability": "nonpayable",
      "type": "function"
    },
    {
      "inputs": [
        {
          "internalType": "address",
          "name": "_rewarder",
          "type": "address"
        }
      ],
      "name": "setRewarder",
      "outputs": [],
      "stateMutability": "nonpayable",
      "type": "function"
    },
    {
      "inputs": [
        {
          "internalType": "address",
          "name": "owner",
          "type": "address"
        },
        {
          "internalType": "uint256",
          "name": "index",
          "type": "uint256"
        }
      ],
      "name": "tokenOfOwnerByIndex",
      "outputs": [
        {
          "internalType": "uint256",
          "name": "",
          "type": "uint256"
        }
      ],
      "stateMutability": "view",
      "type": "function"
    },
    {
      "inputs": [
        {
          "internalType": "address",
          "name": "newOwner",
          "type": "address"
        }
      ],
      "name": "transferOwnership",
      "outputs": [],
      "stateMutability": "nonpayable",
      "type": "function"
    },
    {
      "inputs": [
        {
          "internalType": "address",
          "name": "newImplementation",
          "type": "address"
        }
      ],
      "name": "upgradeTo",
      "outputs": [],
      "stateMutability": "nonpayable",
      "type": "function"
    },
    {
      "inputs": [
        {
          "internalType": "address",
          "name": "newImplementation",
          "type": "address"
        },
        {
          "internalType": "bytes",
          "name": "data",
          "type": "bytes"
        }
      ],
      "name": "upgradeToAndCall",
      "outputs": [],
      "stateMutability": "payable",
      "type": "function"
    },
    {
      "inputs": [
        {
          "internalType": "address",
          "name": "_owner",
          "type": "address"
        }
      ],
      "name": "userStakedNFT",
      "outputs": [
        {
          "internalType": "uint256[]",
          "name": "",
          "type": "uint256[]"
        }
      ],
      "stateMutability": "view",
      "type": "function"
    },
    {
      "inputs": [
        {
          "internalType": "address",
          "name": "_owner",
          "type": "address"
        }
      ],
      "name": "userStakedNFTCount",
      "outputs": [
        {
          "internalType": "uint256",
          "name": "",
          "type": "uint256"
        }
      ],
      "stateMutability": "view",
      "type": "function"
    },
    {
      "inputs": [
        {
          "internalType": "uint256",
          "name": "tokenId",
          "type": "uint256"
        }
      ],
      "name": "withdraw",
      "outputs": [],
      "stateMutability": "nonpayable",
      "type": "function"
    }
  ],
  "bytecode": "0x60a06040523060805234801561001457600080fd5b5060805161331161004c60003960008181610c2601528181610c6601528181610e0201528181610e420152610ed501526133116000f3fe6080604052600436106102045760003560e01c806372e5539911610118578063c844f14b116100a0578063e5c8b03d1161006f578063e5c8b03d1461067c578063e73496cd14610691578063eb12d61e14610732578063ebcc968b14610752578063f2fde38b1461077257600080fd5b8063c844f14b146105da578063c9438246146105fa578063ca8225191461062b578063cd0559eb1461065c57600080fd5b80639a38e9e5116100e75780639a38e9e5146105435780639a6be92b14610564578063bfbb31311461057a578063c0c53b8b1461059a578063c3cbd89b146105ba57600080fd5b806372e55399146104835780637df73e27146104a35780638da5cb5b146104c35780639831323d146104e257600080fd5b806340376ba21161019b5780635451da1b1161016a5780635451da1b146103e557806356414522146104155780635c975abb146104365780636e4e98111461044e578063715018a61461046e57600080fd5b806340376ba21461035757806341275358146103845780634f1ef286146103bd57806352d1902d146103d057600080fd5b80632e1a7d4d116101d75780632e1a7d4d146102c95780632f745c59146102e95780633659cfe6146103175780633a6462e41461033757600080fd5b806308ff114d14610209578063150b7a021461022b5780631b627fa2146102745780632c19339314610294575b600080fd5b34801561021557600080fd5b50610229610224366004612b97565b610792565b005b34801561023757600080fd5b50610256610246366004612c57565b630a85bd0160e11b949350505050565b6040516001600160e01b031990911681526020015b60405180910390f35b34801561028057600080fd5b5061022961028f366004612cc3565b6107a6565b3480156102a057600080fd5b506102b46102af366004612b97565b6107e7565b6040805192835260208301919091520161026b565b3480156102d557600080fd5b506102296102e4366004612ce5565b6109e1565b3480156102f557600080fd5b50610309610304366004612cfe565b610bf0565b60405190815260200161026b565b34801561032357600080fd5b50610229610332366004612b97565b610c1c565b34801561034357600080fd5b50610229610352366004612b97565b610cf8565b34801561036357600080fd5b50610377610372366004612b97565b610d23565b60405161026b9190612d2a565b34801561039057600080fd5b50610166546103a5906001600160a01b031681565b6040516001600160a01b03909116815260200161026b565b6102296103cb366004612d6e565b610df8565b3480156103dc57600080fd5b50610309610ec8565b3480156103f157600080fd5b50610405610400366004612cfe565b610f7b565b604051901515815260200161026b565b34801561042157600080fd5b50610163546103a5906001600160a01b031681565b34801561044257600080fd5b5060975460ff16610405565b34801561045a57600080fd5b506102b4610469366004612b97565b610f9e565b34801561047a57600080fd5b5061022961136a565b34801561048f57600080fd5b5061022961049e366004612dbe565b61137e565b3480156104af57600080fd5b506104056104be366004612b97565b611599565b3480156104cf57600080fd5b5061012d546001600160a01b03166103a5565b3480156104ee57600080fd5b506103096104fd366004612e33565b60408051602080820197909752808201959095526060850193909352608084019190915260a0808401919091528151808403909101815260c09092019052805191012090565b34801561054f57600080fd5b50610162546103a5906001600160a01b031681565b34801561057057600080fd5b50610309619c4181565b34801561058657600080fd5b50610229610595366004612b97565b6115a7565b3480156105a657600080fd5b506102296105b5366004612e6e565b6115d2565b3480156105c657600080fd5b506102b46105d5366004612b97565b611731565b3480156105e657600080fd5b506102296105f5366004612eb9565b611b11565b34801561060657600080fd5b50610405610615366004612ce5565b6101606020526000908152604090205460ff1681565b34801561063757600080fd5b50610405610646366004612ce5565b6101616020526000908152604090205460ff1681565b34801561066857600080fd5b50610309610677366004612b97565b61207f565b34801561068857600080fd5b506102296120a1565b34801561069d57600080fd5b506106f46106ac366004612ce5565b61016560205260009081526040902080546001820154600283015460038401546004850154600586015460068701546007909701549596949593949293919260ff9091169188565b604080519889526020890197909752958701949094526060860192909252608085015260ff1660a084015260c083015260e08201526101000161026b565b34801561073e57600080fd5b5061022961074d366004612b97565b6120aa565b34801561075e57600080fd5b5061022961076d366004612b97565b612121565b34801561077e57600080fd5b5061022961078d366004612b97565b612129565b61079a61219f565b6107a3816121fa565b50565b6107ae61219f565b6000918252610160602090815260408084208054600160ff19918216811790925593855261016190925290922080549091169091179055565b6001600160a01b0381166000908152610164602052604081208190819061080d9061223d565b9050806000036108235750600093849350915050565b600080600061083187610d23565b905060008060006108418a610f9e565b915091506000806108518c611731565b91509150600094505b888510156108e0576000610165600088888151811061087b5761087b612f34565b6020026020010151815260200190815260200160002090506000816002015411156108bf576108ab60148a612f60565b98506108b8600189612f60565b97506108cd565b6108ca60018a612f60565b98505b50846108d881612f78565b95505061085a565b811561092d576108f282610190612f91565b6108fc9089612f60565b975081841115610928576109108483612247565b61091b906014612f91565b6109259089612f60565b97505b610945565b610938846014612f91565b6109429089612f60565b97505b60008311801561095757506000198314155b156109c35780156109aa5761096e81611f40612f91565b6109789089612f60565b9750808311156109a55761098c8382612247565b61099890610190612f91565b6109a29089612f60565b97505b6109c3565b6109b683610190612f91565b6109c09089612f60565b97505b6109cf886103e8612f91565b9c969b50959950505050505050505050565b6109e9612253565b619c418110610a135760405162461bcd60e51b8152600401610a0a90612fb0565b60405180910390fd5b610a1e335b82610f7b565b610a605760405162461bcd60e51b8152602060048201526013602482015272139bdd081cdd185ad959081d1a1a5cc81b999d606a1b6044820152606401610a0a565b610163546001600160a01b03166342842e0e30336040516001600160e01b031960e085901b1681526001600160a01b0392831660048201529116602482015260448101849052606401600060405180830381600087803b158015610ac357600080fd5b505af1158015610ad7573d6000803e3d6000fd5b50505050610b0a816101646000610aeb3390565b6001600160a01b031681526020810191909152604001600020906122ac565b506000610b16336107e7565b50610162549091506001600160a01b0316639129554f336040516001600160e01b031960e084901b1681526001600160a01b0390911660048201526024810184905260006044820152606401600060405180830381600087803b158015610b7c57600080fd5b505af1158015610b90573d6000803e3d6000fd5b50505050610b9b3390565b6001600160a01b03167f92ccf450a286a957af52509bc1c9939d1a6a481783e142e41e2499f0bb66ebc68383604051610bde929190918252602082015260400190565b60405180910390a2506107a360018055565b6001600160a01b038216600090815261016460205260408120610c1390836122be565b90505b92915050565b6001600160a01b037f0000000000000000000000000000000000000000000000000000000000000000163003610c645760405162461bcd60e51b8152600401610a0a90612fda565b7f00000000000000000000000000000000000000000000000000000000000000006001600160a01b0316610cad600080516020613295833981519152546001600160a01b031690565b6001600160a01b031614610cd35760405162461bcd60e51b8152600401610a0a90613026565b610cdc816122ca565b604080516000808252602082019092526107a3918391906122d2565b610d0061219f565b61016280546001600160a01b0319166001600160a01b0392909216919091179055565b6001600160a01b03811660009081526101646020526040812060609190610d499061223d565b905080600003610d6d5760408051600080825260208201909252905b509392505050565b60008167ffffffffffffffff811115610d8857610d88612bb4565b604051908082528060200260200182016040528015610db1578160200160208202803683370190505b50905060005b82811015610d6557610dc98582610bf0565b828281518110610ddb57610ddb612f34565b602090810291909101015280610df081612f78565b915050610db7565b6001600160a01b037f0000000000000000000000000000000000000000000000000000000000000000163003610e405760405162461bcd60e51b8152600401610a0a90612fda565b7f00000000000000000000000000000000000000000000000000000000000000006001600160a01b0316610e89600080516020613295833981519152546001600160a01b031690565b6001600160a01b031614610eaf5760405162461bcd60e51b8152600401610a0a90613026565b610eb8826122ca565b610ec4828260016122d2565b5050565b6000306001600160a01b037f00000000000000000000000000000000000000000000000000000000000000001614610f685760405162461bcd60e51b815260206004820152603860248201527f555550535570677261646561626c653a206d757374206e6f742062652063616c60448201527f6c6564207468726f7567682064656c656761746563616c6c00000000000000006064820152608401610a0a565b5060008051602061329583398151915290565b6001600160a01b038216600090815261016460205260408120610c13908361243d565b6001600160a01b03811660009081526101646020526040812081908190610fc49061223d565b905080600003610fda5750600093849350915050565b6000610fe585610d23565b6040805160c08101825260001980825260208201819052918101829052606081018290526080810182905260a0810191909152909150600090611026612b45565b61102e612b63565b60009350836000195b878610156110b0576000610165600089898151811061105857611058612f34565b60200260200101518152602001908152602001600020905060018482600101546028811061108857611088612f34565b602002018181516110999190612f60565b9052508690506110a881612f78565b965050611037565b600195505b600a861015611115578286602881106110d0576110d0612f34565b602002015185600160200201511115611103578286602881106110f5576110f5612f34565b602002015185600160200201525b8561110d81612f78565b9650506110b5565b600a95505b60138610156111745782866028811061113557611135612f34565b6020020151604086015111156111625782866028811061115757611157612f34565b602002015160408601525b8561116c81612f78565b96505061111a565b601395505b601c8610156111d35782866028811061119457611194612f34565b6020020151606086015111156111c1578286602881106111b6576111b6612f34565b602002015160608601525b856111cb81612f78565b965050611179565b601c95505b6022861015611232578286602881106111f3576111f3612f34565b6020020151608086015111156112205782866028811061121557611215612f34565b602002015160808601525b8561122a81612f78565b9650506111d8565b602295505b60288610156112915782866028811061125257611252612f34565b602002015160a0860151111561127f5782866028811061127457611274612f34565b602002015160a08601525b8561128981612f78565b965050611237565b600195505b6006861015611302578486600681106112b1576112b1612f34565b60200201516112c09083612f60565b91508486600681106112d4576112d4612f34565b60200201518487600681106112eb576112eb612f34565b6020020152856112fa81612f78565b965050611296565b600195505b600686101561135a5783866006811061132257611322612f34565b60200201518111156113485783866006811061134057611340612f34565b602002015190505b8561135281612f78565b965050611307565b909a909950975050505050505050565b61137261219f565b61137c6000612455565b565b611386612253565b60005b818110156114ba5760008383838181106113a5576113a5612f34565b905060200201359050619c4181106113cf5760405162461bcd60e51b8152600401610a0a90612fb0565b6113d833610a18565b61141a5760405162461bcd60e51b8152602060048201526013602482015272139bdd081cdd185ad959081d1a1a5cc81b999d606a1b6044820152606401610a0a565b610163546001600160a01b03166342842e0e30336040516001600160e01b031960e085901b1681526001600160a01b0392831660048201529116602482015260448101849052606401600060405180830381600087803b15801561147d57600080fd5b505af1158015611491573d6000803e3d6000fd5b505050506114a5816101646000610aeb3390565b505080806114b290612f78565b915050611389565b5060006114c6336107e7565b50610162549091506001600160a01b0316639129554f336040516001600160e01b031960e084901b1681526001600160a01b0390911660048201526024810184905260006044820152606401600060405180830381600087803b15801561152c57600080fd5b505af1158015611540573d6000803e3d6000fd5b5050505061154b3390565b6001600160a01b03167f6a8930247fade62b96e4593038d2e2685c35206218c30965dc2640c366ba3b3a84848460405161158793929190613072565b60405180910390a250610ec460018055565b6000610c1661015f836124a8565b6115af61219f565b61016380546001600160a01b0319166001600160a01b0392909216919091179055565b600054610100900460ff16158080156115f25750600054600160ff909116105b8061160c5750303b15801561160c575060005460ff166001145b61166f5760405162461bcd60e51b815260206004820152602e60248201527f496e697469616c697a61626c653a20636f6e747261637420697320616c72656160448201526d191e481a5b9a5d1a585b1a5e995960921b6064820152608401610a0a565b6000805460ff191660011790558015611692576000805461ff0019166101001790555b61169a61252b565b6116a261255a565b6116aa612589565b61016380546001600160a01b038087166001600160a01b0319928316179092556101668054928616929091169190911790556116e5826125b0565b801561172b576000805461ff0019169055604051600181527f7f26b83ff96e1f2b6a682f133852f6798a09c465da95921460cefb38474024989060200160405180910390a15b50505050565b6001600160a01b038116600090815261016460205260408120819081906117579061223d565b90508060000361176d5750600093849350915050565b600061177885610d23565b6040805160c08101825260001980825260208201819052918101829052606081018290526080810182905260a08101919091529091506000906117b9612b45565b6117c1612b63565b60009350836000195b8786101561186757600061016560008989815181106117eb576117eb612f34565b602002602001015181526020019081526020016000209050806001015460000361181d5761181a600184612f60565b92505b6002810154156118545760018482600101546028811061183f5761183f612f34565b602002018181516118509190612f60565b9052505b508561185f81612f78565b9650506117ca565b600195505b600a8610156118cc5782866028811061188757611887612f34565b6020020151856001602002015111156118ba578286602881106118ac576118ac612f34565b602002015185600160200201525b856118c481612f78565b96505061186c565b600a95505b601386101561192b578286602881106118ec576118ec612f34565b6020020151604086015111156119195782866028811061190e5761190e612f34565b602002015160408601525b8561192381612f78565b9650506118d1565b601395505b601c86101561198a5782866028811061194b5761194b612f34565b6020020151606086015111156119785782866028811061196d5761196d612f34565b602002015160608601525b8561198281612f78565b965050611930565b601c95505b60228610156119e9578286602881106119aa576119aa612f34565b6020020151608086015111156119d7578286602881106119cc576119cc612f34565b602002015160808601525b856119e181612f78565b96505061198f565b602295505b6028861015611a4857828660288110611a0957611a09612f34565b602002015160a08601511115611a3657828660288110611a2b57611a2b612f34565b602002015160a08601525b85611a4081612f78565b9650506119ee565b600195505b6006861015611ab957848660068110611a6857611a68612f34565b6020020151611a779083612f60565b9150848660068110611a8b57611a8b612f34565b6020020151848760068110611aa257611aa2612f34565b602002015285611ab181612f78565b965050611a4d565b600195505b600686101561135a57838660068110611ad957611ad9612f34565b6020020151811115611aff57838660068110611af757611af7612f34565b602002015190505b85611b0981612f78565b965050611abe565b611b19612253565b611b216125f3565b60005b82811015611faa5736848483818110611b3f57611b3f612f34565b610100029190910160c08101356000908152610160602052604090205490925060ff1615905080611b85575060e08101356000908152610161602052604090205460ff16155b611bc55760405162461bcd60e51b8152602060048201526011602482015270696e76616c6964207369676e617475726560781b6044820152606401610a0a565b6040805182356020828101919091528301358183015260608084013590820152608080840135908201529082013560a0820152600090611ce690600190611c729060c001604051602081830303815290604052805190602001206040517f19457468657265756d205369676e6564204d6573736167653a0a3332000000006020820152603c8101829052600090605c01604051602081830303815290604052805190602001209050919050565b611c8260c0860160a087016130c7565b6040805160008152602081018083529390935260ff9091169082015260c0850135606082015260e0850135608082015260a0016020604051602081039080840390855afa158015611cd7573d6000803e3d6000fd5b50505060206040510351611599565b90508015611f60578135619c418110611d115760405162461bcd60e51b8152600401610a0a90612fb0565b610163546040516331a9108f60e11b81526004810183905233916001600160a01b031690636352211e90602401602060405180830381865afa158015611d5b573d6000803e3d6000fd5b505050506040513d601f19601f82011682018060405250810190611d7f91906130e4565b6001600160a01b031614611dba5760405162461bcd60e51b81526020600482015260026024820152613f2160f01b6044820152606401610a0a565b610163546001600160a01b031663e985e9c5336040516001600160e01b031960e084901b1681526001600160a01b039091166004820152306024820152604401602060405180830381865afa158015611e17573d6000803e3d6000fd5b505050506040513d601f19601f82011682018060405250810190611e3b9190613101565b611e915760405162461bcd60e51b815260206004820152602160248201527f4e6f7420617070726f7665206e667420746f207374616b6572206164647265736044820152607360f81b6064820152608401610a0a565b610163546001600160a01b03166342842e0e336040516001600160e01b031960e084901b1681526001600160a01b03909116600482015230602482015260448101849052606401600060405180830381600087803b158015611ef257600080fd5b505af1158015611f06573d6000803e3d6000fd5b5050506000828152610165602052604081205490039050611f3f576000818152610165602052604090208390611f3c8282613123565b50505b33600090815261016460205260409020611f599082612639565b5050611f95565b60405162461bcd60e51b815260206004820152600a6024820152693737ba1039b4b3b732b960b11b6044820152606401610a0a565b50508080611fa290612f78565b915050611b24565b506000611fb6336107e7565b509050801561203b57610162546001600160a01b0316639129554f336040516001600160e01b031960e084901b1681526001600160a01b039182166004820152602481018590529085166044820152606401600060405180830381600087803b15801561202257600080fd5b505af1158015612036573d6000803e3d6000fd5b505050505b60405181815233907fe5f5ee5eb6ed7edbb7a2ee68a3d40a5af289a83455c136f2f32515437b2b74729060200160405180910390a25061207a60018055565b505050565b6001600160a01b038116600090815261016460205260408120610c169061223d565b61137c336121fa565b6120b333611599565b6121185760405162461bcd60e51b815260206004820152603060248201527f5369676e6572526f6c653a2063616c6c657220646f6573206e6f74206861766560448201526f20746865205369676e657220726f6c6560801b6064820152608401610a0a565b6107a3816125b0565b61211861219f565b61213161219f565b6001600160a01b0381166121965760405162461bcd60e51b815260206004820152602660248201527f4f776e61626c653a206e6577206f776e657220697320746865207a65726f206160448201526564647265737360d01b6064820152608401610a0a565b6107a381612455565b61012d546001600160a01b0316331461137c5760405162461bcd60e51b815260206004820181905260248201527f4f776e61626c653a2063616c6c6572206973206e6f7420746865206f776e65726044820152606401610a0a565b61220661015f82612645565b6040516001600160a01b038216907f3525e22824a8a7df2c9a6029941c824cf95b6447f1e13d5128fd3826d35afe8b90600090a250565b6000610c16825490565b6000610c138284613188565b6002600154036122a55760405162461bcd60e51b815260206004820152601f60248201527f5265656e7472616e637947756172643a207265656e7472616e742063616c6c006044820152606401610a0a565b6002600155565b6000610c1383836126c7565b60018055565b6000610c1383836127ba565b6107a361219f565b7f4910fdfa16fed3260ed0e7147f7cc6da11a60208b5b9406d12a635614ffd91435460ff16156123055761207a836127e4565b826001600160a01b03166352d1902d6040518163ffffffff1660e01b8152600401602060405180830381865afa92505050801561235f575060408051601f3d908101601f1916820190925261235c9181019061319f565b60015b6123c25760405162461bcd60e51b815260206004820152602e60248201527f45524331393637557067726164653a206e657720696d706c656d656e7461746960448201526d6f6e206973206e6f74205555505360901b6064820152608401610a0a565b60008051602061329583398151915281146124315760405162461bcd60e51b815260206004820152602960248201527f45524331393637557067726164653a20756e737570706f727465642070726f786044820152681a58589b195555525160ba1b6064820152608401610a0a565b5061207a838383612880565b60008181526001830160205260408120541515610c13565b61012d80546001600160a01b038381166001600160a01b0319831681179093556040519116919082907f8be0079c531659141344cd1fd0a4f28419497f9722a3daafe3b4186f6b6457e090600090a35050565b60006001600160a01b03821661250b5760405162461bcd60e51b815260206004820152602260248201527f526f6c65733a206163636f756e7420697320746865207a65726f206164647265604482015261737360f01b6064820152608401610a0a565b506001600160a01b03166000908152602091909152604090205460ff1690565b600054610100900460ff166125525760405162461bcd60e51b8152600401610a0a906131b8565b61137c6128a5565b600054610100900460ff166125815760405162461bcd60e51b8152600401610a0a906131b8565b61137c6128d5565b600054610100900460ff1661137c5760405162461bcd60e51b8152600401610a0a906131b8565b6125bc61015f826128fc565b6040516001600160a01b038216907f47d1c22a25bb3a5d4e481b9b1e6944c2eade3181a0a20b495ed61d35b5323f2490600090a250565b60975460ff161561137c5760405162461bcd60e51b815260206004820152601060248201526f14185d5cd8589b194e881c185d5cd95960821b6044820152606401610a0a565b6000610c138383612978565b61264f82826124a8565b6126a55760405162461bcd60e51b815260206004820152602160248201527f526f6c65733a206163636f756e7420646f6573206e6f74206861766520726f6c6044820152606560f81b6064820152608401610a0a565b6001600160a01b0316600090815260209190915260409020805460ff19169055565b600081815260018301602052604081205480156127b05760006126eb600183613188565b85549091506000906126ff90600190613188565b905081811461276457600086600001828154811061271f5761271f612f34565b906000526020600020015490508087600001848154811061274257612742612f34565b6000918252602080832090910192909255918252600188019052604090208390555b855486908061277557612775613203565b600190038181906000526020600020016000905590558560010160008681526020019081526020016000206000905560019350505050610c16565b6000915050610c16565b60008260000182815481106127d1576127d1612f34565b9060005260206000200154905092915050565b6001600160a01b0381163b6128515760405162461bcd60e51b815260206004820152602d60248201527f455243313936373a206e657720696d706c656d656e746174696f6e206973206e60448201526c1bdd08184818dbdb9d1c9858dd609a1b6064820152608401610a0a565b60008051602061329583398151915280546001600160a01b0319166001600160a01b0392909216919091179055565b612889836129c7565b6000825111806128965750805b1561207a5761172b8383612a07565b600054610100900460ff166128cc5760405162461bcd60e51b8152600401610a0a906131b8565b61137c33612455565b600054610100900460ff166122b85760405162461bcd60e51b8152600401610a0a906131b8565b61290682826124a8565b156129535760405162461bcd60e51b815260206004820152601f60248201527f526f6c65733a206163636f756e7420616c72656164792068617320726f6c65006044820152606401610a0a565b6001600160a01b0316600090815260209190915260409020805460ff19166001179055565b60008181526001830160205260408120546129bf57508154600181810184556000848152602080822090930184905584548482528286019093526040902091909155610c16565b506000610c16565b6129d0816127e4565b6040516001600160a01b038216907fbc7cd75a20ee27fd9adebab32041f755214dbc6bffa90cc0225b39da2e5c2d3b90600090a250565b60606001600160a01b0383163b612a6f5760405162461bcd60e51b815260206004820152602660248201527f416464726573733a2064656c65676174652063616c6c20746f206e6f6e2d636f6044820152651b9d1c9858dd60d21b6064820152608401610a0a565b600080846001600160a01b031684604051612a8a9190613245565b600060405180830381855af49150503d8060008114612ac5576040519150601f19603f3d011682016040523d82523d6000602084013e612aca565b606091505b5091509150612af282826040518060600160405280602781526020016132b560279139612afb565b95945050505050565b60608315612b0a575081612b14565b612b148383612b1b565b9392505050565b815115612b2b5781518083602001fd5b8060405162461bcd60e51b8152600401610a0a9190613261565b6040518060c001604052806006906020820280368337509192915050565b6040518061050001604052806028906020820280368337509192915050565b6001600160a01b03811681146107a357600080fd5b600060208284031215612ba957600080fd5b8135612b1481612b82565b634e487b7160e01b600052604160045260246000fd5b600082601f830112612bdb57600080fd5b813567ffffffffffffffff80821115612bf657612bf6612bb4565b604051601f8301601f19908116603f01168101908282118183101715612c1e57612c1e612bb4565b81604052838152866020858801011115612c3757600080fd5b836020870160208301376000602085830101528094505050505092915050565b60008060008060808587031215612c6d57600080fd5b8435612c7881612b82565b93506020850135612c8881612b82565b925060408501359150606085013567ffffffffffffffff811115612cab57600080fd5b612cb787828801612bca565b91505092959194509250565b60008060408385031215612cd657600080fd5b50508035926020909101359150565b600060208284031215612cf757600080fd5b5035919050565b60008060408385031215612d1157600080fd5b8235612d1c81612b82565b946020939093013593505050565b6020808252825182820181905260009190848201906040850190845b81811015612d6257835183529284019291840191600101612d46565b50909695505050505050565b60008060408385031215612d8157600080fd5b8235612d8c81612b82565b9150602083013567ffffffffffffffff811115612da857600080fd5b612db485828601612bca565b9150509250929050565b60008060208385031215612dd157600080fd5b823567ffffffffffffffff80821115612de957600080fd5b818501915085601f830112612dfd57600080fd5b813581811115612e0c57600080fd5b8660208260051b8501011115612e2157600080fd5b60209290920196919550909350505050565b600080600080600060a08688031215612e4b57600080fd5b505083359560208501359550604085013594606081013594506080013592509050565b600080600060608486031215612e8357600080fd5b8335612e8e81612b82565b92506020840135612e9e81612b82565b91506040840135612eae81612b82565b809150509250925092565b600080600060408486031215612ece57600080fd5b833567ffffffffffffffff80821115612ee657600080fd5b818601915086601f830112612efa57600080fd5b813581811115612f0957600080fd5b8760208260081b8501011115612f1e57600080fd5b60209283019550935050840135612eae81612b82565b634e487b7160e01b600052603260045260246000fd5b634e487b7160e01b600052601160045260246000fd5b60008219821115612f7357612f73612f4a565b500190565b600060018201612f8a57612f8a612f4a565b5060010190565b6000816000190483118215151615612fab57612fab612f4a565b500290565b60208082526010908201526f125b9d985b1a59081d1bdad95b881a5960821b604082015260600190565b6020808252602c908201527f46756e6374696f6e206d7573742062652063616c6c6564207468726f7567682060408201526b19195b1959d85d1958d85b1b60a21b606082015260800190565b6020808252602c908201527f46756e6374696f6e206d7573742062652063616c6c6564207468726f7567682060408201526b6163746976652070726f787960a01b606082015260800190565b6040808252810183905260006001600160fb1b0384111561309257600080fd5b8360051b8086606085013760009083016060019081526020909201929092529392505050565b60ff811681146107a357600080fd5b6000602082840312156130d957600080fd5b8135612b14816130b8565b6000602082840312156130f657600080fd5b8151612b1481612b82565b60006020828403121561311357600080fd5b81518015158114612b1457600080fd5b81358155602082013560018201556040820135600282015560608201356003820155608082013560048201556005810160a0830135613161816130b8565b815460ff191660ff9190911617905560c0820135600682015560e090910135600790910155565b60008282101561319a5761319a612f4a565b500390565b6000602082840312156131b157600080fd5b5051919050565b6020808252602b908201527f496e697469616c697a61626c653a20636f6e7472616374206973206e6f74206960408201526a6e697469616c697a696e6760a81b606082015260800190565b634e487b7160e01b600052603160045260246000fd5b60005b8381101561323457818101518382015260200161321c565b8381111561172b5750506000910152565b60008251613257818460208701613219565b9190910192915050565b6020815260008251806020840152613280816040850160208701613219565b601f01601f1916919091016040019291505056fe360894a13ba1a3210667c828492db98dca3e2076cc3735a920a3ca505d382bbc416464726573733a206c6f772d6c6576656c2064656c65676174652063616c6c206661696c6564a2646970667358221220a85e1dfba1fb128b98dc105d4d343937949efa90fc28054b814a37ac5f1ac22064736f6c634300080f0033",
  "linkReferences": {},
  "deployedLinkReferences": {}
}