{
  "_format": "hh-sol-artifact-1",
  "contractName": "HatchyPocketEggs",
  "sourceName": "contracts/HatchyPocketEggs.sol",
  "abi": [
    {
      "anonymous": false,
      "inputs": [
        {
          "indexed": false,
          "internalType": "address",
          "name": "previousAdmin",
          "type": "address"
        },
        {
          "indexed": false,
          "internalType": "address",
          "name": "newAdmin",
          "type": "address"
        }
      ],
      "name": "AdminChanged",
      "type": "event"
    },
    {
      "anonymous": false,
      "inputs": [
        {
          "indexed": true,
          "internalType": "address",
          "name": "account",
          "type": "address"
        },
        {
          "indexed": true,
          "internalType": "address",
          "name": "operator",
          "type": "address"
        },
        {
          "indexed": false,
          "internalType": "bool",
          "name": "approved",
          "type": "bool"
        }
      ],
      "name": "ApprovalForAll",
      "type": "event"
    },
    {
      "anonymous": false,
      "inputs": [
        {
          "indexed": true,
          "internalType": "address",
          "name": "beacon",
          "type": "address"
        }
      ],
      "name": "BeaconUpgraded",
      "type": "event"
    },
    {
      "anonymous": false,
      "inputs": [
        {
          "indexed": false,
          "internalType": "uint8",
          "name": "version",
          "type": "uint8"
        }
      ],
      "name": "Initialized",
      "type": "event"
    },
    {
      "anonymous": false,
      "inputs": [
        {
          "indexed": true,
          "internalType": "address",
          "name": "previousOwner",
          "type": "address"
        },
        {
          "indexed": true,
          "internalType": "address",
          "name": "newOwner",
          "type": "address"
        }
      ],
      "name": "OwnershipTransferred",
      "type": "event"
    },
    {
      "anonymous": false,
      "inputs": [
        {
          "indexed": true,
          "internalType": "address",
          "name": "operator",
          "type": "address"
        },
        {
          "indexed": true,
          "internalType": "address",
          "name": "from",
          "type": "address"
        },
        {
          "indexed": true,
          "internalType": "address",
          "name": "to",
          "type": "address"
        },
        {
          "indexed": false,
          "internalType": "uint256[]",
          "name": "ids",
          "type": "uint256[]"
        },
        {
          "indexed": false,
          "internalType": "uint256[]",
          "name": "values",
          "type": "uint256[]"
        }
      ],
      "name": "TransferBatch",
      "type": "event"
    },
    {
      "anonymous": false,
      "inputs": [
        {
          "indexed": true,
          "internalType": "address",
          "name": "operator",
          "type": "address"
        },
        {
          "indexed": true,
          "internalType": "address",
          "name": "from",
          "type": "address"
        },
        {
          "indexed": true,
          "internalType": "address",
          "name": "to",
          "type": "address"
        },
        {
          "indexed": false,
          "internalType": "uint256",
          "name": "id",
          "type": "uint256"
        },
        {
          "indexed": false,
          "internalType": "uint256",
          "name": "value",
          "type": "uint256"
        }
      ],
      "name": "TransferSingle",
      "type": "event"
    },
    {
      "anonymous": false,
      "inputs": [
        {
          "indexed": false,
          "internalType": "string",
          "name": "value",
          "type": "string"
        },
        {
          "indexed": true,
          "internalType": "uint256",
          "name": "id",
          "type": "uint256"
        }
      ],
      "name": "URI",
      "type": "event"
    },
    {
      "anonymous": false,
      "inputs": [
        {
          "indexed": true,
          "internalType": "address",
          "name": "implementation",
          "type": "address"
        }
      ],
      "name": "Upgraded",
      "type": "event"
    },
    {
      "inputs": [],
      "name": "HatchyPocketGen2",
      "outputs": [
        {
          "internalType": "address",
          "name": "",
          "type": "address"
        }
      ],
      "stateMutability": "view",
      "type": "function"
    },
    {
      "inputs": [],
      "name": "MAX_LUNAR",
      "outputs": [
        {
          "internalType": "uint256",
          "name": "",
          "type": "uint256"
        }
      ],
      "stateMutability": "view",
      "type": "function"
    },
    {
      "inputs": [],
      "name": "MAX_PER_TX",
      "outputs": [
        {
          "internalType": "uint256",
          "name": "",
          "type": "uint256"
        }
      ],
      "stateMutability": "view",
      "type": "function"
    },
    {
      "inputs": [],
      "name": "MAX_SOLAR",
      "outputs": [
        {
          "internalType": "uint256",
          "name": "",
          "type": "uint256"
        }
      ],
      "stateMutability": "view",
      "type": "function"
    },
    {
      "inputs": [],
      "name": "PRICE",
      "outputs": [
        {
          "internalType": "uint256",
          "name": "",
          "type": "uint256"
        }
      ],
      "stateMutability": "view",
      "type": "function"
    },
    {
      "inputs": [
        {
          "internalType": "bytes",
          "name": "",
          "type": "bytes"
        }
      ],
      "name": "UsedSignatures",
      "outputs": [
        {
          "internalType": "bool",
          "name": "",
          "type": "bool"
        }
      ],
      "stateMutability": "view",
      "type": "function"
    },
    {
      "inputs": [
        {
          "internalType": "address",
          "name": "account",
          "type": "address"
        },
        {
          "internalType": "uint256[]",
          "name": "ids",
          "type": "uint256[]"
        }
      ],
      "name": "accountBalanceBatch",
      "outputs": [
        {
          "internalType": "uint256[]",
          "name": "",
          "type": "uint256[]"
        }
      ],
      "stateMutability": "view",
      "type": "function"
    },
    {
      "inputs": [
        {
          "internalType": "address",
          "name": "account",
          "type": "address"
        },
        {
          "internalType": "uint256",
          "name": "id",
          "type": "uint256"
        }
      ],
      "name": "balanceOf",
      "outputs": [
        {
          "internalType": "uint256",
          "name": "",
          "type": "uint256"
        }
      ],
      "stateMutability": "view",
      "type": "function"
    },
    {
      "inputs": [
        {
          "internalType": "address[]",
          "name": "accounts",
          "type": "address[]"
        },
        {
          "internalType": "uint256[]",
          "name": "ids",
          "type": "uint256[]"
        }
      ],
      "name": "balanceOfBatch",
      "outputs": [
        {
          "internalType": "uint256[]",
          "name": "",
          "type": "uint256[]"
        }
      ],
      "stateMutability": "view",
      "type": "function"
    },
    {
      "inputs": [
        {
          "internalType": "enum Hatchy.Egg",
          "name": "egg",
          "type": "uint8"
        },
        {
          "internalType": "uint256",
          "name": "amount",
          "type": "uint256"
        }
      ],
      "name": "burn",
      "outputs": [],
      "stateMutability": "nonpayable",
      "type": "function"
    },
    {
      "inputs": [
        {
          "internalType": "enum Hatchy.Egg",
          "name": "egg",
          "type": "uint8"
        },
        {
          "internalType": "address",
          "name": "account",
          "type": "address"
        },
        {
          "internalType": "uint256",
          "name": "amount",
          "type": "uint256"
        }
      ],
      "name": "burnEggOfUser",
      "outputs": [],
      "stateMutability": "nonpayable",
      "type": "function"
    },
    {
      "inputs": [],
      "name": "clearMyReferral",
      "outputs": [],
      "stateMutability": "nonpayable",
      "type": "function"
    },
    {
      "inputs": [
        {
          "components": [
            {
              "internalType": "address",
              "name": "receiver",
              "type": "address"
            },
            {
              "internalType": "enum Hatchy.Egg",
              "name": "egg",
              "type": "uint8"
            },
            {
              "internalType": "uint256",
              "name": "amount",
              "type": "uint256"
            },
            {
              "internalType": "address",
              "name": "referral",
              "type": "address"
            },
            {
              "internalType": "uint256",
              "name": "price",
              "type": "uint256"
            },
            {
              "internalType": "uint256",
              "name": "voucherId",
              "type": "uint256"
            },
            {
              "internalType": "bytes",
              "name": "signature",
              "type": "bytes"
            }
          ],
          "internalType": "struct EggSaleSignatureData",
          "name": "payload",
          "type": "tuple"
        }
      ],
      "name": "eggSale",
      "outputs": [],
      "stateMutability": "payable",
      "type": "function"
    },
    {
      "inputs": [
        {
          "internalType": "enum Hatchy.Egg",
          "name": "",
          "type": "uint8"
        }
      ],
      "name": "eggSupplies",
      "outputs": [
        {
          "internalType": "uint256",
          "name": "",
          "type": "uint256"
        }
      ],
      "stateMutability": "view",
      "type": "function"
    },
    {
      "inputs": [
        {
          "components": [
            {
              "internalType": "address",
              "name": "receiver",
              "type": "address"
            },
            {
              "internalType": "enum Hatchy.Egg",
              "name": "egg",
              "type": "uint8"
            },
            {
              "internalType": "uint256",
              "name": "amount",
              "type": "uint256"
            },
            {
              "internalType": "address",
              "name": "referral",
              "type": "address"
            },
            {
              "internalType": "uint256",
              "name": "price",
              "type": "uint256"
            },
            {
              "internalType": "uint256",
              "name": "voucherId",
              "type": "uint256"
            },
            {
              "internalType": "bytes",
              "name": "signature",
              "type": "bytes"
            }
          ],
          "internalType": "struct EggSaleSignatureData",
          "name": "payload",
          "type": "tuple"
        }
      ],
      "name": "encodePackedEggSaleData",
      "outputs": [
        {
          "internalType": "bytes32",
          "name": "",
          "type": "bytes32"
        }
      ],
      "stateMutability": "pure",
      "type": "function"
    },
    {
      "inputs": [
        {
          "internalType": "string",
          "name": "_baseUri",
          "type": "string"
        },
        {
          "internalType": "uint256",
          "name": "_price",
          "type": "uint256"
        },
        {
          "internalType": "address",
          "name": "_erc20",
          "type": "address"
        }
      ],
      "name": "initialize",
      "outputs": [],
      "stateMutability": "nonpayable",
      "type": "function"
    },
    {
      "inputs": [
        {
          "internalType": "address",
          "name": "account",
          "type": "address"
        },
        {
          "internalType": "address",
          "name": "operator",
          "type": "address"
        }
      ],
      "name": "isApprovedForAll",
      "outputs": [
        {
          "internalType": "bool",
          "name": "",
          "type": "bool"
        }
      ],
      "stateMutability": "view",
      "type": "function"
    },
    {
      "inputs": [
        {
          "internalType": "enum Hatchy.Egg",
          "name": "egg",
          "type": "uint8"
        },
        {
          "internalType": "uint256",
          "name": "amount",
          "type": "uint256"
        },
        {
          "internalType": "address",
          "name": "receiver",
          "type": "address"
        }
      ],
      "name": "mintAirdropEgg",
      "outputs": [],
      "stateMutability": "nonpayable",
      "type": "function"
    },
    {
      "inputs": [
        {
          "internalType": "enum Hatchy.Egg",
          "name": "egg",
          "type": "uint8"
        },
        {
          "internalType": "uint256",
          "name": "amount",
          "type": "uint256"
        },
        {
          "internalType": "address",
          "name": "referral",
          "type": "address"
        }
      ],
      "name": "mintEgg",
      "outputs": [],
      "stateMutability": "nonpayable",
      "type": "function"
    },
    {
      "inputs": [],
      "name": "name",
      "outputs": [
        {
          "internalType": "string",
          "name": "_name",
          "type": "string"
        }
      ],
      "stateMutability": "pure",
      "type": "function"
    },
    {
      "inputs": [],
      "name": "owner",
      "outputs": [
        {
          "internalType": "address",
          "name": "",
          "type": "address"
        }
      ],
      "stateMutability": "view",
      "type": "function"
    },
    {
      "inputs": [],
      "name": "proxiableUUID",
      "outputs": [
        {
          "internalType": "bytes32",
          "name": "",
          "type": "bytes32"
        }
      ],
      "stateMutability": "view",
      "type": "function"
    },
    {
      "inputs": [
        {
          "internalType": "address",
          "name": "",
          "type": "address"
        }
      ],
      "name": "referrals",
      "outputs": [
        {
          "internalType": "address",
          "name": "",
          "type": "address"
        }
      ],
      "stateMutability": "view",
      "type": "function"
    },
    {
      "inputs": [],
      "name": "renounceOwnership",
      "outputs": [],
      "stateMutability": "nonpayable",
      "type": "function"
    },
    {
      "inputs": [
        {
          "internalType": "address",
          "name": "from",
          "type": "address"
        },
        {
          "internalType": "address",
          "name": "to",
          "type": "address"
        },
        {
          "internalType": "uint256[]",
          "name": "ids",
          "type": "uint256[]"
        },
        {
          "internalType": "uint256[]",
          "name": "amounts",
          "type": "uint256[]"
        },
        {
          "internalType": "bytes",
          "name": "data",
          "type": "bytes"
        }
      ],
      "name": "safeBatchTransferFrom",
      "outputs": [],
      "stateMutability": "nonpayable",
      "type": "function"
    },
    {
      "inputs": [
        {
          "internalType": "address",
          "name": "from",
          "type": "address"
        },
        {
          "internalType": "address",
          "name": "to",
          "type": "address"
        },
        {
          "internalType": "uint256",
          "name": "id",
          "type": "uint256"
        },
        {
          "internalType": "uint256",
          "name": "amount",
          "type": "uint256"
        },
        {
          "internalType": "bytes",
          "name": "data",
          "type": "bytes"
        }
      ],
      "name": "safeTransferFrom",
      "outputs": [],
      "stateMutability": "nonpayable",
      "type": "function"
    },
    {
      "inputs": [
        {
          "internalType": "address",
          "name": "operator",
          "type": "address"
        },
        {
          "internalType": "bool",
          "name": "approved",
          "type": "bool"
        }
      ],
      "name": "setApprovalForAll",
      "outputs": [],
      "stateMutability": "nonpayable",
      "type": "function"
    },
    {
      "inputs": [
        {
          "internalType": "string",
          "name": "_newBaseMetadataURI",
          "type": "string"
        }
      ],
      "name": "setBaseMetadataURI",
      "outputs": [],
      "stateMutability": "nonpayable",
      "type": "function"
    },
    {
      "inputs": [
        {
          "internalType": "address",
          "name": "_hatchy",
          "type": "address"
        }
      ],
      "name": "setHatchy",
      "outputs": [],
      "stateMutability": "nonpayable",
      "type": "function"
    },
    {
      "inputs": [
        {
          "internalType": "address",
          "name": "_gen2Address",
          "type": "address"
        }
      ],
      "name": "setHatchyGen2",
      "outputs": [],
      "stateMutability": "nonpayable",
      "type": "function"
    },
    {
      "inputs": [
        {
          "internalType": "uint256",
          "name": "_price",
          "type": "uint256"
        }
      ],
      "name": "setPrice",
      "outputs": [],
      "stateMutability": "nonpayable",
      "type": "function"
    },
    {
      "inputs": [
        {
          "internalType": "address",
          "name": "account",
          "type": "address"
        }
      ],
      "name": "setSigner",
      "outputs": [],
      "stateMutability": "nonpayable",
      "type": "function"
    },
    {
      "inputs": [],
      "name": "signer",
      "outputs": [
        {
          "internalType": "address",
          "name": "",
          "type": "address"
        }
      ],
      "stateMutability": "view",
      "type": "function"
    },
    {
      "inputs": [
        {
          "internalType": "bytes4",
          "name": "interfaceId",
          "type": "bytes4"
        }
      ],
      "name": "supportsInterface",
      "outputs": [
        {
          "internalType": "bool",
          "name": "",
          "type": "bool"
        }
      ],
      "stateMutability": "view",
      "type": "function"
    },
    {
      "inputs": [],
      "name": "symbol",
      "outputs": [
        {
          "internalType": "string",
          "name": "_name",
          "type": "string"
        }
      ],
      "stateMutability": "pure",
      "type": "function"
    },
    {
      "inputs": [
        {
          "internalType": "uint256",
          "name": "id",
          "type": "uint256"
        }
      ],
      "name": "tokenURI",
      "outputs": [
        {
          "internalType": "string",
          "name": "",
          "type": "string"
        }
      ],
      "stateMutability": "view",
      "type": "function"
    },
    {
      "inputs": [
        {
          "internalType": "address",
          "name": "newOwner",
          "type": "address"
        }
      ],
      "name": "transferOwnership",
      "outputs": [],
      "stateMutability": "nonpayable",
      "type": "function"
    },
    {
      "inputs": [
        {
          "internalType": "address",
          "name": "newImplementation",
          "type": "address"
        }
      ],
      "name": "upgradeTo",
      "outputs": [],
      "stateMutability": "nonpayable",
      "type": "function"
    },
    {
      "inputs": [
        {
          "internalType": "address",
          "name": "newImplementation",
          "type": "address"
        },
        {
          "internalType": "bytes",
          "name": "data",
          "type": "bytes"
        }
      ],
      "name": "upgradeToAndCall",
      "outputs": [],
      "stateMutability": "payable",
      "type": "function"
    },
    {
      "inputs": [
        {
          "internalType": "uint256",
          "name": "_id",
          "type": "uint256"
        }
      ],
      "name": "uri",
      "outputs": [
        {
          "internalType": "string",
          "name": "",
          "type": "string"
        }
      ],
      "stateMutability": "view",
      "type": "function"
    }
  ],
  "bytecode": "0x60a06040523060805234801561001457600080fd5b50608051613def61004c6000396000818161091c0152818161095c01528181610b4f01528181610b8f0152610d6f0152613def6000f3fe60806040526004361061023a5760003560e01c8063715018a61161012e578063a22cb465116100ab578063e985e9c51161006f578063e985e9c514610713578063f17bdcce1461075c578063f242432a1461077c578063f2fde38b1461079c578063f43a22dc146107bc57600080fd5b8063a22cb46514610673578063a8b7854e14610693578063ba0bcbde146106b3578063c6fb7895146106d3578063c87b56dd146106f357600080fd5b80638e3d792a116100f25780638e3d792a1461059a57806391b7f5ed146105d657806394031926146105f657806395d89b41146106095780639ca423b31461063c57600080fd5b8063715018a61461050f5780637e518ec81461052457806388001b31146105445780638d859f3e146105655780638da5cb5b1461057c57600080fd5b806343165faf116101bc57806352d1902d1161018057806352d1902d1461047a5780635531343a1461048f57806359c4235c146104af5780635fafd4a5146104cf5780636c19e783146104ef57600080fd5b806343165faf146103d55780634dd0dc99146103ec5780634e1273f41461041a5780634f1ef286146104475780634f3bddeb1461045a57600080fd5b80632eb2c2d6116102035780632eb2c2d6146103435780632f6d83ea146103655780633659cfe6146103955780633c009069146103b557806341703fe8146103d557600080fd5b8062fdd58e1461023f57806301ffc9a71461027257806306fdde03146102a25780630e89341c146102ea578063238ac9331461030a575b600080fd5b34801561024b57600080fd5b5061025f61025a366004612ed1565b6107d1565b6040519081526020015b60405180910390f35b34801561027e57600080fd5b5061029261028d366004612f11565b610869565b6040519015158152602001610269565b3480156102ae57600080fd5b50604080518082019091526016815275486174636879506f636b65742047656e32204567677360501b60208201525b6040516102699190612f86565b3480156102f657600080fd5b506102dd610305366004612f99565b6108bb565b34801561031657600080fd5b506101345461032b906001600160a01b031681565b6040516001600160a01b039091168152602001610269565b34801561034f57600080fd5b5061036361035e366004613123565b6108c6565b005b34801561037157600080fd5b506103633360009081526101306020526040902080546001600160a01b0319169055565b3480156103a157600080fd5b506103636103b03660046131cc565b610912565b3480156103c157600080fd5b506103636103d03660046131cc565b6109f1565b3480156103e157600080fd5b5061025f62030d3881565b3480156103f857600080fd5b5061025f6104073660046131f6565b6101316020526000908152604090205481565b34801561042657600080fd5b5061043a610435366004613211565b610a1c565b6040516102699190613316565b610363610455366004613329565b610b45565b34801561046657600080fd5b5061036361047536600461336c565b610c15565b34801561048657600080fd5b5061025f610d62565b34801561049b57600080fd5b5061025f6104aa3660046133c2565b610e16565b3480156104bb57600080fd5b506103636104ca36600461347f565b610e63565b3480156104db57600080fd5b506103636104ea3660046131cc565b610e7f565b3480156104fb57600080fd5b5061036361050a3660046131cc565b610eaa565b34801561051b57600080fd5b50610363610ed5565b34801561053057600080fd5b5061036361053f36600461349b565b610ee9565b34801561055057600080fd5b5061012f5461032b906001600160a01b031681565b34801561057157600080fd5b5061025f61012d5481565b34801561058857600080fd5b506033546001600160a01b031661032b565b3480156105a657600080fd5b506102926105b536600461349b565b80516020818301810180516101338252928201919093012091525460ff1681565b3480156105e257600080fd5b506103636105f1366004612f99565b610efa565b6103636106043660046133c2565b610f08565b34801561061557600080fd5b5060408051808201909152600a8152694841544348592445474760b01b60208201526102dd565b34801561064857600080fd5b5061032b6106573660046131cc565b610130602052600090815260409020546001600160a01b031681565b34801561067f57600080fd5b5061036361068e3660046134e5565b611481565b34801561069f57600080fd5b506103636106ae36600461351c565b61148c565b3480156106bf57600080fd5b506103636106ce366004613558565b611544565b3480156106df57600080fd5b506103636106ee366004613558565b6116e0565b3480156106ff57600080fd5b506102dd61070e366004612f99565b611acc565b34801561071f57600080fd5b5061029261072e36600461358b565b6001600160a01b03918216600090815260986020908152604080832093909416825291909152205460ff1690565b34801561076857600080fd5b5061043a6107773660046135be565b611b01565b34801561078857600080fd5b50610363610797366004613601565b611b91565b3480156107a857600080fd5b506103636107b73660046131cc565b611bd6565b3480156107c857600080fd5b5061025f606481565b60006001600160a01b0383166108415760405162461bcd60e51b815260206004820152602a60248201527f455243313135353a2061646472657373207a65726f206973206e6f742061207660448201526930b634b21037bbb732b960b11b60648201526084015b60405180910390fd5b5060009081526097602090815260408083206001600160a01b03949094168352929052205490565b60006001600160e01b03198216636cdb3d1360e11b148061089a57506001600160e01b031982166303a24d0760e21b145b806108b557506301ffc9a760e01b6001600160e01b03198316145b92915050565b60606108b582611acc565b6001600160a01b0385163314806108e257506108e2853361072e565b6108fe5760405162461bcd60e51b815260040161083890613665565b61090b8585858585611c4c565b5050505050565b6001600160a01b037f000000000000000000000000000000000000000000000000000000000000000016300361095a5760405162461bcd60e51b8152600401610838906136b3565b7f00000000000000000000000000000000000000000000000000000000000000006001600160a01b03166109a3600080516020613d73833981519152546001600160a01b031690565b6001600160a01b0316146109c95760405162461bcd60e51b8152600401610838906136ff565b6109d281611e24565b604080516000808252602082019092526109ee91839190611e2c565b50565b6109f9611f97565b61012e80546001600160a01b0319166001600160a01b0392909216919091179055565b60608151835114610a815760405162461bcd60e51b815260206004820152602960248201527f455243313135353a206163636f756e747320616e6420696473206c656e677468604482015268040dad2e6dac2e8c6d60bb1b6064820152608401610838565b600083516001600160401b03811115610a9c57610a9c612fb2565b604051908082528060200260200182016040528015610ac5578160200160208202803683370190505b50905060005b8451811015610b3d57610b10858281518110610ae957610ae961374b565b6020026020010151858381518110610b0357610b0361374b565b60200260200101516107d1565b828281518110610b2257610b2261374b565b6020908102919091010152610b3681613777565b9050610acb565b509392505050565b6001600160a01b037f0000000000000000000000000000000000000000000000000000000000000000163003610b8d5760405162461bcd60e51b8152600401610838906136b3565b7f00000000000000000000000000000000000000000000000000000000000000006001600160a01b0316610bd6600080516020613d73833981519152546001600160a01b031690565b6001600160a01b031614610bfc5760405162461bcd60e51b8152600401610838906136ff565b610c0582611e24565b610c1182826001611e2c565b5050565b600054610100900460ff1615808015610c355750600054600160ff909116105b80610c4f5750303b158015610c4f575060005460ff166001145b610cb25760405162461bcd60e51b815260206004820152602e60248201527f496e697469616c697a61626c653a20636f6e747261637420697320616c72656160448201526d191e481a5b9a5d1a585b1a5e995960921b6064820152608401610838565b6000805460ff191660011790558015610cd5576000805461ff0019166101001790555b610cde84611ff1565b610ce6612021565b61012d83905561012e80546001600160a01b0319166001600160a01b038416179055610132610d158582613810565b508015610d5c576000805461ff0019169055604051600181527f7f26b83ff96e1f2b6a682f133852f6798a09c465da95921460cefb38474024989060200160405180910390a15b50505050565b6000306001600160a01b037f00000000000000000000000000000000000000000000000000000000000000001614610e025760405162461bcd60e51b815260206004820152603860248201527f555550535570677261646561626c653a206d757374206e6f742062652063616c60448201527f6c6564207468726f7567682064656c656761746563616c6c00000000000000006064820152608401610838565b50600080516020613d738339815191525b90565b80516020808301516040808501516060860151608087015160a08801519351600097610e469790969591016138e5565b604051602081830303815290604052805190602001209050919050565b610c1133836001811115610e7957610e796138cf565b83612050565b610e87611f97565b61012f80546001600160a01b0319166001600160a01b0392909216919091179055565b610eb2611f97565b61013480546001600160a01b0319166001600160a01b0392909216919091179055565b610edd611f97565b610ee760006121d4565b565b610ef1611f97565b6109ee81612226565b610f02611f97565b61012d55565b8051338260c00151610f1984610e16565b826001600160a01b0316846001600160a01b031614610f6b5760405162461bcd60e51b815260206004820152600e60248201526d2bb937b733903932b1b2b4bb32b960911b6044820152606401610838565b610f7482612232565b15610faf5760405162461bcd60e51b815260206004820152600b60248201526a496e76616c69642053696760a81b6044820152606401610838565b610fb88261225e565b6000610fdc610fc78484612294565b610134546001600160a01b0390811691161490565b9050806110195760405162461bcd60e51b815260206004820152600b60248201526a496e76616c69642053696760a81b6044820152606401610838565b60608601516001600160a01b0316331480159061104d575033600090815261013060205260409020546001600160a01b0316155b8015611065575060608601516001600160a01b031615155b1561109d5760608601513360009081526101306020526040902080546001600160a01b0319166001600160a01b039092169190911790555b6001866020015160018111156110b5576110b56138cf565b1461112b5762030d3886604001516101316000896020015160018111156110de576110de6138cf565b60018111156110ef576110ef6138cf565b8152602001908152602001600020546111089190613953565b11156111265760405162461bcd60e51b81526004016108389061396b565b611197565b62030d38866040015161013160008960200151600181111561114f5761114f6138cf565b6001811115611160576111606138cf565b8152602001908152602001600020546111799190613953565b11156111975760405162461bcd60e51b81526004016108389061396b565b6064866040015111156111a957600080fd5b6080860151156113d2576000866040015187608001516111c99190613989565b33600090815261013060205260409020549091506001600160a01b0316156113405761012e546001600160a01b03166323b872dd336112106033546001600160a01b031690565b606461121d86605a613989565b61122791906139a8565b6040518463ffffffff1660e01b8152600401611245939291906139ca565b6020604051808303816000875af1158015611264573d6000803e3d6000fd5b505050506040513d601f19601f8201168201806040525081019061128891906139ee565b61129157600080fd5b61012e5433600081815261013060205260409020546001600160a01b03928316926323b872dd92911660646112c786600a613989565b6112d191906139a8565b6040518463ffffffff1660e01b81526004016112ef939291906139ca565b6020604051808303816000875af115801561130e573d6000803e3d6000fd5b505050506040513d601f19601f8201168201806040525081019061133291906139ee565b61133b57600080fd5b6113d0565b61012e546001600160a01b03166323b872dd336113656033546001600160a01b031690565b846040518463ffffffff1660e01b8152600401611384939291906139ca565b6020604051808303816000875af11580156113a3573d6000803e3d6000fd5b505050506040513d601f19601f820116820180604052508101906113c791906139ee565b6113d057600080fd5b505b85604001516101316000886020015160018111156113f2576113f26138cf565b6001811115611403576114036138cf565b815260200190815260200160002060008282546114209190613953565b925050819055506114793387602001516001811115611441576114416138cf565b604089015160005b6040519080825280601f01601f191660200182016040528015611473576020820181803683370190505b506122b0565b505050505050565b610c113383836123bd565b61012f546001600160a01b031633146114cf5760405162461bcd60e51b8152602060048201526005602482015264341a3c183960d91b6044820152606401610838565b806114e68385600181111561025a5761025a6138cf565b101580156114f45750600081115b6115295760405162461bcd60e51b8152600401610838906020808252600490820152633130b61760e11b604082015260600190565b61153f82846001811115610e7957610e796138cf565b505050565b738e089fc3a6ee6833745c735b14c3362e0b51d7ce33146115905760405162461bcd60e51b8152600401610838906020808252600490820152630c2eae8d60e31b604082015260600190565b60018360018111156115a4576115a46138cf565b146116125762030d388261013160008660018111156115c5576115c56138cf565b60018111156115d6576115d66138cf565b8152602001908152602001600020546115ef9190613953565b111561160d5760405162461bcd60e51b81526004016108389061396b565b611676565b62030d3882610131600086600181111561162e5761162e6138cf565b600181111561163f5761163f6138cf565b8152602001908152602001600020546116589190613953565b11156116765760405162461bcd60e51b81526004016108389061396b565b81610131600085600181111561168e5761168e6138cf565b600181111561169f5761169f6138cf565b815260200190815260200160002060008282546116bc9190613953565b9091555061153f9050818460018111156116d8576116d86138cf565b846000611449565b6001600160a01b0381163314801590611710575033600090815261013060205260409020546001600160a01b0316155b801561172457506001600160a01b03811615155b15611753573360009081526101306020526040902080546001600160a01b0319166001600160a01b0383161790555b6001836001811115611767576117676138cf565b146117d55762030d38826101316000866001811115611788576117886138cf565b6001811115611799576117996138cf565b8152602001908152602001600020546117b29190613953565b11156117d05760405162461bcd60e51b81526004016108389061396b565b611839565b62030d388261013160008660018111156117f1576117f16138cf565b6001811115611802576118026138cf565b81526020019081526020016000205461181b9190613953565b11156118395760405162461bcd60e51b81526004016108389061396b565b606482111561184757600080fd5b61012d5415611a6a5760008261012d546118619190613989565b33600090815261013060205260409020549091506001600160a01b0316156119d85761012e546001600160a01b03166323b872dd336118a86033546001600160a01b031690565b60646118b586605a613989565b6118bf91906139a8565b6040518463ffffffff1660e01b81526004016118dd939291906139ca565b6020604051808303816000875af11580156118fc573d6000803e3d6000fd5b505050506040513d601f19601f8201168201806040525081019061192091906139ee565b61192957600080fd5b61012e5433600081815261013060205260409020546001600160a01b03928316926323b872dd929116606461195f86600a613989565b61196991906139a8565b6040518463ffffffff1660e01b8152600401611987939291906139ca565b6020604051808303816000875af11580156119a6573d6000803e3d6000fd5b505050506040513d601f19601f820116820180604052508101906119ca91906139ee565b6119d357600080fd5b611a68565b61012e546001600160a01b03166323b872dd336119fd6033546001600160a01b031690565b846040518463ffffffff1660e01b8152600401611a1c939291906139ca565b6020604051808303816000875af1158015611a3b573d6000803e3d6000fd5b505050506040513d601f19601f82011682018060405250810190611a5f91906139ee565b611a6857600080fd5b505b816101316000856001811115611a8257611a826138cf565b6001811115611a9357611a936138cf565b81526020019081526020016000206000828254611ab09190613953565b9091555061153f9050338460018111156116d8576116d86138cf565b6060610132611ada8361249d565b604051602001611aeb929190613a0b565b6040516020818303038152906040529050919050565b6060600082516001600160401b03811115611b1e57611b1e612fb2565b604051908082528060200260200182016040528015611b47578160200160208202803683370190505b50905060005b8351811015610b3d57611b6c85858381518110610b0357610b0361374b565b828281518110611b7e57611b7e61374b565b6020908102919091010152600101611b4d565b6001600160a01b038516331480611bad5750611bad853361072e565b611bc95760405162461bcd60e51b815260040161083890613665565b61090b858585858561252f565b611bde611f97565b6001600160a01b038116611c435760405162461bcd60e51b815260206004820152602660248201527f4f776e61626c653a206e6577206f776e657220697320746865207a65726f206160448201526564647265737360d01b6064820152608401610838565b6109ee816121d4565b8151835114611cae5760405162461bcd60e51b815260206004820152602860248201527f455243313135353a2069647320616e6420616d6f756e7473206c656e677468206044820152670dad2e6dac2e8c6d60c31b6064820152608401610838565b6001600160a01b038416611cd45760405162461bcd60e51b815260040161083890613a92565b3360005b8451811015611dbe576000858281518110611cf557611cf561374b565b602002602001015190506000858381518110611d1357611d1361374b565b60209081029190910181015160008481526097835260408082206001600160a01b038e168352909352919091205490915081811015611d645760405162461bcd60e51b815260040161083890613ad7565b60008381526097602090815260408083206001600160a01b038e8116855292528083208585039055908b16825281208054849290611da3908490613953565b9250508190555050505080611db790613777565b9050611cd8565b50846001600160a01b0316866001600160a01b0316826001600160a01b03167f4a39dc06d4c0dbc64b70af90fd698a233a518aa5d07e595d983b8c0526c8f7fb8787604051611e0e929190613b21565b60405180910390a461147981878787878761265d565b6109ee611f97565b7f4910fdfa16fed3260ed0e7147f7cc6da11a60208b5b9406d12a635614ffd91435460ff1615611e5f5761153f836127b8565b826001600160a01b03166352d1902d6040518163ffffffff1660e01b8152600401602060405180830381865afa925050508015611eb9575060408051601f3d908101601f19168201909252611eb691810190613b46565b60015b611f1c5760405162461bcd60e51b815260206004820152602e60248201527f45524331393637557067726164653a206e657720696d706c656d656e7461746960448201526d6f6e206973206e6f74205555505360901b6064820152608401610838565b600080516020613d738339815191528114611f8b5760405162461bcd60e51b815260206004820152602960248201527f45524331393637557067726164653a20756e737570706f727465642070726f786044820152681a58589b195555525160ba1b6064820152608401610838565b5061153f838383612854565b6033546001600160a01b03163314610ee75760405162461bcd60e51b815260206004820181905260248201527f4f776e61626c653a2063616c6c6572206973206e6f7420746865206f776e65726044820152606401610838565b600054610100900460ff166120185760405162461bcd60e51b815260040161083890613b5f565b6109ee81612879565b600054610100900460ff166120485760405162461bcd60e51b815260040161083890613b5f565b610ee76128a0565b6001600160a01b0383166120b25760405162461bcd60e51b815260206004820152602360248201527f455243313135353a206275726e2066726f6d20746865207a65726f206164647260448201526265737360e81b6064820152608401610838565b3360006120be846128d0565b905060006120cb846128d0565b6040805160208082018352600091829052888252609781528282206001600160a01b038b16835290522054909150848110156121555760405162461bcd60e51b8152602060048201526024808201527f455243313135353a206275726e20616d6f756e7420657863656564732062616c604482015263616e636560e01b6064820152608401610838565b60008681526097602090815260408083206001600160a01b038b81168086529184528285208a8703905582518b81529384018a90529092908816917fc3d58168c5ae7397731d063d5bbf3d657854427343f4c083240f7aacaa2d0f62910160405180910390a46040805160208101909152600090525b50505050505050565b603380546001600160a01b038381166001600160a01b0319831681179093556040519116919082907f8be0079c531659141344cd1fd0a4f28419497f9722a3daafe3b4186f6b6457e090600090a35050565b6099610c118282613810565b6000610133826040516122459190613baa565b9081526040519081900360200190205460ff1692915050565b6001610133826040516122719190613baa565b908152604051908190036020019020805491151560ff1990921691909117905550565b60006122a9836122a38461291b565b90612956565b9392505050565b6001600160a01b0384166123105760405162461bcd60e51b815260206004820152602160248201527f455243313135353a206d696e7420746f20746865207a65726f206164647265736044820152607360f81b6064820152608401610838565b33600061231c856128d0565b90506000612329856128d0565b905060008681526097602090815260408083206001600160a01b038b1684529091528120805487929061235d908490613953565b909155505060408051878152602081018790526001600160a01b03808a1692600092918716917fc3d58168c5ae7397731d063d5bbf3d657854427343f4c083240f7aacaa2d0f62910160405180910390a46121cb83600089898989612972565b816001600160a01b0316836001600160a01b0316036124305760405162461bcd60e51b815260206004820152602960248201527f455243313135353a2073657474696e6720617070726f76616c20737461747573604482015268103337b91039b2b63360b91b6064820152608401610838565b6001600160a01b03838116600081815260986020908152604080832094871680845294825291829020805460ff191686151590811790915591519182527f17307eab39ab6107e8899845ad3d59bd9653f200f220920489ca2b5937696c31910160405180910390a3505050565b606060006124aa83612a2d565b60010190506000816001600160401b038111156124c9576124c9612fb2565b6040519080825280601f01601f1916602001820160405280156124f3576020820181803683370190505b5090508181016020015b600019016f181899199a1a9b1b9c1cb0b131b232b360811b600a86061a8153600a85049450846124fd57509392505050565b6001600160a01b0384166125555760405162461bcd60e51b815260040161083890613a92565b336000612561856128d0565b9050600061256e856128d0565b905060008681526097602090815260408083206001600160a01b038c168452909152902054858110156125b35760405162461bcd60e51b815260040161083890613ad7565b60008781526097602090815260408083206001600160a01b038d8116855292528083208985039055908a168252812080548892906125f2908490613953565b909155505060408051888152602081018890526001600160a01b03808b16928c821692918816917fc3d58168c5ae7397731d063d5bbf3d657854427343f4c083240f7aacaa2d0f62910160405180910390a4612652848a8a8a8a8a612972565b505050505050505050565b6001600160a01b0384163b156114795760405163bc197c8160e01b81526001600160a01b0385169063bc197c81906126a19089908990889088908890600401613bc6565b6020604051808303816000875af19250505080156126dc575060408051601f3d908101601f191682019092526126d991810190613c24565b60015b612788576126e8613c41565b806308c379a00361272157506126fc613c5c565b806127075750612723565b8060405162461bcd60e51b81526004016108389190612f86565b505b60405162461bcd60e51b815260206004820152603460248201527f455243313135353a207472616e7366657220746f206e6f6e2d455243313135356044820152732932b1b2b4bb32b91034b6b83632b6b2b73a32b960611b6064820152608401610838565b6001600160e01b0319811663bc197c8160e01b146121cb5760405162461bcd60e51b815260040161083890613ce5565b6001600160a01b0381163b6128255760405162461bcd60e51b815260206004820152602d60248201527f455243313936373a206e657720696d706c656d656e746174696f6e206973206e60448201526c1bdd08184818dbdb9d1c9858dd609a1b6064820152608401610838565b600080516020613d7383398151915280546001600160a01b0319166001600160a01b0392909216919091179055565b61285d83612b05565b60008251118061286a5750805b1561153f57610d5c8383612b45565b600054610100900460ff16610ef15760405162461bcd60e51b815260040161083890613b5f565b600054610100900460ff166128c75760405162461bcd60e51b815260040161083890613b5f565b610ee7336121d4565b6040805160018082528183019092526060916000919060208083019080368337019050509050828160008151811061290a5761290a61374b565b602090810291909101015292915050565b6040517f19457468657265756d205369676e6564204d6573736167653a0a3332000000006020820152603c8101829052600090605c01610e46565b60008060006129658585612c39565b91509150610b3d81612c7e565b6001600160a01b0384163b156114795760405163f23a6e6160e01b81526001600160a01b0385169063f23a6e61906129b69089908990889088908890600401613d2d565b6020604051808303816000875af19250505080156129f1575060408051601f3d908101601f191682019092526129ee91810190613c24565b60015b6129fd576126e8613c41565b6001600160e01b0319811663f23a6e6160e01b146121cb5760405162461bcd60e51b815260040161083890613ce5565b60008072184f03e93ff9f4daa797ed6e38ed64bf6a1f0160401b8310612a6c5772184f03e93ff9f4daa797ed6e38ed64bf6a1f0160401b830492506040015b6d04ee2d6d415b85acef81000000008310612a98576d04ee2d6d415b85acef8100000000830492506020015b662386f26fc100008310612ab657662386f26fc10000830492506010015b6305f5e1008310612ace576305f5e100830492506008015b6127108310612ae257612710830492506004015b60648310612af4576064830492506002015b600a83106108b55760010192915050565b612b0e816127b8565b6040516001600160a01b038216907fbc7cd75a20ee27fd9adebab32041f755214dbc6bffa90cc0225b39da2e5c2d3b90600090a250565b60606001600160a01b0383163b612bad5760405162461bcd60e51b815260206004820152602660248201527f416464726573733a2064656c65676174652063616c6c20746f206e6f6e2d636f6044820152651b9d1c9858dd60d21b6064820152608401610838565b600080846001600160a01b031684604051612bc89190613baa565b600060405180830381855af49150503d8060008114612c03576040519150601f19603f3d011682016040523d82523d6000602084013e612c08565b606091505b5091509150612c308282604051806060016040528060278152602001613d9360279139612dc8565b95945050505050565b6000808251604103612c6f5760208301516040840151606085015160001a612c6387828585612de1565b94509450505050612c77565b506000905060025b9250929050565b6000816004811115612c9257612c926138cf565b03612c9a5750565b6001816004811115612cae57612cae6138cf565b03612cfb5760405162461bcd60e51b815260206004820152601860248201527f45434453413a20696e76616c6964207369676e617475726500000000000000006044820152606401610838565b6002816004811115612d0f57612d0f6138cf565b03612d5c5760405162461bcd60e51b815260206004820152601f60248201527f45434453413a20696e76616c6964207369676e6174757265206c656e677468006044820152606401610838565b6003816004811115612d7057612d706138cf565b036109ee5760405162461bcd60e51b815260206004820152602260248201527f45434453413a20696e76616c6964207369676e6174757265202773272076616c604482015261756560f01b6064820152608401610838565b60608315612dd75750816122a9565b6122a98383612ea5565b6000807f7fffffffffffffffffffffffffffffff5d576e7357a4501ddfe92f46681b20a0831115612e185750600090506003612e9c565b6040805160008082526020820180845289905260ff881692820192909252606081018690526080810185905260019060a0016020604051602081039080840390855afa158015612e6c573d6000803e3d6000fd5b5050604051601f1901519150506001600160a01b038116612e9557600060019250925050612e9c565b9150600090505b94509492505050565b8151156127075781518083602001fd5b80356001600160a01b0381168114612ecc57600080fd5b919050565b60008060408385031215612ee457600080fd5b612eed83612eb5565b946020939093013593505050565b6001600160e01b0319811681146109ee57600080fd5b600060208284031215612f2357600080fd5b81356122a981612efb565b60005b83811015612f49578181015183820152602001612f31565b83811115610d5c5750506000910152565b60008151808452612f72816020860160208601612f2e565b601f01601f19169290920160200192915050565b6020815260006122a96020830184612f5a565b600060208284031215612fab57600080fd5b5035919050565b634e487b7160e01b600052604160045260246000fd5b601f8201601f191681016001600160401b0381118282101715612fed57612fed612fb2565b6040525050565b60405160e081016001600160401b038111828210171561301657613016612fb2565b60405290565b60006001600160401b0382111561303557613035612fb2565b5060051b60200190565b600082601f83011261305057600080fd5b8135602061305d8261301c565b60405161306a8282612fc8565b83815260059390931b850182019282810191508684111561308a57600080fd5b8286015b848110156130a5578035835291830191830161308e565b509695505050505050565b600082601f8301126130c157600080fd5b81356001600160401b038111156130da576130da612fb2565b6040516130f1601f8301601f191660200182612fc8565b81815284602083860101111561310657600080fd5b816020850160208301376000918101602001919091529392505050565b600080600080600060a0868803121561313b57600080fd5b61314486612eb5565b945061315260208701612eb5565b935060408601356001600160401b038082111561316e57600080fd5b61317a89838a0161303f565b9450606088013591508082111561319057600080fd5b61319c89838a0161303f565b935060808801359150808211156131b257600080fd5b506131bf888289016130b0565b9150509295509295909350565b6000602082840312156131de57600080fd5b6122a982612eb5565b803560028110612ecc57600080fd5b60006020828403121561320857600080fd5b6122a9826131e7565b6000806040838503121561322457600080fd5b82356001600160401b038082111561323b57600080fd5b818501915085601f83011261324f57600080fd5b8135602061325c8261301c565b6040516132698282612fc8565b83815260059390931b850182019282810191508984111561328957600080fd5b948201945b838610156132ae5761329f86612eb5565b8252948201949082019061328e565b965050860135925050808211156132c457600080fd5b506132d18582860161303f565b9150509250929050565b600081518084526020808501945080840160005b8381101561330b578151875295820195908201906001016132ef565b509495945050505050565b6020815260006122a960208301846132db565b6000806040838503121561333c57600080fd5b61334583612eb5565b915060208301356001600160401b0381111561336057600080fd5b6132d1858286016130b0565b60008060006060848603121561338157600080fd5b83356001600160401b0381111561339757600080fd5b6133a3868287016130b0565b935050602084013591506133b960408501612eb5565b90509250925092565b6000602082840312156133d457600080fd5b81356001600160401b03808211156133eb57600080fd5b9083019060e082860312156133ff57600080fd5b613407612ff4565b61341083612eb5565b815261341e602084016131e7565b60208201526040830135604082015261343960608401612eb5565b60608201526080830135608082015260a083013560a082015260c08301358281111561346457600080fd5b613470878286016130b0565b60c08301525095945050505050565b6000806040838503121561349257600080fd5b612eed836131e7565b6000602082840312156134ad57600080fd5b81356001600160401b038111156134c357600080fd5b6134cf848285016130b0565b949350505050565b80151581146109ee57600080fd5b600080604083850312156134f857600080fd5b61350183612eb5565b91506020830135613511816134d7565b809150509250929050565b60008060006060848603121561353157600080fd5b61353a846131e7565b925061354860208501612eb5565b9150604084013590509250925092565b60008060006060848603121561356d57600080fd5b613576846131e7565b9250602084013591506133b960408501612eb5565b6000806040838503121561359e57600080fd5b6135a783612eb5565b91506135b560208401612eb5565b90509250929050565b600080604083850312156135d157600080fd5b6135da83612eb5565b915060208301356001600160401b038111156135f557600080fd5b6132d18582860161303f565b600080600080600060a0868803121561361957600080fd5b61362286612eb5565b945061363060208701612eb5565b9350604086013592506060860135915060808601356001600160401b0381111561365957600080fd5b6131bf888289016130b0565b6020808252602e908201527f455243313135353a2063616c6c6572206973206e6f7420746f6b656e206f776e60408201526d195c881bdc88185c1c1c9bdd995960921b606082015260800190565b6020808252602c908201527f46756e6374696f6e206d7573742062652063616c6c6564207468726f7567682060408201526b19195b1959d85d1958d85b1b60a21b606082015260800190565b6020808252602c908201527f46756e6374696f6e206d7573742062652063616c6c6564207468726f7567682060408201526b6163746976652070726f787960a01b606082015260800190565b634e487b7160e01b600052603260045260246000fd5b634e487b7160e01b600052601160045260246000fd5b60006001820161378957613789613761565b5060010190565b600181811c908216806137a457607f821691505b6020821081036137c457634e487b7160e01b600052602260045260246000fd5b50919050565b601f82111561153f57600081815260208120601f850160051c810160208610156137f15750805b601f850160051c820191505b81811015611479578281556001016137fd565b81516001600160401b0381111561382957613829612fb2565b61383d816138378454613790565b846137ca565b602080601f831160018114613872576000841561385a5750858301515b600019600386901b1c1916600185901b178555611479565b600085815260208120601f198616915b828110156138a157888601518255948401946001909101908401613882565b50858210156138bf5787850151600019600388901b60f8161c191681555b5050505050600190811b01905550565b634e487b7160e01b600052602160045260246000fd5b60006bffffffffffffffffffffffff19808960601b1683526002881061391b57634e487b7160e01b600052602160045260246000fd5b8760f81b6014840152866015840152808660601b16603584015250836049830152826069830152608982019050979650505050505050565b6000821982111561396657613966613761565b500190565b60208082526004908201526336b0bc1760e11b604082015260600190565b60008160001904831182151516156139a3576139a3613761565b500290565b6000826139c557634e487b7160e01b600052601260045260246000fd5b500490565b6001600160a01b039384168152919092166020820152604081019190915260600190565b600060208284031215613a0057600080fd5b81516122a9816134d7565b6000808454613a1981613790565b60018281168015613a315760018114613a4657613a75565b60ff1984168752821515830287019450613a75565b8860005260208060002060005b85811015613a6c5781548a820152908401908201613a53565b50505082870194505b505050508351613a89818360208801612f2e565b01949350505050565b60208082526025908201527f455243313135353a207472616e7366657220746f20746865207a65726f206164604082015264647265737360d81b606082015260800190565b6020808252602a908201527f455243313135353a20696e73756666696369656e742062616c616e636520666f60408201526939103a3930b739b332b960b11b606082015260800190565b604081526000613b3460408301856132db565b8281036020840152612c3081856132db565b600060208284031215613b5857600080fd5b5051919050565b6020808252602b908201527f496e697469616c697a61626c653a20636f6e7472616374206973206e6f74206960408201526a6e697469616c697a696e6760a81b606082015260800190565b60008251613bbc818460208701612f2e565b9190910192915050565b6001600160a01b0386811682528516602082015260a060408201819052600090613bf2908301866132db565b8281036060840152613c0481866132db565b90508281036080840152613c188185612f5a565b98975050505050505050565b600060208284031215613c3657600080fd5b81516122a981612efb565b600060033d1115610e135760046000803e5060005160e01c90565b600060443d1015613c6a5790565b6040516003193d81016004833e81513d6001600160401b038160248401118184111715613c9957505050505090565b8285019150815181811115613cb15750505050505090565b843d8701016020828501011115613ccb5750505050505090565b613cda60208286010187612fc8565b509095945050505050565b60208082526028908201527f455243313135353a204552433131353552656365697665722072656a656374656040820152676420746f6b656e7360c01b606082015260800190565b6001600160a01b03868116825285166020820152604081018490526060810183905260a060808201819052600090613d6790830184612f5a565b97965050505050505056fe360894a13ba1a3210667c828492db98dca3e2076cc3735a920a3ca505d382bbc416464726573733a206c6f772d6c6576656c2064656c65676174652063616c6c206661696c6564a2646970667358221220af35020cb5d4749f60390d8a8dc082249b722e21493ca847012875e9084a193e64736f6c634300080f0033",
  "linkReferences": {},
  "deployedLinkReferences": {}
}