{
  "_format": "hh-sol-artifact-1",
  "contractName": "HatchyTickets",
  "sourceName": "contracts/tickets/HatchyTickets.sol",
  "abi": [
    {
      "anonymous": false,
      "inputs": [
        {
          "indexed": false,
          "internalType": "address",
          "name": "previousAdmin",
          "type": "address"
        },
        {
          "indexed": false,
          "internalType": "address",
          "name": "newAdmin",
          "type": "address"
        }
      ],
      "name": "AdminChanged",
      "type": "event"
    },
    {
      "anonymous": false,
      "inputs": [
        {
          "indexed": true,
          "internalType": "address",
          "name": "account",
          "type": "address"
        },
        {
          "indexed": true,
          "internalType": "address",
          "name": "operator",
          "type": "address"
        },
        {
          "indexed": false,
          "internalType": "bool",
          "name": "approved",
          "type": "bool"
        }
      ],
      "name": "ApprovalForAll",
      "type": "event"
    },
    {
      "anonymous": false,
      "inputs": [
        {
          "indexed": true,
          "internalType": "address",
          "name": "beacon",
          "type": "address"
        }
      ],
      "name": "BeaconUpgraded",
      "type": "event"
    },
    {
      "anonymous": false,
      "inputs": [
        {
          "indexed": false,
          "internalType": "uint8",
          "name": "version",
          "type": "uint8"
        }
      ],
      "name": "Initialized",
      "type": "event"
    },
    {
      "anonymous": false,
      "inputs": [
        {
          "indexed": true,
          "internalType": "address",
          "name": "account",
          "type": "address"
        },
        {
          "indexed": false,
          "internalType": "uint256",
          "name": "tokenId",
          "type": "uint256"
        },
        {
          "indexed": false,
          "internalType": "uint256",
          "name": "amount",
          "type": "uint256"
        }
      ],
      "name": "Mint",
      "type": "event"
    },
    {
      "anonymous": false,
      "inputs": [
        {
          "indexed": true,
          "internalType": "address",
          "name": "previousOwner",
          "type": "address"
        },
        {
          "indexed": true,
          "internalType": "address",
          "name": "newOwner",
          "type": "address"
        }
      ],
      "name": "OwnershipTransferred",
      "type": "event"
    },
    {
      "anonymous": false,
      "inputs": [
        {
          "indexed": true,
          "internalType": "address",
          "name": "operator",
          "type": "address"
        },
        {
          "indexed": true,
          "internalType": "address",
          "name": "from",
          "type": "address"
        },
        {
          "indexed": true,
          "internalType": "address",
          "name": "to",
          "type": "address"
        },
        {
          "indexed": false,
          "internalType": "uint256[]",
          "name": "ids",
          "type": "uint256[]"
        },
        {
          "indexed": false,
          "internalType": "uint256[]",
          "name": "values",
          "type": "uint256[]"
        }
      ],
      "name": "TransferBatch",
      "type": "event"
    },
    {
      "anonymous": false,
      "inputs": [
        {
          "indexed": true,
          "internalType": "address",
          "name": "operator",
          "type": "address"
        },
        {
          "indexed": true,
          "internalType": "address",
          "name": "from",
          "type": "address"
        },
        {
          "indexed": true,
          "internalType": "address",
          "name": "to",
          "type": "address"
        },
        {
          "indexed": false,
          "internalType": "uint256",
          "name": "id",
          "type": "uint256"
        },
        {
          "indexed": false,
          "internalType": "uint256",
          "name": "value",
          "type": "uint256"
        }
      ],
      "name": "TransferSingle",
      "type": "event"
    },
    {
      "anonymous": false,
      "inputs": [
        {
          "indexed": false,
          "internalType": "string",
          "name": "value",
          "type": "string"
        },
        {
          "indexed": true,
          "internalType": "uint256",
          "name": "id",
          "type": "uint256"
        }
      ],
      "name": "URI",
      "type": "event"
    },
    {
      "anonymous": false,
      "inputs": [
        {
          "indexed": true,
          "internalType": "address",
          "name": "implementation",
          "type": "address"
        }
      ],
      "name": "Upgraded",
      "type": "event"
    },
    {
      "inputs": [
        {
          "components": [
            {
              "internalType": "uint256",
              "name": "tokenId",
              "type": "uint256"
            },
            {
              "internalType": "uint256",
              "name": "maxSupply",
              "type": "uint256"
            },
            {
              "internalType": "address[]",
              "name": "currencies",
              "type": "address[]"
            },
            {
              "internalType": "uint256[]",
              "name": "prices",
              "type": "uint256[]"
            },
            {
              "internalType": "bool",
              "name": "enabled",
              "type": "bool"
            }
          ],
          "internalType": "struct AddTicketPayload[]",
          "name": "tickets",
          "type": "tuple[]"
        }
      ],
      "name": "addTickets",
      "outputs": [],
      "stateMutability": "nonpayable",
      "type": "function"
    },
    {
      "inputs": [
        {
          "internalType": "address",
          "name": "account",
          "type": "address"
        },
        {
          "internalType": "uint256",
          "name": "id",
          "type": "uint256"
        }
      ],
      "name": "balanceOf",
      "outputs": [
        {
          "internalType": "uint256",
          "name": "",
          "type": "uint256"
        }
      ],
      "stateMutability": "view",
      "type": "function"
    },
    {
      "inputs": [
        {
          "internalType": "address[]",
          "name": "accounts",
          "type": "address[]"
        },
        {
          "internalType": "uint256[]",
          "name": "ids",
          "type": "uint256[]"
        }
      ],
      "name": "balanceOfBatch",
      "outputs": [
        {
          "internalType": "uint256[]",
          "name": "",
          "type": "uint256[]"
        }
      ],
      "stateMutability": "view",
      "type": "function"
    },
    {
      "inputs": [],
      "name": "baseURI",
      "outputs": [
        {
          "internalType": "string",
          "name": "",
          "type": "string"
        }
      ],
      "stateMutability": "view",
      "type": "function"
    },
    {
      "inputs": [],
      "name": "enabled",
      "outputs": [
        {
          "internalType": "bool",
          "name": "",
          "type": "bool"
        }
      ],
      "stateMutability": "view",
      "type": "function"
    },
    {
      "inputs": [],
      "name": "flipState",
      "outputs": [],
      "stateMutability": "nonpayable",
      "type": "function"
    },
    {
      "inputs": [
        {
          "internalType": "uint256",
          "name": "tokenId",
          "type": "uint256"
        },
        {
          "internalType": "address",
          "name": "currency",
          "type": "address"
        }
      ],
      "name": "getTicketPrice",
      "outputs": [
        {
          "internalType": "uint256",
          "name": "",
          "type": "uint256"
        }
      ],
      "stateMutability": "view",
      "type": "function"
    },
    {
      "inputs": [
        {
          "internalType": "string",
          "name": "_uri",
          "type": "string"
        }
      ],
      "name": "initialize",
      "outputs": [],
      "stateMutability": "nonpayable",
      "type": "function"
    },
    {
      "inputs": [
        {
          "internalType": "address",
          "name": "account",
          "type": "address"
        },
        {
          "internalType": "address",
          "name": "operator",
          "type": "address"
        }
      ],
      "name": "isApprovedForAll",
      "outputs": [
        {
          "internalType": "bool",
          "name": "",
          "type": "bool"
        }
      ],
      "stateMutability": "view",
      "type": "function"
    },
    {
      "inputs": [
        {
          "internalType": "uint256",
          "name": "tokenId",
          "type": "uint256"
        },
        {
          "internalType": "address",
          "name": "currency",
          "type": "address"
        },
        {
          "internalType": "uint256",
          "name": "amount",
          "type": "uint256"
        }
      ],
      "name": "mint",
      "outputs": [],
      "stateMutability": "payable",
      "type": "function"
    },
    {
      "inputs": [],
      "name": "owner",
      "outputs": [
        {
          "internalType": "address",
          "name": "",
          "type": "address"
        }
      ],
      "stateMutability": "view",
      "type": "function"
    },
    {
      "inputs": [
        {
          "internalType": "address",
          "name": "account",
          "type": "address"
        },
        {
          "internalType": "uint256[]",
          "name": "ids",
          "type": "uint256[]"
        },
        {
          "internalType": "uint256[]",
          "name": "amounts",
          "type": "uint256[]"
        }
      ],
      "name": "ownerBatchMint",
      "outputs": [],
      "stateMutability": "nonpayable",
      "type": "function"
    },
    {
      "inputs": [],
      "name": "proxiableUUID",
      "outputs": [
        {
          "internalType": "bytes32",
          "name": "",
          "type": "bytes32"
        }
      ],
      "stateMutability": "view",
      "type": "function"
    },
    {
      "inputs": [],
      "name": "renounceOwnership",
      "outputs": [],
      "stateMutability": "nonpayable",
      "type": "function"
    },
    {
      "inputs": [
        {
          "internalType": "uint256",
          "name": "",
          "type": "uint256"
        },
        {
          "internalType": "uint256",
          "name": "salePrice",
          "type": "uint256"
        }
      ],
      "name": "royaltyInfo",
      "outputs": [
        {
          "internalType": "address",
          "name": "",
          "type": "address"
        },
        {
          "internalType": "uint256",
          "name": "",
          "type": "uint256"
        }
      ],
      "stateMutability": "view",
      "type": "function"
    },
    {
      "inputs": [
        {
          "internalType": "address",
          "name": "from",
          "type": "address"
        },
        {
          "internalType": "address",
          "name": "to",
          "type": "address"
        },
        {
          "internalType": "uint256[]",
          "name": "ids",
          "type": "uint256[]"
        },
        {
          "internalType": "uint256[]",
          "name": "amounts",
          "type": "uint256[]"
        },
        {
          "internalType": "bytes",
          "name": "data",
          "type": "bytes"
        }
      ],
      "name": "safeBatchTransferFrom",
      "outputs": [],
      "stateMutability": "nonpayable",
      "type": "function"
    },
    {
      "inputs": [
        {
          "internalType": "address",
          "name": "from",
          "type": "address"
        },
        {
          "internalType": "address",
          "name": "to",
          "type": "address"
        },
        {
          "internalType": "uint256",
          "name": "id",
          "type": "uint256"
        },
        {
          "internalType": "uint256",
          "name": "amount",
          "type": "uint256"
        },
        {
          "internalType": "bytes",
          "name": "data",
          "type": "bytes"
        }
      ],
      "name": "safeTransferFrom",
      "outputs": [],
      "stateMutability": "nonpayable",
      "type": "function"
    },
    {
      "inputs": [
        {
          "internalType": "address",
          "name": "operator",
          "type": "address"
        },
        {
          "internalType": "bool",
          "name": "approved",
          "type": "bool"
        }
      ],
      "name": "setApprovalForAll",
      "outputs": [],
      "stateMutability": "nonpayable",
      "type": "function"
    },
    {
      "inputs": [
        {
          "internalType": "string",
          "name": "newuri",
          "type": "string"
        }
      ],
      "name": "setURI",
      "outputs": [],
      "stateMutability": "nonpayable",
      "type": "function"
    },
    {
      "inputs": [
        {
          "internalType": "bytes4",
          "name": "interfaceId",
          "type": "bytes4"
        }
      ],
      "name": "supportsInterface",
      "outputs": [
        {
          "internalType": "bool",
          "name": "",
          "type": "bool"
        }
      ],
      "stateMutability": "view",
      "type": "function"
    },
    {
      "inputs": [
        {
          "internalType": "uint256",
          "name": "",
          "type": "uint256"
        }
      ],
      "name": "ticketsData",
      "outputs": [
        {
          "internalType": "bool",
          "name": "enabled",
          "type": "bool"
        },
        {
          "internalType": "uint256",
          "name": "maxSupply",
          "type": "uint256"
        }
      ],
      "stateMutability": "view",
      "type": "function"
    },
    {
      "inputs": [
        {
          "internalType": "uint256",
          "name": "",
          "type": "uint256"
        }
      ],
      "name": "ticketsSupply",
      "outputs": [
        {
          "internalType": "uint256",
          "name": "",
          "type": "uint256"
        }
      ],
      "stateMutability": "view",
      "type": "function"
    },
    {
      "inputs": [
        {
          "internalType": "address",
          "name": "newOwner",
          "type": "address"
        }
      ],
      "name": "transferOwnership",
      "outputs": [],
      "stateMutability": "nonpayable",
      "type": "function"
    },
    {
      "inputs": [
        {
          "internalType": "uint256[]",
          "name": "tokenIds",
          "type": "uint256[]"
        },
        {
          "internalType": "uint256[]",
          "name": "maxSupplies",
          "type": "uint256[]"
        }
      ],
      "name": "updateMaxSupplies",
      "outputs": [],
      "stateMutability": "nonpayable",
      "type": "function"
    },
    {
      "inputs": [
        {
          "internalType": "uint256",
          "name": "tokenId",
          "type": "uint256"
        },
        {
          "internalType": "address[]",
          "name": "currencies",
          "type": "address[]"
        },
        {
          "internalType": "uint256[]",
          "name": "prices",
          "type": "uint256[]"
        }
      ],
      "name": "updateTicketPrices",
      "outputs": [],
      "stateMutability": "nonpayable",
      "type": "function"
    },
    {
      "inputs": [
        {
          "internalType": "uint256[]",
          "name": "tokenIds",
          "type": "uint256[]"
        },
        {
          "internalType": "bool",
          "name": "status",
          "type": "bool"
        }
      ],
      "name": "updateTicketsStatus",
      "outputs": [],
      "stateMutability": "nonpayable",
      "type": "function"
    },
    {
      "inputs": [
        {
          "internalType": "address",
          "name": "newImplementation",
          "type": "address"
        }
      ],
      "name": "upgradeTo",
      "outputs": [],
      "stateMutability": "nonpayable",
      "type": "function"
    },
    {
      "inputs": [
        {
          "internalType": "address",
          "name": "newImplementation",
          "type": "address"
        },
        {
          "internalType": "bytes",
          "name": "data",
          "type": "bytes"
        }
      ],
      "name": "upgradeToAndCall",
      "outputs": [],
      "stateMutability": "payable",
      "type": "function"
    },
    {
      "inputs": [
        {
          "internalType": "uint256",
          "name": "",
          "type": "uint256"
        }
      ],
      "name": "uri",
      "outputs": [
        {
          "internalType": "string",
          "name": "",
          "type": "string"
        }
      ],
      "stateMutability": "view",
      "type": "function"
    }
  ],
  "bytecode": "0x60a06040523060805234801561001457600080fd5b506080516132e861004c600039600081816108370152818161087701528181610a3c01528181610a7c0152610b0f01526132e86000f3fe6080604052600436106101c15760003560e01c806382c7f4d1116100f7578063d03f612d11610095578063f2fde38b11610064578063f2fde38b14610592578063f3de2654146105b2578063f62d1888146105d2578063f94897d6146105f257600080fd5b8063d03f612d146104da578063e8a96e0014610508578063e985e9c514610528578063f242432a1461057257600080fd5b80638e920351116100d15780638e920351146104415780639ebe6f8d14610456578063a22cb4651461049a578063b1f165f0146104ba57600080fd5b806382c7f4d1146103e6578063836a1040146104065780638da5cb5b1461041957600080fd5b80632eb2c2d6116101645780634f1ef2861161013e5780634f1ef2861461039457806352d1902d146103a75780636c0360eb146103bc578063715018a6146103d157600080fd5b80632eb2c2d6146103275780633659cfe6146103475780634e1273f41461036757600080fd5b80630e89341c116101a05780630e89341c1461024b578063238dafe0146102785780632a55205a146102935780632be9ee34146102d257600080fd5b8062fdd58e146101c657806301ffc9a7146101f957806302fe530514610229575b600080fd5b3480156101d257600080fd5b506101e66101e1366004612369565b610612565b6040519081526020015b60405180910390f35b34801561020557600080fd5b506102196102143660046123a9565b6106ab565b60405190151581526020016101f0565b34801561023557600080fd5b5061024961024436600461248a565b6106fd565b005b34801561025757600080fd5b5061026b6102663660046124da565b610711565b6040516101f0919061254b565b34801561028457600080fd5b5061015f546102199060ff1681565b34801561029f57600080fd5b506102b36102ae36600461255e565b6107a6565b604080516001600160a01b0390931683526020830191909152016101f0565b3480156102de57600080fd5b506103106102ed3660046124da565b610161602052600090815260409020600181015460029091015460ff9091169082565b6040805192151583526020830191909152016101f0565b34801561033357600080fd5b50610249610342366004612634565b6107e1565b34801561035357600080fd5b506102496103623660046126dd565b61082d565b34801561037357600080fd5b50610387610382366004612765565b610909565b6040516101f09190612803565b6102496103a2366004612816565b610a32565b3480156103b357600080fd5b506101e6610b02565b3480156103c857600080fd5b5061026b610bb6565b3480156103dd57600080fd5b50610249610c45565b3480156103f257600080fd5b50610249610401366004612859565b610c59565b6102496104143660046128c5565b610d18565b34801561042557600080fd5b5060c9546040516001600160a01b0390911681526020016101f0565b34801561044d57600080fd5b506102496110f9565b34801561046257600080fd5b506101e66104713660046128fa565b6000918252610161602090815260408084206001600160a01b0393909316845291905290205490565b3480156104a657600080fd5b506102496104b5366004612934565b611116565b3480156104c657600080fd5b506102496104d536600461296b565b611121565b3480156104e657600080fd5b506101e66104f53660046124da565b6101626020526000908152604090205481565b34801561051457600080fd5b506102496105233660046129b1565b611144565b34801561053457600080fd5b506102196105433660046129e7565b6001600160a01b03918216600090815261012e6020908152604080832093909416825291909152205460ff1690565b34801561057e57600080fd5b5061024961058d366004612a11565b6111da565b34801561059e57600080fd5b506102496105ad3660046126dd565b61121f565b3480156105be57600080fd5b506102496105cd366004612a75565b611295565b3480156105de57600080fd5b506102496105ed36600461248a565b6113c3565b3480156105fe57600080fd5b5061024961060d366004612bb5565b6114e5565b60006001600160a01b0383166106825760405162461bcd60e51b815260206004820152602a60248201527f455243313135353a2061646472657373207a65726f206973206e6f742061207660448201526930b634b21037bbb732b960b11b60648201526084015b60405180910390fd5b50600090815261012d602090815260408083206001600160a01b03949094168352929052205490565b60006001600160e01b03198216636cdb3d1360e11b14806106dc57506001600160e01b031982166303a24d0760e21b145b806106f757506301ffc9a760e01b6001600160e01b03198316145b92915050565b610705611554565b61070e816115ae565b50565b606061012f805461072190612bfb565b80601f016020809104026020016040519081016040528092919081815260200182805461074d90612bfb565b801561079a5780601f1061076f5761010080835404028352916020019161079a565b820191906000526020600020905b81548152906001019060200180831161077d57829003601f168201915b50505050509050919050565b600080806127106107b9856103e8612c4b565b6107c39190612c6a565b90506107d760c9546001600160a01b031690565b9590945092505050565b6001600160a01b0385163314806107fd57506107fd8533610543565b6108195760405162461bcd60e51b815260040161067990612c8c565b61082685858585856115bb565b5050505050565b6001600160a01b037f00000000000000000000000000000000000000000000000000000000000000001630036108755760405162461bcd60e51b815260040161067990612cda565b7f00000000000000000000000000000000000000000000000000000000000000006001600160a01b03166108be60008051602061326c833981519152546001600160a01b031690565b6001600160a01b0316146108e45760405162461bcd60e51b815260040161067990612d26565b6108ed8161175c565b6040805160008082526020820190925261070e91839190611764565b6060815183511461096e5760405162461bcd60e51b815260206004820152602960248201527f455243313135353a206163636f756e747320616e6420696473206c656e677468604482015268040dad2e6dac2e8c6d60bb1b6064820152608401610679565b600083516001600160401b03811115610989576109896123c6565b6040519080825280602002602001820160405280156109b2578160200160208202803683370190505b50905060005b8451811015610a2a576109fd8582815181106109d6576109d6612d72565b60200260200101518583815181106109f0576109f0612d72565b6020026020010151610612565b828281518110610a0f57610a0f612d72565b6020908102919091010152610a2381612d88565b90506109b8565b509392505050565b6001600160a01b037f0000000000000000000000000000000000000000000000000000000000000000163003610a7a5760405162461bcd60e51b815260040161067990612cda565b7f00000000000000000000000000000000000000000000000000000000000000006001600160a01b0316610ac360008051602061326c833981519152546001600160a01b031690565b6001600160a01b031614610ae95760405162461bcd60e51b815260040161067990612d26565b610af28261175c565b610afe82826001611764565b5050565b6000306001600160a01b037f00000000000000000000000000000000000000000000000000000000000000001614610ba25760405162461bcd60e51b815260206004820152603860248201527f555550535570677261646561626c653a206d757374206e6f742062652063616c60448201527f6c6564207468726f7567682064656c656761746563616c6c00000000000000006064820152608401610679565b5060008051602061326c8339815191525b90565b6101608054610bc490612bfb565b80601f0160208091040260200160405190810160405280929190818152602001828054610bf090612bfb565b8015610c3d5780601f10610c1257610100808354040283529160200191610c3d565b820191906000526020600020905b815481529060010190602001808311610c2057829003601f168201915b505050505081565b610c4d611554565b610c5760006118cf565b565b610c61611554565b8051825114610c825760405162461bcd60e51b815260040161067990612da1565b60005b8251811015610d1257818181518110610ca057610ca0612d72565b602002602001015161016160008681526020019081526020016000206000016000858481518110610cd357610cd3612d72565b60200260200101516001600160a01b03166001600160a01b03168152602001908152602001600020819055508080610d0a90612d88565b915050610c85565b50505050565b610d20611921565b61015f5460ff16610d625760405162461bcd60e51b815260206004820152600c60248201526b656e61626c6564206f6e6c7960a01b6044820152606401610679565b60008111610db25760405162461bcd60e51b815260206004820152601d60248201527f616d6f756e74206d7573742062652067726561746572207468616e20300000006044820152606401610679565b6000838152610161602052604090206001015460ff16610e095760405162461bcd60e51b81526020600482015260126024820152711d1a58dad95d081b9bdd08195b98589b195960721b6044820152606401610679565b6000838152610161602090815260408083206001600160a01b0386168452909152902054610e795760405162461bcd60e51b815260206004820152601860248201527f63757272656e6379206e6f742077686974656c697374656400000000000000006044820152606401610679565b6000838152610161602052604090206002015415610f24576000838152610161602090815260408083206002015461016290925290912054610ebc908390612dc8565b1115610eff5760405162461bcd60e51b815260206004820152601260248201527145786365656473206d617820737570706c7960701b6044820152606401610679565b6000838152610162602052604081208054839290610f1e908490612dc8565b90915550505b6000838152610161602090815260408083206001600160a01b0386168452909152812054610f529083612c4b565b905073eeeeeeeeeeeeeeeeeeeeeeeeeeeeeeeeeeeeeeed196001600160a01b03841601610ffe5780341015610fbe5760405162461bcd60e51b8152602060048201526012602482015271496e73756666696369656e742066756e647360701b6044820152606401610679565b60c9546040516001600160a01b039091169082156108fc029083906000818181858888f19350505050158015610ff8573d6000803e3d6000fd5b506110cf565b6001600160a01b0383166323b872dd3360c9546001600160a01b03166040516001600160e01b031960e085901b1681526001600160a01b03928316600482015291166024820152604481018490526064016020604051808303816000875af115801561106e573d6000803e3d6000fd5b505050506040513d601f19601f820116820180604052508101906110929190612de0565b6110cf5760405162461bcd60e51b815260206004820152600e60248201526d1c185e5b595b9d0819985a5b195960921b6044820152606401610679565b6110ea3385846040518060200160405280600081525061197a565b506110f460018055565b505050565b611101611554565b61015f805460ff19811660ff90911615179055565b610afe338383611a5d565b611129611554565b6110f483838360405180602001604052806000815250611b3e565b61114c611554565b805182511461116d5760405162461bcd60e51b815260040161067990612da1565b60005b82518110156110f45781818151811061118b5761118b612d72565b602002602001015161016160008584815181106111aa576111aa612d72565b602002602001015181526020019081526020016000206002018190555080806111d290612d88565b915050611170565b6001600160a01b0385163314806111f657506111f68533610543565b6112125760405162461bcd60e51b815260040161067990612c8c565b6108268585858585611c8b565b611227611554565b6001600160a01b03811661128c5760405162461bcd60e51b815260206004820152602660248201527f4f776e61626c653a206e6577206f776e657220697320746865207a65726f206160448201526564647265737360d01b6064820152608401610679565b61070e816118cf565b61129d611554565b60005b8151811015610afe5760008282815181106112bd576112bd612d72565b60200260200101519050806060015151816040015151146112f05760405162461bcd60e51b815260040161067990612da1565b60005b81604001515181101561137d578160600151818151811061131657611316612d72565b602002602001015161016160008460000151815260200190815260200160002060000160008460400151848151811061135157611351612d72565b6020908102919091018101516001600160a01b03168252810191909152604001600020556001016112f3565b50608081015181516000908152610161602090815260408083206001908101805460ff1916951515959095179094559084015193518252902060020191909155016112a0565b600054610100900460ff16158080156113e35750600054600160ff909116105b806113fd5750303b1580156113fd575060005460ff166001145b6114605760405162461bcd60e51b815260206004820152602e60248201527f496e697469616c697a61626c653a20636f6e747261637420697320616c72656160448201526d191e481a5b9a5d1a585b1a5e995960921b6064820152608401610679565b6000805460ff191660011790558015611483576000805461ff0019166101001790555b61148b611dbb565b611493611dea565b61149c82611e19565b8015610afe576000805461ff0019169055604051600181527f7f26b83ff96e1f2b6a682f133852f6798a09c465da95921460cefb38474024989060200160405180910390a15050565b6114ed611554565b60005b82518110156110f45781610161600085848151811061151157611511612d72565b6020026020010151815260200190815260200160002060010160006101000a81548160ff021916908315150217905550808061154c90612d88565b9150506114f0565b60c9546001600160a01b03163314610c575760405162461bcd60e51b815260206004820181905260248201527f4f776e61626c653a2063616c6c6572206973206e6f7420746865206f776e65726044820152606401610679565b61012f610afe8282612e43565b81518351146115dc5760405162461bcd60e51b815260040161067990612f02565b6001600160a01b0384166116025760405162461bcd60e51b815260040161067990612f4a565b3360005b84518110156116ee57600085828151811061162357611623612d72565b60200260200101519050600085838151811061164157611641612d72565b602090810291909101810151600084815261012d835260408082206001600160a01b038e1683529093529190912054909150818110156116935760405162461bcd60e51b815260040161067990612f8f565b600083815261012d602090815260408083206001600160a01b038e8116855292528083208585039055908b168252812080548492906116d3908490612dc8565b92505081905550505050806116e790612d88565b9050611606565b50846001600160a01b0316866001600160a01b0316826001600160a01b03167f4a39dc06d4c0dbc64b70af90fd698a233a518aa5d07e595d983b8c0526c8f7fb878760405161173e929190612fd9565b60405180910390a4611754818787878787611e49565b505050505050565b61070e611554565b7f4910fdfa16fed3260ed0e7147f7cc6da11a60208b5b9406d12a635614ffd91435460ff1615611797576110f483611fa4565b826001600160a01b03166352d1902d6040518163ffffffff1660e01b8152600401602060405180830381865afa9250505080156117f1575060408051601f3d908101601f191682019092526117ee91810190612ffe565b60015b6118545760405162461bcd60e51b815260206004820152602e60248201527f45524331393637557067726164653a206e657720696d706c656d656e7461746960448201526d6f6e206973206e6f74205555505360901b6064820152608401610679565b60008051602061326c83398151915281146118c35760405162461bcd60e51b815260206004820152602960248201527f45524331393637557067726164653a20756e737570706f727465642070726f786044820152681a58589b195555525160ba1b6064820152608401610679565b506110f4838383612040565b60c980546001600160a01b038381166001600160a01b0319831681179093556040519116919082907f8be0079c531659141344cd1fd0a4f28419497f9722a3daafe3b4186f6b6457e090600090a35050565b6002600154036119735760405162461bcd60e51b815260206004820152601f60248201527f5265656e7472616e637947756172643a207265656e7472616e742063616c6c006044820152606401610679565b6002600155565b6001600160a01b0384166119a05760405162461bcd60e51b815260040161067990613017565b3360006119ac85612065565b905060006119b985612065565b9050600086815261012d602090815260408083206001600160a01b038b168452909152812080548792906119ee908490612dc8565b909155505060408051878152602081018790526001600160a01b03808a1692600092918716917fc3d58168c5ae7397731d063d5bbf3d657854427343f4c083240f7aacaa2d0f62910160405180910390a4611a4e836000898989896120b0565b50505050505050565b60018055565b816001600160a01b0316836001600160a01b031603611ad05760405162461bcd60e51b815260206004820152602960248201527f455243313135353a2073657474696e6720617070726f76616c20737461747573604482015268103337b91039b2b63360b91b6064820152608401610679565b6001600160a01b03838116600081815261012e6020908152604080832094871680845294825291829020805460ff191686151590811790915591519182527f17307eab39ab6107e8899845ad3d59bd9653f200f220920489ca2b5937696c31910160405180910390a3505050565b6001600160a01b038416611b645760405162461bcd60e51b815260040161067990613017565b8151835114611b855760405162461bcd60e51b815260040161067990612f02565b3360005b8451811015611c2357838181518110611ba457611ba4612d72565b602002602001015161012d6000878481518110611bc357611bc3612d72565b602002602001015181526020019081526020016000206000886001600160a01b03166001600160a01b031681526020019081526020016000206000828254611c0b9190612dc8565b90915550819050611c1b81612d88565b915050611b89565b50846001600160a01b031660006001600160a01b0316826001600160a01b03167f4a39dc06d4c0dbc64b70af90fd698a233a518aa5d07e595d983b8c0526c8f7fb8787604051611c74929190612fd9565b60405180910390a461082681600087878787611e49565b6001600160a01b038416611cb15760405162461bcd60e51b815260040161067990612f4a565b336000611cbd85612065565b90506000611cca85612065565b9050600086815261012d602090815260408083206001600160a01b038c16845290915290205485811015611d105760405162461bcd60e51b815260040161067990612f8f565b600087815261012d602090815260408083206001600160a01b038d8116855292528083208985039055908a16825281208054889290611d50908490612dc8565b909155505060408051888152602081018890526001600160a01b03808b16928c821692918816917fc3d58168c5ae7397731d063d5bbf3d657854427343f4c083240f7aacaa2d0f62910160405180910390a4611db0848a8a8a8a8a6120b0565b505050505050505050565b600054610100900460ff16611de25760405162461bcd60e51b815260040161067990613058565b610c5761216b565b600054610100900460ff16611e115760405162461bcd60e51b815260040161067990613058565b610c5761219b565b600054610100900460ff16611e405760405162461bcd60e51b815260040161067990613058565b61070e816121c2565b6001600160a01b0384163b156117545760405163bc197c8160e01b81526001600160a01b0385169063bc197c8190611e8d90899089908890889088906004016130a3565b6020604051808303816000875af1925050508015611ec8575060408051601f3d908101601f19168201909252611ec591810190613101565b60015b611f7457611ed461311e565b806308c379a003611f0d5750611ee8613139565b80611ef35750611f0f565b8060405162461bcd60e51b8152600401610679919061254b565b505b60405162461bcd60e51b815260206004820152603460248201527f455243313135353a207472616e7366657220746f206e6f6e2d455243313135356044820152732932b1b2b4bb32b91034b6b83632b6b2b73a32b960611b6064820152608401610679565b6001600160e01b0319811663bc197c8160e01b14611a4e5760405162461bcd60e51b8152600401610679906131c2565b6001600160a01b0381163b6120115760405162461bcd60e51b815260206004820152602d60248201527f455243313936373a206e657720696d706c656d656e746174696f6e206973206e60448201526c1bdd08184818dbdb9d1c9858dd609a1b6064820152608401610679565b60008051602061326c83398151915280546001600160a01b0319166001600160a01b0392909216919091179055565b612049836121e9565b6000825111806120565750805b156110f457610d128383612229565b6040805160018082528183019092526060916000919060208083019080368337019050509050828160008151811061209f5761209f612d72565b602090810291909101015292915050565b6001600160a01b0384163b156117545760405163f23a6e6160e01b81526001600160a01b0385169063f23a6e61906120f4908990899088908890889060040161320a565b6020604051808303816000875af192505050801561212f575060408051601f3d908101601f1916820190925261212c91810190613101565b60015b61213b57611ed461311e565b6001600160e01b0319811663f23a6e6160e01b14611a4e5760405162461bcd60e51b8152600401610679906131c2565b600054610100900460ff166121925760405162461bcd60e51b815260040161067990613058565b610c57336118cf565b600054610100900460ff16611a575760405162461bcd60e51b815260040161067990613058565b600054610100900460ff166107055760405162461bcd60e51b815260040161067990613058565b6121f281611fa4565b6040516001600160a01b038216907fbc7cd75a20ee27fd9adebab32041f755214dbc6bffa90cc0225b39da2e5c2d3b90600090a250565b60606001600160a01b0383163b6122915760405162461bcd60e51b815260206004820152602660248201527f416464726573733a2064656c65676174652063616c6c20746f206e6f6e2d636f6044820152651b9d1c9858dd60d21b6064820152608401610679565b600080846001600160a01b0316846040516122ac919061324f565b600060405180830381855af49150503d80600081146122e7576040519150601f19603f3d011682016040523d82523d6000602084013e6122ec565b606091505b5091509150612314828260405180606001604052806027815260200161328c6027913961231d565b95945050505050565b6060831561232c575081612336565b612336838361233d565b9392505050565b815115611ef35781518083602001fd5b80356001600160a01b038116811461236457600080fd5b919050565b6000806040838503121561237c57600080fd5b6123858361234d565b946020939093013593505050565b6001600160e01b03198116811461070e57600080fd5b6000602082840312156123bb57600080fd5b813561233681612393565b634e487b7160e01b600052604160045260246000fd5b60a081018181106001600160401b03821117156123fb576123fb6123c6565b60405250565b601f8201601f191681016001600160401b0381118282101715612426576124266123c6565b6040525050565b60006001600160401b03831115612446576124466123c6565b60405161245d601f8501601f191660200182612401565b80915083815284848401111561247257600080fd5b83836020830137600060208583010152509392505050565b60006020828403121561249c57600080fd5b81356001600160401b038111156124b257600080fd5b8201601f810184136124c357600080fd5b6124d28482356020840161242d565b949350505050565b6000602082840312156124ec57600080fd5b5035919050565b60005b8381101561250e5781810151838201526020016124f6565b83811115610d125750506000910152565b600081518084526125378160208601602086016124f3565b601f01601f19169290920160200192915050565b602081526000612336602083018461251f565b6000806040838503121561257157600080fd5b50508035926020909101359150565b60006001600160401b03821115612599576125996123c6565b5060051b60200190565b600082601f8301126125b457600080fd5b813560206125c182612580565b6040516125ce8282612401565b83815260059390931b85018201928281019150868411156125ee57600080fd5b8286015b8481101561260957803583529183019183016125f2565b509695505050505050565b600082601f83011261262557600080fd5b6123368383356020850161242d565b600080600080600060a0868803121561264c57600080fd5b6126558661234d565b94506126636020870161234d565b935060408601356001600160401b038082111561267f57600080fd5b61268b89838a016125a3565b945060608801359150808211156126a157600080fd5b6126ad89838a016125a3565b935060808801359150808211156126c357600080fd5b506126d088828901612614565b9150509295509295909350565b6000602082840312156126ef57600080fd5b6123368261234d565b600082601f83011261270957600080fd5b8135602061271682612580565b6040516127238282612401565b83815260059390931b850182019282810191508684111561274357600080fd5b8286015b84811015612609576127588161234d565b8352918301918301612747565b6000806040838503121561277857600080fd5b82356001600160401b038082111561278f57600080fd5b61279b868387016126f8565b935060208501359150808211156127b157600080fd5b506127be858286016125a3565b9150509250929050565b600081518084526020808501945080840160005b838110156127f8578151875295820195908201906001016127dc565b509495945050505050565b60208152600061233660208301846127c8565b6000806040838503121561282957600080fd5b6128328361234d565b915060208301356001600160401b0381111561284d57600080fd5b6127be85828601612614565b60008060006060848603121561286e57600080fd5b8335925060208401356001600160401b038082111561288c57600080fd5b612898878388016126f8565b935060408601359150808211156128ae57600080fd5b506128bb868287016125a3565b9150509250925092565b6000806000606084860312156128da57600080fd5b833592506128ea6020850161234d565b9150604084013590509250925092565b6000806040838503121561290d57600080fd5b8235915061291d6020840161234d565b90509250929050565b801515811461070e57600080fd5b6000806040838503121561294757600080fd5b6129508361234d565b9150602083013561296081612926565b809150509250929050565b60008060006060848603121561298057600080fd5b6129898461234d565b925060208401356001600160401b03808211156129a557600080fd5b612898878388016125a3565b600080604083850312156129c457600080fd5b82356001600160401b03808211156129db57600080fd5b61279b868387016125a3565b600080604083850312156129fa57600080fd5b612a038361234d565b915061291d6020840161234d565b600080600080600060a08688031215612a2957600080fd5b612a328661234d565b9450612a406020870161234d565b9350604086013592506060860135915060808601356001600160401b03811115612a6957600080fd5b6126d088828901612614565b60006020808385031215612a8857600080fd5b82356001600160401b0380821115612a9f57600080fd5b818501915085601f830112612ab357600080fd5b8135612abe81612580565b60408051612acc8382612401565b83815260059390931b8501860192868101925089841115612aec57600080fd5b8686015b84811015612ba757803586811115612b0757600080fd5b870160a0818d03601f19011215612b1d57600080fd5b8351612b28816123dc565b898201358152848201358a820152606082013588811115612b495760008081fd5b612b578e8c838601016126f8565b868301525060808083013589811115612b705760008081fd5b612b7e8f8d838701016125a3565b60608401525060a08301359250612b9483612926565b8101919091528452928701928701612af0565b509998505050505050505050565b60008060408385031215612bc857600080fd5b82356001600160401b03811115612bde57600080fd5b612bea858286016125a3565b925050602083013561296081612926565b600181811c90821680612c0f57607f821691505b602082108103612c2f57634e487b7160e01b600052602260045260246000fd5b50919050565b634e487b7160e01b600052601160045260246000fd5b6000816000190483118215151615612c6557612c65612c35565b500290565b600082612c8757634e487b7160e01b600052601260045260246000fd5b500490565b6020808252602e908201527f455243313135353a2063616c6c6572206973206e6f7420746f6b656e206f776e60408201526d195c881bdc88185c1c1c9bdd995960921b606082015260800190565b6020808252602c908201527f46756e6374696f6e206d7573742062652063616c6c6564207468726f7567682060408201526b19195b1959d85d1958d85b1b60a21b606082015260800190565b6020808252602c908201527f46756e6374696f6e206d7573742062652063616c6c6564207468726f7567682060408201526b6163746976652070726f787960a01b606082015260800190565b634e487b7160e01b600052603260045260246000fd5b600060018201612d9a57612d9a612c35565b5060010190565b6020808252600d908201526c125b9d985b1a59081a5b9c1d5d609a1b604082015260600190565b60008219821115612ddb57612ddb612c35565b500190565b600060208284031215612df257600080fd5b815161233681612926565b601f8211156110f457600081815260208120601f850160051c81016020861015612e245750805b601f850160051c820191505b8181101561175457828155600101612e30565b81516001600160401b03811115612e5c57612e5c6123c6565b612e7081612e6a8454612bfb565b84612dfd565b602080601f831160018114612ea55760008415612e8d5750858301515b600019600386901b1c1916600185901b178555611754565b600085815260208120601f198616915b82811015612ed457888601518255948401946001909101908401612eb5565b5085821015612ef25787850151600019600388901b60f8161c191681555b5050505050600190811b01905550565b60208082526028908201527f455243313135353a2069647320616e6420616d6f756e7473206c656e677468206040820152670dad2e6dac2e8c6d60c31b606082015260800190565b60208082526025908201527f455243313135353a207472616e7366657220746f20746865207a65726f206164604082015264647265737360d81b606082015260800190565b6020808252602a908201527f455243313135353a20696e73756666696369656e742062616c616e636520666f60408201526939103a3930b739b332b960b11b606082015260800190565b604081526000612fec60408301856127c8565b828103602084015261231481856127c8565b60006020828403121561301057600080fd5b5051919050565b60208082526021908201527f455243313135353a206d696e7420746f20746865207a65726f206164647265736040820152607360f81b606082015260800190565b6020808252602b908201527f496e697469616c697a61626c653a20636f6e7472616374206973206e6f74206960408201526a6e697469616c697a696e6760a81b606082015260800190565b6001600160a01b0386811682528516602082015260a0604082018190526000906130cf908301866127c8565b82810360608401526130e181866127c8565b905082810360808401526130f5818561251f565b98975050505050505050565b60006020828403121561311357600080fd5b815161233681612393565b600060033d1115610bb35760046000803e5060005160e01c90565b600060443d10156131475790565b6040516003193d81016004833e81513d6001600160401b03816024840111818411171561317657505050505090565b828501915081518181111561318e5750505050505090565b843d87010160208285010111156131a85750505050505090565b6131b760208286010187612401565b509095945050505050565b60208082526028908201527f455243313135353a204552433131353552656365697665722072656a656374656040820152676420746f6b656e7360c01b606082015260800190565b6001600160a01b03868116825285166020820152604081018490526060810183905260a0608082018190526000906132449083018461251f565b979650505050505050565b600082516132618184602087016124f3565b919091019291505056fe360894a13ba1a3210667c828492db98dca3e2076cc3735a920a3ca505d382bbc416464726573733a206c6f772d6c6576656c2064656c65676174652063616c6c206661696c6564a264697066735822122008714e541b2099883107bbf92015989d9973c77defad42e55ecdb7678479e55764736f6c634300080f0033",
  "linkReferences": {},
  "deployedLinkReferences": {}
}