{
  "_format": "hh-sol-artifact-1",
  "contractName": "MastersItems",
  "sourceName": "contracts/masters/MastersItems.sol",
  "abi": [
    {
      "anonymous": false,
      "inputs": [
        {
          "indexed": false,
          "internalType": "address",
          "name": "previousAdmin",
          "type": "address"
        },
        {
          "indexed": false,
          "internalType": "address",
          "name": "newAdmin",
          "type": "address"
        }
      ],
      "name": "AdminChanged",
      "type": "event"
    },
    {
      "anonymous": false,
      "inputs": [
        {
          "indexed": true,
          "internalType": "address",
          "name": "account",
          "type": "address"
        },
        {
          "indexed": true,
          "internalType": "address",
          "name": "operator",
          "type": "address"
        },
        {
          "indexed": false,
          "internalType": "bool",
          "name": "approved",
          "type": "bool"
        }
      ],
      "name": "ApprovalForAll",
      "type": "event"
    },
    {
      "anonymous": false,
      "inputs": [
        {
          "indexed": true,
          "internalType": "address",
          "name": "beacon",
          "type": "address"
        }
      ],
      "name": "BeaconUpgraded",
      "type": "event"
    },
    {
      "anonymous": false,
      "inputs": [
        {
          "indexed": true,
          "internalType": "address",
          "name": "account",
          "type": "address"
        },
        {
          "indexed": false,
          "internalType": "uint256[]",
          "name": "tokenIds",
          "type": "uint256[]"
        },
        {
          "indexed": false,
          "internalType": "uint256[]",
          "name": "amounts",
          "type": "uint256[]"
        }
      ],
      "name": "Claim",
      "type": "event"
    },
    {
      "anonymous": false,
      "inputs": [
        {
          "indexed": false,
          "internalType": "uint8",
          "name": "version",
          "type": "uint8"
        }
      ],
      "name": "Initialized",
      "type": "event"
    },
    {
      "anonymous": false,
      "inputs": [
        {
          "indexed": true,
          "internalType": "address",
          "name": "owner",
          "type": "address"
        },
        {
          "indexed": false,
          "internalType": "uint256",
          "name": "id",
          "type": "uint256"
        }
      ],
      "name": "ItemEquipped",
      "type": "event"
    },
    {
      "anonymous": false,
      "inputs": [
        {
          "indexed": true,
          "internalType": "address",
          "name": "owner",
          "type": "address"
        },
        {
          "indexed": false,
          "internalType": "uint256",
          "name": "id",
          "type": "uint256"
        }
      ],
      "name": "ItemUnEquipped",
      "type": "event"
    },
    {
      "anonymous": false,
      "inputs": [
        {
          "indexed": true,
          "internalType": "address",
          "name": "previousOwner",
          "type": "address"
        },
        {
          "indexed": true,
          "internalType": "address",
          "name": "newOwner",
          "type": "address"
        }
      ],
      "name": "OwnershipTransferred",
      "type": "event"
    },
    {
      "anonymous": false,
      "inputs": [
        {
          "indexed": true,
          "internalType": "address",
          "name": "account",
          "type": "address"
        }
      ],
      "name": "SignerAdded",
      "type": "event"
    },
    {
      "anonymous": false,
      "inputs": [
        {
          "indexed": true,
          "internalType": "address",
          "name": "account",
          "type": "address"
        }
      ],
      "name": "SignerRemoved",
      "type": "event"
    },
    {
      "anonymous": false,
      "inputs": [
        {
          "indexed": true,
          "internalType": "address",
          "name": "operator",
          "type": "address"
        },
        {
          "indexed": true,
          "internalType": "address",
          "name": "from",
          "type": "address"
        },
        {
          "indexed": true,
          "internalType": "address",
          "name": "to",
          "type": "address"
        },
        {
          "indexed": false,
          "internalType": "uint256[]",
          "name": "ids",
          "type": "uint256[]"
        },
        {
          "indexed": false,
          "internalType": "uint256[]",
          "name": "values",
          "type": "uint256[]"
        }
      ],
      "name": "TransferBatch",
      "type": "event"
    },
    {
      "anonymous": false,
      "inputs": [
        {
          "indexed": true,
          "internalType": "address",
          "name": "operator",
          "type": "address"
        },
        {
          "indexed": true,
          "internalType": "address",
          "name": "from",
          "type": "address"
        },
        {
          "indexed": true,
          "internalType": "address",
          "name": "to",
          "type": "address"
        },
        {
          "indexed": false,
          "internalType": "uint256",
          "name": "id",
          "type": "uint256"
        },
        {
          "indexed": false,
          "internalType": "uint256",
          "name": "value",
          "type": "uint256"
        }
      ],
      "name": "TransferSingle",
      "type": "event"
    },
    {
      "anonymous": false,
      "inputs": [
        {
          "indexed": false,
          "internalType": "string",
          "name": "value",
          "type": "string"
        },
        {
          "indexed": true,
          "internalType": "uint256",
          "name": "id",
          "type": "uint256"
        }
      ],
      "name": "URI",
      "type": "event"
    },
    {
      "anonymous": false,
      "inputs": [
        {
          "indexed": true,
          "internalType": "address",
          "name": "implementation",
          "type": "address"
        }
      ],
      "name": "Upgraded",
      "type": "event"
    },
    {
      "inputs": [],
      "name": "avatarsAddress",
      "outputs": [
        {
          "internalType": "address",
          "name": "",
          "type": "address"
        }
      ],
      "stateMutability": "view",
      "type": "function"
    },
    {
      "inputs": [
        {
          "internalType": "address",
          "name": "account",
          "type": "address"
        },
        {
          "internalType": "uint256",
          "name": "id",
          "type": "uint256"
        }
      ],
      "name": "balanceOf",
      "outputs": [
        {
          "internalType": "uint256",
          "name": "",
          "type": "uint256"
        }
      ],
      "stateMutability": "view",
      "type": "function"
    },
    {
      "inputs": [
        {
          "internalType": "address[]",
          "name": "accounts",
          "type": "address[]"
        },
        {
          "internalType": "uint256[]",
          "name": "ids",
          "type": "uint256[]"
        }
      ],
      "name": "balanceOfBatch",
      "outputs": [
        {
          "internalType": "uint256[]",
          "name": "",
          "type": "uint256[]"
        }
      ],
      "stateMutability": "view",
      "type": "function"
    },
    {
      "inputs": [],
      "name": "baseURI",
      "outputs": [
        {
          "internalType": "string",
          "name": "",
          "type": "string"
        }
      ],
      "stateMutability": "view",
      "type": "function"
    },
    {
      "inputs": [
        {
          "internalType": "address",
          "name": "owner",
          "type": "address"
        },
        {
          "internalType": "uint256",
          "name": "itemId",
          "type": "uint256"
        }
      ],
      "name": "burnEquippedItem",
      "outputs": [],
      "stateMutability": "nonpayable",
      "type": "function"
    },
    {
      "inputs": [],
      "name": "enabled",
      "outputs": [
        {
          "internalType": "bool",
          "name": "",
          "type": "bool"
        }
      ],
      "stateMutability": "view",
      "type": "function"
    },
    {
      "inputs": [
        {
          "components": [
            {
              "internalType": "address",
              "name": "receiver",
              "type": "address"
            },
            {
              "internalType": "uint256[]",
              "name": "tokenIds",
              "type": "uint256[]"
            },
            {
              "internalType": "uint256[]",
              "name": "amounts",
              "type": "uint256[]"
            },
            {
              "internalType": "uint256",
              "name": "voucherId",
              "type": "uint256"
            },
            {
              "internalType": "uint256",
              "name": "clabimableUntil",
              "type": "uint256"
            },
            {
              "internalType": "address",
              "name": "currency",
              "type": "address"
            },
            {
              "internalType": "uint256",
              "name": "price",
              "type": "uint256"
            },
            {
              "internalType": "bool",
              "name": "payWithTicket",
              "type": "bool"
            },
            {
              "internalType": "uint256",
              "name": "ticketId",
              "type": "uint256"
            },
            {
              "internalType": "bytes",
              "name": "signature",
              "type": "bytes"
            }
          ],
          "internalType": "struct ItemVoucher",
          "name": "payload",
          "type": "tuple"
        }
      ],
      "name": "encodePackedMintData",
      "outputs": [
        {
          "internalType": "bytes32",
          "name": "",
          "type": "bytes32"
        }
      ],
      "stateMutability": "pure",
      "type": "function"
    },
    {
      "inputs": [],
      "name": "flipState",
      "outputs": [],
      "stateMutability": "nonpayable",
      "type": "function"
    },
    {
      "inputs": [],
      "name": "getHatchyTicketsContract",
      "outputs": [
        {
          "internalType": "address",
          "name": "",
          "type": "address"
        }
      ],
      "stateMutability": "view",
      "type": "function"
    },
    {
      "inputs": [
        {
          "internalType": "string",
          "name": "_uri",
          "type": "string"
        },
        {
          "internalType": "address",
          "name": "_rewardDealer",
          "type": "address"
        },
        {
          "internalType": "address",
          "name": "_hatchyTickets",
          "type": "address"
        }
      ],
      "name": "initialize",
      "outputs": [],
      "stateMutability": "nonpayable",
      "type": "function"
    },
    {
      "inputs": [
        {
          "internalType": "address",
          "name": "account",
          "type": "address"
        },
        {
          "internalType": "address",
          "name": "operator",
          "type": "address"
        }
      ],
      "name": "isApprovedForAll",
      "outputs": [
        {
          "internalType": "bool",
          "name": "",
          "type": "bool"
        }
      ],
      "stateMutability": "view",
      "type": "function"
    },
    {
      "inputs": [
        {
          "internalType": "address",
          "name": "account",
          "type": "address"
        }
      ],
      "name": "isSigner",
      "outputs": [
        {
          "internalType": "bool",
          "name": "",
          "type": "bool"
        }
      ],
      "stateMutability": "view",
      "type": "function"
    },
    {
      "inputs": [
        {
          "components": [
            {
              "internalType": "address",
              "name": "receiver",
              "type": "address"
            },
            {
              "internalType": "uint256[]",
              "name": "tokenIds",
              "type": "uint256[]"
            },
            {
              "internalType": "uint256[]",
              "name": "amounts",
              "type": "uint256[]"
            },
            {
              "internalType": "uint256",
              "name": "voucherId",
              "type": "uint256"
            },
            {
              "internalType": "uint256",
              "name": "clabimableUntil",
              "type": "uint256"
            },
            {
              "internalType": "address",
              "name": "currency",
              "type": "address"
            },
            {
              "internalType": "uint256",
              "name": "price",
              "type": "uint256"
            },
            {
              "internalType": "bool",
              "name": "payWithTicket",
              "type": "bool"
            },
            {
              "internalType": "uint256",
              "name": "ticketId",
              "type": "uint256"
            },
            {
              "internalType": "bytes",
              "name": "signature",
              "type": "bytes"
            }
          ],
          "internalType": "struct ItemVoucher",
          "name": "payload",
          "type": "tuple"
        }
      ],
      "name": "mintItem",
      "outputs": [],
      "stateMutability": "payable",
      "type": "function"
    },
    {
      "inputs": [
        {
          "internalType": "address",
          "name": "",
          "type": "address"
        }
      ],
      "name": "mintedItems",
      "outputs": [
        {
          "internalType": "uint256",
          "name": "",
          "type": "uint256"
        }
      ],
      "stateMutability": "view",
      "type": "function"
    },
    {
      "inputs": [],
      "name": "owner",
      "outputs": [
        {
          "internalType": "address",
          "name": "",
          "type": "address"
        }
      ],
      "stateMutability": "view",
      "type": "function"
    },
    {
      "inputs": [],
      "name": "proxiableUUID",
      "outputs": [
        {
          "internalType": "bytes32",
          "name": "",
          "type": "bytes32"
        }
      ],
      "stateMutability": "view",
      "type": "function"
    },
    {
      "inputs": [],
      "name": "renounceOwnership",
      "outputs": [],
      "stateMutability": "nonpayable",
      "type": "function"
    },
    {
      "inputs": [
        {
          "internalType": "address",
          "name": "owner",
          "type": "address"
        },
        {
          "internalType": "uint256",
          "name": "itemId",
          "type": "uint256"
        }
      ],
      "name": "returnEquippedItem",
      "outputs": [],
      "stateMutability": "nonpayable",
      "type": "function"
    },
    {
      "inputs": [
        {
          "internalType": "uint256",
          "name": "",
          "type": "uint256"
        },
        {
          "internalType": "uint256",
          "name": "salePrice",
          "type": "uint256"
        }
      ],
      "name": "royaltyInfo",
      "outputs": [
        {
          "internalType": "address",
          "name": "",
          "type": "address"
        },
        {
          "internalType": "uint256",
          "name": "",
          "type": "uint256"
        }
      ],
      "stateMutability": "view",
      "type": "function"
    },
    {
      "inputs": [
        {
          "internalType": "address",
          "name": "from",
          "type": "address"
        },
        {
          "internalType": "address",
          "name": "to",
          "type": "address"
        },
        {
          "internalType": "uint256[]",
          "name": "ids",
          "type": "uint256[]"
        },
        {
          "internalType": "uint256[]",
          "name": "amounts",
          "type": "uint256[]"
        },
        {
          "internalType": "bytes",
          "name": "data",
          "type": "bytes"
        }
      ],
      "name": "safeBatchTransferFrom",
      "outputs": [],
      "stateMutability": "nonpayable",
      "type": "function"
    },
    {
      "inputs": [
        {
          "internalType": "address",
          "name": "from",
          "type": "address"
        },
        {
          "internalType": "address",
          "name": "to",
          "type": "address"
        },
        {
          "internalType": "uint256",
          "name": "id",
          "type": "uint256"
        },
        {
          "internalType": "uint256",
          "name": "amount",
          "type": "uint256"
        },
        {
          "internalType": "bytes",
          "name": "data",
          "type": "bytes"
        }
      ],
      "name": "safeTransferFrom",
      "outputs": [],
      "stateMutability": "nonpayable",
      "type": "function"
    },
    {
      "inputs": [
        {
          "internalType": "address",
          "name": "operator",
          "type": "address"
        },
        {
          "internalType": "bool",
          "name": "approved",
          "type": "bool"
        }
      ],
      "name": "setApprovalForAll",
      "outputs": [],
      "stateMutability": "nonpayable",
      "type": "function"
    },
    {
      "inputs": [
        {
          "internalType": "address",
          "name": "newAddress",
          "type": "address"
        }
      ],
      "name": "setAvatarsAddress",
      "outputs": [],
      "stateMutability": "nonpayable",
      "type": "function"
    },
    {
      "inputs": [
        {
          "internalType": "address",
          "name": "_hatchyTickets",
          "type": "address"
        }
      ],
      "name": "setHatchyTicketsContract",
      "outputs": [],
      "stateMutability": "nonpayable",
      "type": "function"
    },
    {
      "inputs": [
        {
          "internalType": "address",
          "name": "newAddress",
          "type": "address"
        }
      ],
      "name": "setRewardDealerAddress",
      "outputs": [],
      "stateMutability": "nonpayable",
      "type": "function"
    },
    {
      "inputs": [
        {
          "internalType": "string",
          "name": "newuri",
          "type": "string"
        }
      ],
      "name": "setURI",
      "outputs": [],
      "stateMutability": "nonpayable",
      "type": "function"
    },
    {
      "inputs": [
        {
          "internalType": "bytes4",
          "name": "interfaceId",
          "type": "bytes4"
        }
      ],
      "name": "supportsInterface",
      "outputs": [
        {
          "internalType": "bool",
          "name": "",
          "type": "bool"
        }
      ],
      "stateMutability": "view",
      "type": "function"
    },
    {
      "inputs": [
        {
          "internalType": "address",
          "name": "newOwner",
          "type": "address"
        }
      ],
      "name": "transferOwnership",
      "outputs": [],
      "stateMutability": "nonpayable",
      "type": "function"
    },
    {
      "inputs": [
        {
          "internalType": "address",
          "name": "newImplementation",
          "type": "address"
        }
      ],
      "name": "upgradeTo",
      "outputs": [],
      "stateMutability": "nonpayable",
      "type": "function"
    },
    {
      "inputs": [
        {
          "internalType": "address",
          "name": "newImplementation",
          "type": "address"
        },
        {
          "internalType": "bytes",
          "name": "data",
          "type": "bytes"
        }
      ],
      "name": "upgradeToAndCall",
      "outputs": [],
      "stateMutability": "payable",
      "type": "function"
    },
    {
      "inputs": [
        {
          "internalType": "uint256",
          "name": "",
          "type": "uint256"
        }
      ],
      "name": "uri",
      "outputs": [
        {
          "internalType": "string",
          "name": "",
          "type": "string"
        }
      ],
      "stateMutability": "view",
      "type": "function"
    }
  ],
  "bytecode": "0x60a06040523060805234801561001457600080fd5b506080516139c661004c6000396000818161092f0152818161096f01528181610d9b01528181610ddb0152610e6e01526139c66000f3fe6080604052600436106101d75760003560e01c80634f1ef286116101025780638da5cb5b11610095578063f242432a11610064578063f242432a1461059f578063f2fde38b146105bf578063f74f743a146105df578063feb2dcc31461060057600080fd5b80638da5cb5b146105025780638e92035114610520578063a22cb46514610535578063e985e9c51461055557600080fd5b80636c0360eb116100d15780636c0360eb146104a5578063715018a6146104ba5780637df73e27146104cf5780637edc0f4b146104ef57600080fd5b80634f1ef2861461042f5780635136674d1461044257806352d1902d14610470578063554fa8a21461048557600080fd5b80632a55205a1161017a578063463fd1af11610149578063463fd1af146103a257806349472870146103c25780634b01fe25146103e25780634e1273f41461040257600080fd5b80632a55205a146102f05780632eb2c2d61461032f5780633659cfe61461034f57806343a7c30e1461036f57600080fd5b80630e89341c116101b65780630e89341c146102615780631e07e55a1461028e578063238dafe0146102ae57806323c4586b146102d057600080fd5b8062fdd58e146101dc57806301ffc9a71461020f57806302fe53051461023f575b600080fd5b3480156101e857600080fd5b506101fc6101f7366004612af5565b610620565b6040519081526020015b60405180910390f35b34801561021b57600080fd5b5061022f61022a366004612b35565b6106b9565b6040519015158152602001610206565b34801561024b57600080fd5b5061025f61025a366004612c30565b61070b565b005b34801561026d57600080fd5b5061028161027c366004612c6c565b61071f565b6040516102069190612cdd565b34801561029a57600080fd5b5061025f6102a9366004612cf0565b6107b4565b3480156102ba57600080fd5b506101615461022f90600160a01b900460ff1681565b3480156102dc57600080fd5b5061025f6102eb366004612af5565b6107df565b3480156102fc57600080fd5b5061031061030b366004612d0b565b61089c565b604080516001600160a01b039093168352602083019190915201610206565b34801561033b57600080fd5b5061025f61034a366004612dc1565b6108d9565b34801561035b57600080fd5b5061025f61036a366004612cf0565b610925565b34801561037b57600080fd5b5061015f546001600160a01b03165b6040516001600160a01b039091168152602001610206565b3480156103ae57600080fd5b5061025f6103bd366004612e6a565b610a01565b3480156103ce57600080fd5b5061025f6103dd366004612af5565b610b4b565b3480156103ee57600080fd5b506101fc6103fd366004612ee0565b610c0b565b34801561040e57600080fd5b5061042261041d366004612ff5565b610c68565b60405161020691906130fa565b61025f61043d36600461310d565b610d91565b34801561044e57600080fd5b506101fc61045d366004612cf0565b6101636020526000908152604090205481565b34801561047c57600080fd5b506101fc610e61565b34801561049157600080fd5b5061025f6104a0366004612cf0565b610f15565b3480156104b157600080fd5b50610281610f40565b3480156104c657600080fd5b5061025f610fcf565b3480156104db57600080fd5b5061022f6104ea366004612cf0565b610fe3565b61025f6104fd366004612ee0565b611053565b34801561050e57600080fd5b5060fb546001600160a01b031661038a565b34801561052c57600080fd5b5061025f611607565b34801561054157600080fd5b5061025f610550366004613150565b611631565b34801561056157600080fd5b5061022f610570366004613187565b6001600160a01b03918216600090815261012e6020908152604080832093909416825291909152205460ff1690565b3480156105ab57600080fd5b5061025f6105ba3660046131ba565b61163c565b3480156105cb57600080fd5b5061025f6105da366004612cf0565b611681565b3480156105eb57600080fd5b506101605461038a906001600160a01b031681565b34801561060c57600080fd5b5061025f61061b366004612cf0565b6116f7565b60006001600160a01b0383166106905760405162461bcd60e51b815260206004820152602a60248201527f455243313135353a2061646472657373207a65726f206973206e6f742061207660448201526930b634b21037bbb732b960b11b60648201526084015b60405180910390fd5b50600090815261012d602090815260408083206001600160a01b03949094168352929052205490565b60006001600160e01b03198216636cdb3d1360e11b14806106ea57506001600160e01b031982166303a24d0760e21b145b8061070557506301ffc9a760e01b6001600160e01b03198316145b92915050565b610713611722565b61071c8161177c565b50565b606061012f805461072f9061321e565b80601f016020809104026020016040519081016040528092919081815260200182805461075b9061321e565b80156107a85780601f1061077d576101008083540402835291602001916107a8565b820191906000526020600020905b81548152906001019060200180831161078b57829003601f168201915b50505050509050919050565b6107bc611722565b61015f80546001600160a01b0319166001600160a01b0392909216919091179055565b61016154600160a01b900460ff166108095760405162461bcd60e51b815260040161068790613258565b610160546001600160a01b031633146108485760405162461bcd60e51b81526020600482015260016024820152606160f81b6044820152606401610687565b61085482826001611789565b816001600160a01b03167fb713373387a266381fd4c432edd7d52ffd2fe61fc7f45c28b29eaf16f4b51400600060405161089091815260200190565b60405180910390a25050565b600080806127106108af856103e8613289565b6108b991906132a8565b90506108cd60fb546001600160a01b031690565b925090505b9250929050565b6001600160a01b0385163314806108f557506108f58533610570565b6109115760405162461bcd60e51b8152600401610687906132ca565b61091e858585858561190f565b5050505050565b6001600160a01b037f000000000000000000000000000000000000000000000000000000000000000016300361096d5760405162461bcd60e51b815260040161068790613318565b7f00000000000000000000000000000000000000000000000000000000000000006001600160a01b03166109b660008051602061394a833981519152546001600160a01b031690565b6001600160a01b0316146109dc5760405162461bcd60e51b815260040161068790613364565b6109e581611ab0565b6040805160008082526020820190925261071c91839190611ab8565b600054610100900460ff1615808015610a215750600054600160ff909116105b80610a3b5750303b158015610a3b575060005460ff166001145b610a9e5760405162461bcd60e51b815260206004820152602e60248201527f496e697469616c697a61626c653a20636f6e747261637420697320616c72656160448201526d191e481a5b9a5d1a585b1a5e995960921b6064820152608401610687565b6000805460ff191660011790558015610ac1576000805461ff0019166101001790555b610ac9611c28565b610ad1611c57565b610ada84611c86565b610ae382611cb6565b61016180546001600160a01b0319166001600160a01b0385161790558015610b45576000805461ff0019169055604051600181527f7f26b83ff96e1f2b6a682f133852f6798a09c465da95921460cefb38474024989060200160405180910390a15b50505050565b61016154600160a01b900460ff16610b755760405162461bcd60e51b815260040161068790613258565b610160546001600160a01b03163314610bb45760405162461bcd60e51b81526020600482015260016024820152606160f81b6044820152606401610687565b610bd08282600160405180602001604052806000815250611cdd565b816001600160a01b03167f811e1fb9d78aa323a24635abd182f0e86a3102581702538cc347cc522ea2c30c8260405161089091815260200190565b80516020808301516040808501516060860151608087015160a088015160c089015160e08a01516101008b0151965160009a610c4b9a90999891016133d5565b604051602081830303815290604052805190602001209050919050565b60608151835114610ccd5760405162461bcd60e51b815260206004820152602960248201527f455243313135353a206163636f756e747320616e6420696473206c656e677468604482015268040dad2e6dac2e8c6d60bb1b6064820152608401610687565b600083516001600160401b03811115610ce857610ce8612b52565b604051908082528060200260200182016040528015610d11578160200160208202803683370190505b50905060005b8451811015610d8957610d5c858281518110610d3557610d3561343d565b6020026020010151858381518110610d4f57610d4f61343d565b6020026020010151610620565b828281518110610d6e57610d6e61343d565b6020908102919091010152610d8281613453565b9050610d17565b509392505050565b6001600160a01b037f0000000000000000000000000000000000000000000000000000000000000000163003610dd95760405162461bcd60e51b815260040161068790613318565b7f00000000000000000000000000000000000000000000000000000000000000006001600160a01b0316610e2260008051602061394a833981519152546001600160a01b031690565b6001600160a01b031614610e485760405162461bcd60e51b815260040161068790613364565b610e5182611ab0565b610e5d82826001611ab8565b5050565b6000306001600160a01b037f00000000000000000000000000000000000000000000000000000000000000001614610f015760405162461bcd60e51b815260206004820152603860248201527f555550535570677261646561626c653a206d757374206e6f742062652063616c60448201527f6c6564207468726f7567682064656c656761746563616c6c00000000000000006064820152608401610687565b5060008051602061394a8339815191525b90565b610f1d611722565b61016080546001600160a01b0319166001600160a01b0392909216919091179055565b6101628054610f4e9061321e565b80601f0160208091040260200160405190810160405280929190818152602001828054610f7a9061321e565b8015610fc75780601f10610f9c57610100808354040283529160200191610fc7565b820191906000526020600020905b815481529060010190602001808311610faa57829003601f168201915b505050505081565b610fd7611722565b610fe16000611db1565b565b61016154604051637df73e2760e01b81526001600160a01b0383811660048301526000921690637df73e2790602401602060405180830381865afa15801561102f573d6000803e3d6000fd5b505050506040513d601f19601f82011682018060405250810190610705919061346c565b61105b611e03565b61016154600160a01b900460ff166110855760405162461bcd60e51b815260040161068790613258565b80516001600160a01b031633146110c65760405162461bcd60e51b815260206004820152600560248201526477726f6e6760d81b6044820152606401610687565b6101615461012082015160405163471ebc9560e11b81526001600160a01b0390921691638e3d792a916110fb91600401612cdd565b602060405180830381865afa158015611118573d6000803e3d6000fd5b505050506040513d601f19601f8201168201806040525081019061113c919061346c565b156111745760405162461bcd60e51b81526020600482015260086024820152671cda59c81d5cd95960c21b6044820152606401610687565b61016154610120820151604051632925de5560e01b81526001600160a01b0390921691632925de55916111ac91600190600401613489565b600060405180830381600087803b1580156111c657600080fd5b505af11580156111da573d6000803e3d6000fd5b505061016154606084015160405162ea36c160e71b81526001600160a01b03909216935063751b608092506112159160040190815260200190565b602060405180830381865afa158015611232573d6000803e3d6000fd5b505050506040513d601f19601f82011682018060405250810190611256919061346c565b156112925760405162461bcd60e51b815260206004820152600c60248201526b1d9bdd58da195c881d5cd95960a21b6044820152606401610687565b61016154606082015160405163733a8b9160e01b81526004810191909152600160248201526001600160a01b039091169063733a8b9190604401600060405180830381600087803b1580156112e657600080fd5b505af11580156112fa573d6000803e3d6000fd5b50505050600061131a6104ea83610120015161131585610c0b565b611e5c565b9050806113525760405162461bcd60e51b815260206004820152600660248201526539b4b3b732b960d11b6044820152606401610687565b8160e0015115611377576113728260000151308461010001516001611e78565b61151f565b60c08201511561151f5773eeeeeeeeeeeeeeeeeeeeeeeeeeeeeeeeeeeeeeee6001600160a01b03168260a001516001600160a01b03160361143f578160c001513410156113fb5760405162461bcd60e51b8152602060048201526012602482015271496e73756666696369656e742066756e647360701b6044820152606401610687565b60fb5460c08301516040516001600160a01b039092169181156108fc0291906000818181858888f19350505050158015611439573d6000803e3d6000fd5b5061151f565b8160a001516001600160a01b03166323b872dd3361146560fb546001600160a01b031690565b60c08601516040516001600160e01b031960e086901b1681526001600160a01b03938416600482015292909116602483015260448201526064016020604051808303816000875af11580156114be573d6000803e3d6000fd5b505050506040513d601f19601f820116820180604052508101906114e2919061346c565b61151f5760405162461bcd60e51b815260206004820152600e60248201526d1c185e5b595b9d0819985a5b195960921b6044820152606401610687565b61154682600001518360200151846040015160405180602001604052806000815250611fd1565b60005b8260200151518110156115ba578260400151818151811061156c5761156c61343d565b6020026020010151610163600085600001516001600160a01b03166001600160a01b0316815260200190815260200160002060008282546115ad91906134ad565b9091555050600101611549565b506020820151604080840151905133927fa78d18c9868a075fbb512fe99f8a102cd053eaa68e9c76fbab39d463509c6c4b926115f5926134c5565b60405180910390a25061071c60018055565b61160f611722565b610161805460ff60a01b198116600160a01b9182900460ff1615909102179055565b610e5d338383612124565b6001600160a01b03851633148061165857506116588533610570565b6116745760405162461bcd60e51b8152600401610687906132ca565b61091e8585858585612205565b611689611722565b6001600160a01b0381166116ee5760405162461bcd60e51b815260206004820152602660248201527f4f776e61626c653a206e6577206f776e657220697320746865207a65726f206160448201526564647265737360d01b6064820152608401610687565b61071c81611db1565b6116ff611722565b61016180546001600160a01b0319166001600160a01b0392909216919091179055565b60fb546001600160a01b03163314610fe15760405162461bcd60e51b815260206004820181905260248201527f4f776e61626c653a2063616c6c6572206973206e6f7420746865206f776e65726044820152606401610687565b61012f610e5d8282613530565b6001600160a01b0383166117eb5760405162461bcd60e51b815260206004820152602360248201527f455243313135353a206275726e2066726f6d20746865207a65726f206164647260448201526265737360e81b6064820152608401610687565b3360006117f784612335565b9050600061180484612335565b604080516020808201835260009182905288825261012d81528282206001600160a01b038b168352905220549091508481101561188f5760405162461bcd60e51b8152602060048201526024808201527f455243313135353a206275726e20616d6f756e7420657863656564732062616c604482015263616e636560e01b6064820152608401610687565b600086815261012d602090815260408083206001600160a01b038b81168086529184528285208a8703905582518b81529384018a90529092908816917fc3d58168c5ae7397731d063d5bbf3d657854427343f4c083240f7aacaa2d0f62910160405180910390a46040805160208101909152600090525b50505050505050565b81518351146119305760405162461bcd60e51b8152600401610687906135ef565b6001600160a01b0384166119565760405162461bcd60e51b815260040161068790613637565b3360005b8451811015611a425760008582815181106119775761197761343d565b6020026020010151905060008583815181106119955761199561343d565b602090810291909101810151600084815261012d835260408082206001600160a01b038e1683529093529190912054909150818110156119e75760405162461bcd60e51b81526004016106879061367c565b600083815261012d602090815260408083206001600160a01b038e8116855292528083208585039055908b16825281208054849290611a279084906134ad565b9250508190555050505080611a3b90613453565b905061195a565b50846001600160a01b0316866001600160a01b0316826001600160a01b03167f4a39dc06d4c0dbc64b70af90fd698a233a518aa5d07e595d983b8c0526c8f7fb8787604051611a929291906134c5565b60405180910390a4611aa8818787878787612380565b505050505050565b61071c611722565b7f4910fdfa16fed3260ed0e7147f7cc6da11a60208b5b9406d12a635614ffd91435460ff1615611af057611aeb836124db565b505050565b826001600160a01b03166352d1902d6040518163ffffffff1660e01b8152600401602060405180830381865afa925050508015611b4a575060408051601f3d908101601f19168201909252611b47918101906136c6565b60015b611bad5760405162461bcd60e51b815260206004820152602e60248201527f45524331393637557067726164653a206e657720696d706c656d656e7461746960448201526d6f6e206973206e6f74205555505360901b6064820152608401610687565b60008051602061394a8339815191528114611c1c5760405162461bcd60e51b815260206004820152602960248201527f45524331393637557067726164653a20756e737570706f727465642070726f786044820152681a58589b195555525160ba1b6064820152608401610687565b50611aeb838383612577565b600054610100900460ff16611c4f5760405162461bcd60e51b8152600401610687906136df565b610fe161259c565b600054610100900460ff16611c7e5760405162461bcd60e51b8152600401610687906136df565b610fe16125cc565b600054610100900460ff16611cad5760405162461bcd60e51b8152600401610687906136df565b61071c816125f3565b600054610100900460ff166107bc5760405162461bcd60e51b8152600401610687906136df565b6001600160a01b038416611d035760405162461bcd60e51b81526004016106879061372a565b336000611d0f85612335565b90506000611d1c85612335565b9050600086815261012d602090815260408083206001600160a01b038b16845290915281208054879290611d519084906134ad565b909155505060408051878152602081018790526001600160a01b03808a1692600092918716917fc3d58168c5ae7397731d063d5bbf3d657854427343f4c083240f7aacaa2d0f62910160405180910390a46119068360008989898961261a565b60fb80546001600160a01b038381166001600160a01b0319831681179093556040519116919082907f8be0079c531659141344cd1fd0a4f28419497f9722a3daafe3b4186f6b6457e090600090a35050565b600260015403611e555760405162461bcd60e51b815260206004820152601f60248201527f5265656e7472616e637947756172643a207265656e7472616e742063616c6c006044820152606401610687565b6002600155565b6000611e7183611e6b846126d5565b90612710565b9392505050565b61015f54604051627eeac760e11b81526001600160a01b038681166004830152602482018590528392169062fdd58e90604401602060405180830381865afa158015611ec8573d6000803e3d6000fd5b505050506040513d601f19601f82011682018060405250810190611eec91906136c6565b1015604051806040016040528060128152602001714e6f7420656e6f756768207469636b65747360701b81525090611f375760405162461bcd60e51b81526004016106879190612cdd565b5061015f54604051637921219560e11b81526001600160a01b0386811660048301528581166024830152604482018590526064820184905260a06084830152600660a48301526572656465656d60d01b60c48301529091169063f242432a9060e401600060405180830381600087803b158015611fb357600080fd5b505af1158015611fc7573d6000803e3d6000fd5b5050505050505050565b6001600160a01b038416611ff75760405162461bcd60e51b81526004016106879061372a565b81518351146120185760405162461bcd60e51b8152600401610687906135ef565b3360005b84518110156120b6578381815181106120375761203761343d565b602002602001015161012d60008784815181106120565761205661343d565b602002602001015181526020019081526020016000206000886001600160a01b03166001600160a01b03168152602001908152602001600020600082825461209e91906134ad565b909155508190506120ae81613453565b91505061201c565b50846001600160a01b031660006001600160a01b0316826001600160a01b03167f4a39dc06d4c0dbc64b70af90fd698a233a518aa5d07e595d983b8c0526c8f7fb87876040516121079291906134c5565b60405180910390a461091e81600087878787612380565b60018055565b816001600160a01b0316836001600160a01b0316036121975760405162461bcd60e51b815260206004820152602960248201527f455243313135353a2073657474696e6720617070726f76616c20737461747573604482015268103337b91039b2b63360b91b6064820152608401610687565b6001600160a01b03838116600081815261012e6020908152604080832094871680845294825291829020805460ff191686151590811790915591519182527f17307eab39ab6107e8899845ad3d59bd9653f200f220920489ca2b5937696c31910160405180910390a3505050565b6001600160a01b03841661222b5760405162461bcd60e51b815260040161068790613637565b33600061223785612335565b9050600061224485612335565b9050600086815261012d602090815260408083206001600160a01b038c1684529091529020548581101561228a5760405162461bcd60e51b81526004016106879061367c565b600087815261012d602090815260408083206001600160a01b038d8116855292528083208985039055908a168252812080548892906122ca9084906134ad565b909155505060408051888152602081018890526001600160a01b03808b16928c821692918816917fc3d58168c5ae7397731d063d5bbf3d657854427343f4c083240f7aacaa2d0f62910160405180910390a461232a848a8a8a8a8a61261a565b505050505050505050565b6040805160018082528183019092526060916000919060208083019080368337019050509050828160008151811061236f5761236f61343d565b602090810291909101015292915050565b6001600160a01b0384163b15611aa85760405163bc197c8160e01b81526001600160a01b0385169063bc197c81906123c4908990899088908890889060040161376b565b6020604051808303816000875af19250505080156123ff575060408051601f3d908101601f191682019092526123fc918101906137c9565b60015b6124ab5761240b6137e6565b806308c379a003612444575061241f613801565b8061242a5750612446565b8060405162461bcd60e51b81526004016106879190612cdd565b505b60405162461bcd60e51b815260206004820152603460248201527f455243313135353a207472616e7366657220746f206e6f6e2d455243313135356044820152732932b1b2b4bb32b91034b6b83632b6b2b73a32b960611b6064820152608401610687565b6001600160e01b0319811663bc197c8160e01b146119065760405162461bcd60e51b81526004016106879061388a565b6001600160a01b0381163b6125485760405162461bcd60e51b815260206004820152602d60248201527f455243313936373a206e657720696d706c656d656e746174696f6e206973206e60448201526c1bdd08184818dbdb9d1c9858dd609a1b6064820152608401610687565b60008051602061394a83398151915280546001600160a01b0319166001600160a01b0392909216919091179055565b6125808361272c565b60008251118061258d5750805b15611aeb57610b45838361276c565b600054610100900460ff166125c35760405162461bcd60e51b8152600401610687906136df565b610fe133611db1565b600054610100900460ff1661211e5760405162461bcd60e51b8152600401610687906136df565b600054610100900460ff166107135760405162461bcd60e51b8152600401610687906136df565b6001600160a01b0384163b15611aa85760405163f23a6e6160e01b81526001600160a01b0385169063f23a6e619061265e90899089908890889088906004016138d2565b6020604051808303816000875af1925050508015612699575060408051601f3d908101601f19168201909252612696918101906137c9565b60015b6126a55761240b6137e6565b6001600160e01b0319811663f23a6e6160e01b146119065760405162461bcd60e51b81526004016106879061388a565b6040517f19457468657265756d205369676e6564204d6573736167653a0a3332000000006020820152603c8101829052600090605c01610c4b565b600080600061271f8585612860565b91509150610d89816128a2565b612735816124db565b6040516001600160a01b038216907fbc7cd75a20ee27fd9adebab32041f755214dbc6bffa90cc0225b39da2e5c2d3b90600090a250565b60606001600160a01b0383163b6127d45760405162461bcd60e51b815260206004820152602660248201527f416464726573733a2064656c65676174652063616c6c20746f206e6f6e2d636f6044820152651b9d1c9858dd60d21b6064820152608401610687565b600080846001600160a01b0316846040516127ef9190613917565b600060405180830381855af49150503d806000811461282a576040519150601f19603f3d011682016040523d82523d6000602084013e61282f565b606091505b5091509150612857828260405180606001604052806027815260200161396a602791396129ec565b95945050505050565b60008082516041036128965760208301516040840151606085015160001a61288a87828585612a05565b945094505050506108d2565b506000905060026108d2565b60008160048111156128b6576128b6613933565b036128be5750565b60018160048111156128d2576128d2613933565b0361291f5760405162461bcd60e51b815260206004820152601860248201527f45434453413a20696e76616c6964207369676e617475726500000000000000006044820152606401610687565b600281600481111561293357612933613933565b036129805760405162461bcd60e51b815260206004820152601f60248201527f45434453413a20696e76616c6964207369676e6174757265206c656e677468006044820152606401610687565b600381600481111561299457612994613933565b0361071c5760405162461bcd60e51b815260206004820152602260248201527f45434453413a20696e76616c6964207369676e6174757265202773272076616c604482015261756560f01b6064820152608401610687565b606083156129fb575081611e71565b611e718383612ac9565b6000807f7fffffffffffffffffffffffffffffff5d576e7357a4501ddfe92f46681b20a0831115612a3c5750600090506003612ac0565b6040805160008082526020820180845289905260ff881692820192909252606081018690526080810185905260019060a0016020604051602081039080840390855afa158015612a90573d6000803e3d6000fd5b5050604051601f1901519150506001600160a01b038116612ab957600060019250925050612ac0565b9150600090505b94509492505050565b81511561242a5781518083602001fd5b80356001600160a01b0381168114612af057600080fd5b919050565b60008060408385031215612b0857600080fd5b612b1183612ad9565b946020939093013593505050565b6001600160e01b03198116811461071c57600080fd5b600060208284031215612b4757600080fd5b8135611e7181612b1f565b634e487b7160e01b600052604160045260246000fd5b601f8201601f191681016001600160401b0381118282101715612b8d57612b8d612b52565b6040525050565b60405161014081016001600160401b0381118282101715612bb757612bb7612b52565b60405290565b600082601f830112612bce57600080fd5b81356001600160401b03811115612be757612be7612b52565b604051612bfe601f8301601f191660200182612b68565b818152846020838601011115612c1357600080fd5b816020850160208301376000918101602001919091529392505050565b600060208284031215612c4257600080fd5b81356001600160401b03811115612c5857600080fd5b612c6484828501612bbd565b949350505050565b600060208284031215612c7e57600080fd5b5035919050565b60005b83811015612ca0578181015183820152602001612c88565b83811115610b455750506000910152565b60008151808452612cc9816020860160208601612c85565b601f01601f19169290920160200192915050565b602081526000611e716020830184612cb1565b600060208284031215612d0257600080fd5b611e7182612ad9565b60008060408385031215612d1e57600080fd5b50508035926020909101359150565b60006001600160401b03821115612d4657612d46612b52565b5060051b60200190565b600082601f830112612d6157600080fd5b81356020612d6e82612d2d565b604051612d7b8282612b68565b83815260059390931b8501820192828101915086841115612d9b57600080fd5b8286015b84811015612db65780358352918301918301612d9f565b509695505050505050565b600080600080600060a08688031215612dd957600080fd5b612de286612ad9565b9450612df060208701612ad9565b935060408601356001600160401b0380821115612e0c57600080fd5b612e1889838a01612d50565b94506060880135915080821115612e2e57600080fd5b612e3a89838a01612d50565b93506080880135915080821115612e5057600080fd5b50612e5d88828901612bbd565b9150509295509295909350565b600080600060608486031215612e7f57600080fd5b83356001600160401b03811115612e9557600080fd5b612ea186828701612bbd565b935050612eb060208501612ad9565b9150612ebe60408501612ad9565b90509250925092565b801515811461071c57600080fd5b8035612af081612ec7565b600060208284031215612ef257600080fd5b81356001600160401b0380821115612f0957600080fd5b908301906101408286031215612f1e57600080fd5b612f26612b94565b612f2f83612ad9565b8152602083013582811115612f4357600080fd5b612f4f87828601612d50565b602083015250604083013582811115612f6757600080fd5b612f7387828601612d50565b6040830152506060830135606082015260808301356080820152612f9960a08401612ad9565b60a082015260c083013560c0820152612fb460e08401612ed5565b60e082015261010083810135908201526101208084013583811115612fd857600080fd5b612fe488828701612bbd565b918301919091525095945050505050565b6000806040838503121561300857600080fd5b82356001600160401b038082111561301f57600080fd5b818501915085601f83011261303357600080fd5b8135602061304082612d2d565b60405161304d8282612b68565b83815260059390931b850182019282810191508984111561306d57600080fd5b948201945b838610156130925761308386612ad9565b82529482019490820190613072565b965050860135925050808211156130a857600080fd5b506130b585828601612d50565b9150509250929050565b600081518084526020808501945080840160005b838110156130ef578151875295820195908201906001016130d3565b509495945050505050565b602081526000611e7160208301846130bf565b6000806040838503121561312057600080fd5b61312983612ad9565b915060208301356001600160401b0381111561314457600080fd5b6130b585828601612bbd565b6000806040838503121561316357600080fd5b61316c83612ad9565b9150602083013561317c81612ec7565b809150509250929050565b6000806040838503121561319a57600080fd5b6131a383612ad9565b91506131b160208401612ad9565b90509250929050565b600080600080600060a086880312156131d257600080fd5b6131db86612ad9565b94506131e960208701612ad9565b9350604086013592506060860135915060808601356001600160401b0381111561321257600080fd5b612e5d88828901612bbd565b600181811c9082168061323257607f821691505b60208210810361325257634e487b7160e01b600052602260045260246000fd5b50919050565b6020808252600190820152606560f81b604082015260600190565b634e487b7160e01b600052601160045260246000fd5b60008160001904831182151516156132a3576132a3613273565b500290565b6000826132c557634e487b7160e01b600052601260045260246000fd5b500490565b6020808252602e908201527f455243313135353a2063616c6c6572206973206e6f7420746f6b656e206f776e60408201526d195c881bdc88185c1c1c9bdd995960921b606082015260800190565b6020808252602c908201527f46756e6374696f6e206d7573742062652063616c6c6564207468726f7567682060408201526b19195b1959d85d1958d85b1b60a21b606082015260800190565b6020808252602c908201527f46756e6374696f6e206d7573742062652063616c6c6564207468726f7567682060408201526b6163746976652070726f787960a01b606082015260800190565b805160009060208084018383156130ef578151875295820195908201906001016130d3565b60006bffffffffffffffffffffffff19808c60601b1683526134036133fd601485018d6133b0565b8b6133b0565b9889526020890197909752505060609390931b9093166040850152605484015290151560f81b607483015260758201526095019392505050565b634e487b7160e01b600052603260045260246000fd5b60006001820161346557613465613273565b5060010190565b60006020828403121561347e57600080fd5b8151611e7181612ec7565b60408152600061349c6040830185612cb1565b905082151560208301529392505050565b600082198211156134c0576134c0613273565b500190565b6040815260006134d860408301856130bf565b828103602084015261285781856130bf565b601f821115611aeb57600081815260208120601f850160051c810160208610156135115750805b601f850160051c820191505b81811015611aa85782815560010161351d565b81516001600160401b0381111561354957613549612b52565b61355d81613557845461321e565b846134ea565b602080601f831160018114613592576000841561357a5750858301515b600019600386901b1c1916600185901b178555611aa8565b600085815260208120601f198616915b828110156135c1578886015182559484019460019091019084016135a2565b50858210156135df5787850151600019600388901b60f8161c191681555b5050505050600190811b01905550565b60208082526028908201527f455243313135353a2069647320616e6420616d6f756e7473206c656e677468206040820152670dad2e6dac2e8c6d60c31b606082015260800190565b60208082526025908201527f455243313135353a207472616e7366657220746f20746865207a65726f206164604082015264647265737360d81b606082015260800190565b6020808252602a908201527f455243313135353a20696e73756666696369656e742062616c616e636520666f60408201526939103a3930b739b332b960b11b606082015260800190565b6000602082840312156136d857600080fd5b5051919050565b6020808252602b908201527f496e697469616c697a61626c653a20636f6e7472616374206973206e6f74206960408201526a6e697469616c697a696e6760a81b606082015260800190565b60208082526021908201527f455243313135353a206d696e7420746f20746865207a65726f206164647265736040820152607360f81b606082015260800190565b6001600160a01b0386811682528516602082015260a060408201819052600090613797908301866130bf565b82810360608401526137a981866130bf565b905082810360808401526137bd8185612cb1565b98975050505050505050565b6000602082840312156137db57600080fd5b8151611e7181612b1f565b600060033d1115610f125760046000803e5060005160e01c90565b600060443d101561380f5790565b6040516003193d81016004833e81513d6001600160401b03816024840111818411171561383e57505050505090565b82850191508151818111156138565750505050505090565b843d87010160208285010111156138705750505050505090565b61387f60208286010187612b68565b509095945050505050565b60208082526028908201527f455243313135353a204552433131353552656365697665722072656a656374656040820152676420746f6b656e7360c01b606082015260800190565b6001600160a01b03868116825285166020820152604081018490526060810183905260a06080820181905260009061390c90830184612cb1565b979650505050505050565b60008251613929818460208701612c85565b9190910192915050565b634e487b7160e01b600052602160045260246000fdfe360894a13ba1a3210667c828492db98dca3e2076cc3735a920a3ca505d382bbc416464726573733a206c6f772d6c6576656c2064656c65676174652063616c6c206661696c6564a2646970667358221220106eb26e9d0899ae3277e3153ea3cc946e3515ff896f06efbe988226fc536d0464736f6c634300080f0033",
  "linkReferences": {},
  "deployedLinkReferences": {}
}