{
  "_format": "hh-sol-artifact-1",
  "contractName": "MastersAvatars",
  "sourceName": "contracts/masters/MastersAvatars.sol",
  "abi": [
    {
      "inputs": [],
      "stateMutability": "nonpayable",
      "type": "constructor"
    },
    {
      "anonymous": false,
      "inputs": [
        {
          "indexed": false,
          "internalType": "address",
          "name": "previousAdmin",
          "type": "address"
        },
        {
          "indexed": false,
          "internalType": "address",
          "name": "newAdmin",
          "type": "address"
        }
      ],
      "name": "AdminChanged",
      "type": "event"
    },
    {
      "anonymous": false,
      "inputs": [
        {
          "indexed": true,
          "internalType": "address",
          "name": "owner",
          "type": "address"
        },
        {
          "indexed": true,
          "internalType": "address",
          "name": "approved",
          "type": "address"
        },
        {
          "indexed": true,
          "internalType": "uint256",
          "name": "tokenId",
          "type": "uint256"
        }
      ],
      "name": "Approval",
      "type": "event"
    },
    {
      "anonymous": false,
      "inputs": [
        {
          "indexed": true,
          "internalType": "address",
          "name": "owner",
          "type": "address"
        },
        {
          "indexed": true,
          "internalType": "address",
          "name": "operator",
          "type": "address"
        },
        {
          "indexed": false,
          "internalType": "bool",
          "name": "approved",
          "type": "bool"
        }
      ],
      "name": "ApprovalForAll",
      "type": "event"
    },
    {
      "anonymous": false,
      "inputs": [
        {
          "indexed": true,
          "internalType": "address",
          "name": "owner",
          "type": "address"
        },
        {
          "indexed": true,
          "internalType": "uint256",
          "name": "avatar",
          "type": "uint256"
        },
        {
          "indexed": false,
          "internalType": "uint256[]",
          "name": "traits",
          "type": "uint256[]"
        }
      ],
      "name": "AvatarMinted",
      "type": "event"
    },
    {
      "anonymous": false,
      "inputs": [
        {
          "indexed": true,
          "internalType": "address",
          "name": "beacon",
          "type": "address"
        }
      ],
      "name": "BeaconUpgraded",
      "type": "event"
    },
    {
      "anonymous": false,
      "inputs": [
        {
          "indexed": false,
          "internalType": "uint8",
          "name": "version",
          "type": "uint8"
        }
      ],
      "name": "Initialized",
      "type": "event"
    },
    {
      "anonymous": false,
      "inputs": [
        {
          "indexed": true,
          "internalType": "address",
          "name": "owner",
          "type": "address"
        },
        {
          "indexed": true,
          "internalType": "uint256",
          "name": "avatar",
          "type": "uint256"
        },
        {
          "indexed": false,
          "internalType": "uint256[]",
          "name": "items",
          "type": "uint256[]"
        }
      ],
      "name": "ItemsEquipped",
      "type": "event"
    },
    {
      "anonymous": false,
      "inputs": [
        {
          "indexed": true,
          "internalType": "address",
          "name": "previousOwner",
          "type": "address"
        },
        {
          "indexed": true,
          "internalType": "address",
          "name": "newOwner",
          "type": "address"
        }
      ],
      "name": "OwnershipTransferred",
      "type": "event"
    },
    {
      "anonymous": false,
      "inputs": [
        {
          "indexed": true,
          "internalType": "address",
          "name": "from",
          "type": "address"
        },
        {
          "indexed": true,
          "internalType": "address",
          "name": "to",
          "type": "address"
        },
        {
          "indexed": true,
          "internalType": "uint256",
          "name": "tokenId",
          "type": "uint256"
        }
      ],
      "name": "Transfer",
      "type": "event"
    },
    {
      "anonymous": false,
      "inputs": [
        {
          "indexed": true,
          "internalType": "address",
          "name": "implementation",
          "type": "address"
        }
      ],
      "name": "Upgraded",
      "type": "event"
    },
    {
      "inputs": [
        {
          "internalType": "address",
          "name": "to",
          "type": "address"
        },
        {
          "internalType": "uint256",
          "name": "tokenId",
          "type": "uint256"
        }
      ],
      "name": "approve",
      "outputs": [],
      "stateMutability": "nonpayable",
      "type": "function"
    },
    {
      "inputs": [
        {
          "internalType": "address",
          "name": "owner",
          "type": "address"
        }
      ],
      "name": "balanceOf",
      "outputs": [
        {
          "internalType": "uint256",
          "name": "",
          "type": "uint256"
        }
      ],
      "stateMutability": "view",
      "type": "function"
    },
    {
      "inputs": [],
      "name": "enabled",
      "outputs": [
        {
          "internalType": "bool",
          "name": "",
          "type": "bool"
        }
      ],
      "stateMutability": "view",
      "type": "function"
    },
    {
      "inputs": [
        {
          "components": [
            {
              "internalType": "address",
              "name": "owner",
              "type": "address"
            },
            {
              "internalType": "uint256",
              "name": "tokenId",
              "type": "uint256"
            },
            {
              "internalType": "uint256[]",
              "name": "equipItems",
              "type": "uint256[]"
            },
            {
              "internalType": "bytes",
              "name": "signature",
              "type": "bytes"
            }
          ],
          "internalType": "struct EquipVoucher",
          "name": "payload",
          "type": "tuple"
        }
      ],
      "name": "encodePackedEquipData",
      "outputs": [
        {
          "internalType": "bytes32",
          "name": "",
          "type": "bytes32"
        }
      ],
      "stateMutability": "pure",
      "type": "function"
    },
    {
      "inputs": [
        {
          "components": [
            {
              "internalType": "address",
              "name": "receiver",
              "type": "address"
            },
            {
              "internalType": "address",
              "name": "currency",
              "type": "address"
            },
            {
              "internalType": "uint256",
              "name": "price",
              "type": "uint256"
            },
            {
              "internalType": "bool",
              "name": "payWithTicket",
              "type": "bool"
            },
            {
              "internalType": "uint256[]",
              "name": "traits",
              "type": "uint256[]"
            },
            {
              "internalType": "bytes",
              "name": "signature",
              "type": "bytes"
            }
          ],
          "internalType": "struct MintPayload",
          "name": "payload",
          "type": "tuple"
        }
      ],
      "name": "encodePackedMintData",
      "outputs": [
        {
          "internalType": "bytes32",
          "name": "",
          "type": "bytes32"
        }
      ],
      "stateMutability": "pure",
      "type": "function"
    },
    {
      "inputs": [
        {
          "components": [
            {
              "internalType": "address",
              "name": "owner",
              "type": "address"
            },
            {
              "internalType": "uint256",
              "name": "tokenId",
              "type": "uint256"
            },
            {
              "internalType": "address",
              "name": "currency",
              "type": "address"
            },
            {
              "internalType": "uint256",
              "name": "price",
              "type": "uint256"
            },
            {
              "internalType": "bool",
              "name": "payWithTicket",
              "type": "bool"
            },
            {
              "internalType": "uint256[]",
              "name": "traits",
              "type": "uint256[]"
            },
            {
              "internalType": "bytes",
              "name": "signature",
              "type": "bytes"
            }
          ],
          "internalType": "struct TraitsPayload",
          "name": "payload",
          "type": "tuple"
        }
      ],
      "name": "encodePackedTraitsData",
      "outputs": [
        {
          "internalType": "bytes32",
          "name": "",
          "type": "bytes32"
        }
      ],
      "stateMutability": "pure",
      "type": "function"
    },
    {
      "inputs": [
        {
          "components": [
            {
              "internalType": "address",
              "name": "owner",
              "type": "address"
            },
            {
              "internalType": "uint256",
              "name": "tokenId",
              "type": "uint256"
            },
            {
              "internalType": "uint256[]",
              "name": "equipItems",
              "type": "uint256[]"
            },
            {
              "internalType": "bytes",
              "name": "signature",
              "type": "bytes"
            }
          ],
          "internalType": "struct EquipVoucher",
          "name": "payload",
          "type": "tuple"
        }
      ],
      "name": "equip",
      "outputs": [],
      "stateMutability": "nonpayable",
      "type": "function"
    },
    {
      "inputs": [],
      "name": "flipState",
      "outputs": [],
      "stateMutability": "nonpayable",
      "type": "function"
    },
    {
      "inputs": [
        {
          "internalType": "uint256",
          "name": "tokenId",
          "type": "uint256"
        }
      ],
      "name": "getApproved",
      "outputs": [
        {
          "internalType": "address",
          "name": "",
          "type": "address"
        }
      ],
      "stateMutability": "view",
      "type": "function"
    },
    {
      "inputs": [
        {
          "internalType": "uint256",
          "name": "tokenId",
          "type": "uint256"
        }
      ],
      "name": "getEquippedItems",
      "outputs": [
        {
          "internalType": "uint256[]",
          "name": "",
          "type": "uint256[]"
        }
      ],
      "stateMutability": "view",
      "type": "function"
    },
    {
      "inputs": [],
      "name": "getHatchyTicketsContract",
      "outputs": [
        {
          "internalType": "address",
          "name": "",
          "type": "address"
        }
      ],
      "stateMutability": "view",
      "type": "function"
    },
    {
      "inputs": [],
      "name": "getMastersItems",
      "outputs": [
        {
          "internalType": "address",
          "name": "",
          "type": "address"
        }
      ],
      "stateMutability": "view",
      "type": "function"
    },
    {
      "inputs": [],
      "name": "getRewardDealer",
      "outputs": [
        {
          "internalType": "address",
          "name": "",
          "type": "address"
        }
      ],
      "stateMutability": "view",
      "type": "function"
    },
    {
      "inputs": [
        {
          "internalType": "uint256",
          "name": "tokenId",
          "type": "uint256"
        }
      ],
      "name": "getTraits",
      "outputs": [
        {
          "internalType": "uint256[]",
          "name": "",
          "type": "uint256[]"
        }
      ],
      "stateMutability": "view",
      "type": "function"
    },
    {
      "inputs": [
        {
          "internalType": "string",
          "name": "_name",
          "type": "string"
        },
        {
          "internalType": "string",
          "name": "_symbol",
          "type": "string"
        },
        {
          "internalType": "uint256",
          "name": "startMintId",
          "type": "uint256"
        },
        {
          "internalType": "uint256",
          "name": "endMintId",
          "type": "uint256"
        },
        {
          "internalType": "string",
          "name": "_uri",
          "type": "string"
        },
        {
          "internalType": "uint256",
          "name": "_traitsLength",
          "type": "uint256"
        },
        {
          "internalType": "uint256",
          "name": "_itemsLength",
          "type": "uint256"
        },
        {
          "internalType": "address",
          "name": "_items",
          "type": "address"
        },
        {
          "internalType": "address",
          "name": "_rewardDealer",
          "type": "address"
        },
        {
          "internalType": "address",
          "name": "_hatchyTickets",
          "type": "address"
        }
      ],
      "name": "initialize",
      "outputs": [],
      "stateMutability": "nonpayable",
      "type": "function"
    },
    {
      "inputs": [
        {
          "internalType": "address",
          "name": "owner",
          "type": "address"
        },
        {
          "internalType": "address",
          "name": "operator",
          "type": "address"
        }
      ],
      "name": "isApprovedForAll",
      "outputs": [
        {
          "internalType": "bool",
          "name": "",
          "type": "bool"
        }
      ],
      "stateMutability": "view",
      "type": "function"
    },
    {
      "inputs": [
        {
          "internalType": "address",
          "name": "account",
          "type": "address"
        }
      ],
      "name": "isSigner",
      "outputs": [
        {
          "internalType": "bool",
          "name": "",
          "type": "bool"
        }
      ],
      "stateMutability": "view",
      "type": "function"
    },
    {
      "inputs": [],
      "name": "itemsLength",
      "outputs": [
        {
          "internalType": "uint256",
          "name": "",
          "type": "uint256"
        }
      ],
      "stateMutability": "view",
      "type": "function"
    },
    {
      "inputs": [
        {
          "components": [
            {
              "internalType": "address",
              "name": "receiver",
              "type": "address"
            },
            {
              "internalType": "address",
              "name": "currency",
              "type": "address"
            },
            {
              "internalType": "uint256",
              "name": "price",
              "type": "uint256"
            },
            {
              "internalType": "bool",
              "name": "payWithTicket",
              "type": "bool"
            },
            {
              "internalType": "uint256[]",
              "name": "traits",
              "type": "uint256[]"
            },
            {
              "internalType": "bytes",
              "name": "signature",
              "type": "bytes"
            }
          ],
          "internalType": "struct MintPayload",
          "name": "payload",
          "type": "tuple"
        }
      ],
      "name": "mint",
      "outputs": [],
      "stateMutability": "payable",
      "type": "function"
    },
    {
      "inputs": [],
      "name": "name",
      "outputs": [
        {
          "internalType": "string",
          "name": "",
          "type": "string"
        }
      ],
      "stateMutability": "view",
      "type": "function"
    },
    {
      "inputs": [],
      "name": "nextMintId",
      "outputs": [
        {
          "internalType": "uint256",
          "name": "",
          "type": "uint256"
        }
      ],
      "stateMutability": "view",
      "type": "function"
    },
    {
      "inputs": [],
      "name": "owner",
      "outputs": [
        {
          "internalType": "address",
          "name": "",
          "type": "address"
        }
      ],
      "stateMutability": "view",
      "type": "function"
    },
    {
      "inputs": [
        {
          "internalType": "uint256",
          "name": "tokenId",
          "type": "uint256"
        }
      ],
      "name": "ownerOf",
      "outputs": [
        {
          "internalType": "address",
          "name": "",
          "type": "address"
        }
      ],
      "stateMutability": "view",
      "type": "function"
    },
    {
      "inputs": [],
      "name": "proxiableUUID",
      "outputs": [
        {
          "internalType": "bytes32",
          "name": "",
          "type": "bytes32"
        }
      ],
      "stateMutability": "view",
      "type": "function"
    },
    {
      "inputs": [],
      "name": "renounceOwnership",
      "outputs": [],
      "stateMutability": "nonpayable",
      "type": "function"
    },
    {
      "inputs": [
        {
          "internalType": "uint256",
          "name": "",
          "type": "uint256"
        },
        {
          "internalType": "uint256",
          "name": "salePrice",
          "type": "uint256"
        }
      ],
      "name": "royaltyInfo",
      "outputs": [
        {
          "internalType": "address",
          "name": "",
          "type": "address"
        },
        {
          "internalType": "uint256",
          "name": "",
          "type": "uint256"
        }
      ],
      "stateMutability": "view",
      "type": "function"
    },
    {
      "inputs": [
        {
          "internalType": "address",
          "name": "from",
          "type": "address"
        },
        {
          "internalType": "address",
          "name": "to",
          "type": "address"
        },
        {
          "internalType": "uint256",
          "name": "tokenId",
          "type": "uint256"
        }
      ],
      "name": "safeTransferFrom",
      "outputs": [],
      "stateMutability": "nonpayable",
      "type": "function"
    },
    {
      "inputs": [
        {
          "internalType": "address",
          "name": "from",
          "type": "address"
        },
        {
          "internalType": "address",
          "name": "to",
          "type": "address"
        },
        {
          "internalType": "uint256",
          "name": "tokenId",
          "type": "uint256"
        },
        {
          "internalType": "bytes",
          "name": "data",
          "type": "bytes"
        }
      ],
      "name": "safeTransferFrom",
      "outputs": [],
      "stateMutability": "nonpayable",
      "type": "function"
    },
    {
      "inputs": [
        {
          "internalType": "address",
          "name": "operator",
          "type": "address"
        },
        {
          "internalType": "bool",
          "name": "approved",
          "type": "bool"
        }
      ],
      "name": "setApprovalForAll",
      "outputs": [],
      "stateMutability": "nonpayable",
      "type": "function"
    },
    {
      "inputs": [
        {
          "internalType": "string",
          "name": "_uri_",
          "type": "string"
        }
      ],
      "name": "setBaseURI",
      "outputs": [],
      "stateMutability": "nonpayable",
      "type": "function"
    },
    {
      "inputs": [
        {
          "internalType": "address",
          "name": "_hatchyTickets",
          "type": "address"
        }
      ],
      "name": "setHatchyTicketsContract",
      "outputs": [],
      "stateMutability": "nonpayable",
      "type": "function"
    },
    {
      "inputs": [
        {
          "internalType": "uint256",
          "name": "_itemsLength",
          "type": "uint256"
        }
      ],
      "name": "setItemsLength",
      "outputs": [],
      "stateMutability": "nonpayable",
      "type": "function"
    },
    {
      "inputs": [
        {
          "internalType": "address",
          "name": "_items",
          "type": "address"
        }
      ],
      "name": "setMastersItems",
      "outputs": [],
      "stateMutability": "nonpayable",
      "type": "function"
    },
    {
      "inputs": [
        {
          "internalType": "address",
          "name": "_rewardDealer",
          "type": "address"
        }
      ],
      "name": "setRewardDealer",
      "outputs": [],
      "stateMutability": "nonpayable",
      "type": "function"
    },
    {
      "inputs": [
        {
          "internalType": "uint256",
          "name": "_ticketId",
          "type": "uint256"
        }
      ],
      "name": "setTicketId",
      "outputs": [],
      "stateMutability": "nonpayable",
      "type": "function"
    },
    {
      "inputs": [
        {
          "components": [
            {
              "internalType": "address",
              "name": "owner",
              "type": "address"
            },
            {
              "internalType": "uint256",
              "name": "tokenId",
              "type": "uint256"
            },
            {
              "internalType": "address",
              "name": "currency",
              "type": "address"
            },
            {
              "internalType": "uint256",
              "name": "price",
              "type": "uint256"
            },
            {
              "internalType": "bool",
              "name": "payWithTicket",
              "type": "bool"
            },
            {
              "internalType": "uint256[]",
              "name": "traits",
              "type": "uint256[]"
            },
            {
              "internalType": "bytes",
              "name": "signature",
              "type": "bytes"
            }
          ],
          "internalType": "struct TraitsPayload",
          "name": "payload",
          "type": "tuple"
        }
      ],
      "name": "setTraits",
      "outputs": [],
      "stateMutability": "payable",
      "type": "function"
    },
    {
      "inputs": [
        {
          "internalType": "uint256",
          "name": "_traitsLength",
          "type": "uint256"
        }
      ],
      "name": "setTraitsLength",
      "outputs": [],
      "stateMutability": "nonpayable",
      "type": "function"
    },
    {
      "inputs": [
        {
          "internalType": "bytes4",
          "name": "interfaceId",
          "type": "bytes4"
        }
      ],
      "name": "supportsInterface",
      "outputs": [
        {
          "internalType": "bool",
          "name": "",
          "type": "bool"
        }
      ],
      "stateMutability": "view",
      "type": "function"
    },
    {
      "inputs": [],
      "name": "symbol",
      "outputs": [
        {
          "internalType": "string",
          "name": "",
          "type": "string"
        }
      ],
      "stateMutability": "view",
      "type": "function"
    },
    {
      "inputs": [],
      "name": "ticketId",
      "outputs": [
        {
          "internalType": "uint256",
          "name": "",
          "type": "uint256"
        }
      ],
      "stateMutability": "view",
      "type": "function"
    },
    {
      "inputs": [
        {
          "internalType": "uint256",
          "name": "index",
          "type": "uint256"
        }
      ],
      "name": "tokenByIndex",
      "outputs": [
        {
          "internalType": "uint256",
          "name": "",
          "type": "uint256"
        }
      ],
      "stateMutability": "view",
      "type": "function"
    },
    {
      "inputs": [
        {
          "internalType": "address",
          "name": "owner",
          "type": "address"
        },
        {
          "internalType": "uint256",
          "name": "index",
          "type": "uint256"
        }
      ],
      "name": "tokenOfOwnerByIndex",
      "outputs": [
        {
          "internalType": "uint256",
          "name": "",
          "type": "uint256"
        }
      ],
      "stateMutability": "view",
      "type": "function"
    },
    {
      "inputs": [
        {
          "internalType": "uint256",
          "name": "tokenId",
          "type": "uint256"
        }
      ],
      "name": "tokenURI",
      "outputs": [
        {
          "internalType": "string",
          "name": "",
          "type": "string"
        }
      ],
      "stateMutability": "view",
      "type": "function"
    },
    {
      "inputs": [],
      "name": "totalSupply",
      "outputs": [
        {
          "internalType": "uint256",
          "name": "",
          "type": "uint256"
        }
      ],
      "stateMutability": "view",
      "type": "function"
    },
    {
      "inputs": [],
      "name": "traitsLength",
      "outputs": [
        {
          "internalType": "uint256",
          "name": "",
          "type": "uint256"
        }
      ],
      "stateMutability": "view",
      "type": "function"
    },
    {
      "inputs": [
        {
          "internalType": "address",
          "name": "from",
          "type": "address"
        },
        {
          "internalType": "address",
          "name": "to",
          "type": "address"
        },
        {
          "internalType": "uint256",
          "name": "tokenId",
          "type": "uint256"
        }
      ],
      "name": "transferFrom",
      "outputs": [],
      "stateMutability": "nonpayable",
      "type": "function"
    },
    {
      "inputs": [
        {
          "internalType": "address",
          "name": "newOwner",
          "type": "address"
        }
      ],
      "name": "transferOwnership",
      "outputs": [],
      "stateMutability": "nonpayable",
      "type": "function"
    },
    {
      "inputs": [
        {
          "internalType": "address",
          "name": "newImplementation",
          "type": "address"
        }
      ],
      "name": "upgradeTo",
      "outputs": [],
      "stateMutability": "nonpayable",
      "type": "function"
    },
    {
      "inputs": [
        {
          "internalType": "address",
          "name": "newImplementation",
          "type": "address"
        },
        {
          "internalType": "bytes",
          "name": "data",
          "type": "bytes"
        }
      ],
      "name": "upgradeToAndCall",
      "outputs": [],
      "stateMutability": "payable",
      "type": "function"
    }
  ],
  "bytecode": "0x60a0604052306080523480156200001557600080fd5b506200002062000026565b620000e8565b600054610100900460ff1615620000935760405162461bcd60e51b815260206004820152602760248201527f496e697469616c697a61626c653a20636f6e747261637420697320696e697469604482015266616c697a696e6760c81b606482015260840160405180910390fd5b60005460ff9081161015620000e6576000805460ff191660ff9081179091556040519081527f7f26b83ff96e1f2b6a682f133852f6798a09c465da95921460cefb38474024989060200160405180910390a15b565b6080516145f46200012060003960008181610c1701528181610c570152818161111901528181611159015261128101526145f46000f3fe6080604052600436106102ae5760003560e01c8063715018a611610175578063a22cb465116100dc578063e1cb414811610095578063e985e9c51161006f578063e985e9c514610846578063f2fde38b14610890578063f863208d146108b0578063f9f0164a146108c757600080fd5b8063e1cb4148146107da578063e1dc076114610807578063e1fc8e381461082757600080fd5b8063a22cb46514610727578063b88d4fde14610747578063c87b56dd14610767578063d3bf543e14610787578063d42db2251461079a578063d9174838146107ba57600080fd5b80638da5cb5b1161012e5780638da5cb5b1461067e5780638e9203511461069d57806391e43c09146106b257806395d89b41146106d25780639cc2c539146106e7578063a115c9fd1461070757600080fd5b8063715018a6146105c957806375753e0d146105de5780637a0134be146105fe5780637df73e271461061e5780638140badf1461063e5780638537ca2a1461065e57600080fd5b806340c965d5116102195780634f6ccce7116101d25780634f6ccce71461051d57806352d1902d1461053d57806355f804b3146105525780636352211e146105725780636aa99da31461059257806370a08231146105a957600080fd5b806340c965d51461047957806342842e0e1461049857806343a7c30e146104b85780634d9b8e4d146104d75780634df74b0d146104f75780634f1ef2861461050a57600080fd5b80631e07e55a1161026b5780631e07e55a1461039f578063238dafe0146103bf57806323b872dd146103da5780632a55205a146103fa5780632f745c59146104395780633659cfe61461045957600080fd5b806301ffc9a7146102b357806306fdde03146102e8578063081812fc1461030a578063095ea7b3146103425780630fb309511461036457806318160ddd14610389575b600080fd5b3480156102bf57600080fd5b506102d36102ce366004613802565b6108de565b60405190151581526020015b60405180910390f35b3480156102f457600080fd5b506102fd610909565b6040516102df9190613877565b34801561031657600080fd5b5061032a61032536600461388a565b61099b565b6040516001600160a01b0390911681526020016102df565b34801561034e57600080fd5b5061036261035d3660046138bf565b6109c2565b005b34801561037057600080fd5b5061037b6101935481565b6040519081526020016102df565b34801561039557600080fd5b506101615461037b565b3480156103ab57600080fd5b506103626103ba3660046138e9565b610adc565b3480156103cb57600080fd5b50610199546102d39060ff1681565b3480156103e657600080fd5b506103626103f5366004613904565b610b07565b34801561040657600080fd5b5061041a610415366004613940565b610b38565b604080516001600160a01b0390931683526020830191909152016102df565b34801561044557600080fd5b5061037b6104543660046138bf565b610b76565b34801561046557600080fd5b506103626104743660046138e9565b610c0d565b34801561048557600080fd5b50610196546001600160a01b031661032a565b3480156104a457600080fd5b506103626104b3366004613904565b610cec565b3480156104c457600080fd5b50610191546001600160a01b031661032a565b3480156104e357600080fd5b506103626104f236600461388a565b610d07565b610362610505366004613b1b565b610d15565b610362610518366004613bf2565b61110f565b34801561052957600080fd5b5061037b61053836600461388a565b6111df565b34801561054957600080fd5b5061037b611274565b34801561055e57600080fd5b5061036261056d366004613c3f565b611327565b34801561057e57600080fd5b5061032a61058d36600461388a565b61133c565b34801561059e57600080fd5b5061037b6101945481565b3480156105b557600080fd5b5061037b6105c43660046138e9565b61139c565b3480156105d557600080fd5b50610362611422565b3480156105ea57600080fd5b506103626105f936600461388a565b611436565b34801561060a57600080fd5b5061036261061936600461388a565b611444565b34801561062a57600080fd5b506102d36106393660046138e9565b611452565b34801561064a57600080fd5b506103626106593660046138e9565b6114c2565b34801561066a57600080fd5b50610362610679366004613c73565b6114ed565b34801561068a57600080fd5b5061012d546001600160a01b031661032a565b3480156106a957600080fd5b506103626118a1565b3480156106be57600080fd5b5061037b6106cd366004613d1e565b6118be565b3480156106de57600080fd5b506102fd611906565b3480156106f357600080fd5b506103626107023660046138e9565b611915565b34801561071357600080fd5b50610362610722366004613deb565b611940565b34801561073357600080fd5b50610362610742366004613ecd565b611ae4565b34801561075357600080fd5b50610362610762366004613f04565b611aef565b34801561077357600080fd5b506102fd61078236600461388a565b611b27565b610362610795366004613d1e565b611b8e565b3480156107a657600080fd5b5061037b6107b5366004613b1b565b611e84565b3480156107c657600080fd5b5061037b6107d5366004613c73565b611eb4565b3480156107e657600080fd5b506107fa6107f536600461388a565b611ed7565b6040516102df9190613f6b565b34801561081357600080fd5b506107fa61082236600461388a565b611f79565b34801561083357600080fd5b50610197546001600160a01b031661032a565b34801561085257600080fd5b506102d3610861366004613faf565b6001600160a01b0391821660009081526101006020908152604080832093909416825291909152205460ff1690565b34801561089c57600080fd5b506103626108ab3660046138e9565b612014565b3480156108bc57600080fd5b5061037b6101985481565b3480156108d357600080fd5b5061037b61019a5481565b60006001600160e01b0319821663780e9d6360e01b148061090357506109038261208a565b92915050565b606060fb805461091890613fe2565b80601f016020809104026020016040519081016040528092919081815260200182805461094490613fe2565b80156109915780601f1061096657610100808354040283529160200191610991565b820191906000526020600020905b81548152906001019060200180831161097457829003601f168201915b5050505050905090565b60006109a6826120da565b50600090815260ff60205260409020546001600160a01b031690565b60006109cd8261133c565b9050806001600160a01b0316836001600160a01b031603610a3f5760405162461bcd60e51b815260206004820152602160248201527f4552433732313a20617070726f76616c20746f2063757272656e74206f776e656044820152603960f91b60648201526084015b60405180910390fd5b336001600160a01b0382161480610a5b5750610a5b8133610861565b610acd5760405162461bcd60e51b815260206004820152603d60248201527f4552433732313a20617070726f76652063616c6c6572206973206e6f7420746f60448201527f6b656e206f776e6572206f7220617070726f76656420666f7220616c6c0000006064820152608401610a36565b610ad78383612139565b505050565b610ae46121a7565b61019180546001600160a01b0319166001600160a01b0392909216919091179055565b610b113382612202565b610b2d5760405162461bcd60e51b8152600401610a369061401c565b610ad7838383612282565b60008080612710610b4b856103e861407f565b610b55919061409e565b9050610b6a61012d546001600160a01b031690565b925090505b9250929050565b6000610b818361139c565b8210610be35760405162461bcd60e51b815260206004820152602b60248201527f455243373231456e756d657261626c653a206f776e657220696e646578206f7560448201526a74206f6620626f756e647360a81b6064820152608401610a36565b506001600160a01b0391909116600090815261015f60209081526040808320938352929052205490565b6001600160a01b037f0000000000000000000000000000000000000000000000000000000000000000163003610c555760405162461bcd60e51b8152600401610a36906140c0565b7f00000000000000000000000000000000000000000000000000000000000000006001600160a01b0316610c9e600080516020614578833981519152546001600160a01b031690565b6001600160a01b031614610cc45760405162461bcd60e51b8152600401610a369061410c565b610ccd816123f3565b60408051600080825260208201909252610ce9918391906123fb565b50565b610ad783838360405180602001604052806000815250611aef565b610d0f6121a7565b61019a55565b610d1d612566565b6101995460ff16610d6157604080518082018252600b81526a139bdd08195b98589b195960aa1b6020820152905162461bcd60e51b8152610a369190600401613877565b6020810151339081610d728261133c565b6001600160a01b0316146040518060400160405280600f81526020016e2737ba103a37b5b2b71037bbb732b960891b81525090610dc25760405162461bcd60e51b8152600401610a369190613877565b50825160408051808201909152600e81526d2bb937b733903932b1b2b4bb32b960911b6020820152906001600160a01b03163314610e135760405162461bcd60e51b8152600401610a369190613877565b506000610e2f6106398560c00151610e2a87611e84565b6125bf565b90508060405180604001604052806011815260200170496e76616c6964205369676e617475726560781b81525090610e7a5760405162461bcd60e51b8152600401610a369190613877565b50836080015115610ea557610ea533610e9c61012d546001600160a01b031690565b600360016125d4565b6060840151156110585773eeeeeeeeeeeeeeeeeeeeeeeeeeeeeeeeeeeeeeee6001600160a01b031684604001516001600160a01b031603610f6e578360600151341015610f295760405162461bcd60e51b8152602060048201526012602482015271496e73756666696369656e742066756e647360701b6044820152606401610a36565b61012d5460608501516040516001600160a01b039092169181156108fc0291906000818181858888f19350505050158015610f68573d6000803e3d6000fd5b50611058565b83604001516001600160a01b03166323b872dd33610f9561012d546001600160a01b031690565b60608801516040516001600160e01b031960e086901b1681526001600160a01b03938416600482015292909116602483015260448201526064016020604051808303816000875af1158015610fee573d6000803e3d6000fd5b505050506040513d601f19601f820116820180604052508101906110129190614158565b6040518060400160405280600d81526020016c2830bcb6b2b73a1032b93937b960991b815250906110565760405162461bcd60e51b8152600401610a369190613877565b505b610193548460a0015151146040518060400160405280600f81526020016e098cadccee8d040dad2e6dac2e8c6d608b1b815250906110a95760405162461bcd60e51b8152600401610a369190613877565b5060005b8460a0015151811015611102578460a0015181815181106110d0576110d0614175565b60209081029190910181015186820151600090815261019b8352604080822085835290935291909120556001016110ad565b50505050610ce960018055565b6001600160a01b037f00000000000000000000000000000000000000000000000000000000000000001630036111575760405162461bcd60e51b8152600401610a36906140c0565b7f00000000000000000000000000000000000000000000000000000000000000006001600160a01b03166111a0600080516020614578833981519152546001600160a01b031690565b6001600160a01b0316146111c65760405162461bcd60e51b8152600401610a369061410c565b6111cf826123f3565b6111db828260016123fb565b5050565b60006111eb6101615490565b821061124e5760405162461bcd60e51b815260206004820152602c60248201527f455243373231456e756d657261626c653a20676c6f62616c20696e646578206f60448201526b7574206f6620626f756e647360a01b6064820152608401610a36565b610161828154811061126257611262614175565b90600052602060002001549050919050565b6000306001600160a01b037f000000000000000000000000000000000000000000000000000000000000000016146113145760405162461bcd60e51b815260206004820152603860248201527f555550535570677261646561626c653a206d757374206e6f742062652063616c60448201527f6c6564207468726f7567682064656c656761746563616c6c00000000000000006064820152608401610a36565b5060008051602061457883398151915290565b61132f6121a7565b6101926111db82826141d9565b600081815260fd60205260408120546001600160a01b0316806109035760405162461bcd60e51b8152602060048201526018602482015277115490cdcc8c4e881a5b9d985b1a59081d1bdad95b88125160421b6044820152606401610a36565b60006001600160a01b0382166114065760405162461bcd60e51b815260206004820152602960248201527f4552433732313a2061646472657373207a65726f206973206e6f7420612076616044820152683634b21037bbb732b960b91b6064820152608401610a36565b506001600160a01b0316600090815260fe602052604090205490565b61142a6121a7565b6114346000612733565b565b61143e6121a7565b61019355565b61144c6121a7565b61019855565b61019754604051637df73e2760e01b81526001600160a01b0383811660048301526000921690637df73e2790602401602060405180830381865afa15801561149e573d6000803e3d6000fd5b505050506040513d601f19601f820116820180604052508101906109039190614158565b6114ca6121a7565b61019680546001600160a01b0319166001600160a01b0392909216919091179055565b6101995460ff1661153157604080518082018252600b81526a139bdd08195b98589b195960aa1b6020820152905162461bcd60e51b8152610a369190600401613877565b60208101513390816115428261133c565b6001600160a01b0316146040518060400160405280600f81526020016e2737ba103a37b5b2b71037bbb732b960891b815250906115925760405162461bcd60e51b8152600401610a369190613877565b50825160408051808201909152600e81526d2bb937b733903932b1b2b4bb32b960911b6020820152906001600160a01b031633146115e35760405162461bcd60e51b8152600401610a369190613877565b5060006115fa6106398560600151610e2a87611eb4565b9050806040518060400160405280600a8152602001692737ba1039b4b3b732b960b11b8152509061163e5760405162461bcd60e51b8152600401610a369190613877565b5060005b6101985481101561185057602080860151600090815261019c82526040808220848352909252818120549187015180518490811061168257611682614175565b602002602001015190508082146118465781156116ff5761019654604051630494728760e41b8152336004820152602481018490526001600160a01b0390911690634947287090604401600060405180830381600087803b1580156116e657600080fd5b505af11580156116fa573d6000803e3d6000fd5b505050505b80156118265761019654604051627eeac760e11b8152336004820152602481018390526000916001600160a01b03169062fdd58e90604401602060405180830381865afa158015611754573d6000803e3d6000fd5b505050506040513d601f19601f820116820180604052508101906117789190614298565b116040518060400160405280600f81526020016e2737ba103a37b5b2b71037bbb732b960891b815250906117bf5760405162461bcd60e51b8152600401610a369190613877565b50610196546040516323c4586b60e01b8152336004820152602481018390526001600160a01b03909116906323c4586b90604401600060405180830381600087803b15801561180d57600080fd5b505af1158015611821573d6000803e3d6000fd5b505050505b602080880151600090815261019c82526040808220868352909252208190555b5050600101611642565b508360200151336001600160a01b03167f557dc03f902756383ba5a748ab63ec6ec44b2880dba84ad33dc6ffe670f1886186604001516040516118939190613f6b565b60405180910390a350505050565b6118a96121a7565b610199805460ff19811660ff90911615179055565b80516020808301516040808501516060860151608087015192516000966118e99690959491016142e4565b604051602081830303815290604052805190602001209050919050565b606060fc805461091890613fe2565b61191d6121a7565b61019780546001600160a01b0319166001600160a01b0392909216919091179055565b600054610100900460ff16158080156119605750600054600160ff909116105b8061197a5750303b15801561197a575060005460ff166001145b6119dd5760405162461bcd60e51b815260206004820152602e60248201527f496e697469616c697a61626c653a20636f6e747261637420697320616c72656160448201526d191e481a5b9a5d1a585b1a5e995960921b6064820152608401610a36565b6000805460ff191660011790558015611a00576000805461ff0019166101001790555b611a08612786565b611a106127b5565b611a186127dc565b611a228b8b61280b565b611a2a6127b5565b611a338261283c565b610194899055610195889055610192611a4c88826141d9565b5061019386905561019680546001600160a01b038087166001600160a01b031992831617909255610198879055610197805492861692909116919091179055600061019a558015611ad7576000805461ff0019169055604051600181527f7f26b83ff96e1f2b6a682f133852f6798a09c465da95921460cefb38474024989060200160405180910390a15b5050505050505050505050565b6111db338383612863565b611af93383612202565b611b155760405162461bcd60e51b8152600401610a369061401c565b611b2184848484612932565b50505050565b6060611b32826120da565b6000611b3c612965565b90506000815111611b5c5760405180602001604052806000815250611b87565b80611b6684612975565b604051602001611b77929190614321565b6040516020818303038152906040525b9392505050565b611b96612566565b6101995460ff16611bda57604080518082018252600b81526a139bdd08195b98589b195960aa1b6020820152905162461bcd60e51b8152610a369190600401613877565b805160408051808201909152600e81526d2bb937b733903932b1b2b4bb32b960911b6020820152906001600160a01b03163314611c2a5760405162461bcd60e51b8152600401610a369190613877565b506000611c416106398360a00151610e2a856118be565b90508060405180604001604052806011815260200170496e76616c6964205369676e617475726560781b81525090611c8c5760405162461bcd60e51b8152600401610a369190613877565b50816060015115611cb957611cb933611cae61012d546001600160a01b031690565b61019a5460016125d4565b604082015115611e6c5773eeeeeeeeeeeeeeeeeeeeeeeeeeeeeeeeeeeeeeee6001600160a01b031682602001516001600160a01b031603611d82578160400151341015611d3d5760405162461bcd60e51b8152602060048201526012602482015271496e73756666696369656e742066756e647360701b6044820152606401610a36565b61012d5460408084015190516001600160a01b039092169181156108fc0291906000818181858888f19350505050158015611d7c573d6000803e3d6000fd5b50611e6c565b81602001516001600160a01b03166323b872dd33611da961012d546001600160a01b031690565b60408087015190516001600160e01b031960e086901b1681526001600160a01b03938416600482015292909116602483015260448201526064016020604051808303816000875af1158015611e02573d6000803e3d6000fd5b505050506040513d601f19601f82011682018060405250810190611e269190614158565b6040518060400160405280600d81526020016c2830bcb6b2b73a1032b93937b960991b81525090611e6a5760405162461bcd60e51b8152600401610a369190613877565b505b611e7a338360800151612a07565b50610ce960018055565b80516020808301516040808501516060860151608087015160a088015193516000976118e9979096959101614350565b60008160000151826020015183604001516040516020016118e99392919061439f565b60606000610198546001600160401b03811115611ef657611ef6613962565b604051908082528060200260200182016040528015611f1f578160200160208202803683370190505b50905060005b61019854811015611f7257600084815261019c602090815260408083208484529091529020548251839083908110611f5f57611f5f614175565b6020908102919091010152600101611f25565b5092915050565b60606000610193546001600160401b03811115611f9857611f98613962565b604051908082528060200260200182016040528015611fc1578160200160208202803683370190505b50905060005b61019354811015611f7257600084815261019b60209081526040808320848452909152902054825183908390811061200157612001614175565b6020908102919091010152600101611fc7565b61201c6121a7565b6001600160a01b0381166120815760405162461bcd60e51b815260206004820152602660248201527f4f776e61626c653a206e6577206f776e657220697320746865207a65726f206160448201526564647265737360d01b6064820152608401610a36565b610ce981612733565b60006001600160e01b031982166380ac58cd60e01b14806120bb57506001600160e01b03198216635b5e139f60e01b145b8061090357506301ffc9a760e01b6001600160e01b0319831614610903565b600081815260fd60205260409020546001600160a01b0316610ce95760405162461bcd60e51b8152602060048201526018602482015277115490cdcc8c4e881a5b9d985b1a59081d1bdad95b88125160421b6044820152606401610a36565b600081815260ff6020526040902080546001600160a01b0319166001600160a01b038416908117909155819061216e8261133c565b6001600160a01b03167f8c5be1e5ebec7d5bd14f71427d1e84f3dd0314c0f7b2291e5b200ac8c7c3b92560405160405180910390a45050565b61012d546001600160a01b031633146114345760405162461bcd60e51b815260206004820181905260248201527f4f776e61626c653a2063616c6c6572206973206e6f7420746865206f776e65726044820152606401610a36565b60008061220e8361133c565b9050806001600160a01b0316846001600160a01b0316148061225657506001600160a01b038082166000908152610100602090815260408083209388168352929052205460ff165b8061227a5750836001600160a01b031661226f8461099b565b6001600160a01b0316145b949350505050565b826001600160a01b03166122958261133c565b6001600160a01b0316146122bb5760405162461bcd60e51b8152600401610a36906143c4565b6001600160a01b03821661231d5760405162461bcd60e51b8152602060048201526024808201527f4552433732313a207472616e7366657220746f20746865207a65726f206164646044820152637265737360e01b6064820152608401610a36565b61232a8383836001612b48565b826001600160a01b031661233d8261133c565b6001600160a01b0316146123635760405162461bcd60e51b8152600401610a36906143c4565b600081815260ff6020908152604080832080546001600160a01b03199081169091556001600160a01b0387811680865260fe855283862080546000190190559087168086528386208054600101905586865260fd90945282852080549092168417909155905184937fddf252ad1be2c89b69c2b068fc378daa952ba7f163c4a11628f55a4df523b3ef91a4505050565b610ce96121a7565b7f4910fdfa16fed3260ed0e7147f7cc6da11a60208b5b9406d12a635614ffd91435460ff161561242e57610ad783612c8a565b826001600160a01b03166352d1902d6040518163ffffffff1660e01b8152600401602060405180830381865afa925050508015612488575060408051601f3d908101601f1916820190925261248591810190614298565b60015b6124eb5760405162461bcd60e51b815260206004820152602e60248201527f45524331393637557067726164653a206e657720696d706c656d656e7461746960448201526d6f6e206973206e6f74205555505360901b6064820152608401610a36565b600080516020614578833981519152811461255a5760405162461bcd60e51b815260206004820152602960248201527f45524331393637557067726164653a20756e737570706f727465642070726f786044820152681a58589b195555525160ba1b6064820152608401610a36565b50610ad7838383612d26565b6002600154036125b85760405162461bcd60e51b815260206004820152601f60248201527f5265656e7472616e637947756172643a207265656e7472616e742063616c6c006044820152606401610a36565b6002600155565b6000611b87836125ce84612d4b565b90612d86565b61019154604051627eeac760e11b81526001600160a01b038681166004830152602482018590528392169062fdd58e90604401602060405180830381865afa158015612624573d6000803e3d6000fd5b505050506040513d601f19601f820116820180604052508101906126489190614298565b1015604051806040016040528060128152602001714e6f7420656e6f756768207469636b65747360701b815250906126935760405162461bcd60e51b8152600401610a369190613877565b5061019154604051637921219560e11b81526001600160a01b0386811660048301528581166024830152604482018590526064820184905260a06084830152600660a48301526572656465656d60d01b60c48301529091169063f242432a9060e401600060405180830381600087803b15801561270f57600080fd5b505af1158015612723573d6000803e3d6000fd5b5050505050505050565b60018055565b61012d80546001600160a01b038381166001600160a01b0319831681179093556040519116919082907f8be0079c531659141344cd1fd0a4f28419497f9722a3daafe3b4186f6b6457e090600090a35050565b600054610100900460ff166127ad5760405162461bcd60e51b8152600401610a3690614409565b611434612daa565b600054610100900460ff166114345760405162461bcd60e51b8152600401610a3690614409565b600054610100900460ff166128035760405162461bcd60e51b8152600401610a3690614409565b611434612dda565b600054610100900460ff166128325760405162461bcd60e51b8152600401610a3690614409565b6111db8282612e01565b600054610100900460ff16610ae45760405162461bcd60e51b8152600401610a3690614409565b816001600160a01b0316836001600160a01b0316036128c45760405162461bcd60e51b815260206004820152601960248201527f4552433732313a20617070726f766520746f2063616c6c6572000000000000006044820152606401610a36565b6001600160a01b0383811660008181526101006020908152604080832094871680845294825291829020805460ff191686151590811790915591519182527f17307eab39ab6107e8899845ad3d59bd9653f200f220920489ca2b5937696c31910160405180910390a3505050565b61293d848484612282565b61294984848484612e41565b611b215760405162461bcd60e51b8152600401610a3690614454565b6060610192805461091890613fe2565b6060600061298283612f42565b60010190506000816001600160401b038111156129a1576129a1613962565b6040519080825280601f01601f1916602001820160405280156129cb576020820181803683370190505b5090508181016020015b600019016f181899199a1a9b1b9c1cb0b131b232b360811b600a86061a8153600a85049450846129d557509392505050565b6101995460ff16612a4b57604080518082018252600b81526a139bdd08195b98589b195960aa1b6020820152905162461bcd60e51b8152610a369190600401613877565b610195546101945411156040518060400160405280600a8152602001694d617820737570706c7960b01b81525090612a965760405162461bcd60e51b8152600401610a369190613877565b50612aa4826101945461301a565b61019454826001600160a01b03167fc446fe171f5ccab015db56d8f22ccdb8f5128b46d6e99301a361dc19b5d82b9883604051612ae19190613f6b565b60405180910390a360005b8151811015612b3957818181518110612b0757612b07614175565b60209081029190910181015161019454600090815261019b835260408082208583529093529190912055600101612aec565b50506101948054600101905550565b612b5484848484613034565b6001811115612bc35760405162461bcd60e51b815260206004820152603560248201527f455243373231456e756d657261626c653a20636f6e7365637574697665207472604482015274185b9cd9995c9cc81b9bdd081cdd5c1c1bdc9d1959605a1b6064820152608401610a36565b816001600160a01b038516612c2157612c1c816101618054600083815261016260205260408120829055600182018355919091527fafbb1c043347995df017ce3291b765e028ad5f784d2aa00c3f5e073760a4de8b0155565b612c44565b836001600160a01b0316856001600160a01b031614612c4457612c4485826130bc565b6001600160a01b038416612c6057612c5b8161315e565b612c83565b846001600160a01b0316846001600160a01b031614612c8357612c838482613213565b5050505050565b6001600160a01b0381163b612cf75760405162461bcd60e51b815260206004820152602d60248201527f455243313936373a206e657720696d706c656d656e746174696f6e206973206e60448201526c1bdd08184818dbdb9d1c9858dd609a1b6064820152608401610a36565b60008051602061457883398151915280546001600160a01b0319166001600160a01b0392909216919091179055565b612d2f83613259565b600082511180612d3c5750805b15610ad757611b218383613299565b6040517f19457468657265756d205369676e6564204d6573736167653a0a3332000000006020820152603c8101829052600090605c016118e9565b6000806000612d95858561338d565b91509150612da2816133cf565b509392505050565b600054610100900460ff16612dd15760405162461bcd60e51b8152600401610a3690614409565b61143433612733565b600054610100900460ff1661272d5760405162461bcd60e51b8152600401610a3690614409565b600054610100900460ff16612e285760405162461bcd60e51b8152600401610a3690614409565b60fb612e3483826141d9565b5060fc610ad782826141d9565b60006001600160a01b0384163b15612f3757604051630a85bd0160e11b81526001600160a01b0385169063150b7a0290612e859033908990889088906004016144a6565b6020604051808303816000875af1925050508015612ec0575060408051601f3d908101601f19168201909252612ebd918101906144e3565b60015b612f1d573d808015612eee576040519150601f19603f3d011682016040523d82523d6000602084013e612ef3565b606091505b508051600003612f155760405162461bcd60e51b8152600401610a3690614454565b805181602001fd5b6001600160e01b031916630a85bd0160e11b14905061227a565b506001949350505050565b60008072184f03e93ff9f4daa797ed6e38ed64bf6a1f0160401b8310612f815772184f03e93ff9f4daa797ed6e38ed64bf6a1f0160401b830492506040015b6d04ee2d6d415b85acef81000000008310612fad576d04ee2d6d415b85acef8100000000830492506020015b662386f26fc100008310612fcb57662386f26fc10000830492506010015b6305f5e1008310612fe3576305f5e100830492506008015b6127108310612ff757612710830492506004015b60648310613009576064830492506002015b600a83106109035760010192915050565b6111db828260405180602001604052806000815250613519565b6001811115611b21576001600160a01b0384161561307a576001600160a01b038416600090815260fe602052604081208054839290613074908490614500565b90915550505b6001600160a01b03831615611b21576001600160a01b038316600090815260fe6020526040812080548392906130b1908490614517565b909155505050505050565b600060016130c98461139c565b6130d39190614500565b60008381526101606020526040902054909150808214613129576001600160a01b038416600090815261015f60209081526040808320858452825280832054848452818420819055835261016090915290208190555b506000918252610160602090815260408084208490556001600160a01b03909416835261015f81528383209183525290812055565b6101615460009061317190600190614500565b60008381526101626020526040812054610161805493945090928490811061319b5761319b614175565b906000526020600020015490508061016183815481106131bd576131bd614175565b600091825260208083209091019290925582815261016290915260408082208490558582528120556101618054806131f7576131f761452f565b6001900381819060005260206000200160009055905550505050565b600061321e8361139c565b6001600160a01b03909316600090815261015f6020908152604080832086845282528083208590559382526101609052919091209190915550565b61326281612c8a565b6040516001600160a01b038216907fbc7cd75a20ee27fd9adebab32041f755214dbc6bffa90cc0225b39da2e5c2d3b90600090a250565b60606001600160a01b0383163b6133015760405162461bcd60e51b815260206004820152602660248201527f416464726573733a2064656c65676174652063616c6c20746f206e6f6e2d636f6044820152651b9d1c9858dd60d21b6064820152608401610a36565b600080846001600160a01b03168460405161331c9190614545565b600060405180830381855af49150503d8060008114613357576040519150601f19603f3d011682016040523d82523d6000602084013e61335c565b606091505b509150915061338482826040518060600160405280602781526020016145986027913961354c565b95945050505050565b60008082516041036133c35760208301516040840151606085015160001a6133b787828585613565565b94509450505050610b6f565b50600090506002610b6f565b60008160048111156133e3576133e3614561565b036133eb5750565b60018160048111156133ff576133ff614561565b0361344c5760405162461bcd60e51b815260206004820152601860248201527f45434453413a20696e76616c6964207369676e617475726500000000000000006044820152606401610a36565b600281600481111561346057613460614561565b036134ad5760405162461bcd60e51b815260206004820152601f60248201527f45434453413a20696e76616c6964207369676e6174757265206c656e677468006044820152606401610a36565b60038160048111156134c1576134c1614561565b03610ce95760405162461bcd60e51b815260206004820152602260248201527f45434453413a20696e76616c6964207369676e6174757265202773272076616c604482015261756560f01b6064820152608401610a36565b6135238383613629565b6135306000848484612e41565b610ad75760405162461bcd60e51b8152600401610a3690614454565b6060831561355b575081611b87565b611b8783836137c2565b6000807f7fffffffffffffffffffffffffffffff5d576e7357a4501ddfe92f46681b20a083111561359c5750600090506003613620565b6040805160008082526020820180845289905260ff881692820192909252606081018690526080810185905260019060a0016020604051602081039080840390855afa1580156135f0573d6000803e3d6000fd5b5050604051601f1901519150506001600160a01b03811661361957600060019250925050613620565b9150600090505b94509492505050565b6001600160a01b03821661367f5760405162461bcd60e51b815260206004820181905260248201527f4552433732313a206d696e7420746f20746865207a65726f20616464726573736044820152606401610a36565b600081815260fd60205260409020546001600160a01b0316156136e45760405162461bcd60e51b815260206004820152601c60248201527f4552433732313a20746f6b656e20616c7265616479206d696e746564000000006044820152606401610a36565b6136f2600083836001612b48565b600081815260fd60205260409020546001600160a01b0316156137575760405162461bcd60e51b815260206004820152601c60248201527f4552433732313a20746f6b656e20616c7265616479206d696e746564000000006044820152606401610a36565b6001600160a01b038216600081815260fe602090815260408083208054600101905584835260fd90915280822080546001600160a01b0319168417905551839291907fddf252ad1be2c89b69c2b068fc378daa952ba7f163c4a11628f55a4df523b3ef908290a45050565b8151156137d25781518083602001fd5b8060405162461bcd60e51b8152600401610a369190613877565b6001600160e01b031981168114610ce957600080fd5b60006020828403121561381457600080fd5b8135611b87816137ec565b60005b8381101561383a578181015183820152602001613822565b83811115611b215750506000910152565b6000815180845261386381602086016020860161381f565b601f01601f19169290920160200192915050565b602081526000611b87602083018461384b565b60006020828403121561389c57600080fd5b5035919050565b80356001600160a01b03811681146138ba57600080fd5b919050565b600080604083850312156138d257600080fd5b6138db836138a3565b946020939093013593505050565b6000602082840312156138fb57600080fd5b611b87826138a3565b60008060006060848603121561391957600080fd5b613922846138a3565b9250613930602085016138a3565b9150604084013590509250925092565b6000806040838503121561395357600080fd5b50508035926020909101359150565b634e487b7160e01b600052604160045260246000fd5b60405160e081016001600160401b038111828210171561399a5761399a613962565b60405290565b604051608081016001600160401b038111828210171561399a5761399a613962565b60405160c081016001600160401b038111828210171561399a5761399a613962565b604051601f8201601f191681016001600160401b0381118282101715613a0c57613a0c613962565b604052919050565b8015158114610ce957600080fd5b80356138ba81613a14565b600082601f830112613a3e57600080fd5b813560206001600160401b03821115613a5957613a59613962565b8160051b613a688282016139e4565b9283528481018201928281019087851115613a8257600080fd5b83870192505b84831015613aa157823582529183019190830190613a88565b979650505050505050565b600082601f830112613abd57600080fd5b81356001600160401b03811115613ad657613ad6613962565b613ae9601f8201601f19166020016139e4565b818152846020838601011115613afe57600080fd5b816020850160208301376000918101602001919091529392505050565b600060208284031215613b2d57600080fd5b81356001600160401b0380821115613b4457600080fd5b9083019060e08286031215613b5857600080fd5b613b60613978565b613b69836138a3565b815260208301356020820152613b81604084016138a3565b604082015260608301356060820152613b9c60808401613a22565b608082015260a083013582811115613bb357600080fd5b613bbf87828601613a2d565b60a08301525060c083013582811115613bd757600080fd5b613be387828601613aac565b60c08301525095945050505050565b60008060408385031215613c0557600080fd5b613c0e836138a3565b915060208301356001600160401b03811115613c2957600080fd5b613c3585828601613aac565b9150509250929050565b600060208284031215613c5157600080fd5b81356001600160401b03811115613c6757600080fd5b61227a84828501613aac565b600060208284031215613c8557600080fd5b81356001600160401b0380821115613c9c57600080fd5b9083019060808286031215613cb057600080fd5b613cb86139a0565b613cc1836138a3565b815260208301356020820152604083013582811115613cdf57600080fd5b613ceb87828601613a2d565b604083015250606083013582811115613d0357600080fd5b613d0f87828601613aac565b60608301525095945050505050565b600060208284031215613d3057600080fd5b81356001600160401b0380821115613d4757600080fd5b9083019060c08286031215613d5b57600080fd5b613d636139c2565b613d6c836138a3565b8152613d7a602084016138a3565b602082015260408301356040820152613d9560608401613a22565b6060820152608083013582811115613dac57600080fd5b613db887828601613a2d565b60808301525060a083013582811115613dd057600080fd5b613ddc87828601613aac565b60a08301525095945050505050565b6000806000806000806000806000806101408b8d031215613e0b57600080fd5b8a356001600160401b0380821115613e2257600080fd5b613e2e8e838f01613aac565b9b5060208d0135915080821115613e4457600080fd5b613e508e838f01613aac565b9a5060408d0135995060608d0135985060808d0135915080821115613e7457600080fd5b50613e818d828e01613aac565b96505060a08b0135945060c08b01359350613e9e60e08c016138a3565b9250613ead6101008c016138a3565b9150613ebc6101208c016138a3565b90509295989b9194979a5092959850565b60008060408385031215613ee057600080fd5b613ee9836138a3565b91506020830135613ef981613a14565b809150509250929050565b60008060008060808587031215613f1a57600080fd5b613f23856138a3565b9350613f31602086016138a3565b92506040850135915060608501356001600160401b03811115613f5357600080fd5b613f5f87828801613aac565b91505092959194509250565b6020808252825182820181905260009190848201906040850190845b81811015613fa357835183529284019291840191600101613f87565b50909695505050505050565b60008060408385031215613fc257600080fd5b613fcb836138a3565b9150613fd9602084016138a3565b90509250929050565b600181811c90821680613ff657607f821691505b60208210810361401657634e487b7160e01b600052602260045260246000fd5b50919050565b6020808252602d908201527f4552433732313a2063616c6c6572206973206e6f7420746f6b656e206f776e6560408201526c1c881bdc88185c1c1c9bdd9959609a1b606082015260800190565b634e487b7160e01b600052601160045260246000fd5b600081600019048311821515161561409957614099614069565b500290565b6000826140bb57634e487b7160e01b600052601260045260246000fd5b500490565b6020808252602c908201527f46756e6374696f6e206d7573742062652063616c6c6564207468726f7567682060408201526b19195b1959d85d1958d85b1b60a21b606082015260800190565b6020808252602c908201527f46756e6374696f6e206d7573742062652063616c6c6564207468726f7567682060408201526b6163746976652070726f787960a01b606082015260800190565b60006020828403121561416a57600080fd5b8151611b8781613a14565b634e487b7160e01b600052603260045260246000fd5b601f821115610ad757600081815260208120601f850160051c810160208610156141b25750805b601f850160051c820191505b818110156141d1578281556001016141be565b505050505050565b81516001600160401b038111156141f2576141f2613962565b614206816142008454613fe2565b8461418b565b602080601f83116001811461423b57600084156142235750858301515b600019600386901b1c1916600185901b1785556141d1565b600085815260208120601f198616915b8281101561426a5788860151825594840194600190910190840161424b565b50858210156142885787850151600019600388901b60f8161c191681555b5050505050600190811b01905550565b6000602082840312156142aa57600080fd5b5051919050565b60008151602080840160005b838110156142d9578151875295820195908201906001016142bd565b509495945050505050565b60006001600160601b0319808860601b168352808760601b1660148401525084602883015283151560f81b6048830152613aa160498301846142b1565b6000835161433381846020880161381f565b83519083019061434781836020880161381f565b01949350505050565b60006001600160601b0319808960601b168352876014840152808760601b1660348401525084604883015283151560f81b606883015261439360698301846142b1565b98975050505050505050565b6001600160601b03198460601b168152826014820152600061338460348301846142b1565b60208082526025908201527f4552433732313a207472616e736665722066726f6d20696e636f72726563742060408201526437bbb732b960d91b606082015260800190565b6020808252602b908201527f496e697469616c697a61626c653a20636f6e7472616374206973206e6f74206960408201526a6e697469616c697a696e6760a81b606082015260800190565b60208082526032908201527f4552433732313a207472616e7366657220746f206e6f6e20455243373231526560408201527131b2b4bb32b91034b6b83632b6b2b73a32b960711b606082015260800190565b6001600160a01b03858116825284166020820152604081018390526080606082018190526000906144d99083018461384b565b9695505050505050565b6000602082840312156144f557600080fd5b8151611b87816137ec565b60008282101561451257614512614069565b500390565b6000821982111561452a5761452a614069565b500190565b634e487b7160e01b600052603160045260246000fd5b6000825161455781846020870161381f565b9190910192915050565b634e487b7160e01b600052602160045260246000fdfe360894a13ba1a3210667c828492db98dca3e2076cc3735a920a3ca505d382bbc416464726573733a206c6f772d6c6576656c2064656c65676174652063616c6c206661696c6564a2646970667358221220a5295d86ff0cbff24cc05943aa40ef230bf7d3322479f314b121506bcc2a673b64736f6c634300080f0033",
  "linkReferences": {},
  "deployedLinkReferences": {}
}