{
  "_format": "hh-sol-artifact-1",
  "contractName": "GameRanks",
  "sourceName": "contracts/GameRanks.sol",
  "abi": [
    {
      "anonymous": false,
      "inputs": [
        {
          "indexed": false,
          "internalType": "address",
          "name": "previousAdmin",
          "type": "address"
        },
        {
          "indexed": false,
          "internalType": "address",
          "name": "newAdmin",
          "type": "address"
        }
      ],
      "name": "AdminChanged",
      "type": "event"
    },
    {
      "anonymous": false,
      "inputs": [
        {
          "indexed": true,
          "internalType": "address",
          "name": "beacon",
          "type": "address"
        }
      ],
      "name": "BeaconUpgraded",
      "type": "event"
    },
    {
      "anonymous": false,
      "inputs": [
        {
          "indexed": false,
          "internalType": "string",
          "name": "gameId",
          "type": "string"
        },
        {
          "indexed": true,
          "internalType": "address",
          "name": "user",
          "type": "address"
        },
        {
          "indexed": false,
          "internalType": "uint256",
          "name": "rank",
          "type": "uint256"
        },
        {
          "indexed": false,
          "internalType": "uint256",
          "name": "position",
          "type": "uint256"
        }
      ],
      "name": "GlobalRankUpdated",
      "type": "event"
    },
    {
      "anonymous": false,
      "inputs": [
        {
          "indexed": false,
          "internalType": "uint8",
          "name": "version",
          "type": "uint8"
        }
      ],
      "name": "Initialized",
      "type": "event"
    },
    {
      "anonymous": false,
      "inputs": [
        {
          "indexed": false,
          "internalType": "string",
          "name": "gameId",
          "type": "string"
        },
        {
          "indexed": true,
          "internalType": "address",
          "name": "user",
          "type": "address"
        },
        {
          "indexed": false,
          "internalType": "uint256",
          "name": "newRank",
          "type": "uint256"
        }
      ],
      "name": "NewRank",
      "type": "event"
    },
    {
      "anonymous": false,
      "inputs": [
        {
          "indexed": true,
          "internalType": "address",
          "name": "previousOwner",
          "type": "address"
        },
        {
          "indexed": true,
          "internalType": "address",
          "name": "newOwner",
          "type": "address"
        }
      ],
      "name": "OwnershipTransferred",
      "type": "event"
    },
    {
      "anonymous": false,
      "inputs": [
        {
          "indexed": false,
          "internalType": "string",
          "name": "gameId",
          "type": "string"
        },
        {
          "indexed": true,
          "internalType": "address",
          "name": "user",
          "type": "address"
        },
        {
          "indexed": false,
          "internalType": "uint256",
          "name": "newRank",
          "type": "uint256"
        }
      ],
      "name": "RankUpdated",
      "type": "event"
    },
    {
      "anonymous": false,
      "inputs": [
        {
          "indexed": true,
          "internalType": "address",
          "name": "implementation",
          "type": "address"
        }
      ],
      "name": "Upgraded",
      "type": "event"
    },
    {
      "inputs": [
        {
          "internalType": "string",
          "name": "gameId",
          "type": "string"
        },
        {
          "internalType": "address",
          "name": "user",
          "type": "address"
        }
      ],
      "name": "getRank",
      "outputs": [
        {
          "internalType": "uint256",
          "name": "",
          "type": "uint256"
        }
      ],
      "stateMutability": "view",
      "type": "function"
    },
    {
      "inputs": [
        {
          "internalType": "string",
          "name": "gameId",
          "type": "string"
        }
      ],
      "name": "getTopRanks",
      "outputs": [
        {
          "components": [
            {
              "internalType": "address",
              "name": "user",
              "type": "address"
            },
            {
              "internalType": "uint256",
              "name": "rank",
              "type": "uint256"
            }
          ],
          "internalType": "struct GameRanks.RankEntry[10]",
          "name": "",
          "type": "tuple[10]"
        }
      ],
      "stateMutability": "view",
      "type": "function"
    },
    {
      "inputs": [
        {
          "internalType": "string",
          "name": "",
          "type": "string"
        },
        {
          "internalType": "uint256",
          "name": "",
          "type": "uint256"
        }
      ],
      "name": "globalRanks",
      "outputs": [
        {
          "internalType": "address",
          "name": "user",
          "type": "address"
        },
        {
          "internalType": "uint256",
          "name": "rank",
          "type": "uint256"
        }
      ],
      "stateMutability": "view",
      "type": "function"
    },
    {
      "inputs": [],
      "name": "initialize",
      "outputs": [],
      "stateMutability": "nonpayable",
      "type": "function"
    },
    {
      "inputs": [],
      "name": "owner",
      "outputs": [
        {
          "internalType": "address",
          "name": "",
          "type": "address"
        }
      ],
      "stateMutability": "view",
      "type": "function"
    },
    {
      "inputs": [],
      "name": "proxiableUUID",
      "outputs": [
        {
          "internalType": "bytes32",
          "name": "",
          "type": "bytes32"
        }
      ],
      "stateMutability": "view",
      "type": "function"
    },
    {
      "inputs": [
        {
          "internalType": "string",
          "name": "",
          "type": "string"
        },
        {
          "internalType": "address",
          "name": "",
          "type": "address"
        }
      ],
      "name": "ranks",
      "outputs": [
        {
          "internalType": "uint256",
          "name": "",
          "type": "uint256"
        }
      ],
      "stateMutability": "view",
      "type": "function"
    },
    {
      "inputs": [],
      "name": "renounceOwnership",
      "outputs": [],
      "stateMutability": "nonpayable",
      "type": "function"
    },
    {
      "inputs": [
        {
          "internalType": "string",
          "name": "gameId",
          "type": "string"
        },
        {
          "internalType": "address",
          "name": "user",
          "type": "address"
        },
        {
          "internalType": "uint256",
          "name": "newRank",
          "type": "uint256"
        }
      ],
      "name": "setRank",
      "outputs": [],
      "stateMutability": "nonpayable",
      "type": "function"
    },
    {
      "inputs": [
        {
          "internalType": "address",
          "name": "newOwner",
          "type": "address"
        }
      ],
      "name": "transferOwnership",
      "outputs": [],
      "stateMutability": "nonpayable",
      "type": "function"
    },
    {
      "inputs": [
        {
          "internalType": "address",
          "name": "newImplementation",
          "type": "address"
        }
      ],
      "name": "upgradeTo",
      "outputs": [],
      "stateMutability": "nonpayable",
      "type": "function"
    },
    {
      "inputs": [
        {
          "internalType": "address",
          "name": "newImplementation",
          "type": "address"
        },
        {
          "internalType": "bytes",
          "name": "data",
          "type": "bytes"
        }
      ],
      "name": "upgradeToAndCall",
      "outputs": [],
      "stateMutability": "payable",
      "type": "function"
    }
  ],
  "bytecode": "0x60a06040523060805234801561001457600080fd5b5060805161158761004c600039600081816103e301528181610423015281816104c201528181610502015261059501526115876000f3fe6080604052600436106100a75760003560e01c80638129fc1c116100645780638129fc1c1461017d5780638da5cb5b14610192578063c0a54584146101ba578063db97532e146101da578063f2fde38b14610222578063f95b881a1461024257600080fd5b8063328ce2b9146100ac5780633659cfe6146100ce5780634f1ef286146100ee57806352d1902d14610101578063715018a614610129578063777824fc1461013e575b600080fd5b3480156100b857600080fd5b506100cc6100c73660046110b2565b61026f565b005b3480156100da57600080fd5b506100cc6100e9366004611109565b6103d9565b6100cc6100fc366004611124565b6104b8565b34801561010d57600080fd5b50610116610588565b6040519081526020015b60405180910390f35b34801561013557600080fd5b506100cc61063b565b34801561014a57600080fd5b5061015e610159366004611186565b61064f565b604080516001600160a01b039093168352602083019190915201610120565b34801561018957600080fd5b506100cc610697565b34801561019e57600080fd5b506033546040516001600160a01b039091168152602001610120565b3480156101c657600080fd5b506101166101d53660046111cb565b6107af565b3480156101e657600080fd5b506101166101f53660046111cb565b815160208184018101805160fb825292820194820194909420919093529091526000908152604090205481565b34801561022e57600080fd5b506100cc61023d366004611109565b6107f0565b34801561024e57600080fd5b5061026261025d366004611219565b610866565b6040516101209190611256565b6102776108e8565b60008351116102bf5760405162461bcd60e51b815260206004820152600f60248201526e125b9d985b1a590819d85b59481251608a1b60448201526064015b60405180910390fd5b6001600160a01b03821661030c5760405162461bcd60e51b8152602060048201526014602482015273496e76616c69642075736572206164647265737360601b60448201526064016102b6565b600081116103545760405162461bcd60e51b815260206004820152601560248201527452616e6b206d75737420626520706f73697469766560581b60448201526064016102b6565b8060fb8460405161036591906112c9565b9081526040805191829003602090810183206001600160a01b03871660008181529190925291909120929092557f5ed232498ea0d8d7ea2bf7f5ba5394979068ecfdaf05477a42a7916e1348f4fc906103c19086908590611311565b60405180910390a26103d4838383610942565b505050565b6001600160a01b037f00000000000000000000000000000000000000000000000000000000000000001630036104215760405162461bcd60e51b81526004016102b690611333565b7f00000000000000000000000000000000000000000000000000000000000000006001600160a01b031661046a60008051602061150b833981519152546001600160a01b031690565b6001600160a01b0316146104905760405162461bcd60e51b81526004016102b69061137f565b61049981610aea565b604080516000808252602082019092526104b591839190610af2565b50565b6001600160a01b037f00000000000000000000000000000000000000000000000000000000000000001630036105005760405162461bcd60e51b81526004016102b690611333565b7f00000000000000000000000000000000000000000000000000000000000000006001600160a01b031661054960008051602061150b833981519152546001600160a01b031690565b6001600160a01b03161461056f5760405162461bcd60e51b81526004016102b69061137f565b61057882610aea565b61058482826001610af2565b5050565b6000306001600160a01b037f000000000000000000000000000000000000000000000000000000000000000016146106285760405162461bcd60e51b815260206004820152603860248201527f555550535570677261646561626c653a206d757374206e6f742062652063616c60448201527f6c6564207468726f7567682064656c656761746563616c6c000000000000000060648201526084016102b6565b5060008051602061150b83398151915290565b6106436108e8565b61064d6000610c5d565b565b815160208184018101805160fc82529282019185019190912091905281600a811061067957600080fd5b6002020180546001909101546001600160a01b039091169250905082565b600054610100900460ff16158080156106b75750600054600160ff909116105b806106d15750303b1580156106d1575060005460ff166001145b6107345760405162461bcd60e51b815260206004820152602e60248201527f496e697469616c697a61626c653a20636f6e747261637420697320616c72656160448201526d191e481a5b9a5d1a585b1a5e995960921b60648201526084016102b6565b6000805460ff191660011790558015610757576000805461ff0019166101001790555b61075f610caf565b610767610cde565b80156104b5576000805461ff0019169055604051600181527f7f26b83ff96e1f2b6a682f133852f6798a09c465da95921460cefb38474024989060200160405180910390a150565b600060fb836040516107c191906112c9565b908152604080519182900360209081019092206001600160a01b03851660009081529252902054905092915050565b6107f86108e8565b6001600160a01b03811661085d5760405162461bcd60e51b815260206004820152602660248201527f4f776e61626c653a206e6577206f776e657220697320746865207a65726f206160448201526564647265737360d01b60648201526084016102b6565b6104b581610c5d565b61086e610fb0565b60fc8260405161087e91906112c9565b908152604080519182900360200182206101408301909152600a6000835b828210156108dd576040805180820190915260028302850180546001600160a01b03168252600190810154602080840191909152918352909201910161089c565b505050509050919050565b6033546001600160a01b0316331461064d5760405162461bcd60e51b815260206004820181905260248201527f4f776e61626c653a2063616c6c6572206973206e6f7420746865206f776e657260448201526064016102b6565b600060fc8460405161095491906112c9565b908152604051908190036020019020905060001960005b600a8110156109af578281600a8110610986576109866113cb565b600202016001015484111561099d578091506109af565b806109a7816113f7565b91505061096b565b5080196109bd575050505050565b60085b818112610a3d578281600a81106109d9576109d96113cb565b60020201836109e9836001611410565b600a81106109f9576109f96113cb565b82546002919091029190910180546001600160a01b0319166001600160a01b0390921691909117815560019182015491015580610a3581611451565b9150506109c0565b506040518060400160405280856001600160a01b03168152602001848152508282600a8110610a6e57610a6e6113cb565b82516002919091029190910180546001600160a01b0319166001600160a01b03928316178155602090920151600190920191909155604051908516907f11e4f3776785887178220980110e68c716b28874d9bded5ea17ad52ae85f392590610adb9088908790869061146e565b60405180910390a25050505050565b6104b56108e8565b7f4910fdfa16fed3260ed0e7147f7cc6da11a60208b5b9406d12a635614ffd91435460ff1615610b25576103d483610d0d565b826001600160a01b03166352d1902d6040518163ffffffff1660e01b8152600401602060405180830381865afa925050508015610b7f575060408051601f3d908101601f19168201909252610b7c91810190611493565b60015b610be25760405162461bcd60e51b815260206004820152602e60248201527f45524331393637557067726164653a206e657720696d706c656d656e7461746960448201526d6f6e206973206e6f74205555505360901b60648201526084016102b6565b60008051602061150b8339815191528114610c515760405162461bcd60e51b815260206004820152602960248201527f45524331393637557067726164653a20756e737570706f727465642070726f786044820152681a58589b195555525160ba1b60648201526084016102b6565b506103d4838383610da9565b603380546001600160a01b038381166001600160a01b0319831681179093556040519116919082907f8be0079c531659141344cd1fd0a4f28419497f9722a3daafe3b4186f6b6457e090600090a35050565b600054610100900460ff16610cd65760405162461bcd60e51b81526004016102b6906114ac565b61064d610dd4565b600054610100900460ff16610d055760405162461bcd60e51b81526004016102b6906114ac565b61064d610e04565b6001600160a01b0381163b610d7a5760405162461bcd60e51b815260206004820152602d60248201527f455243313936373a206e657720696d706c656d656e746174696f6e206973206e60448201526c1bdd08184818dbdb9d1c9858dd609a1b60648201526084016102b6565b60008051602061150b83398151915280546001600160a01b0319166001600160a01b0392909216919091179055565b610db283610e32565b600082511180610dbf5750805b156103d457610dce8383610e72565b50505050565b600054610100900460ff16610dfb5760405162461bcd60e51b81526004016102b6906114ac565b61064d33610c5d565b600054610100900460ff16610e2b5760405162461bcd60e51b81526004016102b6906114ac565b6001606555565b610e3b81610d0d565b6040516001600160a01b038216907fbc7cd75a20ee27fd9adebab32041f755214dbc6bffa90cc0225b39da2e5c2d3b90600090a250565b60606001600160a01b0383163b610eda5760405162461bcd60e51b815260206004820152602660248201527f416464726573733a2064656c65676174652063616c6c20746f206e6f6e2d636f6044820152651b9d1c9858dd60d21b60648201526084016102b6565b600080846001600160a01b031684604051610ef591906112c9565b600060405180830381855af49150503d8060008114610f30576040519150601f19603f3d011682016040523d82523d6000602084013e610f35565b606091505b5091509150610f5d828260405180606001604052806027815260200161152b60279139610f66565b95945050505050565b60608315610f75575081610f7f565b610f7f8383610f86565b9392505050565b815115610f965781518083602001fd5b8060405162461bcd60e51b81526004016102b691906114f7565b604051806101400160405280600a905b6040805180820190915260008082526020820152815260200190600190039081610fc05790505090565b634e487b7160e01b600052604160045260246000fd5b600067ffffffffffffffff8084111561101b5761101b610fea565b604051601f8501601f19908116603f0116810190828211818310171561104357611043610fea565b8160405280935085815286868601111561105c57600080fd5b858560208301376000602087830101525050509392505050565b600082601f83011261108757600080fd5b610f7f83833560208501611000565b80356001600160a01b03811681146110ad57600080fd5b919050565b6000806000606084860312156110c757600080fd5b833567ffffffffffffffff8111156110de57600080fd5b6110ea86828701611076565b9350506110f960208501611096565b9150604084013590509250925092565b60006020828403121561111b57600080fd5b610f7f82611096565b6000806040838503121561113757600080fd5b61114083611096565b9150602083013567ffffffffffffffff81111561115c57600080fd5b8301601f8101851361116d57600080fd5b61117c85823560208401611000565b9150509250929050565b6000806040838503121561119957600080fd5b823567ffffffffffffffff8111156111b057600080fd5b6111bc85828601611076565b95602094909401359450505050565b600080604083850312156111de57600080fd5b823567ffffffffffffffff8111156111f557600080fd5b61120185828601611076565b92505061121060208401611096565b90509250929050565b60006020828403121561122b57600080fd5b813567ffffffffffffffff81111561124257600080fd5b61124e84828501611076565b949350505050565b6102808101818360005b600a81101561129457815180516001600160a01b031684526020908101518185015260409093019290910190600101611260565b50505092915050565b60005b838110156112b85781810151838201526020016112a0565b83811115610dce5750506000910152565b600082516112db81846020870161129d565b9190910192915050565b600081518084526112fd81602086016020860161129d565b601f01601f19169290920160200192915050565b60408152600061132460408301856112e5565b90508260208301529392505050565b6020808252602c908201527f46756e6374696f6e206d7573742062652063616c6c6564207468726f7567682060408201526b19195b1959d85d1958d85b1b60a21b606082015260800190565b6020808252602c908201527f46756e6374696f6e206d7573742062652063616c6c6564207468726f7567682060408201526b6163746976652070726f787960a01b606082015260800190565b634e487b7160e01b600052603260045260246000fd5b634e487b7160e01b600052601160045260246000fd5b600060018201611409576114096113e1565b5060010190565b600080821280156001600160ff1b0384900385131615611432576114326113e1565b600160ff1b839003841281161561144b5761144b6113e1565b50500190565b6000600160ff1b8201611466576114666113e1565b506000190190565b60608152600061148160608301866112e5565b60208301949094525060400152919050565b6000602082840312156114a557600080fd5b5051919050565b6020808252602b908201527f496e697469616c697a61626c653a20636f6e7472616374206973206e6f74206960408201526a6e697469616c697a696e6760a81b606082015260800190565b602081526000610f7f60208301846112e556fe360894a13ba1a3210667c828492db98dca3e2076cc3735a920a3ca505d382bbc416464726573733a206c6f772d6c6576656c2064656c65676174652063616c6c206661696c6564a2646970667358221220c2880d6da3e34d87e1abb537f84bc7a2817ffe70ae4b8412544211ee71af781664736f6c634300080f0033",
  "linkReferences": {},
  "deployedLinkReferences": {}
}