{
  "_format": "hh-sol-artifact-1",
  "contractName": "HatchyTokenSaleV2",
  "sourceName": "contracts/HatchyTokenSaleV2.sol",
  "abi": [
    {
      "anonymous": false,
      "inputs": [
        {
          "indexed": false,
          "internalType": "address",
          "name": "previousAdmin",
          "type": "address"
        },
        {
          "indexed": false,
          "internalType": "address",
          "name": "newAdmin",
          "type": "address"
        }
      ],
      "name": "AdminChanged",
      "type": "event"
    },
    {
      "anonymous": false,
      "inputs": [
        {
          "indexed": true,
          "internalType": "address",
          "name": "beacon",
          "type": "address"
        }
      ],
      "name": "BeaconUpgraded",
      "type": "event"
    },
    {
      "anonymous": false,
      "inputs": [
        {
          "indexed": false,
          "internalType": "uint8",
          "name": "version",
          "type": "uint8"
        }
      ],
      "name": "Initialized",
      "type": "event"
    },
    {
      "anonymous": false,
      "inputs": [
        {
          "indexed": true,
          "internalType": "address",
          "name": "previousOwner",
          "type": "address"
        },
        {
          "indexed": true,
          "internalType": "address",
          "name": "newOwner",
          "type": "address"
        }
      ],
      "name": "OwnershipTransferred",
      "type": "event"
    },
    {
      "anonymous": false,
      "inputs": [
        {
          "indexed": true,
          "internalType": "address",
          "name": "implementation",
          "type": "address"
        }
      ],
      "name": "Upgraded",
      "type": "event"
    },
    {
      "inputs": [],
      "name": "PRICE_IN_USDT",
      "outputs": [
        {
          "internalType": "uint256",
          "name": "",
          "type": "uint256"
        }
      ],
      "stateMutability": "view",
      "type": "function"
    },
    {
      "inputs": [],
      "name": "availableTokens",
      "outputs": [
        {
          "internalType": "uint256",
          "name": "",
          "type": "uint256"
        }
      ],
      "stateMutability": "view",
      "type": "function"
    },
    {
      "inputs": [
        {
          "internalType": "uint256",
          "name": "amount",
          "type": "uint256"
        }
      ],
      "name": "buyHatchy",
      "outputs": [],
      "stateMutability": "nonpayable",
      "type": "function"
    },
    {
      "inputs": [],
      "name": "flipState",
      "outputs": [],
      "stateMutability": "nonpayable",
      "type": "function"
    },
    {
      "inputs": [],
      "name": "flipWhitelistActive",
      "outputs": [],
      "stateMutability": "nonpayable",
      "type": "function"
    },
    {
      "inputs": [],
      "name": "getSaleActive",
      "outputs": [
        {
          "internalType": "bool",
          "name": "",
          "type": "bool"
        }
      ],
      "stateMutability": "view",
      "type": "function"
    },
    {
      "inputs": [
        {
          "internalType": "address",
          "name": "_hatchyAddress",
          "type": "address"
        },
        {
          "internalType": "address",
          "name": "_usdtAddress",
          "type": "address"
        },
        {
          "internalType": "uint256",
          "name": "_price",
          "type": "uint256"
        },
        {
          "internalType": "address",
          "name": "_receiver",
          "type": "address"
        }
      ],
      "name": "initialize",
      "outputs": [],
      "stateMutability": "nonpayable",
      "type": "function"
    },
    {
      "inputs": [],
      "name": "owner",
      "outputs": [
        {
          "internalType": "address",
          "name": "",
          "type": "address"
        }
      ],
      "stateMutability": "view",
      "type": "function"
    },
    {
      "inputs": [],
      "name": "proxiableUUID",
      "outputs": [
        {
          "internalType": "bytes32",
          "name": "",
          "type": "bytes32"
        }
      ],
      "stateMutability": "view",
      "type": "function"
    },
    {
      "inputs": [],
      "name": "receiver",
      "outputs": [
        {
          "internalType": "address",
          "name": "",
          "type": "address"
        }
      ],
      "stateMutability": "view",
      "type": "function"
    },
    {
      "inputs": [],
      "name": "renounceOwnership",
      "outputs": [],
      "stateMutability": "nonpayable",
      "type": "function"
    },
    {
      "inputs": [
        {
          "internalType": "address",
          "name": "hatchy",
          "type": "address"
        },
        {
          "internalType": "address",
          "name": "usdt",
          "type": "address"
        }
      ],
      "name": "setAddresses",
      "outputs": [],
      "stateMutability": "nonpayable",
      "type": "function"
    },
    {
      "inputs": [
        {
          "internalType": "uint256",
          "name": "price",
          "type": "uint256"
        }
      ],
      "name": "setPrice",
      "outputs": [],
      "stateMutability": "nonpayable",
      "type": "function"
    },
    {
      "inputs": [
        {
          "internalType": "address",
          "name": "_receiver",
          "type": "address"
        }
      ],
      "name": "setReceiver",
      "outputs": [],
      "stateMutability": "nonpayable",
      "type": "function"
    },
    {
      "inputs": [
        {
          "internalType": "uint256",
          "name": "_sold",
          "type": "uint256"
        }
      ],
      "name": "setSold",
      "outputs": [],
      "stateMutability": "nonpayable",
      "type": "function"
    },
    {
      "inputs": [],
      "name": "sold",
      "outputs": [
        {
          "internalType": "uint256",
          "name": "",
          "type": "uint256"
        }
      ],
      "stateMutability": "view",
      "type": "function"
    },
    {
      "inputs": [
        {
          "internalType": "address",
          "name": "newOwner",
          "type": "address"
        }
      ],
      "name": "transferOwnership",
      "outputs": [],
      "stateMutability": "nonpayable",
      "type": "function"
    },
    {
      "inputs": [
        {
          "internalType": "address",
          "name": "_address",
          "type": "address"
        },
        {
          "internalType": "uint256",
          "name": "_amount",
          "type": "uint256"
        }
      ],
      "name": "updateWhitelist",
      "outputs": [],
      "stateMutability": "nonpayable",
      "type": "function"
    },
    {
      "inputs": [
        {
          "internalType": "address",
          "name": "newImplementation",
          "type": "address"
        }
      ],
      "name": "upgradeTo",
      "outputs": [],
      "stateMutability": "nonpayable",
      "type": "function"
    },
    {
      "inputs": [
        {
          "internalType": "address",
          "name": "newImplementation",
          "type": "address"
        },
        {
          "internalType": "bytes",
          "name": "data",
          "type": "bytes"
        }
      ],
      "name": "upgradeToAndCall",
      "outputs": [],
      "stateMutability": "payable",
      "type": "function"
    },
    {
      "inputs": [
        {
          "internalType": "address",
          "name": "",
          "type": "address"
        }
      ],
      "name": "whitelist",
      "outputs": [
        {
          "internalType": "uint256",
          "name": "",
          "type": "uint256"
        }
      ],
      "stateMutability": "view",
      "type": "function"
    },
    {
      "inputs": [],
      "name": "whitelistActive",
      "outputs": [
        {
          "internalType": "bool",
          "name": "",
          "type": "bool"
        }
      ],
      "stateMutability": "view",
      "type": "function"
    },
    {
      "inputs": [],
      "name": "withdrawSaleTokens",
      "outputs": [],
      "stateMutability": "nonpayable",
      "type": "function"
    }
  ],
  "bytecode": "0x60a06040523060805234801561001457600080fd5b5060805161178e61004c600039600081816104260152818161046f0152818161063d0152818161067d0152610710015261178e6000f3fe6080604052600436106101405760003560e01c8063718da7ee116100b657806397db4fe31161006f57806397db4fe3146103335780639b19251a1461034b578063b959995114610378578063be20309414610398578063f2fde38b146103b8578063f7260d3e146103d857600080fd5b8063718da7ee1461027757806388296ef3146102975780638da5cb5b146102ac5780638e920351146102de57806390107afe146102f357806391b7f5ed1461031357600080fd5b80633c3a8153116101085780633c3a8153146101f05780634b9143f7146102055780634f1ef2861461022557806352d1902d1461023857806369bb4dc21461024d578063715018a61461026257600080fd5b806302c7e7af1461014557806302ce58131461016e5780631a73293d146101985780633659cfe6146101ba5780633767ca48146101da575b600080fd5b34801561015157600080fd5b5061015b60cc5481565b6040519081526020015b60405180910390f35b34801561017a57600080fd5b5060cf546101889060ff1681565b6040519015158152602001610165565b3480156101a457600080fd5b506101b86101b3366004611353565b6103f8565b005b3480156101c657600080fd5b506101b86101d536600461137d565b61041c565b3480156101e657600080fd5b5061015b60c95481565b3480156101fc57600080fd5b506101b8610504565b34801561021157600080fd5b506101b8610220366004611398565b610626565b6101b86102333660046113c7565b610633565b34801561024457600080fd5b5061015b610703565b34801561025957600080fd5b5061015b6107b6565b34801561026e57600080fd5b506101b8610828565b34801561028357600080fd5b506101b861029236600461137d565b61083a565b3480156102a357600080fd5b506101b8610864565b3480156102b857600080fd5b506033546001600160a01b03165b6040516001600160a01b039091168152602001610165565b3480156102ea57600080fd5b506101b8610880565b3480156102ff57600080fd5b506101b861030e366004611489565b61089c565b34801561031f57600080fd5b506101b861032e366004611398565b6108df565b34801561033f57600080fd5b5060ca5460ff16610188565b34801561035757600080fd5b5061015b61036636600461137d565b60ce6020526000908152604090205481565b34801561038457600080fd5b506101b8610393366004611398565b6108ec565b3480156103a457600080fd5b506101b86103b33660046114bc565b610c99565b3480156103c457600080fd5b506101b86103d336600461137d565b610dfe565b3480156103e457600080fd5b5060cd546102c6906001600160a01b031681565b610400610e74565b6001600160a01b03909116600090815260ce6020526040902055565b6001600160a01b037f000000000000000000000000000000000000000000000000000000000000000016300361046d5760405162461bcd60e51b815260040161046490611509565b60405180910390fd5b7f00000000000000000000000000000000000000000000000000000000000000006001600160a01b03166104b6600080516020611712833981519152546001600160a01b031690565b6001600160a01b0316146104dc5760405162461bcd60e51b815260040161046490611555565b6104e581610ece565b6040805160008082526020820190925261050191839190610ed6565b50565b61050c610e74565b60cb5460cd546040516370a0823160e01b81523060048201526001600160a01b039283169263a9059cbb92169083906370a0823190602401602060405180830381865afa158015610561573d6000803e3d6000fd5b505050506040513d601f19601f8201168201806040525081019061058591906115a1565b6040516001600160e01b031960e085901b1681526001600160a01b03909216600483015260248201526044016020604051808303816000875af11580156105d0573d6000803e3d6000fd5b505050506040513d601f19601f820116820180604052508101906105f491906115ba565b6106245760405162461bcd60e51b81526020600482015260016024820152603f60f81b6044820152606401610464565b565b61062e610e74565b60cc55565b6001600160a01b037f000000000000000000000000000000000000000000000000000000000000000016300361067b5760405162461bcd60e51b815260040161046490611509565b7f00000000000000000000000000000000000000000000000000000000000000006001600160a01b03166106c4600080516020611712833981519152546001600160a01b031690565b6001600160a01b0316146106ea5760405162461bcd60e51b815260040161046490611555565b6106f382610ece565b6106ff82826001610ed6565b5050565b6000306001600160a01b037f000000000000000000000000000000000000000000000000000000000000000016146107a35760405162461bcd60e51b815260206004820152603860248201527f555550535570677261646561626c653a206d757374206e6f742062652063616c60448201527f6c6564207468726f7567682064656c656761746563616c6c00000000000000006064820152608401610464565b5060008051602061171283398151915290565b60cb546040516370a0823160e01b81523060048201526000916001600160a01b0316906370a0823190602401602060405180830381865afa1580156107ff573d6000803e3d6000fd5b505050506040513d601f19601f8201168201806040525081019061082391906115a1565b905090565b610830610e74565b6106246000611041565b610842610e74565b60cd80546001600160a01b0319166001600160a01b0392909216919091179055565b61086c610e74565b60cf805460ff19811660ff90911615179055565b610888610e74565b60ca805460ff19811660ff90911615179055565b6108a4610e74565b60ca8054610100600160a81b0319166101006001600160a01b039384160217905560cb80546001600160a01b03191692909116919091179055565b6108e7610e74565b60c955565b60ca5460ff166109305760405162461bcd60e51b815260206004820152600f60248201526e73616c65206e6f742061637469766560881b6044820152606401610464565b60cf5460ff16156109895733600090815260ce60205260409020546109895760405162461bcd60e51b815260206004820152600f60248201526e1b9bdd081dda1a5d195b1a5cdd1959608a1b6044820152606401610464565b60cb546040516370a0823160e01b81523060048201526000916001600160a01b0316906370a0823190602401602060405180830381865afa1580156109d2573d6000803e3d6000fd5b505050506040513d601f19601f820116820180604052508101906109f691906115a1565b905081811015610a345760405162461bcd60e51b81526020600482015260096024820152686f766572666c6f777360b81b6044820152606401610464565b60c954600090610a4c670de0b6b3a7640000856115f2565b610a569190611614565b60ca546040516370a0823160e01b815233600482015291925082916101009091046001600160a01b0316906370a0823190602401602060405180830381865afa158015610aa7573d6000803e3d6000fd5b505050506040513d601f19601f82011682018060405250810190610acb91906115a1565b1015610b075760405162461bcd60e51b815260206004820152600b60248201526a6c6f772062616c616e636560a81b6044820152606401610464565b60ca5460cd546040516323b872dd60e01b81523360048201526001600160a01b0391821660248201526044810184905261010090920416906323b872dd906064016020604051808303816000875af1158015610b67573d6000803e3d6000fd5b505050506040513d601f19601f82011682018060405250810190610b8b91906115ba565b610bc75760405162461bcd60e51b815260206004820152600d60248201526c31b0b73a103a3930b739b332b960991b6044820152606401610464565b8260cc6000828254610bd99190611633565b909155505060cb5460405163a9059cbb60e01b8152336004820152602481018590526001600160a01b039091169063a9059cbb906044016020604051808303816000875af1158015610c2f573d6000803e3d6000fd5b505050506040513d601f19601f82011682018060405250810190610c5391906115ba565b610c945760405162461bcd60e51b8152602060048201526012602482015271686174636879206c6f772062616c616e636560701b6044820152606401610464565b505050565b600054610100900460ff1615808015610cb95750600054600160ff909116105b80610cd35750303b158015610cd3575060005460ff166001145b610d365760405162461bcd60e51b815260206004820152602e60248201527f496e697469616c697a61626c653a20636f6e747261637420697320616c72656160448201526d191e481a5b9a5d1a585b1a5e995960921b6064820152608401610464565b6000805460ff191660011790558015610d59576000805461ff0019166101001790555b610d61611093565b60cb80546001600160a01b038088166001600160a01b03199283161790925560ca805487841661010002610100600160a81b031990911617905560c985905560cd8054928516929091169190911790558015610df7576000805461ff0019169055604051600181527f7f26b83ff96e1f2b6a682f133852f6798a09c465da95921460cefb38474024989060200160405180910390a15b5050505050565b610e06610e74565b6001600160a01b038116610e6b5760405162461bcd60e51b815260206004820152602660248201527f4f776e61626c653a206e6577206f776e657220697320746865207a65726f206160448201526564647265737360d01b6064820152608401610464565b61050181611041565b6033546001600160a01b031633146106245760405162461bcd60e51b815260206004820181905260248201527f4f776e61626c653a2063616c6c6572206973206e6f7420746865206f776e65726044820152606401610464565b610501610e74565b7f4910fdfa16fed3260ed0e7147f7cc6da11a60208b5b9406d12a635614ffd91435460ff1615610f0957610c94836110c2565b826001600160a01b03166352d1902d6040518163ffffffff1660e01b8152600401602060405180830381865afa925050508015610f63575060408051601f3d908101601f19168201909252610f60918101906115a1565b60015b610fc65760405162461bcd60e51b815260206004820152602e60248201527f45524331393637557067726164653a206e657720696d706c656d656e7461746960448201526d6f6e206973206e6f74205555505360901b6064820152608401610464565b60008051602061171283398151915281146110355760405162461bcd60e51b815260206004820152602960248201527f45524331393637557067726164653a20756e737570706f727465642070726f786044820152681a58589b195555525160ba1b6064820152608401610464565b50610c9483838361115e565b603380546001600160a01b038381166001600160a01b0319831681179093556040519116919082907f8be0079c531659141344cd1fd0a4f28419497f9722a3daafe3b4186f6b6457e090600090a35050565b600054610100900460ff166110ba5760405162461bcd60e51b81526004016104649061164b565b610624611189565b6001600160a01b0381163b61112f5760405162461bcd60e51b815260206004820152602d60248201527f455243313936373a206e657720696d706c656d656e746174696f6e206973206e60448201526c1bdd08184818dbdb9d1c9858dd609a1b6064820152608401610464565b60008051602061171283398151915280546001600160a01b0319166001600160a01b0392909216919091179055565b611167836111b9565b6000825111806111745750805b15610c945761118383836111f9565b50505050565b600054610100900460ff166111b05760405162461bcd60e51b81526004016104649061164b565b61062433611041565b6111c2816110c2565b6040516001600160a01b038216907fbc7cd75a20ee27fd9adebab32041f755214dbc6bffa90cc0225b39da2e5c2d3b90600090a250565b60606001600160a01b0383163b6112615760405162461bcd60e51b815260206004820152602660248201527f416464726573733a2064656c65676174652063616c6c20746f206e6f6e2d636f6044820152651b9d1c9858dd60d21b6064820152608401610464565b600080846001600160a01b03168460405161127c91906116c2565b600060405180830381855af49150503d80600081146112b7576040519150601f19603f3d011682016040523d82523d6000602084013e6112bc565b606091505b50915091506112e48282604051806060016040528060278152602001611732602791396112ed565b95945050505050565b606083156112fc575081611306565b611306838361130d565b9392505050565b81511561131d5781518083602001fd5b8060405162461bcd60e51b815260040161046491906116de565b80356001600160a01b038116811461134e57600080fd5b919050565b6000806040838503121561136657600080fd5b61136f83611337565b946020939093013593505050565b60006020828403121561138f57600080fd5b61130682611337565b6000602082840312156113aa57600080fd5b5035919050565b634e487b7160e01b600052604160045260246000fd5b600080604083850312156113da57600080fd5b6113e383611337565b9150602083013567ffffffffffffffff8082111561140057600080fd5b818501915085601f83011261141457600080fd5b813581811115611426576114266113b1565b604051601f8201601f19908116603f0116810190838211818310171561144e5761144e6113b1565b8160405282815288602084870101111561146757600080fd5b8260208601602083013760006020848301015280955050505050509250929050565b6000806040838503121561149c57600080fd5b6114a583611337565b91506114b360208401611337565b90509250929050565b600080600080608085870312156114d257600080fd5b6114db85611337565b93506114e960208601611337565b9250604085013591506114fe60608601611337565b905092959194509250565b6020808252602c908201527f46756e6374696f6e206d7573742062652063616c6c6564207468726f7567682060408201526b19195b1959d85d1958d85b1b60a21b606082015260800190565b6020808252602c908201527f46756e6374696f6e206d7573742062652063616c6c6564207468726f7567682060408201526b6163746976652070726f787960a01b606082015260800190565b6000602082840312156115b357600080fd5b5051919050565b6000602082840312156115cc57600080fd5b8151801515811461130657600080fd5b634e487b7160e01b600052601160045260246000fd5b60008261160f57634e487b7160e01b600052601260045260246000fd5b500490565b600081600019048311821515161561162e5761162e6115dc565b500290565b60008219821115611646576116466115dc565b500190565b6020808252602b908201527f496e697469616c697a61626c653a20636f6e7472616374206973206e6f74206960408201526a6e697469616c697a696e6760a81b606082015260800190565b60005b838110156116b1578181015183820152602001611699565b838111156111835750506000910152565b600082516116d4818460208701611696565b9190910192915050565b60208152600082518060208401526116fd816040850160208701611696565b601f01601f1916919091016040019291505056fe360894a13ba1a3210667c828492db98dca3e2076cc3735a920a3ca505d382bbc416464726573733a206c6f772d6c6576656c2064656c65676174652063616c6c206661696c6564a26469706673582212203472c8329f8211890310bdb8f18671b981e6dddcd0c2a260639df581d5803e2764736f6c634300080f0033",
  "linkReferences": {},
  "deployedLinkReferences": {}
}