{
  "_format": "hh-sol-artifact-1",
  "contractName": "HatchyRewardDealer",
  "sourceName": "contracts/HatchyRewardDealer.sol",
  "abi": [
    {
      "anonymous": false,
      "inputs": [
        {
          "indexed": false,
          "internalType": "address",
          "name": "previousAdmin",
          "type": "address"
        },
        {
          "indexed": false,
          "internalType": "address",
          "name": "newAdmin",
          "type": "address"
        }
      ],
      "name": "AdminChanged",
      "type": "event"
    },
    {
      "anonymous": false,
      "inputs": [
        {
          "indexed": true,
          "internalType": "address",
          "name": "beacon",
          "type": "address"
        }
      ],
      "name": "BeaconUpgraded",
      "type": "event"
    },
    {
      "anonymous": false,
      "inputs": [
        {
          "indexed": true,
          "internalType": "address",
          "name": "account",
          "type": "address"
        },
        {
          "indexed": false,
          "internalType": "enum HatchyRewardDealer.RewardContractType",
          "name": "rewardType",
          "type": "uint8"
        },
        {
          "indexed": true,
          "internalType": "address",
          "name": "contractAddress",
          "type": "address"
        },
        {
          "indexed": true,
          "internalType": "uint256",
          "name": "tokenId",
          "type": "uint256"
        },
        {
          "indexed": false,
          "internalType": "uint256",
          "name": "amount",
          "type": "uint256"
        }
      ],
      "name": "Claim",
      "type": "event"
    },
    {
      "anonymous": false,
      "inputs": [
        {
          "indexed": false,
          "internalType": "uint8",
          "name": "version",
          "type": "uint8"
        }
      ],
      "name": "Initialized",
      "type": "event"
    },
    {
      "anonymous": false,
      "inputs": [
        {
          "indexed": true,
          "internalType": "address",
          "name": "previousOwner",
          "type": "address"
        },
        {
          "indexed": true,
          "internalType": "address",
          "name": "newOwner",
          "type": "address"
        }
      ],
      "name": "OwnershipTransferred",
      "type": "event"
    },
    {
      "anonymous": false,
      "inputs": [
        {
          "indexed": false,
          "internalType": "address",
          "name": "account",
          "type": "address"
        }
      ],
      "name": "Paused",
      "type": "event"
    },
    {
      "anonymous": false,
      "inputs": [
        {
          "indexed": true,
          "internalType": "address",
          "name": "account",
          "type": "address"
        }
      ],
      "name": "SignerAdded",
      "type": "event"
    },
    {
      "anonymous": false,
      "inputs": [
        {
          "indexed": true,
          "internalType": "address",
          "name": "account",
          "type": "address"
        }
      ],
      "name": "SignerRemoved",
      "type": "event"
    },
    {
      "anonymous": false,
      "inputs": [
        {
          "indexed": false,
          "internalType": "address",
          "name": "account",
          "type": "address"
        }
      ],
      "name": "Unpaused",
      "type": "event"
    },
    {
      "anonymous": false,
      "inputs": [
        {
          "indexed": true,
          "internalType": "address",
          "name": "implementation",
          "type": "address"
        }
      ],
      "name": "Upgraded",
      "type": "event"
    },
    {
      "inputs": [
        {
          "internalType": "bytes",
          "name": "",
          "type": "bytes"
        }
      ],
      "name": "UsedSignatures",
      "outputs": [
        {
          "internalType": "bool",
          "name": "",
          "type": "bool"
        }
      ],
      "stateMutability": "view",
      "type": "function"
    },
    {
      "inputs": [
        {
          "internalType": "uint256",
          "name": "",
          "type": "uint256"
        }
      ],
      "name": "UsedVoucherIds",
      "outputs": [
        {
          "internalType": "bool",
          "name": "",
          "type": "bool"
        }
      ],
      "stateMutability": "view",
      "type": "function"
    },
    {
      "inputs": [
        {
          "internalType": "address",
          "name": "account",
          "type": "address"
        }
      ],
      "name": "addSigner",
      "outputs": [],
      "stateMutability": "nonpayable",
      "type": "function"
    },
    {
      "inputs": [
        {
          "internalType": "address",
          "name": "account",
          "type": "address"
        }
      ],
      "name": "addSignerRole",
      "outputs": [],
      "stateMutability": "nonpayable",
      "type": "function"
    },
    {
      "inputs": [
        {
          "internalType": "bytes",
          "name": "sig",
          "type": "bytes"
        }
      ],
      "name": "banSignature",
      "outputs": [],
      "stateMutability": "nonpayable",
      "type": "function"
    },
    {
      "inputs": [
        {
          "components": [
            {
              "internalType": "enum HatchyRewardDealer.RewardContractType",
              "name": "rewardContractType",
              "type": "uint8"
            },
            {
              "internalType": "address",
              "name": "rewardHolderAddress",
              "type": "address"
            },
            {
              "internalType": "address",
              "name": "rewardContract",
              "type": "address"
            },
            {
              "internalType": "address",
              "name": "receiver",
              "type": "address"
            },
            {
              "internalType": "uint256",
              "name": "tokenId",
              "type": "uint256"
            },
            {
              "internalType": "uint256",
              "name": "amount",
              "type": "uint256"
            },
            {
              "internalType": "uint256",
              "name": "clabimableUntil",
              "type": "uint256"
            },
            {
              "internalType": "uint256",
              "name": "voucherId",
              "type": "uint256"
            },
            {
              "internalType": "bytes",
              "name": "signature",
              "type": "bytes"
            }
          ],
          "internalType": "struct HatchyRewardDealer.Payload",
          "name": "payload",
          "type": "tuple"
        }
      ],
      "name": "claimReward",
      "outputs": [],
      "stateMutability": "nonpayable",
      "type": "function"
    },
    {
      "inputs": [
        {
          "components": [
            {
              "internalType": "enum HatchyRewardDealer.RewardContractType",
              "name": "rewardContractType",
              "type": "uint8"
            },
            {
              "internalType": "address",
              "name": "rewardHolderAddress",
              "type": "address"
            },
            {
              "internalType": "address",
              "name": "rewardContract",
              "type": "address"
            },
            {
              "internalType": "address",
              "name": "receiver",
              "type": "address"
            },
            {
              "internalType": "uint256",
              "name": "tokenId",
              "type": "uint256"
            },
            {
              "internalType": "uint256",
              "name": "amount",
              "type": "uint256"
            },
            {
              "internalType": "uint256",
              "name": "clabimableUntil",
              "type": "uint256"
            },
            {
              "internalType": "uint256",
              "name": "voucherId",
              "type": "uint256"
            },
            {
              "internalType": "bytes",
              "name": "signature",
              "type": "bytes"
            }
          ],
          "internalType": "struct HatchyRewardDealer.Payload",
          "name": "payload",
          "type": "tuple"
        }
      ],
      "name": "encodePackedData",
      "outputs": [
        {
          "internalType": "bytes32",
          "name": "",
          "type": "bytes32"
        }
      ],
      "stateMutability": "pure",
      "type": "function"
    },
    {
      "inputs": [
        {
          "internalType": "address",
          "name": "_signer",
          "type": "address"
        },
        {
          "internalType": "address",
          "name": "gen2Eggs",
          "type": "address"
        }
      ],
      "name": "initialize",
      "outputs": [],
      "stateMutability": "nonpayable",
      "type": "function"
    },
    {
      "inputs": [
        {
          "internalType": "address",
          "name": "account",
          "type": "address"
        }
      ],
      "name": "isSigner",
      "outputs": [
        {
          "internalType": "bool",
          "name": "",
          "type": "bool"
        }
      ],
      "stateMutability": "view",
      "type": "function"
    },
    {
      "inputs": [
        {
          "components": [
            {
              "internalType": "address",
              "name": "receiver",
              "type": "address"
            },
            {
              "internalType": "uint256",
              "name": "eggType",
              "type": "uint256"
            },
            {
              "internalType": "uint256",
              "name": "amount",
              "type": "uint256"
            },
            {
              "internalType": "uint256",
              "name": "clabimableUntil",
              "type": "uint256"
            },
            {
              "internalType": "uint256",
              "name": "voucherId",
              "type": "uint256"
            },
            {
              "internalType": "bytes",
              "name": "signature",
              "type": "bytes"
            }
          ],
          "internalType": "struct HatchyRewardDealer.HatchyAirdropPayload",
          "name": "payload",
          "type": "tuple"
        }
      ],
      "name": "mintAirdropEgg",
      "outputs": [],
      "stateMutability": "nonpayable",
      "type": "function"
    },
    {
      "inputs": [
        {
          "components": [
            {
              "internalType": "enum HatchyRewardDealer.RewardContractType",
              "name": "rewardContractType",
              "type": "uint8"
            },
            {
              "internalType": "address",
              "name": "rewardHolderAddress",
              "type": "address"
            },
            {
              "internalType": "address",
              "name": "rewardContract",
              "type": "address"
            },
            {
              "internalType": "address",
              "name": "receiver",
              "type": "address"
            },
            {
              "internalType": "uint256",
              "name": "tokenId",
              "type": "uint256"
            },
            {
              "internalType": "uint256",
              "name": "amount",
              "type": "uint256"
            },
            {
              "internalType": "uint256",
              "name": "clabimableUntil",
              "type": "uint256"
            },
            {
              "internalType": "uint256",
              "name": "voucherId",
              "type": "uint256"
            },
            {
              "internalType": "bytes",
              "name": "signature",
              "type": "bytes"
            }
          ],
          "internalType": "struct HatchyRewardDealer.Payload",
          "name": "payload",
          "type": "tuple"
        }
      ],
      "name": "mintMastersItem",
      "outputs": [],
      "stateMutability": "nonpayable",
      "type": "function"
    },
    {
      "inputs": [
        {
          "internalType": "address",
          "name": "",
          "type": "address"
        },
        {
          "internalType": "address",
          "name": "",
          "type": "address"
        },
        {
          "internalType": "uint256",
          "name": "",
          "type": "uint256"
        },
        {
          "internalType": "bytes",
          "name": "",
          "type": "bytes"
        }
      ],
      "name": "onERC721Received",
      "outputs": [
        {
          "internalType": "bytes4",
          "name": "",
          "type": "bytes4"
        }
      ],
      "stateMutability": "nonpayable",
      "type": "function"
    },
    {
      "inputs": [],
      "name": "owner",
      "outputs": [
        {
          "internalType": "address",
          "name": "",
          "type": "address"
        }
      ],
      "stateMutability": "view",
      "type": "function"
    },
    {
      "inputs": [],
      "name": "paused",
      "outputs": [
        {
          "internalType": "bool",
          "name": "",
          "type": "bool"
        }
      ],
      "stateMutability": "view",
      "type": "function"
    },
    {
      "inputs": [],
      "name": "proxiableUUID",
      "outputs": [
        {
          "internalType": "bytes32",
          "name": "",
          "type": "bytes32"
        }
      ],
      "stateMutability": "view",
      "type": "function"
    },
    {
      "inputs": [
        {
          "internalType": "address",
          "name": "account",
          "type": "address"
        }
      ],
      "name": "removeSignerRole",
      "outputs": [],
      "stateMutability": "nonpayable",
      "type": "function"
    },
    {
      "inputs": [],
      "name": "renounceOwnership",
      "outputs": [],
      "stateMutability": "nonpayable",
      "type": "function"
    },
    {
      "inputs": [],
      "name": "renounceSigner",
      "outputs": [],
      "stateMutability": "nonpayable",
      "type": "function"
    },
    {
      "inputs": [
        {
          "internalType": "uint256[]",
          "name": "voucherIds",
          "type": "uint256[]"
        },
        {
          "internalType": "bool",
          "name": "value",
          "type": "bool"
        }
      ],
      "name": "setVoucherUsed",
      "outputs": [],
      "stateMutability": "nonpayable",
      "type": "function"
    },
    {
      "inputs": [
        {
          "internalType": "bytes",
          "name": "sig",
          "type": "bytes"
        }
      ],
      "name": "splitSignature",
      "outputs": [
        {
          "internalType": "uint8",
          "name": "v",
          "type": "uint8"
        },
        {
          "internalType": "bytes32",
          "name": "r",
          "type": "bytes32"
        },
        {
          "internalType": "bytes32",
          "name": "s",
          "type": "bytes32"
        }
      ],
      "stateMutability": "pure",
      "type": "function"
    },
    {
      "inputs": [
        {
          "internalType": "address",
          "name": "newOwner",
          "type": "address"
        }
      ],
      "name": "transferOwnership",
      "outputs": [],
      "stateMutability": "nonpayable",
      "type": "function"
    },
    {
      "inputs": [
        {
          "internalType": "address",
          "name": "newImplementation",
          "type": "address"
        }
      ],
      "name": "upgradeTo",
      "outputs": [],
      "stateMutability": "nonpayable",
      "type": "function"
    },
    {
      "inputs": [
        {
          "internalType": "address",
          "name": "newImplementation",
          "type": "address"
        },
        {
          "internalType": "bytes",
          "name": "data",
          "type": "bytes"
        }
      ],
      "name": "upgradeToAndCall",
      "outputs": [],
      "stateMutability": "payable",
      "type": "function"
    }
  ],
  "bytecode": "0x60a06040523060805234801561001457600080fd5b506080516124aa61004c60003960008181610bed01528181610c2d01528181610e1101528181610e510152610ee401526124aa6000f3fe6080604052600436106101405760003560e01c8063715018a6116100b6578063a7bb58031161006f578063a7bb5803146103b5578063d7e7afea146103f4578063e5c8b03d14610414578063eb12d61e14610429578063ebcc968b14610449578063f2fde38b1461046957600080fd5b8063715018a6146102ca578063751b6080146102df5780637df73e27146103105780638a948c61146103305780638da5cb5b146103505780638e3d792a1461037957600080fd5b80632402cca3116101085780632402cca3146102105780633659cfe61461023e578063485cc9551461025e5780634f1ef2861461027e57806352d1902d146102915780635c975abb146102a657600080fd5b8063083a5b531461014557806308ff114d14610167578063150b7a02146101875780631c750f21146101d0578063200efb82146101f0575b600080fd5b34801561015157600080fd5b50610165610160366004611c7a565b610489565b005b34801561017357600080fd5b50610165610182366004611cd3565b6104c7565b34801561019357600080fd5b506101b26101a2366004611cee565b630a85bd0160e11b949350505050565b6040516001600160e01b031990911681526020015b60405180910390f35b3480156101dc57600080fd5b506101656101eb366004611d65565b6104db565b3480156101fc57600080fd5b5061016561020b366004611d65565b61074a565b34801561021c57600080fd5b5061023061022b366004611d65565b610b8d565b6040519081526020016101c7565b34801561024a57600080fd5b50610165610259366004611cd3565b610be3565b34801561026a57600080fd5b50610165610279366004611e43565b610cbf565b61016561028c366004611e76565b610e07565b34801561029d57600080fd5b50610230610ed7565b3480156102b257600080fd5b5060975460ff165b60405190151581526020016101c7565b3480156102d657600080fd5b50610165610f8a565b3480156102eb57600080fd5b506102ba6102fa366004611ec4565b6101626020526000908152604090205460ff1681565b34801561031c57600080fd5b506102ba61032b366004611cd3565b610f9e565b34801561033c57600080fd5b5061016561034b366004611edd565b610fb2565b34801561035c57600080fd5b5061012d546040516001600160a01b0390911681526020016101c7565b34801561038557600080fd5b506102ba610394366004611c7a565b80516020818301810180516101618252928201919093012091525460ff1681565b3480156103c157600080fd5b506103d56103d0366004611c7a565b6111e0565b6040805160ff90941684526020840192909252908201526060016101c7565b34801561040057600080fd5b5061016561040f366004611f9c565b61120f565b34801561042057600080fd5b50610165611298565b34801561043557600080fd5b50610165610444366004611cd3565b6112a1565b34801561045557600080fd5b50610165610464366004611cd3565b6112cf565b34801561047557600080fd5b50610165610484366004611cd3565b6112d7565b61049161134d565b6001610161826040516104a49190612080565b908152604051908190036020019020805491151560ff1990921691909117905550565b6104cf61134d565b6104d8816113a8565b50565b6104e36113eb565b6104eb611444565b80606001516001600160a01b0316336001600160a01b0316146105295760405162461bcd60e51b81526004016105209061209c565b60405180910390fd5b61016181610100015160405161053f9190612080565b9081526040519081900360200190205460ff161561056f5760405162461bcd60e51b8152600401610520906120c0565b60016101618261010001516040516105879190612080565b9081526040805160209281900383019020805460ff19169315159390931790925560e08301516000908152610162909152205460ff16156105da5760405162461bcd60e51b8152600401610520906120e8565b60e0810151600090815261016260205260408120805460ff191660011790556101008201518190819061060c906111e0565b92509250925060008460c001511115610642578360c0015142106106425760405162461bcd60e51b81526004016105209061210e565b60006106b7600161065a61065588610b8d565b61148a565b6040805160008152602081018083529290925260ff881690820152606081018690526080810185905260a0016020604051602081039080840390855afa1580156106a8573d6000803e3d6000fd5b50505060206040510351610f9e565b9050801561073d57604080860151608087015160a0880151606089015193516343fabfbb60e11b8152600481019290925260248201526001600160a01b0392831660448201529116906387f57f76906064015b600060405180830381600087803b15801561072457600080fd5b505af1158015610738573d6000803e3d6000fd5b505050505b505050506104d860018055565b6107526113eb565b61075a611444565b80606001516001600160a01b0316336001600160a01b03161461078f5760405162461bcd60e51b81526004016105209061209c565b6101618161010001516040516107a59190612080565b9081526040519081900360200190205460ff16156107d55760405162461bcd60e51b8152600401610520906120c0565b60016101618261010001516040516107ed9190612080565b9081526040805160209281900383019020805460ff19169315159390931790925560e08301516000908152610162909152205460ff16156108405760405162461bcd60e51b8152600401610520906120e8565b60e0810151600090815261016260205260408120805460ff1916600117905561010082015181908190610872906111e0565b925092509250600061088b600161065a61065588610b8d565b90508015610aed5760c0850151156108c0578460c0015142106108c05760405162461bcd60e51b81526004016105209061210e565b6000855160028111156108d5576108d5612130565b0361095e576040808601516020870151606088015160808901519351632142170760e11b81526001600160a01b0392831660048201529082166024820152604481019390935216906342842e0e906064015b600060405180830381600087803b15801561094157600080fd5b505af1158015610955573d6000803e3d6000fd5b50505050610b22565b60018551600281111561097357610973612130565b03610a045784604001516001600160a01b031663f242432a8660200151876060015188608001518960a00151600067ffffffffffffffff8111156109b9576109b9611b76565b6040519080825280601f01601f1916602001820160405280156109e3576020820181803683370190505b506040518663ffffffff1660e01b8152600401610927959493929190612172565b600285516002811115610a1957610a19612130565b03610ae8576040808601516020870151606088015160a089015193516323b872dd60e01b81526001600160a01b0392831660048201529082166024820152604481019390935216906323b872dd906064016020604051808303816000875af1158015610a89573d6000803e3d6000fd5b505050506040513d601f19601f82011682018060405250810190610aad91906121b7565b610ae85760405162461bcd60e51b815260206004820152600c60248201526b3a3930b739b332b91032b93960a11b6044820152606401610520565b610b22565b60405162461bcd60e51b815260206004820152600a6024820152693130b21039b4b3b732b960b11b6044820152606401610520565b608085015160408601516001600160a01b0316336001600160a01b03167f3d39fe5944bbeb5d33825c47767b16cac4b4b1f01c4569ed4e4414379c6c4fa688600001518960a00151604051610b789291906121d4565b60405180910390a4505050506104d860018055565b60208082015182516040808501516060860151608087015160a088015160c089015160e08a01519551600099610bc699989791016121f2565b604051602081830303815290604052805190602001209050919050565b6001600160a01b037f0000000000000000000000000000000000000000000000000000000000000000163003610c2b5760405162461bcd60e51b815260040161052090612260565b7f00000000000000000000000000000000000000000000000000000000000000006001600160a01b0316610c7460008051602061242e833981519152546001600160a01b031690565b6001600160a01b031614610c9a5760405162461bcd60e51b8152600401610520906122ac565b610ca3816114cb565b604080516000808252602082019092526104d8918391906114d3565b600054610100900460ff1615808015610cdf5750600054600160ff909116105b80610cf95750303b158015610cf9575060005460ff166001145b610d5c5760405162461bcd60e51b815260206004820152602e60248201527f496e697469616c697a61626c653a20636f6e747261637420697320616c72656160448201526d191e481a5b9a5d1a585b1a5e995960921b6064820152608401610520565b6000805460ff191660011790558015610d7f576000805461ff0019166101001790555b610d8761163e565b610d8f61166d565b610d9761169c565b610da0836116c3565b61016080546001600160a01b0319166001600160a01b0384161790558015610e02576000805461ff0019169055604051600181527f7f26b83ff96e1f2b6a682f133852f6798a09c465da95921460cefb38474024989060200160405180910390a15b505050565b6001600160a01b037f0000000000000000000000000000000000000000000000000000000000000000163003610e4f5760405162461bcd60e51b815260040161052090612260565b7f00000000000000000000000000000000000000000000000000000000000000006001600160a01b0316610e9860008051602061242e833981519152546001600160a01b031690565b6001600160a01b031614610ebe5760405162461bcd60e51b8152600401610520906122ac565b610ec7826114cb565b610ed3828260016114d3565b5050565b6000306001600160a01b037f00000000000000000000000000000000000000000000000000000000000000001614610f775760405162461bcd60e51b815260206004820152603860248201527f555550535570677261646561626c653a206d757374206e6f742062652063616c60448201527f6c6564207468726f7567682064656c656761746563616c6c00000000000000006064820152608401610520565b5060008051602061242e83398151915290565b610f9261134d565b610f9c6000611706565b565b6000610fac61015f83611759565b92915050565b610fba6113eb565b610fc2611444565b80516001600160a01b03163314610feb5760405162461bcd60e51b81526004016105209061209c565b6101618160a001516040516110009190612080565b9081526040519081900360200190205460ff16156110305760405162461bcd60e51b8152600401610520906120c0565b60016101618260a001516040516110479190612080565b9081526040805160209281900383019020805460ff19169315159390931790925560808301516000908152610162909152205460ff161561109a5760405162461bcd60e51b8152600401610520906120e8565b6080810151600090815261016260205260408120805460ff1916600117905560a0820151819081906110cb906111e0565b92509250925060008460600151111561110157836060015142106111015760405162461bcd60e51b81526004016105209061210e565b6000611185600161065a8760000151886020015189604001518a606001518b6080015160405160200161116a95949392919060609590951b6bffffffffffffffffffffffff19168552601485019390935260348401919091526054830152607482015260940190565b6040516020818303038152906040528051906020012061148a565b9050801561073d576101605460208601516001600160a01b039091169063ba0bcbde90156111b45760016111b7565b60005b604080890151895191516001600160e01b031960e086901b16815261070a9392906004016122f8565b600080600083516041146111f357600080fd5b5050506020810151604082015160609092015160001a92909190565b61121833610f9e565b6112345760405162461bcd60e51b815260040161052090612329565b60005b8251811015610e025781610162600085848151811061125857611258612379565b6020026020010151815260200190815260200160002060006101000a81548160ff02191690831515021790555080806112909061238f565b915050611237565b610f9c336113a8565b6112aa33610f9e565b6112c65760405162461bcd60e51b815260040161052090612329565b6104d8816116c3565b6112c661134d565b6112df61134d565b6001600160a01b0381166113445760405162461bcd60e51b815260206004820152602660248201527f4f776e61626c653a206e6577206f776e657220697320746865207a65726f206160448201526564647265737360d01b6064820152608401610520565b6104d881611706565b61012d546001600160a01b03163314610f9c5760405162461bcd60e51b815260206004820181905260248201527f4f776e61626c653a2063616c6c6572206973206e6f7420746865206f776e65726044820152606401610520565b6113b461015f826117dc565b6040516001600160a01b038216907f3525e22824a8a7df2c9a6029941c824cf95b6447f1e13d5128fd3826d35afe8b90600090a250565b60026001540361143d5760405162461bcd60e51b815260206004820152601f60248201527f5265656e7472616e637947756172643a207265656e7472616e742063616c6c006044820152606401610520565b6002600155565b60975460ff1615610f9c5760405162461bcd60e51b815260206004820152601060248201526f14185d5cd8589b194e881c185d5cd95960821b6044820152606401610520565b6040517f19457468657265756d205369676e6564204d6573736167653a0a3332000000006020820152603c8101829052600090605c01610bc6565b60018055565b6104d861134d565b7f4910fdfa16fed3260ed0e7147f7cc6da11a60208b5b9406d12a635614ffd91435460ff161561150657610e028361185e565b826001600160a01b03166352d1902d6040518163ffffffff1660e01b8152600401602060405180830381865afa925050508015611560575060408051601f3d908101601f1916820190925261155d918101906123b6565b60015b6115c35760405162461bcd60e51b815260206004820152602e60248201527f45524331393637557067726164653a206e657720696d706c656d656e7461746960448201526d6f6e206973206e6f74205555505360901b6064820152608401610520565b60008051602061242e83398151915281146116325760405162461bcd60e51b815260206004820152602960248201527f45524331393637557067726164653a20756e737570706f727465642070726f786044820152681a58589b195555525160ba1b6064820152608401610520565b50610e028383836118fa565b600054610100900460ff166116655760405162461bcd60e51b8152600401610520906123cf565b610f9c611925565b600054610100900460ff166116945760405162461bcd60e51b8152600401610520906123cf565b610f9c611955565b600054610100900460ff16610f9c5760405162461bcd60e51b8152600401610520906123cf565b6116cf61015f8261197c565b6040516001600160a01b038216907f47d1c22a25bb3a5d4e481b9b1e6944c2eade3181a0a20b495ed61d35b5323f2490600090a250565b61012d80546001600160a01b038381166001600160a01b0319831681179093556040519116919082907f8be0079c531659141344cd1fd0a4f28419497f9722a3daafe3b4186f6b6457e090600090a35050565b60006001600160a01b0382166117bc5760405162461bcd60e51b815260206004820152602260248201527f526f6c65733a206163636f756e7420697320746865207a65726f206164647265604482015261737360f01b6064820152608401610520565b506001600160a01b03166000908152602091909152604090205460ff1690565b6117e68282611759565b61183c5760405162461bcd60e51b815260206004820152602160248201527f526f6c65733a206163636f756e7420646f6573206e6f74206861766520726f6c6044820152606560f81b6064820152608401610520565b6001600160a01b0316600090815260209190915260409020805460ff19169055565b6001600160a01b0381163b6118cb5760405162461bcd60e51b815260206004820152602d60248201527f455243313936373a206e657720696d706c656d656e746174696f6e206973206e60448201526c1bdd08184818dbdb9d1c9858dd609a1b6064820152608401610520565b60008051602061242e83398151915280546001600160a01b0319166001600160a01b0392909216919091179055565b611903836119f8565b6000825111806119105750805b15610e025761191f8383611a38565b50505050565b600054610100900460ff1661194c5760405162461bcd60e51b8152600401610520906123cf565b610f9c33611706565b600054610100900460ff166114c55760405162461bcd60e51b8152600401610520906123cf565b6119868282611759565b156119d35760405162461bcd60e51b815260206004820152601f60248201527f526f6c65733a206163636f756e7420616c72656164792068617320726f6c65006044820152606401610520565b6001600160a01b0316600090815260209190915260409020805460ff19166001179055565b611a018161185e565b6040516001600160a01b038216907fbc7cd75a20ee27fd9adebab32041f755214dbc6bffa90cc0225b39da2e5c2d3b90600090a250565b60606001600160a01b0383163b611aa05760405162461bcd60e51b815260206004820152602660248201527f416464726573733a2064656c65676174652063616c6c20746f206e6f6e2d636f6044820152651b9d1c9858dd60d21b6064820152608401610520565b600080846001600160a01b031684604051611abb9190612080565b600060405180830381855af49150503d8060008114611af6576040519150601f19603f3d011682016040523d82523d6000602084013e611afb565b606091505b5091509150611b23828260405180606001604052806027815260200161244e60279139611b2c565b95945050505050565b60608315611b3b575081611b45565b611b458383611b4c565b9392505050565b815115611b5c5781518083602001fd5b8060405162461bcd60e51b8152600401610520919061241a565b634e487b7160e01b600052604160045260246000fd5b604051610120810167ffffffffffffffff81118282101715611bb057611bb0611b76565b60405290565b60405160c0810167ffffffffffffffff81118282101715611bb057611bb0611b76565b604051601f8201601f1916810167ffffffffffffffff81118282101715611c0257611c02611b76565b604052919050565b600082601f830112611c1b57600080fd5b813567ffffffffffffffff811115611c3557611c35611b76565b611c48601f8201601f1916602001611bd9565b818152846020838601011115611c5d57600080fd5b816020850160208301376000918101602001919091529392505050565b600060208284031215611c8c57600080fd5b813567ffffffffffffffff811115611ca357600080fd5b611caf84828501611c0a565b949350505050565b80356001600160a01b0381168114611cce57600080fd5b919050565b600060208284031215611ce557600080fd5b611b4582611cb7565b60008060008060808587031215611d0457600080fd5b611d0d85611cb7565b9350611d1b60208601611cb7565b925060408501359150606085013567ffffffffffffffff811115611d3e57600080fd5b611d4a87828801611c0a565b91505092959194509250565b803560038110611cce57600080fd5b600060208284031215611d7757600080fd5b813567ffffffffffffffff80821115611d8f57600080fd5b908301906101208286031215611da457600080fd5b611dac611b8c565b611db583611d56565b8152611dc360208401611cb7565b6020820152611dd460408401611cb7565b6040820152611de560608401611cb7565b60608201526080830135608082015260a083013560a082015260c083013560c082015260e083013560e08201526101008084013583811115611e2657600080fd5b611e3288828701611c0a565b918301919091525095945050505050565b60008060408385031215611e5657600080fd5b611e5f83611cb7565b9150611e6d60208401611cb7565b90509250929050565b60008060408385031215611e8957600080fd5b611e9283611cb7565b9150602083013567ffffffffffffffff811115611eae57600080fd5b611eba85828601611c0a565b9150509250929050565b600060208284031215611ed657600080fd5b5035919050565b600060208284031215611eef57600080fd5b813567ffffffffffffffff80821115611f0757600080fd5b9083019060c08286031215611f1b57600080fd5b611f23611bb6565b611f2c83611cb7565b81526020830135602082015260408301356040820152606083013560608201526080830135608082015260a083013582811115611f6857600080fd5b611f7487828601611c0a565b60a08301525095945050505050565b80151581146104d857600080fd5b8035611cce81611f83565b60008060408385031215611faf57600080fd5b823567ffffffffffffffff80821115611fc757600080fd5b818501915085601f830112611fdb57600080fd5b8135602082821115611fef57611fef611b76565b8160051b9250612000818401611bd9565b828152928401810192818101908985111561201a57600080fd5b948201945b848610156120385785358252948201949082019061201f565b96506120479050878201611f91565b9450505050509250929050565b60005b8381101561206f578181015183820152602001612057565b8381111561191f5750506000910152565b60008251612092818460208701612054565b9190910192915050565b6020808252600a90820152693bb937b733903ab9b2b960b11b604082015260600190565b6020808252600e908201526d75736564207369676e617475726560901b604082015260600190565b6020808252600c908201526b3ab9b2b2103b37bab1b432b960a11b604082015260600190565b602080825260089082015267657870697265642160c01b604082015260600190565b634e487b7160e01b600052602160045260246000fd5b6000815180845261215e816020860160208601612054565b601f01601f19169290920160200192915050565b6001600160a01b03868116825285166020820152604081018490526060810183905260a0608082018190526000906121ac90830184612146565b979650505050505050565b6000602082840312156121c957600080fd5b8151611b4581611f83565b60408101600384106121e8576121e8612130565b9281526020015290565b60006bffffffffffffffffffffffff19808b60601b16835260038a1061221a5761221a612130565b60f89990991b601483015250606096871b881660158201529490951b9095166029840152603d830191909152605d820152607d810192909252609d82015260bd01919050565b6020808252602c908201527f46756e6374696f6e206d7573742062652063616c6c6564207468726f7567682060408201526b19195b1959d85d1958d85b1b60a21b606082015260800190565b6020808252602c908201527f46756e6374696f6e206d7573742062652063616c6c6564207468726f7567682060408201526b6163746976652070726f787960a01b606082015260800190565b606081016002851061230c5761230c612130565b93815260208101929092526001600160a01b031660409091015290565b60208082526030908201527f5369676e6572526f6c653a2063616c6c657220646f6573206e6f74206861766560408201526f20746865205369676e657220726f6c6560801b606082015260800190565b634e487b7160e01b600052603260045260246000fd5b6000600182016123af57634e487b7160e01b600052601160045260246000fd5b5060010190565b6000602082840312156123c857600080fd5b5051919050565b6020808252602b908201527f496e697469616c697a61626c653a20636f6e7472616374206973206e6f74206960408201526a6e697469616c697a696e6760a81b606082015260800190565b602081526000611b45602083018461214656fe360894a13ba1a3210667c828492db98dca3e2076cc3735a920a3ca505d382bbc416464726573733a206c6f772d6c6576656c2064656c65676174652063616c6c206661696c6564a26469706673582212209fac2104e0e7cc4e8d2aca6926b9e9f251941457eae70f8d8967f666c572894364736f6c634300080f0033",
  "linkReferences": {},
  "deployedLinkReferences": {}
}