{
  "_format": "hh-sol-artifact-1",
  "contractName": "HatchyReward",
  "sourceName": "contracts/HatchyRewarder.sol",
  "abi": [
    {
      "anonymous": false,
      "inputs": [
        {
          "indexed": false,
          "internalType": "address",
          "name": "previousAdmin",
          "type": "address"
        },
        {
          "indexed": false,
          "internalType": "address",
          "name": "newAdmin",
          "type": "address"
        }
      ],
      "name": "AdminChanged",
      "type": "event"
    },
    {
      "anonymous": false,
      "inputs": [
        {
          "indexed": true,
          "internalType": "address",
          "name": "beacon",
          "type": "address"
        }
      ],
      "name": "BeaconUpgraded",
      "type": "event"
    },
    {
      "anonymous": false,
      "inputs": [
        {
          "indexed": true,
          "internalType": "address",
          "name": "user",
          "type": "address"
        },
        {
          "indexed": false,
          "internalType": "uint256",
          "name": "amount",
          "type": "uint256"
        }
      ],
      "name": "Harvest",
      "type": "event"
    },
    {
      "anonymous": false,
      "inputs": [
        {
          "indexed": false,
          "internalType": "uint8",
          "name": "version",
          "type": "uint8"
        }
      ],
      "name": "Initialized",
      "type": "event"
    },
    {
      "anonymous": false,
      "inputs": [
        {
          "indexed": true,
          "internalType": "address",
          "name": "previousOwner",
          "type": "address"
        },
        {
          "indexed": true,
          "internalType": "address",
          "name": "newOwner",
          "type": "address"
        }
      ],
      "name": "OwnershipTransferred",
      "type": "event"
    },
    {
      "anonymous": false,
      "inputs": [
        {
          "indexed": false,
          "internalType": "address",
          "name": "account",
          "type": "address"
        }
      ],
      "name": "Paused",
      "type": "event"
    },
    {
      "anonymous": false,
      "inputs": [
        {
          "indexed": false,
          "internalType": "address",
          "name": "token",
          "type": "address"
        }
      ],
      "name": "RewardAddressUpdated",
      "type": "event"
    },
    {
      "anonymous": false,
      "inputs": [
        {
          "indexed": false,
          "internalType": "uint256",
          "name": "reward",
          "type": "uint256"
        }
      ],
      "name": "RewardPerWeekUpdated",
      "type": "event"
    },
    {
      "anonymous": false,
      "inputs": [
        {
          "indexed": false,
          "internalType": "address",
          "name": "account",
          "type": "address"
        }
      ],
      "name": "Unpaused",
      "type": "event"
    },
    {
      "anonymous": false,
      "inputs": [
        {
          "indexed": true,
          "internalType": "address",
          "name": "implementation",
          "type": "address"
        }
      ],
      "name": "Upgraded",
      "type": "event"
    },
    {
      "inputs": [],
      "name": "PERCENTS_DIVIDER",
      "outputs": [
        {
          "internalType": "uint256",
          "name": "",
          "type": "uint256"
        }
      ],
      "stateMutability": "view",
      "type": "function"
    },
    {
      "inputs": [],
      "name": "PERCENT_STEP",
      "outputs": [
        {
          "internalType": "uint256",
          "name": "",
          "type": "uint256"
        }
      ],
      "stateMutability": "view",
      "type": "function"
    },
    {
      "inputs": [],
      "name": "PRECISION_FACTOR",
      "outputs": [
        {
          "internalType": "uint256",
          "name": "",
          "type": "uint256"
        }
      ],
      "stateMutability": "view",
      "type": "function"
    },
    {
      "inputs": [],
      "name": "REFERRAL_PERCENT",
      "outputs": [
        {
          "internalType": "uint256",
          "name": "",
          "type": "uint256"
        }
      ],
      "stateMutability": "view",
      "type": "function"
    },
    {
      "inputs": [],
      "name": "accTokenPerShare",
      "outputs": [
        {
          "internalType": "uint256",
          "name": "",
          "type": "uint256"
        }
      ],
      "stateMutability": "view",
      "type": "function"
    },
    {
      "inputs": [
        {
          "internalType": "address",
          "name": "userAddress",
          "type": "address"
        }
      ],
      "name": "getUserReferralBonus",
      "outputs": [
        {
          "internalType": "uint256",
          "name": "",
          "type": "uint256"
        }
      ],
      "stateMutability": "view",
      "type": "function"
    },
    {
      "inputs": [
        {
          "internalType": "address",
          "name": "userAddress",
          "type": "address"
        }
      ],
      "name": "getUserReferrer",
      "outputs": [
        {
          "internalType": "address",
          "name": "",
          "type": "address"
        }
      ],
      "stateMutability": "view",
      "type": "function"
    },
    {
      "inputs": [
        {
          "internalType": "address",
          "name": "userAddress",
          "type": "address"
        }
      ],
      "name": "getUserTotalReferrals",
      "outputs": [
        {
          "internalType": "uint256",
          "name": "",
          "type": "uint256"
        }
      ],
      "stateMutability": "view",
      "type": "function"
    },
    {
      "inputs": [],
      "name": "harvest",
      "outputs": [],
      "stateMutability": "nonpayable",
      "type": "function"
    },
    {
      "inputs": [],
      "name": "hatchyGen1Staking",
      "outputs": [
        {
          "internalType": "address",
          "name": "",
          "type": "address"
        }
      ],
      "stateMutability": "view",
      "type": "function"
    },
    {
      "inputs": [],
      "name": "hatchyGen2Staking",
      "outputs": [
        {
          "internalType": "address",
          "name": "",
          "type": "address"
        }
      ],
      "stateMutability": "view",
      "type": "function"
    },
    {
      "inputs": [
        {
          "internalType": "address",
          "name": "_rewardTokenAddress",
          "type": "address"
        },
        {
          "internalType": "address",
          "name": "_hatchyGen1Stake",
          "type": "address"
        },
        {
          "internalType": "address",
          "name": "_hatchyGen2Stake",
          "type": "address"
        },
        {
          "internalType": "uint256",
          "name": "_rewardPerWeek",
          "type": "uint256"
        }
      ],
      "name": "initialize",
      "outputs": [],
      "stateMutability": "nonpayable",
      "type": "function"
    },
    {
      "inputs": [
        {
          "internalType": "address",
          "name": "",
          "type": "address"
        }
      ],
      "name": "lastDepositReferral",
      "outputs": [
        {
          "internalType": "address",
          "name": "",
          "type": "address"
        }
      ],
      "stateMutability": "view",
      "type": "function"
    },
    {
      "inputs": [],
      "name": "lastRewardTime",
      "outputs": [
        {
          "internalType": "uint256",
          "name": "",
          "type": "uint256"
        }
      ],
      "stateMutability": "view",
      "type": "function"
    },
    {
      "inputs": [],
      "name": "owner",
      "outputs": [
        {
          "internalType": "address",
          "name": "",
          "type": "address"
        }
      ],
      "stateMutability": "view",
      "type": "function"
    },
    {
      "inputs": [],
      "name": "paused",
      "outputs": [
        {
          "internalType": "bool",
          "name": "",
          "type": "bool"
        }
      ],
      "stateMutability": "view",
      "type": "function"
    },
    {
      "inputs": [
        {
          "internalType": "address",
          "name": "_user",
          "type": "address"
        }
      ],
      "name": "pendingReward",
      "outputs": [
        {
          "internalType": "uint256",
          "name": "",
          "type": "uint256"
        }
      ],
      "stateMutability": "view",
      "type": "function"
    },
    {
      "inputs": [],
      "name": "proxiableUUID",
      "outputs": [
        {
          "internalType": "bytes32",
          "name": "",
          "type": "bytes32"
        }
      ],
      "stateMutability": "view",
      "type": "function"
    },
    {
      "inputs": [],
      "name": "renounceOwnership",
      "outputs": [],
      "stateMutability": "nonpayable",
      "type": "function"
    },
    {
      "inputs": [
        {
          "internalType": "address",
          "name": "suspect",
          "type": "address"
        }
      ],
      "name": "resetBonusOfSuspect",
      "outputs": [],
      "stateMutability": "nonpayable",
      "type": "function"
    },
    {
      "inputs": [],
      "name": "rewardPerWeek",
      "outputs": [
        {
          "internalType": "uint256",
          "name": "",
          "type": "uint256"
        }
      ],
      "stateMutability": "view",
      "type": "function"
    },
    {
      "inputs": [],
      "name": "rewardTokenAddress",
      "outputs": [
        {
          "internalType": "address",
          "name": "",
          "type": "address"
        }
      ],
      "stateMutability": "view",
      "type": "function"
    },
    {
      "inputs": [
        {
          "internalType": "uint256",
          "name": "_reward",
          "type": "uint256"
        }
      ],
      "name": "setRewardPerWeek",
      "outputs": [],
      "stateMutability": "nonpayable",
      "type": "function"
    },
    {
      "inputs": [
        {
          "internalType": "address",
          "name": "_address",
          "type": "address"
        }
      ],
      "name": "setRewardTokenAddress",
      "outputs": [],
      "stateMutability": "nonpayable",
      "type": "function"
    },
    {
      "inputs": [],
      "name": "totalWeight",
      "outputs": [
        {
          "internalType": "uint256",
          "name": "",
          "type": "uint256"
        }
      ],
      "stateMutability": "view",
      "type": "function"
    },
    {
      "inputs": [
        {
          "internalType": "address",
          "name": "newOwner",
          "type": "address"
        }
      ],
      "name": "transferOwnership",
      "outputs": [],
      "stateMutability": "nonpayable",
      "type": "function"
    },
    {
      "inputs": [
        {
          "internalType": "address",
          "name": "_account",
          "type": "address"
        },
        {
          "internalType": "uint256",
          "name": "newWeight",
          "type": "uint256"
        },
        {
          "internalType": "address",
          "name": "referrer",
          "type": "address"
        }
      ],
      "name": "updateUserWeight",
      "outputs": [],
      "stateMutability": "nonpayable",
      "type": "function"
    },
    {
      "inputs": [
        {
          "internalType": "address",
          "name": "newImplementation",
          "type": "address"
        }
      ],
      "name": "upgradeTo",
      "outputs": [],
      "stateMutability": "nonpayable",
      "type": "function"
    },
    {
      "inputs": [
        {
          "internalType": "address",
          "name": "newImplementation",
          "type": "address"
        },
        {
          "internalType": "bytes",
          "name": "data",
          "type": "bytes"
        }
      ],
      "name": "upgradeToAndCall",
      "outputs": [],
      "stateMutability": "payable",
      "type": "function"
    },
    {
      "inputs": [
        {
          "internalType": "address",
          "name": "",
          "type": "address"
        }
      ],
      "name": "userInfo",
      "outputs": [
        {
          "internalType": "uint256",
          "name": "weight",
          "type": "uint256"
        },
        {
          "internalType": "uint256",
          "name": "gen1Point",
          "type": "uint256"
        },
        {
          "internalType": "uint256",
          "name": "gen2Point",
          "type": "uint256"
        },
        {
          "internalType": "uint256",
          "name": "rewardDebt",
          "type": "uint256"
        },
        {
          "internalType": "address",
          "name": "referrer",
          "type": "address"
        },
        {
          "internalType": "uint256",
          "name": "bonus",
          "type": "uint256"
        }
      ],
      "stateMutability": "view",
      "type": "function"
    },
    {
      "inputs": [
        {
          "internalType": "address",
          "name": "_user",
          "type": "address"
        }
      ],
      "name": "userReferredCount",
      "outputs": [
        {
          "internalType": "uint256",
          "name": "",
          "type": "uint256"
        }
      ],
      "stateMutability": "view",
      "type": "function"
    },
    {
      "inputs": [
        {
          "internalType": "address",
          "name": "_user",
          "type": "address"
        }
      ],
      "name": "userReferredInfo",
      "outputs": [
        {
          "internalType": "address[]",
          "name": "",
          "type": "address[]"
        }
      ],
      "stateMutability": "view",
      "type": "function"
    },
    {
      "inputs": [],
      "name": "withdrawAllTokens",
      "outputs": [],
      "stateMutability": "nonpayable",
      "type": "function"
    }
  ],
  "bytecode": "0x60a06040523060805234801561001457600080fd5b5060805161256e61004c60003960008181610789015281816107d201528181610a2d01528181610a6d0152610b00015261256e6000f3fe6080604052600436106101ee5760003560e01c80638da5cb5b1161010d578063a1a99ace116100a0578063dbd144a51161006f578063dbd144a5146105ea578063e85abe091461060b578063f2fde38b14610645578063f40f0f5214610665578063fbfcb2791461041557600080fd5b8063a1a99ace1461055c578063a1f11c4214610593578063ccd34cd5146105b3578063cf756fdf146105ca57600080fd5b8063934272fa116100dc578063934272fa146104ed5780639632ebc31461050457806396c82e57146105255780639a6acf201461053c57600080fd5b80638da5cb5b146104815780638f6629151461049f5780639129554f146104b65780639231cf74146104d657600080fd5b80634641257d116101855780635c975abb116101545780635c975abb146103f25780636c28b3e414610415578063715018a61461044c57806372bd44761461046157600080fd5b80634641257d146103a05780634f1ef286146103b557806352d1902d146103c857806357fc86b4146103dd57600080fd5b806333a8915a116101c157806333a8915a146102ff57806336144c9a146103165780633659cfe61461035357806342fbe6251461037357600080fd5b806301c234a8146101f3578063125f9e331461021c5780631959a00214610255578063280da6fa146102e8575b600080fd5b3480156101ff57600080fd5b506102096103e881565b6040519081526020015b60405180910390f35b34801561022857600080fd5b5061012f5461023d906001600160a01b031681565b6040516001600160a01b039091168152602001610213565b34801561026157600080fd5b506102b2610270366004611fad565b61012d6020526000908152604090208054600182015460028301546003840154600485015460059095015493949293919290916001600160a01b039091169086565b6040805196875260208701959095529385019290925260608401526001600160a01b0316608083015260a082015260c001610213565b3480156102f457600080fd5b506102fd610685565b005b34801561030b57600080fd5b506102096101365481565b34801561032257600080fd5b5061023d610331366004611fad565b6001600160a01b03908116600090815261012d60205260409020600401541690565b34801561035f57600080fd5b506102fd61036e366004611fad565b61077f565b34801561037f57600080fd5b5061039361038e366004611fad565b610864565b6040516102139190611fc8565b3480156103ac57600080fd5b506102fd6108db565b6102fd6103c336600461202b565b610a23565b3480156103d457600080fd5b50610209610af3565b3480156103e957600080fd5b50610209600581565b3480156103fe57600080fd5b5060655460ff166040519015158152602001610213565b34801561042157600080fd5b50610209610430366004611fad565b6001600160a01b0316600090815261012e602052604090205490565b34801561045857600080fd5b506102fd610ba6565b34801561046d57600080fd5b506102fd61047c366004611fad565b610bb8565b34801561048d57600080fd5b5060fb546001600160a01b031661023d565b3480156104ab57600080fd5b506102096101345481565b3480156104c257600080fd5b506102fd6104d13660046120ed565b610be2565b3480156104e257600080fd5b506102096101355481565b3480156104f957600080fd5b506102096101305481565b34801561051057600080fd5b506101325461023d906001600160a01b031681565b34801561053157600080fd5b506102096101315481565b34801561054857600080fd5b506102fd610557366004611fad565b610f35565b34801561056857600080fd5b5061023d610577366004611fad565b610138602052600090815260409020546001600160a01b031681565b34801561059f57600080fd5b506102fd6105ae366004612129565b610fdb565b3480156105bf57600080fd5b506102096101375481565b3480156105d657600080fd5b506102fd6105e5366004612142565b611019565b3480156105f657600080fd5b506101335461023d906001600160a01b031681565b34801561061757600080fd5b50610209610626366004611fad565b6001600160a01b0316600090815261012d602052604090206005015490565b34801561065157600080fd5b506102fd610660366004611fad565b6111aa565b34801561067157600080fd5b50610209610680366004611fad565b611220565b61068d61131f565b61012f546001600160a01b031663a9059cbb3361012f546040516370a0823160e01b81523060048201526001600160a01b03909116906370a0823190602401602060405180830381865afa1580156106e9573d6000803e3d6000fd5b505050506040513d601f19601f8201168201806040525081019061070d919061218d565b6040516001600160e01b031960e085901b1681526001600160a01b03909216600483015260248201526044016020604051808303816000875af1158015610758573d6000803e3d6000fd5b505050506040513d601f19601f8201168201806040525081019061077c91906121a6565b50565b6001600160a01b037f00000000000000000000000000000000000000000000000000000000000000001630036107d05760405162461bcd60e51b81526004016107c7906121c8565b60405180910390fd5b7f00000000000000000000000000000000000000000000000000000000000000006001600160a01b03166108196000805160206124f2833981519152546001600160a01b031690565b6001600160a01b03161461083f5760405162461bcd60e51b81526004016107c790612214565b61084881611379565b6040805160008082526020820190925261077c91839190611381565b6001600160a01b038116600090815261012e60209081526040918290208054835181840281018401909452808452606093928301828280156108cf57602002820191906000526020600020905b81546001600160a01b031681526001909101906020018083116108b1575b50505050509050919050565b6108e36114ec565b6108eb611545565b6108f361158b565b33600090815261012d60205260408120600381015461013754610134548354939493610935939261092f92909161092991611616565b9061162b565b90611637565b905080156109c35761012f546001600160a01b031663a9059cbb336040516001600160e01b031960e084901b1681526001600160a01b039091166004820152602481018490526044016020604051808303816000875af115801561099d573d6000803e3d6000fd5b505050506040513d601f19601f820116820180604052508101906109c191906121a6565b505b610137546101345483546109dc92916109299190611616565b600383015560405181815233907fc9695243a805adb74c91f28311176c65b417e842d5699893cef56d18bfa48cba9060200160405180910390a25050610a2160018055565b565b6001600160a01b037f0000000000000000000000000000000000000000000000000000000000000000163003610a6b5760405162461bcd60e51b81526004016107c7906121c8565b7f00000000000000000000000000000000000000000000000000000000000000006001600160a01b0316610ab46000805160206124f2833981519152546001600160a01b031690565b6001600160a01b031614610ada5760405162461bcd60e51b81526004016107c790612214565b610ae382611379565b610aef82826001611381565b5050565b6000306001600160a01b037f00000000000000000000000000000000000000000000000000000000000000001614610b935760405162461bcd60e51b815260206004820152603860248201527f555550535570677261646561626c653a206d757374206e6f742062652063616c60448201527f6c6564207468726f7567682064656c656761746563616c6c000000000000000060648201526084016107c7565b506000805160206124f283398151915290565b610bae61131f565b610a216000611649565b610bc061131f565b6001600160a01b0316600090815261012d602052604081206005810182905555565b610bea61169b565b610bf26114ec565b610bfa61158b565b6001600160a01b03808416600090815261012d602052604090206004810154909116158015610c3157506001600160a01b03821615155b15610c54576004810180546001600160a01b0319166001600160a01b0384161790555b60048101546001600160a01b031615610c7c5760048101546001600160a01b03169150610c8b565b60fb546001600160a01b031691505b6000610cb6826003015461092f6101375461092961013454876000015461161690919063ffffffff16565b90508015610d385761012f5460405163a9059cbb60e01b81526001600160a01b038781166004830152602482018490529091169063a9059cbb906044016020604051808303816000875af1158015610d12573d6000803e3d6000fd5b505050506040513d601f19601f82011682018060405250810190610d3691906121a6565b505b610132546001600160a01b03163303610dfa57610d5b858484600101548761171b565b8160010154841115610dee576001600160a01b03858116600090815261013860205260409020541615801590610dae57506001600160a01b03808616600090815261013860205260409020548482169116145b80610dd257506001600160a01b038581166000908152610138602052604090205416155b610dee5760405162461bcd60e51b81526004016107c790612260565b60018201849055610ea5565b610e0a858484600201548761171b565b8160020154841115610e9d576001600160a01b03858116600090815261013860205260409020541615801590610e5d57506001600160a01b03808616600090815261013860205260409020548482169116145b80610e8157506001600160a01b038581166000908152610138602052604090205416155b610e9d5760405162461bcd60e51b81526004016107c790612260565b600282018490555b8154600583015460028401546001850154610ec091906122cb565b610eca91906122cb565b83556001830154158015610ee057506002830154155b15610eea57600083555b825461013154610eff91839161092f91611c91565b6101315561013754610134548454610f1c92916109299190611616565b8360030181905550505050610f3060018055565b505050565b610f3d61131f565b6001600160a01b038116610f855760405162461bcd60e51b815260206004820152600f60248201526e696e76616c6964206164647265737360881b60448201526064016107c7565b61012f80546001600160a01b0319166001600160a01b0383169081179091556040519081527f97e1f675f69047e4b663d3b795841c629240f48eb403a6337e5367c4405737e0906020015b60405180910390a150565b610fe361131f565b6101308190556040518181527f237a7f2fd81a1304fbcf3fb0bb2fb6b1baa1d3184f99213f82f8cf0cd858bf9790602001610fd0565b600054610100900460ff16158080156110395750600054600160ff909116105b806110535750303b158015611053575060005460ff166001145b6110b65760405162461bcd60e51b815260206004820152602e60248201527f496e697469616c697a61626c653a20636f6e747261637420697320616c72656160448201526d191e481a5b9a5d1a585b1a5e995960921b60648201526084016107c7565b6000805460ff1916600117905580156110d9576000805461ff0019166101001790555b6110e1611c9d565b6110e9611ccc565b60006101315561013280546001600160a01b038087166001600160a01b031992831617909255610133805486841690831617905561012f8054928816929091169190911790556101308290556032610136556012611148601e82611637565b61115390600a6123c7565b6101375550426101355580156111a3576000805461ff0019169055604051600181527f7f26b83ff96e1f2b6a682f133852f6798a09c465da95921460cefb38474024989060200160405180910390a15b5050505050565b6111b261131f565b6001600160a01b0381166112175760405162461bcd60e51b815260206004820152602660248201527f4f776e61626c653a206e6577206f776e657220697320746865207a65726f206160448201526564647265737360d01b60648201526084016107c7565b61077c81611649565b6001600160a01b038116600090815261012d602052604081206101355442908111801561124f57506101315415155b156112ee57600061126c610135548361163790919063ffffffff16565b9050600061128d62093a80610929610130548561161690919063ffffffff16565b905060006112bb6112b161013154610929610137548661161690919063ffffffff16565b6101345490611c91565b90506112e3856003015461092f61013754610929858a6000015461161690919063ffffffff16565b979650505050505050565b611317826003015461092f6101375461092961013454876000015461161690919063ffffffff16565b949350505050565b60fb546001600160a01b03163314610a215760405162461bcd60e51b815260206004820181905260248201527f4f776e61626c653a2063616c6c6572206973206e6f7420746865206f776e657260448201526064016107c7565b61077c61131f565b7f4910fdfa16fed3260ed0e7147f7cc6da11a60208b5b9406d12a635614ffd91435460ff16156113b457610f3083611cfb565b826001600160a01b03166352d1902d6040518163ffffffff1660e01b8152600401602060405180830381865afa92505050801561140e575060408051601f3d908101601f1916820190925261140b9181019061218d565b60015b6114715760405162461bcd60e51b815260206004820152602e60248201527f45524331393637557067726164653a206e657720696d706c656d656e7461746960448201526d6f6e206973206e6f74205555505360901b60648201526084016107c7565b6000805160206124f283398151915281146114e05760405162461bcd60e51b815260206004820152602960248201527f45524331393637557067726164653a20756e737570706f727465642070726f786044820152681a58589b195555525160ba1b60648201526084016107c7565b50610f30838383611d97565b60026001540361153e5760405162461bcd60e51b815260206004820152601f60248201527f5265656e7472616e637947756172643a207265656e7472616e742063616c6c0060448201526064016107c7565b6002600155565b60655460ff1615610a215760405162461bcd60e51b815260206004820152601060248201526f14185d5cd8589b194e881c185d5cd95960821b60448201526064016107c7565b610135544290811161159a5750565b610131546000036115ad57504261013555565b60006115c5610135548361163790919063ffffffff16565b905060006115e662093a80610929610130548561161690919063ffffffff16565b90506116086112b161013154610929610137548561161690919063ffffffff16565b610134555050426101355550565b600061162282846123d3565b90505b92915050565b600061162282846123f2565b60006116228284612414565b60018055565b60fb80546001600160a01b038381166001600160a01b0319831681179093556040519116919082907f8be0079c531659141344cd1fd0a4f28419497f9722a3daafe3b4186f6b6457e090600090a35050565b610132546001600160a01b03163314806116c05750610133546001600160a01b031633145b610a215760405162461bcd60e51b815260206004820152602660248201527f4861746368795265776172643a2063616c6c6572206973206e6f74207468652060448201526539ba30b5b2b960d11b60648201526084016107c7565b6001600160a01b03831615611c8b57823b63ffffffff16611c8b576001600160a01b03808516600090815261012d6020526040902060048101549091166117c657846001600160a01b0316846001600160a01b0316146117c6576004810180546001600160a01b03199081166001600160a01b03878116918217909355600090815261012e602090815260408220805460018101825590835291200180549091169187169190911790555b60048101546001600160a01b0316156111a35760048101546001600160a01b0316600081815261012d602052604081206003810154610137546101345492546118179361092f929161092991611616565b905080156118995761012f5460405163a9059cbb60e01b81526001600160a01b038481166004830152602482018490529091169063a9059cbb906044016020604051808303816000875af1158015611873573d6000803e3d6000fd5b505050506040513d601f19601f8201168201806040525081019061189791906121a6565b505b60008486116118b1576118ac8587611637565b6118bb565b6118bb8686611637565b905060006118db6103e8610929610136548561161690919063ffffffff16565b6001600160a01b03808b166000908152610138602052604090205491925016878711156119a7576001600160a01b038a811660009081526101386020908152604080832080546001600160a01b0319168e8616179055928816825261012d9052206005015461194a9083611c91565b6001600160a01b038616600090815261012d602052604090206005810191909155546119769083611c91565b6001600160a01b038616600090815261012d60205260409020556101315461199e9083611c91565b61013155611c33565b886001600160a01b0316816001600160a01b031603611af2576001600160a01b038516600090815261012d6020526040902060050154821015611a2d576001600160a01b038516600090815261012d6020526040902060050154611a0b9083611637565b6001600160a01b038616600090815261012d6020526040902060050155611a4b565b6001600160a01b038516600090815261012d60205260408120600501555b6001600160a01b038516600090815261012d602052604090205415801590611a8b57506001600160a01b038516600090815261012d602052604090205482105b15611ad3576001600160a01b038516600090815261012d6020526040902054611ab49083611637565b6001600160a01b038616600090815261012d6020526040902055611c20565b6001600160a01b038516600090815261012d6020526040812055611c20565b6001600160a01b038116600090815261012d6020526040902060050154821015611b5f576001600160a01b038116600090815261012d6020526040902060050154611b3d9083611637565b6001600160a01b038216600090815261012d6020526040902060050155611b7d565b6001600160a01b038116600090815261012d60205260408120600501555b6001600160a01b038116600090815261012d602052604090205415801590611bbd57506001600160a01b038116600090815261012d602052604090205482105b15611c05576001600160a01b038116600090815261012d6020526040902054611be69083611637565b6001600160a01b038216600090815261012d6020526040902055611c20565b6001600160a01b038116600090815261012d60205260408120555b61013154611c2e9083611637565b610131555b61013754610134546001600160a01b038716600090815261012d6020526040902054611c6492916109299190611616565b6001600160a01b03909516600090815261012d602052604090206003019490945550505050505b50505050565b600061162282846122cb565b600054610100900460ff16611cc45760405162461bcd60e51b81526004016107c79061242b565b610a21611dbc565b600054610100900460ff16611cf35760405162461bcd60e51b81526004016107c79061242b565b610a21611dec565b6001600160a01b0381163b611d685760405162461bcd60e51b815260206004820152602d60248201527f455243313936373a206e657720696d706c656d656e746174696f6e206973206e60448201526c1bdd08184818dbdb9d1c9858dd609a1b60648201526084016107c7565b6000805160206124f283398151915280546001600160a01b0319166001600160a01b0392909216919091179055565b611da083611e13565b600082511180611dad5750805b15610f3057611c8b8383611e53565b600054610100900460ff16611de35760405162461bcd60e51b81526004016107c79061242b565b610a2133611649565b600054610100900460ff166116435760405162461bcd60e51b81526004016107c79061242b565b611e1c81611cfb565b6040516001600160a01b038216907fbc7cd75a20ee27fd9adebab32041f755214dbc6bffa90cc0225b39da2e5c2d3b90600090a250565b60606001600160a01b0383163b611ebb5760405162461bcd60e51b815260206004820152602660248201527f416464726573733a2064656c65676174652063616c6c20746f206e6f6e2d636f6044820152651b9d1c9858dd60d21b60648201526084016107c7565b600080846001600160a01b031684604051611ed691906124a2565b600060405180830381855af49150503d8060008114611f11576040519150601f19603f3d011682016040523d82523d6000602084013e611f16565b606091505b5091509150611f3e828260405180606001604052806027815260200161251260279139611f47565b95945050505050565b60608315611f56575081611f60565b611f608383611f67565b9392505050565b815115611f775781518083602001fd5b8060405162461bcd60e51b81526004016107c791906124be565b80356001600160a01b0381168114611fa857600080fd5b919050565b600060208284031215611fbf57600080fd5b61162282611f91565b6020808252825182820181905260009190848201906040850190845b818110156120095783516001600160a01b031683529284019291840191600101611fe4565b50909695505050505050565b634e487b7160e01b600052604160045260246000fd5b6000806040838503121561203e57600080fd5b61204783611f91565b9150602083013567ffffffffffffffff8082111561206457600080fd5b818501915085601f83011261207857600080fd5b81358181111561208a5761208a612015565b604051601f8201601f19908116603f011681019083821181831017156120b2576120b2612015565b816040528281528860208487010111156120cb57600080fd5b8260208601602083013760006020848301015280955050505050509250929050565b60008060006060848603121561210257600080fd5b61210b84611f91565b92506020840135915061212060408501611f91565b90509250925092565b60006020828403121561213b57600080fd5b5035919050565b6000806000806080858703121561215857600080fd5b61216185611f91565b935061216f60208601611f91565b925061217d60408601611f91565b9396929550929360600135925050565b60006020828403121561219f57600080fd5b5051919050565b6000602082840312156121b857600080fd5b81518015158114611f6057600080fd5b6020808252602c908201527f46756e6374696f6e206d7573742062652063616c6c6564207468726f7567682060408201526b19195b1959d85d1958d85b1b60a21b606082015260800190565b6020808252602c908201527f46756e6374696f6e206d7573742062652063616c6c6564207468726f7567682060408201526b6163746976652070726f787960a01b606082015260800190565b60208082526035908201527f706c6561736520756e7374616b6520616c6c20616e642072657374616b65207760408201527434ba34103cb7bab9103732bb903932b332b93932b960591b606082015260800190565b634e487b7160e01b600052601160045260246000fd5b600082198211156122de576122de6122b5565b500190565b600181815b8085111561231e578160001904821115612304576123046122b5565b8085161561231157918102915b93841c93908002906122e8565b509250929050565b60008261233557506001611625565b8161234257506000611625565b816001811461235857600281146123625761237e565b6001915050611625565b60ff841115612373576123736122b5565b50506001821b611625565b5060208310610133831016604e8410600b84101617156123a1575081810a611625565b6123ab83836122e3565b80600019048211156123bf576123bf6122b5565b029392505050565b60006116228383612326565b60008160001904831182151516156123ed576123ed6122b5565b500290565b60008261240f57634e487b7160e01b600052601260045260246000fd5b500490565b600082821015612426576124266122b5565b500390565b6020808252602b908201527f496e697469616c697a61626c653a20636f6e7472616374206973206e6f74206960408201526a6e697469616c697a696e6760a81b606082015260800190565b60005b83811015612491578181015183820152602001612479565b83811115611c8b5750506000910152565b600082516124b4818460208701612476565b9190910192915050565b60208152600082518060208401526124dd816040850160208701612476565b601f01601f1916919091016040019291505056fe360894a13ba1a3210667c828492db98dca3e2076cc3735a920a3ca505d382bbc416464726573733a206c6f772d6c6576656c2064656c65676174652063616c6c206661696c6564a2646970667358221220e15cbc5cbe53537bd92b3455824f5248982ecb5aefc7fb6aa5a346acf390408d64736f6c634300080f0033",
  "linkReferences": {},
  "deployedLinkReferences": {}
}