{
  "_format": "hh-sol-artifact-1",
  "contractName": "HatchyverseUltigen",
  "sourceName": "contracts/ultigen/HatchyverseUltigen.sol",
  "abi": [
    {
      "anonymous": false,
      "inputs": [
        {
          "indexed": false,
          "internalType": "address",
          "name": "previousAdmin",
          "type": "address"
        },
        {
          "indexed": false,
          "internalType": "address",
          "name": "newAdmin",
          "type": "address"
        }
      ],
      "name": "AdminChanged",
      "type": "event"
    },
    {
      "anonymous": false,
      "inputs": [
        {
          "indexed": true,
          "internalType": "address",
          "name": "owner",
          "type": "address"
        },
        {
          "indexed": true,
          "internalType": "address",
          "name": "approved",
          "type": "address"
        },
        {
          "indexed": true,
          "internalType": "uint256",
          "name": "tokenId",
          "type": "uint256"
        }
      ],
      "name": "Approval",
      "type": "event"
    },
    {
      "anonymous": false,
      "inputs": [
        {
          "indexed": true,
          "internalType": "address",
          "name": "owner",
          "type": "address"
        },
        {
          "indexed": true,
          "internalType": "address",
          "name": "operator",
          "type": "address"
        },
        {
          "indexed": false,
          "internalType": "bool",
          "name": "approved",
          "type": "bool"
        }
      ],
      "name": "ApprovalForAll",
      "type": "event"
    },
    {
      "anonymous": false,
      "inputs": [
        {
          "indexed": true,
          "internalType": "address",
          "name": "beacon",
          "type": "address"
        }
      ],
      "name": "BeaconUpgraded",
      "type": "event"
    },
    {
      "anonymous": false,
      "inputs": [
        {
          "indexed": false,
          "internalType": "uint8",
          "name": "version",
          "type": "uint8"
        }
      ],
      "name": "Initialized",
      "type": "event"
    },
    {
      "anonymous": false,
      "inputs": [
        {
          "indexed": true,
          "internalType": "address",
          "name": "owner",
          "type": "address"
        },
        {
          "indexed": true,
          "internalType": "uint256",
          "name": "tokenId",
          "type": "uint256"
        },
        {
          "indexed": false,
          "internalType": "uint256",
          "name": "uniqueId",
          "type": "uint256"
        },
        {
          "indexed": false,
          "internalType": "uint256",
          "name": "monsterId",
          "type": "uint256"
        }
      ],
      "name": "MonsterMinted",
      "type": "event"
    },
    {
      "anonymous": false,
      "inputs": [
        {
          "indexed": true,
          "internalType": "uint256",
          "name": "tokenId",
          "type": "uint256"
        },
        {
          "indexed": false,
          "internalType": "uint256",
          "name": "newMonsterId",
          "type": "uint256"
        },
        {
          "indexed": false,
          "internalType": "uint256",
          "name": "newLevel",
          "type": "uint256"
        },
        {
          "indexed": false,
          "internalType": "uint256",
          "name": "newStage",
          "type": "uint256"
        },
        {
          "indexed": false,
          "internalType": "uint256",
          "name": "newXp",
          "type": "uint256"
        }
      ],
      "name": "MonsterUpdated",
      "type": "event"
    },
    {
      "anonymous": false,
      "inputs": [
        {
          "indexed": true,
          "internalType": "address",
          "name": "previousOwner",
          "type": "address"
        },
        {
          "indexed": true,
          "internalType": "address",
          "name": "newOwner",
          "type": "address"
        }
      ],
      "name": "OwnershipTransferred",
      "type": "event"
    },
    {
      "anonymous": false,
      "inputs": [
        {
          "indexed": true,
          "internalType": "address",
          "name": "from",
          "type": "address"
        },
        {
          "indexed": true,
          "internalType": "address",
          "name": "to",
          "type": "address"
        },
        {
          "indexed": true,
          "internalType": "uint256",
          "name": "tokenId",
          "type": "uint256"
        }
      ],
      "name": "Transfer",
      "type": "event"
    },
    {
      "anonymous": false,
      "inputs": [
        {
          "indexed": true,
          "internalType": "address",
          "name": "implementation",
          "type": "address"
        }
      ],
      "name": "Upgraded",
      "type": "event"
    },
    {
      "inputs": [
        {
          "internalType": "address",
          "name": "to",
          "type": "address"
        },
        {
          "internalType": "uint256",
          "name": "tokenId",
          "type": "uint256"
        }
      ],
      "name": "approve",
      "outputs": [],
      "stateMutability": "nonpayable",
      "type": "function"
    },
    {
      "inputs": [
        {
          "internalType": "address",
          "name": "owner",
          "type": "address"
        }
      ],
      "name": "balanceOf",
      "outputs": [
        {
          "internalType": "uint256",
          "name": "",
          "type": "uint256"
        }
      ],
      "stateMutability": "view",
      "type": "function"
    },
    {
      "inputs": [
        {
          "internalType": "uint256",
          "name": "tokenId",
          "type": "uint256"
        }
      ],
      "name": "getApproved",
      "outputs": [
        {
          "internalType": "address",
          "name": "",
          "type": "address"
        }
      ],
      "stateMutability": "view",
      "type": "function"
    },
    {
      "inputs": [],
      "name": "getHatchyTokenAddress",
      "outputs": [
        {
          "internalType": "address",
          "name": "",
          "type": "address"
        }
      ],
      "stateMutability": "view",
      "type": "function"
    },
    {
      "inputs": [
        {
          "internalType": "uint256",
          "name": "tokenId",
          "type": "uint256"
        }
      ],
      "name": "getMonster",
      "outputs": [
        {
          "components": [
            {
              "internalType": "uint256",
              "name": "uniqueId",
              "type": "uint256"
            },
            {
              "internalType": "uint256",
              "name": "monsterId",
              "type": "uint256"
            },
            {
              "internalType": "uint256",
              "name": "level",
              "type": "uint256"
            },
            {
              "internalType": "uint256",
              "name": "stage",
              "type": "uint256"
            },
            {
              "internalType": "uint256",
              "name": "xp",
              "type": "uint256"
            },
            {
              "components": [
                {
                  "internalType": "uint256",
                  "name": "skillId",
                  "type": "uint256"
                },
                {
                  "internalType": "uint256",
                  "name": "level",
                  "type": "uint256"
                }
              ],
              "internalType": "struct HatchyverseUltigen.Skill[]",
              "name": "skills",
              "type": "tuple[]"
            }
          ],
          "internalType": "struct HatchyverseUltigen.Monster",
          "name": "",
          "type": "tuple"
        }
      ],
      "stateMutability": "view",
      "type": "function"
    },
    {
      "inputs": [
        {
          "internalType": "uint256",
          "name": "tokenId",
          "type": "uint256"
        }
      ],
      "name": "getMonsterById",
      "outputs": [
        {
          "components": [
            {
              "internalType": "uint256",
              "name": "uniqueId",
              "type": "uint256"
            },
            {
              "internalType": "uint256",
              "name": "monsterId",
              "type": "uint256"
            },
            {
              "internalType": "uint256",
              "name": "level",
              "type": "uint256"
            },
            {
              "internalType": "uint256",
              "name": "stage",
              "type": "uint256"
            },
            {
              "internalType": "uint256",
              "name": "xp",
              "type": "uint256"
            },
            {
              "components": [
                {
                  "internalType": "uint256",
                  "name": "skillId",
                  "type": "uint256"
                },
                {
                  "internalType": "uint256",
                  "name": "level",
                  "type": "uint256"
                }
              ],
              "internalType": "struct HatchyverseUltigen.Skill[]",
              "name": "skills",
              "type": "tuple[]"
            }
          ],
          "internalType": "struct HatchyverseUltigen.Monster",
          "name": "",
          "type": "tuple"
        }
      ],
      "stateMutability": "view",
      "type": "function"
    },
    {
      "inputs": [],
      "name": "getNextUniqueId",
      "outputs": [
        {
          "internalType": "uint256",
          "name": "",
          "type": "uint256"
        }
      ],
      "stateMutability": "view",
      "type": "function"
    },
    {
      "inputs": [],
      "name": "hatchyToken",
      "outputs": [
        {
          "internalType": "contract IERC20",
          "name": "",
          "type": "address"
        }
      ],
      "stateMutability": "view",
      "type": "function"
    },
    {
      "inputs": [
        {
          "internalType": "address",
          "name": "_signer",
          "type": "address"
        },
        {
          "internalType": "address",
          "name": "_ultigenEggs",
          "type": "address"
        },
        {
          "internalType": "address",
          "name": "_hatchyToken",
          "type": "address"
        },
        {
          "internalType": "string",
          "name": "_baseUri",
          "type": "string"
        }
      ],
      "name": "initialize",
      "outputs": [],
      "stateMutability": "nonpayable",
      "type": "function"
    },
    {
      "inputs": [
        {
          "internalType": "address",
          "name": "owner",
          "type": "address"
        },
        {
          "internalType": "address",
          "name": "operator",
          "type": "address"
        }
      ],
      "name": "isApprovedForAll",
      "outputs": [
        {
          "internalType": "bool",
          "name": "",
          "type": "bool"
        }
      ],
      "stateMutability": "view",
      "type": "function"
    },
    {
      "inputs": [
        {
          "internalType": "address",
          "name": "to",
          "type": "address"
        },
        {
          "internalType": "uint256",
          "name": "monsterId",
          "type": "uint256"
        },
        {
          "internalType": "uint256",
          "name": "level",
          "type": "uint256"
        },
        {
          "internalType": "uint256",
          "name": "stage",
          "type": "uint256"
        },
        {
          "internalType": "uint256",
          "name": "xp",
          "type": "uint256"
        },
        {
          "components": [
            {
              "internalType": "uint256",
              "name": "skillId",
              "type": "uint256"
            },
            {
              "internalType": "uint256",
              "name": "level",
              "type": "uint256"
            }
          ],
          "internalType": "struct HatchyverseUltigen.Skill[]",
          "name": "skills",
          "type": "tuple[]"
        }
      ],
      "name": "mintMonster",
      "outputs": [],
      "stateMutability": "nonpayable",
      "type": "function"
    },
    {
      "inputs": [],
      "name": "name",
      "outputs": [
        {
          "internalType": "string",
          "name": "",
          "type": "string"
        }
      ],
      "stateMutability": "view",
      "type": "function"
    },
    {
      "inputs": [],
      "name": "owner",
      "outputs": [
        {
          "internalType": "address",
          "name": "",
          "type": "address"
        }
      ],
      "stateMutability": "view",
      "type": "function"
    },
    {
      "inputs": [
        {
          "internalType": "uint256",
          "name": "tokenId",
          "type": "uint256"
        }
      ],
      "name": "ownerOf",
      "outputs": [
        {
          "internalType": "address",
          "name": "",
          "type": "address"
        }
      ],
      "stateMutability": "view",
      "type": "function"
    },
    {
      "inputs": [],
      "name": "proxiableUUID",
      "outputs": [
        {
          "internalType": "bytes32",
          "name": "",
          "type": "bytes32"
        }
      ],
      "stateMutability": "view",
      "type": "function"
    },
    {
      "inputs": [],
      "name": "renounceOwnership",
      "outputs": [],
      "stateMutability": "nonpayable",
      "type": "function"
    },
    {
      "inputs": [
        {
          "internalType": "address",
          "name": "from",
          "type": "address"
        },
        {
          "internalType": "address",
          "name": "to",
          "type": "address"
        },
        {
          "internalType": "uint256",
          "name": "tokenId",
          "type": "uint256"
        }
      ],
      "name": "safeTransferFrom",
      "outputs": [],
      "stateMutability": "nonpayable",
      "type": "function"
    },
    {
      "inputs": [
        {
          "internalType": "address",
          "name": "from",
          "type": "address"
        },
        {
          "internalType": "address",
          "name": "to",
          "type": "address"
        },
        {
          "internalType": "uint256",
          "name": "tokenId",
          "type": "uint256"
        },
        {
          "internalType": "bytes",
          "name": "data",
          "type": "bytes"
        }
      ],
      "name": "safeTransferFrom",
      "outputs": [],
      "stateMutability": "nonpayable",
      "type": "function"
    },
    {
      "inputs": [
        {
          "internalType": "address",
          "name": "operator",
          "type": "address"
        },
        {
          "internalType": "bool",
          "name": "approved",
          "type": "bool"
        }
      ],
      "name": "setApprovalForAll",
      "outputs": [],
      "stateMutability": "nonpayable",
      "type": "function"
    },
    {
      "inputs": [
        {
          "internalType": "string",
          "name": "_baseUri",
          "type": "string"
        }
      ],
      "name": "setBaseURI",
      "outputs": [],
      "stateMutability": "nonpayable",
      "type": "function"
    },
    {
      "inputs": [
        {
          "internalType": "address",
          "name": "hatchyTokenAddress",
          "type": "address"
        }
      ],
      "name": "setHatchyTokenAddress",
      "outputs": [],
      "stateMutability": "nonpayable",
      "type": "function"
    },
    {
      "inputs": [
        {
          "internalType": "address",
          "name": "newSigner",
          "type": "address"
        }
      ],
      "name": "setSigner",
      "outputs": [],
      "stateMutability": "nonpayable",
      "type": "function"
    },
    {
      "inputs": [
        {
          "internalType": "address",
          "name": "newUltigenEggs",
          "type": "address"
        }
      ],
      "name": "setUltigenEggs",
      "outputs": [],
      "stateMutability": "nonpayable",
      "type": "function"
    },
    {
      "inputs": [],
      "name": "signer",
      "outputs": [
        {
          "internalType": "address",
          "name": "",
          "type": "address"
        }
      ],
      "stateMutability": "view",
      "type": "function"
    },
    {
      "inputs": [
        {
          "internalType": "bytes4",
          "name": "interfaceId",
          "type": "bytes4"
        }
      ],
      "name": "supportsInterface",
      "outputs": [
        {
          "internalType": "bool",
          "name": "",
          "type": "bool"
        }
      ],
      "stateMutability": "view",
      "type": "function"
    },
    {
      "inputs": [],
      "name": "symbol",
      "outputs": [
        {
          "internalType": "string",
          "name": "",
          "type": "string"
        }
      ],
      "stateMutability": "view",
      "type": "function"
    },
    {
      "inputs": [
        {
          "internalType": "uint256",
          "name": "index",
          "type": "uint256"
        }
      ],
      "name": "tokenByIndex",
      "outputs": [
        {
          "internalType": "uint256",
          "name": "",
          "type": "uint256"
        }
      ],
      "stateMutability": "view",
      "type": "function"
    },
    {
      "inputs": [
        {
          "internalType": "address",
          "name": "owner",
          "type": "address"
        },
        {
          "internalType": "uint256",
          "name": "index",
          "type": "uint256"
        }
      ],
      "name": "tokenOfOwnerByIndex",
      "outputs": [
        {
          "internalType": "uint256",
          "name": "",
          "type": "uint256"
        }
      ],
      "stateMutability": "view",
      "type": "function"
    },
    {
      "inputs": [
        {
          "internalType": "uint256",
          "name": "tokenId",
          "type": "uint256"
        }
      ],
      "name": "tokenURI",
      "outputs": [
        {
          "internalType": "string",
          "name": "",
          "type": "string"
        }
      ],
      "stateMutability": "view",
      "type": "function"
    },
    {
      "inputs": [],
      "name": "totalSupply",
      "outputs": [
        {
          "internalType": "uint256",
          "name": "",
          "type": "uint256"
        }
      ],
      "stateMutability": "view",
      "type": "function"
    },
    {
      "inputs": [
        {
          "internalType": "address",
          "name": "from",
          "type": "address"
        },
        {
          "internalType": "address",
          "name": "to",
          "type": "address"
        },
        {
          "internalType": "uint256",
          "name": "tokenId",
          "type": "uint256"
        }
      ],
      "name": "transferFrom",
      "outputs": [],
      "stateMutability": "nonpayable",
      "type": "function"
    },
    {
      "inputs": [
        {
          "internalType": "address",
          "name": "newOwner",
          "type": "address"
        }
      ],
      "name": "transferOwnership",
      "outputs": [],
      "stateMutability": "nonpayable",
      "type": "function"
    },
    {
      "inputs": [],
      "name": "ultigenEggs",
      "outputs": [
        {
          "internalType": "address",
          "name": "",
          "type": "address"
        }
      ],
      "stateMutability": "view",
      "type": "function"
    },
    {
      "inputs": [
        {
          "internalType": "uint256",
          "name": "tokenId",
          "type": "uint256"
        },
        {
          "internalType": "uint256",
          "name": "newMonsterId",
          "type": "uint256"
        },
        {
          "internalType": "uint256",
          "name": "newLevel",
          "type": "uint256"
        },
        {
          "internalType": "uint256",
          "name": "newStage",
          "type": "uint256"
        },
        {
          "internalType": "uint256",
          "name": "newXp",
          "type": "uint256"
        }
      ],
      "name": "updateMonster",
      "outputs": [],
      "stateMutability": "nonpayable",
      "type": "function"
    },
    {
      "inputs": [
        {
          "internalType": "address",
          "name": "newImplementation",
          "type": "address"
        }
      ],
      "name": "upgradeTo",
      "outputs": [],
      "stateMutability": "nonpayable",
      "type": "function"
    },
    {
      "inputs": [
        {
          "internalType": "address",
          "name": "newImplementation",
          "type": "address"
        },
        {
          "internalType": "bytes",
          "name": "data",
          "type": "bytes"
        }
      ],
      "name": "upgradeToAndCall",
      "outputs": [],
      "stateMutability": "payable",
      "type": "function"
    }
  ],
  "bytecode": "0x60a06040523060805234801561001457600080fd5b5060805161319c61004c60003960008181610b1101528181610b5101528181610d8f01528181610dcf0152610ef5015261319c6000f3fe60806040526004361061020f5760003560e01c80636352211e11610118578063a22cb465116100a0578063cd8479c31161006f578063cd8479c3146105f9578063d8f00f7f14610619578063e985e9c51461063a578063f2fde38b14610683578063f6797b8c146106a357600080fd5b8063a22cb46514610583578063b3c84fcb146105a3578063b88d4fde146105b9578063c87b56dd146105d957600080fd5b806370a08231116100e757806370a08231146104fa578063715018a61461051a57806375ec45e41461052f5780638da5cb5b1461055057806395d89b411461056e57600080fd5b80636352211e1461047a57806365e8e4f41461049a57806366b65633146104ba5780636c19e783146104da57600080fd5b806331adb52d1161019b5780634f1ef2861161016a5780634f1ef286146103e55780634f6ccce7146103f857806352d1902d1461041857806355f804b31461042d57806362fb6fe11461044d57600080fd5b806331adb52d146103655780633659cfe61461038557806339d46f76146103a557806342842e0e146103c557600080fd5b8063095ea7b3116101e2578063095ea7b3146102c557806318160ddd146102e5578063238ac9331461030457806323b872dd146103255780632f745c591461034557600080fd5b806301ffc9a7146102145780630563f2cb1461024957806306fdde031461026b578063081812fc1461028d575b600080fd5b34801561022057600080fd5b5061023461022f366004612728565b6106c2565b60405190151581526020015b60405180910390f35b34801561025557600080fd5b50610269610264366004612761565b6106ed565b005b34801561027757600080fd5b50610280610718565b60405161024091906127d4565b34801561029957600080fd5b506102ad6102a83660046127e7565b6107aa565b6040516001600160a01b039091168152602001610240565b3480156102d157600080fd5b506102696102e0366004612800565b6107d1565b3480156102f157600080fd5b506099545b604051908152602001610240565b34801561031057600080fd5b5061015f546102ad906001600160a01b031681565b34801561033157600080fd5b5061026961034036600461282a565b6108eb565b34801561035157600080fd5b506102f6610360366004612800565b61091c565b34801561037157600080fd5b50610269610380366004612866565b6109b2565b34801561039157600080fd5b506102696103a0366004612761565b610b07565b3480156103b157600080fd5b506102696103c0366004612911565b610be6565b3480156103d157600080fd5b506102696103e036600461282a565b610d6a565b6102696103f3366004612a85565b610d85565b34801561040457600080fd5b506102f66104133660046127e7565b610e55565b34801561042457600080fd5b506102f6610ee8565b34801561043957600080fd5b50610269610448366004612ad3565b610f9b565b34801561045957600080fd5b5061046d6104683660046127e7565b610fb0565b6040516102409190612b08565b34801561048657600080fd5b506102ad6104953660046127e7565b611110565b3480156104a657600080fd5b506102696104b5366004612b9a565b611170565b3480156104c657600080fd5b506102696104d5366004612761565b61133c565b3480156104e657600080fd5b506102696104f5366004612761565b611367565b34801561050657600080fd5b506102f6610515366004612761565b611392565b34801561052657600080fd5b50610269611418565b34801561053b57600080fd5b50610160546102ad906001600160a01b031681565b34801561055c57600080fd5b5060c9546001600160a01b03166102ad565b34801561057a57600080fd5b5061028061142c565b34801561058f57600080fd5b5061026961059e366004612c09565b61143b565b3480156105af57600080fd5b50610162546102f6565b3480156105c557600080fd5b506102696105d4366004612c45565b611446565b3480156105e557600080fd5b506102806105f43660046127e7565b61147e565b34801561060557600080fd5b5061046d6106143660046127e7565b611559565b34801561062557600080fd5b50610161546102ad906001600160a01b031681565b34801561064657600080fd5b50610234610655366004612c95565b6001600160a01b039182166000908152606a6020908152604080832093909416825291909152205460ff1690565b34801561068f57600080fd5b5061026961069e366004612761565b611592565b3480156106af57600080fd5b50610160546001600160a01b03166102ad565b60006001600160e01b0319821663780e9d6360e01b14806106e757506106e782611608565b92915050565b6106f5611658565b61016080546001600160a01b0319166001600160a01b0392909216919091179055565b60606065805461072790612cc8565b80601f016020809104026020016040519081016040528092919081815260200182805461075390612cc8565b80156107a05780601f10610775576101008083540402835291602001916107a0565b820191906000526020600020905b81548152906001019060200180831161078357829003601f168201915b5050505050905090565b60006107b5826116b2565b506000908152606960205260409020546001600160a01b031690565b60006107dc82611110565b9050806001600160a01b0316836001600160a01b03160361084e5760405162461bcd60e51b815260206004820152602160248201527f4552433732313a20617070726f76616c20746f2063757272656e74206f776e656044820152603960f91b60648201526084015b60405180910390fd5b336001600160a01b038216148061086a575061086a8133610655565b6108dc5760405162461bcd60e51b815260206004820152603d60248201527f4552433732313a20617070726f76652063616c6c6572206973206e6f7420746f60448201527f6b656e206f776e6572206f7220617070726f76656420666f7220616c6c0000006064820152608401610845565b6108e68383611711565b505050565b6108f5338261177f565b6109115760405162461bcd60e51b815260040161084590612d02565b6108e68383836117fe565b600061092783611392565b82106109895760405162461bcd60e51b815260206004820152602b60248201527f455243373231456e756d657261626c653a206f776e657220696e646578206f7560448201526a74206f6620626f756e647360a81b6064820152608401610845565b506001600160a01b03919091166000908152609760209081526040808320938352929052205490565b60c9546001600160a01b03163314806109d6575061015f546001600160a01b031633145b806109ec5750610161546001600160a01b031633145b610a335760405162461bcd60e51b815260206004820152601860248201527710d85b1b195c881a5cc81b9bdd08185d5d1a1bdc9a5e995960421b6044820152606401610845565b610a3d338661177f565b610a895760405162461bcd60e51b815260206004820181905260248201527f43616c6c6572206973206e6f74206f776e6572206e6f7220617070726f7665646044820152606401610845565b600085815261016360209081526040918290206001810187905560028101869055600381018590556004810184905582518781529182018690529181018490526060810183905286907fb70e68f6fd18262f55884ad7d689bdc61f52d169c76b2d367cf31cb1dab415969060800160405180910390a2505050505050565b6001600160a01b037f0000000000000000000000000000000000000000000000000000000000000000163003610b4f5760405162461bcd60e51b815260040161084590612d4f565b7f00000000000000000000000000000000000000000000000000000000000000006001600160a01b0316610b98600080516020613120833981519152546001600160a01b031690565b6001600160a01b031614610bbe5760405162461bcd60e51b815260040161084590612d9b565b610bc78161196f565b60408051600080825260208201909252610be391839190611977565b50565b60c9546001600160a01b0316331480610c0a575061015f546001600160a01b031633145b80610c205750610161546001600160a01b031633145b610c675760405162461bcd60e51b815260206004820152601860248201527710d85b1b195c881a5cc81b9bdd08185d5d1a1bdc9a5e995960421b6044820152606401610845565b61016280549081906000610c7a83612dfd565b9190505550610c898782611ae2565b60008181526101636020526040812082815560018101889055600281018790556003810186905560048101859055905b8351811015610d195781600501848281518110610cd857610cd8612e16565b602090810291909101810151825460018181018555600094855293839020825160029092020190815591015191015580610d1181612dfd565b915050610cb9565b50604080518381526020810189905283916001600160a01b038b16917f4ffea8258fd4ba8a26a47fda6aaec73595284de939dfd5209a47df2929f77e8e910160405180910390a35050505050505050565b6108e683838360405180602001604052806000815250611446565b6001600160a01b037f0000000000000000000000000000000000000000000000000000000000000000163003610dcd5760405162461bcd60e51b815260040161084590612d4f565b7f00000000000000000000000000000000000000000000000000000000000000006001600160a01b0316610e16600080516020613120833981519152546001600160a01b031690565b6001600160a01b031614610e3c5760405162461bcd60e51b815260040161084590612d9b565b610e458261196f565b610e5182826001611977565b5050565b6000610e6060995490565b8210610ec35760405162461bcd60e51b815260206004820152602c60248201527f455243373231456e756d657261626c653a20676c6f62616c20696e646578206f60448201526b7574206f6620626f756e647360a01b6064820152608401610845565b60998281548110610ed657610ed6612e16565b90600052602060002001549050919050565b6000306001600160a01b037f00000000000000000000000000000000000000000000000000000000000000001614610f885760405162461bcd60e51b815260206004820152603860248201527f555550535570677261646561626c653a206d757374206e6f742062652063616c60448201527f6c6564207468726f7567682064656c656761746563616c6c00000000000000006064820152608401610845565b5060008051602061312083398151915290565b610fa3611658565b610164610e518282612e7a565b610fe96040518060c001604052806000815260200160008152602001600081526020016000815260200160008152602001606081525090565b6000828152606760205260409020546001600160a01b03166110465760405162461bcd60e51b8152602060048201526016602482015275135bdb9cdd195c88191bd95cc81b9bdd08195e1a5cdd60521b6044820152606401610845565b61016360008381526020019081526020016000206040518060c0016040529081600082015481526020016001820154815260200160028201548152602001600382015481526020016004820154815260200160058201805480602002602001604051908101604052809291908181526020016000905b82821015611102578382906000526020600020906002020160405180604001604052908160008201548152602001600182015481525050815260200190600101906110bc565b505050915250909392505050565b6000818152606760205260408120546001600160a01b0316806106e75760405162461bcd60e51b8152602060048201526018602482015277115490cdcc8c4e881a5b9d985b1a59081d1bdad95b88125160421b6044820152606401610845565b600054610100900460ff16158080156111905750600054600160ff909116105b806111aa5750303b1580156111aa575060005460ff166001145b61120d5760405162461bcd60e51b815260206004820152602e60248201527f496e697469616c697a61626c653a20636f6e747261637420697320616c72656160448201526d191e481a5b9a5d1a585b1a5e995960921b6064820152608401610845565b6000805460ff191660011790558015611230576000805461ff0019166101001790555b611283604051806040016040528060128152602001712430ba31b43cbb32b939b2aab63a34b3b2b760711b815250604051806040016040528060078152602001662aa62a24a3a2a760c91b815250611afc565b61128b611b2d565b611293611b54565b61129b611b2d565b61015f80546001600160a01b038088166001600160a01b03199283161790925561016080548684169083161790556101618054928716929091169190911790556001610162556101646112ee8382612e7a565b508015611335576000805461ff0019169055604051600181527f7f26b83ff96e1f2b6a682f133852f6798a09c465da95921460cefb38474024989060200160405180910390a15b5050505050565b611344611658565b61016180546001600160a01b0319166001600160a01b0392909216919091179055565b61136f611658565b61015f80546001600160a01b0319166001600160a01b0392909216919091179055565b60006001600160a01b0382166113fc5760405162461bcd60e51b815260206004820152602960248201527f4552433732313a2061646472657373207a65726f206973206e6f7420612076616044820152683634b21037bbb732b960b91b6064820152608401610845565b506001600160a01b031660009081526068602052604090205490565b611420611658565b61142a6000611b83565b565b60606066805461072790612cc8565b610e51338383611bd5565b611450338361177f565b61146c5760405162461bcd60e51b815260040161084590612d02565b61147884848484611ca3565b50505050565b6000818152606760205260409020546060906001600160a01b03166114fd5760405162461bcd60e51b815260206004820152602f60248201527f4552433732314d657461646174613a2055524920717565727920666f72206e6f60448201526e3732bc34b9ba32b73a103a37b5b2b760891b6064820152608401610845565b6000611507611cd6565b905060008151116115275760405180602001604052806000815250611552565b8061153184611ce6565b604051602001611542929190612f3a565b6040516020818303038152906040525b9392505050565b6110466040518060c001604052806000815260200160008152602001600081526020016000815260200160008152602001606081525090565b61159a611658565b6001600160a01b0381166115ff5760405162461bcd60e51b815260206004820152602660248201527f4f776e61626c653a206e6577206f776e657220697320746865207a65726f206160448201526564647265737360d01b6064820152608401610845565b610be381611b83565b60006001600160e01b031982166380ac58cd60e01b148061163957506001600160e01b03198216635b5e139f60e01b145b806106e757506301ffc9a760e01b6001600160e01b03198316146106e7565b60c9546001600160a01b0316331461142a5760405162461bcd60e51b815260206004820181905260248201527f4f776e61626c653a2063616c6c6572206973206e6f7420746865206f776e65726044820152606401610845565b6000818152606760205260409020546001600160a01b0316610be35760405162461bcd60e51b8152602060048201526018602482015277115490cdcc8c4e881a5b9d985b1a59081d1bdad95b88125160421b6044820152606401610845565b600081815260696020526040902080546001600160a01b0319166001600160a01b038416908117909155819061174682611110565b6001600160a01b03167f8c5be1e5ebec7d5bd14f71427d1e84f3dd0314c0f7b2291e5b200ac8c7c3b92560405160405180910390a45050565b60008061178b83611110565b9050806001600160a01b0316846001600160a01b031614806117d257506001600160a01b038082166000908152606a602090815260408083209388168352929052205460ff165b806117f65750836001600160a01b03166117eb846107aa565b6001600160a01b0316145b949350505050565b826001600160a01b031661181182611110565b6001600160a01b0316146118375760405162461bcd60e51b815260040161084590612f69565b6001600160a01b0382166118995760405162461bcd60e51b8152602060048201526024808201527f4552433732313a207472616e7366657220746f20746865207a65726f206164646044820152637265737360e01b6064820152608401610845565b6118a68383836001611d79565b826001600160a01b03166118b982611110565b6001600160a01b0316146118df5760405162461bcd60e51b815260040161084590612f69565b600081815260696020908152604080832080546001600160a01b03199081169091556001600160a01b0387811680865260688552838620805460001901905590871680865283862080546001019055868652606790945282852080549092168417909155905184937fddf252ad1be2c89b69c2b068fc378daa952ba7f163c4a11628f55a4df523b3ef91a4505050565b610be3611658565b7f4910fdfa16fed3260ed0e7147f7cc6da11a60208b5b9406d12a635614ffd91435460ff16156119aa576108e683611eb2565b826001600160a01b03166352d1902d6040518163ffffffff1660e01b8152600401602060405180830381865afa925050508015611a04575060408051601f3d908101601f19168201909252611a0191810190612fae565b60015b611a675760405162461bcd60e51b815260206004820152602e60248201527f45524331393637557067726164653a206e657720696d706c656d656e7461746960448201526d6f6e206973206e6f74205555505360901b6064820152608401610845565b6000805160206131208339815191528114611ad65760405162461bcd60e51b815260206004820152602960248201527f45524331393637557067726164653a20756e737570706f727465642070726f786044820152681a58589b195555525160ba1b6064820152608401610845565b506108e6838383611f4e565b610e51828260405180602001604052806000815250611f73565b600054610100900460ff16611b235760405162461bcd60e51b815260040161084590612fc7565b610e518282611fa6565b600054610100900460ff1661142a5760405162461bcd60e51b815260040161084590612fc7565b600054610100900460ff16611b7b5760405162461bcd60e51b815260040161084590612fc7565b61142a611fe6565b60c980546001600160a01b038381166001600160a01b0319831681179093556040519116919082907f8be0079c531659141344cd1fd0a4f28419497f9722a3daafe3b4186f6b6457e090600090a35050565b816001600160a01b0316836001600160a01b031603611c365760405162461bcd60e51b815260206004820152601960248201527f4552433732313a20617070726f766520746f2063616c6c6572000000000000006044820152606401610845565b6001600160a01b038381166000818152606a6020908152604080832094871680845294825291829020805460ff191686151590811790915591519182527f17307eab39ab6107e8899845ad3d59bd9653f200f220920489ca2b5937696c31910160405180910390a3505050565b611cae8484846117fe565b611cba84848484612016565b6114785760405162461bcd60e51b815260040161084590613012565b6060610164805461072790612cc8565b60606000611cf383612117565b600101905060008167ffffffffffffffff811115611d1357611d136128a1565b6040519080825280601f01601f191660200182016040528015611d3d576020820181803683370190505b5090508181016020015b600019016f181899199a1a9b1b9c1cb0b131b232b360811b600a86061a8153600a8504945084611d4757509392505050565b611d85848484846121ef565b6001811115611df45760405162461bcd60e51b815260206004820152603560248201527f455243373231456e756d657261626c653a20636f6e7365637574697665207472604482015274185b9cd9995c9cc81b9bdd081cdd5c1c1bdc9d1959605a1b6064820152608401610845565b816001600160a01b038516611e5057611e4b81609980546000838152609a60205260408120829055600182018355919091527f72a152ddfb8e864297c917af52ea6c1c68aead0fee1a62673fcc7e0c94979d000155565b611e73565b836001600160a01b0316856001600160a01b031614611e7357611e738582612277565b6001600160a01b038416611e8f57611e8a81612314565b611335565b846001600160a01b0316846001600160a01b0316146113355761133584826123c3565b6001600160a01b0381163b611f1f5760405162461bcd60e51b815260206004820152602d60248201527f455243313936373a206e657720696d706c656d656e746174696f6e206973206e60448201526c1bdd08184818dbdb9d1c9858dd609a1b6064820152608401610845565b60008051602061312083398151915280546001600160a01b0319166001600160a01b0392909216919091179055565b611f5783612407565b600082511180611f645750805b156108e6576114788383612447565b611f7d838361253b565b611f8a6000848484612016565b6108e65760405162461bcd60e51b815260040161084590613012565b600054610100900460ff16611fcd5760405162461bcd60e51b815260040161084590612fc7565b6065611fd98382612e7a565b5060666108e68282612e7a565b600054610100900460ff1661200d5760405162461bcd60e51b815260040161084590612fc7565b61142a33611b83565b60006001600160a01b0384163b1561210c57604051630a85bd0160e11b81526001600160a01b0385169063150b7a029061205a903390899088908890600401613064565b6020604051808303816000875af1925050508015612095575060408051601f3d908101601f19168201909252612092918101906130a1565b60015b6120f2573d8080156120c3576040519150601f19603f3d011682016040523d82523d6000602084013e6120c8565b606091505b5080516000036120ea5760405162461bcd60e51b815260040161084590613012565b805181602001fd5b6001600160e01b031916630a85bd0160e11b1490506117f6565b506001949350505050565b60008072184f03e93ff9f4daa797ed6e38ed64bf6a1f0160401b83106121565772184f03e93ff9f4daa797ed6e38ed64bf6a1f0160401b830492506040015b6d04ee2d6d415b85acef81000000008310612182576d04ee2d6d415b85acef8100000000830492506020015b662386f26fc1000083106121a057662386f26fc10000830492506010015b6305f5e10083106121b8576305f5e100830492506008015b61271083106121cc57612710830492506004015b606483106121de576064830492506002015b600a83106106e75760010192915050565b6001811115611478576001600160a01b03841615612235576001600160a01b0384166000908152606860205260408120805483929061222f9084906130be565b90915550505b6001600160a01b03831615611478576001600160a01b0383166000908152606860205260408120805483929061226c9084906130d5565b909155505050505050565b6000600161228484611392565b61228e91906130be565b6000838152609860205260409020549091508082146122e1576001600160a01b03841660009081526097602090815260408083208584528252808320548484528184208190558352609890915290208190555b5060009182526098602090815260408084208490556001600160a01b039094168352609781528383209183525290812055565b609954600090612326906001906130be565b6000838152609a60205260408120546099805493945090928490811061234e5761234e612e16565b90600052602060002001549050806099838154811061236f5761236f612e16565b6000918252602080832090910192909255828152609a909152604080822084905585825281205560998054806123a7576123a76130ed565b6001900381819060005260206000200160009055905550505050565b60006123ce83611392565b6001600160a01b039093166000908152609760209081526040808320868452825280832085905593825260989052919091209190915550565b61241081611eb2565b6040516001600160a01b038216907fbc7cd75a20ee27fd9adebab32041f755214dbc6bffa90cc0225b39da2e5c2d3b90600090a250565b60606001600160a01b0383163b6124af5760405162461bcd60e51b815260206004820152602660248201527f416464726573733a2064656c65676174652063616c6c20746f206e6f6e2d636f6044820152651b9d1c9858dd60d21b6064820152608401610845565b600080846001600160a01b0316846040516124ca9190613103565b600060405180830381855af49150503d8060008114612505576040519150601f19603f3d011682016040523d82523d6000602084013e61250a565b606091505b50915091506125328282604051806060016040528060278152602001613140602791396126d4565b95945050505050565b6001600160a01b0382166125915760405162461bcd60e51b815260206004820181905260248201527f4552433732313a206d696e7420746f20746865207a65726f20616464726573736044820152606401610845565b6000818152606760205260409020546001600160a01b0316156125f65760405162461bcd60e51b815260206004820152601c60248201527f4552433732313a20746f6b656e20616c7265616479206d696e746564000000006044820152606401610845565b612604600083836001611d79565b6000818152606760205260409020546001600160a01b0316156126695760405162461bcd60e51b815260206004820152601c60248201527f4552433732313a20746f6b656e20616c7265616479206d696e746564000000006044820152606401610845565b6001600160a01b038216600081815260686020908152604080832080546001019055848352606790915280822080546001600160a01b0319168417905551839291907fddf252ad1be2c89b69c2b068fc378daa952ba7f163c4a11628f55a4df523b3ef908290a45050565b606083156126e3575081611552565b61155283838151156126f85781518083602001fd5b8060405162461bcd60e51b815260040161084591906127d4565b6001600160e01b031981168114610be357600080fd5b60006020828403121561273a57600080fd5b813561155281612712565b80356001600160a01b038116811461275c57600080fd5b919050565b60006020828403121561277357600080fd5b61155282612745565b60005b8381101561279757818101518382015260200161277f565b838111156114785750506000910152565b600081518084526127c081602086016020860161277c565b601f01601f19169290920160200192915050565b60208152600061155260208301846127a8565b6000602082840312156127f957600080fd5b5035919050565b6000806040838503121561281357600080fd5b61281c83612745565b946020939093013593505050565b60008060006060848603121561283f57600080fd5b61284884612745565b925061285660208501612745565b9150604084013590509250925092565b600080600080600060a0868803121561287e57600080fd5b505083359560208501359550604085013594606081013594506080013592509050565b634e487b7160e01b600052604160045260246000fd5b6040805190810167ffffffffffffffff811182821017156128da576128da6128a1565b60405290565b604051601f8201601f1916810167ffffffffffffffff81118282101715612909576129096128a1565b604052919050565b60008060008060008060c0878903121561292a57600080fd5b61293387612745565b955060208088013595506040808901359550606089013594506080890135935060a089013567ffffffffffffffff8082111561296e57600080fd5b818b0191508b601f83011261298257600080fd5b813581811115612994576129946128a1565b6129a2858260051b016128e0565b818152858101925060069190911b83018501908d8211156129c257600080fd5b928501925b81841015612a025784848f0312156129df5760008081fd5b6129e76128b7565b843581528685013587820152835292840192918501916129c7565b8096505050505050509295509295509295565b600082601f830112612a2657600080fd5b813567ffffffffffffffff811115612a4057612a406128a1565b612a53601f8201601f19166020016128e0565b818152846020838601011115612a6857600080fd5b816020850160208301376000918101602001919091529392505050565b60008060408385031215612a9857600080fd5b612aa183612745565b9150602083013567ffffffffffffffff811115612abd57600080fd5b612ac985828601612a15565b9150509250929050565b600060208284031215612ae557600080fd5b813567ffffffffffffffff811115612afc57600080fd5b6117f684828501612a15565b6000602080835260e08301845182850152818501516040818187015280870151606087015260608701516080870152608087015160a087015260a0870151915060c080870152828251808552610100880191508584019450600093505b80841015612b8e5784518051835286015186830152938501936001939093019290820190612b65565b50979650505050505050565b60008060008060808587031215612bb057600080fd5b612bb985612745565b9350612bc760208601612745565b9250612bd560408601612745565b9150606085013567ffffffffffffffff811115612bf157600080fd5b612bfd87828801612a15565b91505092959194509250565b60008060408385031215612c1c57600080fd5b612c2583612745565b915060208301358015158114612c3a57600080fd5b809150509250929050565b60008060008060808587031215612c5b57600080fd5b612c6485612745565b9350612c7260208601612745565b925060408501359150606085013567ffffffffffffffff811115612bf157600080fd5b60008060408385031215612ca857600080fd5b612cb183612745565b9150612cbf60208401612745565b90509250929050565b600181811c90821680612cdc57607f821691505b602082108103612cfc57634e487b7160e01b600052602260045260246000fd5b50919050565b6020808252602d908201527f4552433732313a2063616c6c6572206973206e6f7420746f6b656e206f776e6560408201526c1c881bdc88185c1c1c9bdd9959609a1b606082015260800190565b6020808252602c908201527f46756e6374696f6e206d7573742062652063616c6c6564207468726f7567682060408201526b19195b1959d85d1958d85b1b60a21b606082015260800190565b6020808252602c908201527f46756e6374696f6e206d7573742062652063616c6c6564207468726f7567682060408201526b6163746976652070726f787960a01b606082015260800190565b634e487b7160e01b600052601160045260246000fd5b600060018201612e0f57612e0f612de7565b5060010190565b634e487b7160e01b600052603260045260246000fd5b601f8211156108e657600081815260208120601f850160051c81016020861015612e535750805b601f850160051c820191505b81811015612e7257828155600101612e5f565b505050505050565b815167ffffffffffffffff811115612e9457612e946128a1565b612ea881612ea28454612cc8565b84612e2c565b602080601f831160018114612edd5760008415612ec55750858301515b600019600386901b1c1916600185901b178555612e72565b600085815260208120601f198616915b82811015612f0c57888601518255948401946001909101908401612eed565b5085821015612f2a5787850151600019600388901b60f8161c191681555b5050505050600190811b01905550565b60008351612f4c81846020880161277c565b835190830190612f6081836020880161277c565b01949350505050565b60208082526025908201527f4552433732313a207472616e736665722066726f6d20696e636f72726563742060408201526437bbb732b960d91b606082015260800190565b600060208284031215612fc057600080fd5b5051919050565b6020808252602b908201527f496e697469616c697a61626c653a20636f6e7472616374206973206e6f74206960408201526a6e697469616c697a696e6760a81b606082015260800190565b60208082526032908201527f4552433732313a207472616e7366657220746f206e6f6e20455243373231526560408201527131b2b4bb32b91034b6b83632b6b2b73a32b960711b606082015260800190565b6001600160a01b0385811682528416602082015260408101839052608060608201819052600090613097908301846127a8565b9695505050505050565b6000602082840312156130b357600080fd5b815161155281612712565b6000828210156130d0576130d0612de7565b500390565b600082198211156130e8576130e8612de7565b500190565b634e487b7160e01b600052603160045260246000fd5b6000825161311581846020870161277c565b919091019291505056fe360894a13ba1a3210667c828492db98dca3e2076cc3735a920a3ca505d382bbc416464726573733a206c6f772d6c6576656c2064656c65676174652063616c6c206661696c6564a26469706673582212204d51d6f1ab9766e59421f2df20dcc81367ac94fa6f5b7bf3ee8075d2a87977ea64736f6c634300080f0033",
  "linkReferences": {},
  "deployedLinkReferences": {}
}