{
  "_format": "hh-sol-artifact-1",
  "contractName": "HatchyverseUltigen",
  "sourceName": "contracts/ultigen/HatchyverseUltigen.sol",
  "abi": [
    {
      "anonymous": false,
      "inputs": [
        {
          "indexed": false,
          "internalType": "address",
          "name": "previousAdmin",
          "type": "address"
        },
        {
          "indexed": false,
          "internalType": "address",
          "name": "newAdmin",
          "type": "address"
        }
      ],
      "name": "AdminChanged",
      "type": "event"
    },
    {
      "anonymous": false,
      "inputs": [
        {
          "indexed": true,
          "internalType": "address",
          "name": "owner",
          "type": "address"
        },
        {
          "indexed": true,
          "internalType": "address",
          "name": "approved",
          "type": "address"
        },
        {
          "indexed": true,
          "internalType": "uint256",
          "name": "tokenId",
          "type": "uint256"
        }
      ],
      "name": "Approval",
      "type": "event"
    },
    {
      "anonymous": false,
      "inputs": [
        {
          "indexed": true,
          "internalType": "address",
          "name": "owner",
          "type": "address"
        },
        {
          "indexed": true,
          "internalType": "address",
          "name": "operator",
          "type": "address"
        },
        {
          "indexed": false,
          "internalType": "bool",
          "name": "approved",
          "type": "bool"
        }
      ],
      "name": "ApprovalForAll",
      "type": "event"
    },
    {
      "anonymous": false,
      "inputs": [
        {
          "indexed": true,
          "internalType": "address",
          "name": "beacon",
          "type": "address"
        }
      ],
      "name": "BeaconUpgraded",
      "type": "event"
    },
    {
      "anonymous": false,
      "inputs": [
        {
          "indexed": false,
          "internalType": "uint8",
          "name": "version",
          "type": "uint8"
        }
      ],
      "name": "Initialized",
      "type": "event"
    },
    {
      "anonymous": false,
      "inputs": [
        {
          "indexed": true,
          "internalType": "address",
          "name": "owner",
          "type": "address"
        },
        {
          "indexed": true,
          "internalType": "uint256",
          "name": "tokenId",
          "type": "uint256"
        },
        {
          "indexed": false,
          "internalType": "uint256",
          "name": "uniqueId",
          "type": "uint256"
        },
        {
          "indexed": false,
          "internalType": "uint256",
          "name": "monsterId",
          "type": "uint256"
        }
      ],
      "name": "MonsterMinted",
      "type": "event"
    },
    {
      "anonymous": false,
      "inputs": [
        {
          "indexed": true,
          "internalType": "uint256",
          "name": "tokenId",
          "type": "uint256"
        },
        {
          "indexed": false,
          "internalType": "uint256",
          "name": "newMonsterId",
          "type": "uint256"
        },
        {
          "indexed": false,
          "internalType": "uint256",
          "name": "newLevel",
          "type": "uint256"
        },
        {
          "indexed": false,
          "internalType": "uint256",
          "name": "newStage",
          "type": "uint256"
        },
        {
          "indexed": false,
          "internalType": "uint256",
          "name": "newXp",
          "type": "uint256"
        }
      ],
      "name": "MonsterUpdated",
      "type": "event"
    },
    {
      "anonymous": false,
      "inputs": [
        {
          "indexed": true,
          "internalType": "address",
          "name": "previousOwner",
          "type": "address"
        },
        {
          "indexed": true,
          "internalType": "address",
          "name": "newOwner",
          "type": "address"
        }
      ],
      "name": "OwnershipTransferred",
      "type": "event"
    },
    {
      "anonymous": false,
      "inputs": [
        {
          "indexed": true,
          "internalType": "address",
          "name": "account",
          "type": "address"
        }
      ],
      "name": "SignerChange",
      "type": "event"
    },
    {
      "anonymous": false,
      "inputs": [
        {
          "indexed": true,
          "internalType": "address",
          "name": "from",
          "type": "address"
        },
        {
          "indexed": true,
          "internalType": "address",
          "name": "to",
          "type": "address"
        },
        {
          "indexed": true,
          "internalType": "uint256",
          "name": "tokenId",
          "type": "uint256"
        }
      ],
      "name": "Transfer",
      "type": "event"
    },
    {
      "anonymous": false,
      "inputs": [
        {
          "indexed": true,
          "internalType": "address",
          "name": "implementation",
          "type": "address"
        }
      ],
      "name": "Upgraded",
      "type": "event"
    },
    {
      "inputs": [
        {
          "internalType": "bytes",
          "name": "",
          "type": "bytes"
        }
      ],
      "name": "UsedSignatures",
      "outputs": [
        {
          "internalType": "bool",
          "name": "",
          "type": "bool"
        }
      ],
      "stateMutability": "view",
      "type": "function"
    },
    {
      "inputs": [
        {
          "internalType": "address",
          "name": "to",
          "type": "address"
        },
        {
          "internalType": "uint256",
          "name": "tokenId",
          "type": "uint256"
        }
      ],
      "name": "approve",
      "outputs": [],
      "stateMutability": "nonpayable",
      "type": "function"
    },
    {
      "inputs": [
        {
          "internalType": "address",
          "name": "owner",
          "type": "address"
        }
      ],
      "name": "balanceOf",
      "outputs": [
        {
          "internalType": "uint256",
          "name": "",
          "type": "uint256"
        }
      ],
      "stateMutability": "view",
      "type": "function"
    },
    {
      "inputs": [
        {
          "components": [
            {
              "internalType": "address",
              "name": "receiver",
              "type": "address"
            },
            {
              "internalType": "uint256",
              "name": "tokenId",
              "type": "uint256"
            },
            {
              "internalType": "uint256",
              "name": "newMonsterId",
              "type": "uint256"
            },
            {
              "internalType": "uint256",
              "name": "newLevel",
              "type": "uint256"
            },
            {
              "internalType": "uint256",
              "name": "newStage",
              "type": "uint256"
            },
            {
              "internalType": "uint256",
              "name": "newXp",
              "type": "uint256"
            },
            {
              "internalType": "uint256",
              "name": "voucherId",
              "type": "uint256"
            },
            {
              "internalType": "bytes",
              "name": "signature",
              "type": "bytes"
            }
          ],
          "internalType": "struct UpdateMonsterPayload",
          "name": "payload",
          "type": "tuple"
        }
      ],
      "name": "encodePackedUpdateMonsterData",
      "outputs": [
        {
          "internalType": "bytes32",
          "name": "",
          "type": "bytes32"
        }
      ],
      "stateMutability": "pure",
      "type": "function"
    },
    {
      "inputs": [
        {
          "internalType": "uint256",
          "name": "tokenId",
          "type": "uint256"
        }
      ],
      "name": "getApproved",
      "outputs": [
        {
          "internalType": "address",
          "name": "",
          "type": "address"
        }
      ],
      "stateMutability": "view",
      "type": "function"
    },
    {
      "inputs": [],
      "name": "getHatchyTokenAddress",
      "outputs": [
        {
          "internalType": "address",
          "name": "",
          "type": "address"
        }
      ],
      "stateMutability": "view",
      "type": "function"
    },
    {
      "inputs": [
        {
          "internalType": "uint256",
          "name": "tokenId",
          "type": "uint256"
        }
      ],
      "name": "getMonster",
      "outputs": [
        {
          "components": [
            {
              "internalType": "uint256",
              "name": "uniqueId",
              "type": "uint256"
            },
            {
              "internalType": "uint256",
              "name": "monsterId",
              "type": "uint256"
            },
            {
              "internalType": "uint256",
              "name": "level",
              "type": "uint256"
            },
            {
              "internalType": "uint256",
              "name": "stage",
              "type": "uint256"
            },
            {
              "internalType": "uint256",
              "name": "xp",
              "type": "uint256"
            },
            {
              "components": [
                {
                  "internalType": "uint256",
                  "name": "skillId",
                  "type": "uint256"
                },
                {
                  "internalType": "uint256",
                  "name": "level",
                  "type": "uint256"
                }
              ],
              "internalType": "struct HatchyverseUltigen.Skill[]",
              "name": "skills",
              "type": "tuple[]"
            }
          ],
          "internalType": "struct HatchyverseUltigen.Monster",
          "name": "",
          "type": "tuple"
        }
      ],
      "stateMutability": "view",
      "type": "function"
    },
    {
      "inputs": [
        {
          "internalType": "uint256",
          "name": "tokenId",
          "type": "uint256"
        }
      ],
      "name": "getMonsterById",
      "outputs": [
        {
          "components": [
            {
              "internalType": "uint256",
              "name": "uniqueId",
              "type": "uint256"
            },
            {
              "internalType": "uint256",
              "name": "monsterId",
              "type": "uint256"
            },
            {
              "internalType": "uint256",
              "name": "level",
              "type": "uint256"
            },
            {
              "internalType": "uint256",
              "name": "stage",
              "type": "uint256"
            },
            {
              "internalType": "uint256",
              "name": "xp",
              "type": "uint256"
            },
            {
              "components": [
                {
                  "internalType": "uint256",
                  "name": "skillId",
                  "type": "uint256"
                },
                {
                  "internalType": "uint256",
                  "name": "level",
                  "type": "uint256"
                }
              ],
              "internalType": "struct HatchyverseUltigen.Skill[]",
              "name": "skills",
              "type": "tuple[]"
            }
          ],
          "internalType": "struct HatchyverseUltigen.Monster",
          "name": "",
          "type": "tuple"
        }
      ],
      "stateMutability": "view",
      "type": "function"
    },
    {
      "inputs": [],
      "name": "getNextUniqueId",
      "outputs": [
        {
          "internalType": "uint256",
          "name": "",
          "type": "uint256"
        }
      ],
      "stateMutability": "view",
      "type": "function"
    },
    {
      "inputs": [],
      "name": "hatchyToken",
      "outputs": [
        {
          "internalType": "contract IERC20",
          "name": "",
          "type": "address"
        }
      ],
      "stateMutability": "view",
      "type": "function"
    },
    {
      "inputs": [
        {
          "internalType": "address",
          "name": "_signer",
          "type": "address"
        },
        {
          "internalType": "address",
          "name": "_ultigenEggs",
          "type": "address"
        },
        {
          "internalType": "address",
          "name": "_hatchyToken",
          "type": "address"
        },
        {
          "internalType": "string",
          "name": "_baseUri",
          "type": "string"
        }
      ],
      "name": "initialize",
      "outputs": [],
      "stateMutability": "nonpayable",
      "type": "function"
    },
    {
      "inputs": [
        {
          "internalType": "address",
          "name": "owner",
          "type": "address"
        },
        {
          "internalType": "address",
          "name": "operator",
          "type": "address"
        }
      ],
      "name": "isApprovedForAll",
      "outputs": [
        {
          "internalType": "bool",
          "name": "",
          "type": "bool"
        }
      ],
      "stateMutability": "view",
      "type": "function"
    },
    {
      "inputs": [
        {
          "internalType": "address",
          "name": "to",
          "type": "address"
        },
        {
          "internalType": "uint256",
          "name": "monsterId",
          "type": "uint256"
        },
        {
          "internalType": "uint256",
          "name": "level",
          "type": "uint256"
        },
        {
          "internalType": "uint256",
          "name": "stage",
          "type": "uint256"
        },
        {
          "internalType": "uint256",
          "name": "xp",
          "type": "uint256"
        },
        {
          "components": [
            {
              "internalType": "uint256",
              "name": "skillId",
              "type": "uint256"
            },
            {
              "internalType": "uint256",
              "name": "level",
              "type": "uint256"
            }
          ],
          "internalType": "struct HatchyverseUltigen.Skill[]",
          "name": "skills",
          "type": "tuple[]"
        }
      ],
      "name": "mintMonster",
      "outputs": [],
      "stateMutability": "nonpayable",
      "type": "function"
    },
    {
      "inputs": [],
      "name": "name",
      "outputs": [
        {
          "internalType": "string",
          "name": "",
          "type": "string"
        }
      ],
      "stateMutability": "view",
      "type": "function"
    },
    {
      "inputs": [],
      "name": "owner",
      "outputs": [
        {
          "internalType": "address",
          "name": "",
          "type": "address"
        }
      ],
      "stateMutability": "view",
      "type": "function"
    },
    {
      "inputs": [
        {
          "internalType": "uint256",
          "name": "tokenId",
          "type": "uint256"
        }
      ],
      "name": "ownerOf",
      "outputs": [
        {
          "internalType": "address",
          "name": "",
          "type": "address"
        }
      ],
      "stateMutability": "view",
      "type": "function"
    },
    {
      "inputs": [],
      "name": "proxiableUUID",
      "outputs": [
        {
          "internalType": "bytes32",
          "name": "",
          "type": "bytes32"
        }
      ],
      "stateMutability": "view",
      "type": "function"
    },
    {
      "inputs": [],
      "name": "renounceOwnership",
      "outputs": [],
      "stateMutability": "nonpayable",
      "type": "function"
    },
    {
      "inputs": [
        {
          "internalType": "address",
          "name": "from",
          "type": "address"
        },
        {
          "internalType": "address",
          "name": "to",
          "type": "address"
        },
        {
          "internalType": "uint256",
          "name": "tokenId",
          "type": "uint256"
        }
      ],
      "name": "safeTransferFrom",
      "outputs": [],
      "stateMutability": "nonpayable",
      "type": "function"
    },
    {
      "inputs": [
        {
          "internalType": "address",
          "name": "from",
          "type": "address"
        },
        {
          "internalType": "address",
          "name": "to",
          "type": "address"
        },
        {
          "internalType": "uint256",
          "name": "tokenId",
          "type": "uint256"
        },
        {
          "internalType": "bytes",
          "name": "data",
          "type": "bytes"
        }
      ],
      "name": "safeTransferFrom",
      "outputs": [],
      "stateMutability": "nonpayable",
      "type": "function"
    },
    {
      "inputs": [
        {
          "internalType": "address",
          "name": "operator",
          "type": "address"
        },
        {
          "internalType": "bool",
          "name": "approved",
          "type": "bool"
        }
      ],
      "name": "setApprovalForAll",
      "outputs": [],
      "stateMutability": "nonpayable",
      "type": "function"
    },
    {
      "inputs": [
        {
          "internalType": "string",
          "name": "_baseUri",
          "type": "string"
        }
      ],
      "name": "setBaseURI",
      "outputs": [],
      "stateMutability": "nonpayable",
      "type": "function"
    },
    {
      "inputs": [
        {
          "internalType": "address",
          "name": "hatchyTokenAddress",
          "type": "address"
        }
      ],
      "name": "setHatchyTokenAddress",
      "outputs": [],
      "stateMutability": "nonpayable",
      "type": "function"
    },
    {
      "inputs": [
        {
          "internalType": "address",
          "name": "account",
          "type": "address"
        }
      ],
      "name": "setSigner",
      "outputs": [],
      "stateMutability": "nonpayable",
      "type": "function"
    },
    {
      "inputs": [
        {
          "internalType": "address",
          "name": "newUltigenEggs",
          "type": "address"
        }
      ],
      "name": "setUltigenEggs",
      "outputs": [],
      "stateMutability": "nonpayable",
      "type": "function"
    },
    {
      "inputs": [],
      "name": "signer",
      "outputs": [
        {
          "internalType": "address",
          "name": "",
          "type": "address"
        }
      ],
      "stateMutability": "view",
      "type": "function"
    },
    {
      "inputs": [
        {
          "internalType": "bytes4",
          "name": "interfaceId",
          "type": "bytes4"
        }
      ],
      "name": "supportsInterface",
      "outputs": [
        {
          "internalType": "bool",
          "name": "",
          "type": "bool"
        }
      ],
      "stateMutability": "view",
      "type": "function"
    },
    {
      "inputs": [],
      "name": "symbol",
      "outputs": [
        {
          "internalType": "string",
          "name": "",
          "type": "string"
        }
      ],
      "stateMutability": "view",
      "type": "function"
    },
    {
      "inputs": [
        {
          "internalType": "uint256",
          "name": "index",
          "type": "uint256"
        }
      ],
      "name": "tokenByIndex",
      "outputs": [
        {
          "internalType": "uint256",
          "name": "",
          "type": "uint256"
        }
      ],
      "stateMutability": "view",
      "type": "function"
    },
    {
      "inputs": [
        {
          "internalType": "address",
          "name": "owner",
          "type": "address"
        },
        {
          "internalType": "uint256",
          "name": "index",
          "type": "uint256"
        }
      ],
      "name": "tokenOfOwnerByIndex",
      "outputs": [
        {
          "internalType": "uint256",
          "name": "",
          "type": "uint256"
        }
      ],
      "stateMutability": "view",
      "type": "function"
    },
    {
      "inputs": [
        {
          "internalType": "uint256",
          "name": "tokenId",
          "type": "uint256"
        }
      ],
      "name": "tokenURI",
      "outputs": [
        {
          "internalType": "string",
          "name": "",
          "type": "string"
        }
      ],
      "stateMutability": "view",
      "type": "function"
    },
    {
      "inputs": [],
      "name": "totalSupply",
      "outputs": [
        {
          "internalType": "uint256",
          "name": "",
          "type": "uint256"
        }
      ],
      "stateMutability": "view",
      "type": "function"
    },
    {
      "inputs": [
        {
          "internalType": "address",
          "name": "from",
          "type": "address"
        },
        {
          "internalType": "address",
          "name": "to",
          "type": "address"
        },
        {
          "internalType": "uint256",
          "name": "tokenId",
          "type": "uint256"
        }
      ],
      "name": "transferFrom",
      "outputs": [],
      "stateMutability": "nonpayable",
      "type": "function"
    },
    {
      "inputs": [
        {
          "internalType": "address",
          "name": "newOwner",
          "type": "address"
        }
      ],
      "name": "transferOwnership",
      "outputs": [],
      "stateMutability": "nonpayable",
      "type": "function"
    },
    {
      "inputs": [],
      "name": "ultigenEggs",
      "outputs": [
        {
          "internalType": "address",
          "name": "",
          "type": "address"
        }
      ],
      "stateMutability": "view",
      "type": "function"
    },
    {
      "inputs": [
        {
          "internalType": "uint256",
          "name": "tokenId",
          "type": "uint256"
        },
        {
          "internalType": "uint256",
          "name": "newMonsterId",
          "type": "uint256"
        },
        {
          "internalType": "uint256",
          "name": "newLevel",
          "type": "uint256"
        },
        {
          "internalType": "uint256",
          "name": "newStage",
          "type": "uint256"
        },
        {
          "internalType": "uint256",
          "name": "newXp",
          "type": "uint256"
        }
      ],
      "name": "updateMonster",
      "outputs": [],
      "stateMutability": "nonpayable",
      "type": "function"
    },
    {
      "inputs": [
        {
          "components": [
            {
              "internalType": "address",
              "name": "receiver",
              "type": "address"
            },
            {
              "internalType": "uint256",
              "name": "tokenId",
              "type": "uint256"
            },
            {
              "internalType": "uint256",
              "name": "newMonsterId",
              "type": "uint256"
            },
            {
              "internalType": "uint256",
              "name": "newLevel",
              "type": "uint256"
            },
            {
              "internalType": "uint256",
              "name": "newStage",
              "type": "uint256"
            },
            {
              "internalType": "uint256",
              "name": "newXp",
              "type": "uint256"
            },
            {
              "internalType": "uint256",
              "name": "voucherId",
              "type": "uint256"
            },
            {
              "internalType": "bytes",
              "name": "signature",
              "type": "bytes"
            }
          ],
          "internalType": "struct UpdateMonsterPayload",
          "name": "payload",
          "type": "tuple"
        }
      ],
      "name": "updateMonsterWithSignature",
      "outputs": [],
      "stateMutability": "nonpayable",
      "type": "function"
    },
    {
      "inputs": [
        {
          "internalType": "address",
          "name": "newImplementation",
          "type": "address"
        }
      ],
      "name": "upgradeTo",
      "outputs": [],
      "stateMutability": "nonpayable",
      "type": "function"
    },
    {
      "inputs": [
        {
          "internalType": "address",
          "name": "newImplementation",
          "type": "address"
        },
        {
          "internalType": "bytes",
          "name": "data",
          "type": "bytes"
        }
      ],
      "name": "upgradeToAndCall",
      "outputs": [],
      "stateMutability": "payable",
      "type": "function"
    }
  ],
  "bytecode": "0x60a06040523060805234801561001457600080fd5b5060805161399f61004c60003960008181610b5801528181610b9801528181610dd601528181610e160152610f3c015261399f6000f3fe6080604052600436106102305760003560e01c80636352211e1161012e578063a22cb465116100ab578063d8f00f7f1161006f578063d8f00f7f14610696578063e985e9c5146106b7578063f2fde38b14610700578063f6797b8c14610720578063f8285f861461073f57600080fd5b8063a22cb46514610600578063b3c84fcb14610620578063b88d4fde14610636578063c87b56dd14610656578063cd8479c31461067657600080fd5b8063715018a6116100f2578063715018a61461055b57806375ec45e4146105705780638da5cb5b146105915780638e3d792a146105af57806395d89b41146105eb57600080fd5b80636352211e146104bb57806365e8e4f4146104db57806366b65633146104fb5780636c19e7831461051b57806370a082311461053b57600080fd5b806331adb52d116101bc5780634f6ccce7116101805780634f6ccce71461041957806352d1902d1461043957806355f804b31461044e5780635e559cd31461046e57806362fb6fe11461048e57600080fd5b806331adb52d146103865780633659cfe6146103a657806339d46f76146103c657806342842e0e146103e65780634f1ef2861461040657600080fd5b8063095ea7b311610203578063095ea7b3146102e657806318160ddd14610306578063238ac9331461032557806323b872dd146103465780632f745c591461036657600080fd5b806301ffc9a7146102355780630563f2cb1461026a57806306fdde031461028c578063081812fc146102ae575b600080fd5b34801561024157600080fd5b50610255610250366004612e36565b61075f565b60405190151581526020015b60405180910390f35b34801561027657600080fd5b5061028a610285366004612e6f565b61078a565b005b34801561029857600080fd5b506102a16107b5565b6040516102619190612ee2565b3480156102ba57600080fd5b506102ce6102c9366004612ef5565b610847565b6040516001600160a01b039091168152602001610261565b3480156102f257600080fd5b5061028a610301366004612f0e565b61086e565b34801561031257600080fd5b506099545b604051908152602001610261565b34801561033157600080fd5b50610192546102ce906001600160a01b031681565b34801561035257600080fd5b5061028a610361366004612f38565b610988565b34801561037257600080fd5b50610317610381366004612f0e565b6109b9565b34801561039257600080fd5b5061028a6103a1366004612f74565b610a4f565b3480156103b257600080fd5b5061028a6103c1366004612e6f565b610b4e565b3480156103d257600080fd5b5061028a6103e1366004613043565b610c2d565b3480156103f257600080fd5b5061028a610401366004612f38565b610db1565b61028a6104143660046131b7565b610dcc565b34801561042557600080fd5b50610317610434366004612ef5565b610e9c565b34801561044557600080fd5b50610317610f2f565b34801561045a57600080fd5b5061028a610469366004613205565b610fe2565b34801561047a57600080fd5b5061028a61048936600461323a565b610ff7565b34801561049a57600080fd5b506104ae6104a9366004612ef5565b611289565b60405161026191906132f5565b3480156104c757600080fd5b506102ce6104d6366004612ef5565b6113da565b3480156104e757600080fd5b5061028a6104f6366004613387565b61143a565b34801561050757600080fd5b5061028a610516366004612e6f565b611601565b34801561052757600080fd5b5061028a610536366004612e6f565b61162c565b34801561054757600080fd5b50610317610556366004612e6f565b61167f565b34801561056757600080fd5b5061028a611705565b34801561057c57600080fd5b50610193546102ce906001600160a01b031681565b34801561059d57600080fd5b5060fb546001600160a01b03166102ce565b3480156105bb57600080fd5b506102556105ca366004613205565b80516020818301810180516101918252928201919093012091525460ff1681565b3480156105f757600080fd5b506102a1611719565b34801561060c57600080fd5b5061028a61061b3660046133f6565b611728565b34801561062c57600080fd5b5061019554610317565b34801561064257600080fd5b5061028a610651366004613432565b611733565b34801561066257600080fd5b506102a1610671366004612ef5565b61176b565b34801561068257600080fd5b506104ae610691366004612ef5565b611836565b3480156106a257600080fd5b50610194546102ce906001600160a01b031681565b3480156106c357600080fd5b506102556106d2366004613482565b6001600160a01b039182166000908152606a6020908152604080832093909416825291909152205460ff1690565b34801561070c57600080fd5b5061028a61071b366004612e6f565b61186f565b34801561072c57600080fd5b50610193546001600160a01b03166102ce565b34801561074b57600080fd5b5061031761075a36600461323a565b6118e5565b60006001600160e01b0319821663780e9d6360e01b1480610784575061078482611976565b92915050565b6107926119c6565b61019380546001600160a01b0319166001600160a01b0392909216919091179055565b6060606580546107c4906134b5565b80601f01602080910402602001604051908101604052809291908181526020018280546107f0906134b5565b801561083d5780601f106108125761010080835404028352916020019161083d565b820191906000526020600020905b81548152906001019060200180831161082057829003601f168201915b5050505050905090565b600061085282611a20565b506000908152606960205260409020546001600160a01b031690565b6000610879826113da565b9050806001600160a01b0316836001600160a01b0316036108eb5760405162461bcd60e51b815260206004820152602160248201527f4552433732313a20617070726f76616c20746f2063757272656e74206f776e656044820152603960f91b60648201526084015b60405180910390fd5b336001600160a01b0382161480610907575061090781336106d2565b6109795760405162461bcd60e51b815260206004820152603d60248201527f4552433732313a20617070726f76652063616c6c6572206973206e6f7420746f60448201527f6b656e206f776e6572206f7220617070726f76656420666f7220616c6c00000060648201526084016108e2565b6109838383611a70565b505050565b6109923382611ade565b6109ae5760405162461bcd60e51b81526004016108e2906134ef565b610983838383611b5d565b60006109c48361167f565b8210610a265760405162461bcd60e51b815260206004820152602b60248201527f455243373231456e756d657261626c653a206f776e657220696e646578206f7560448201526a74206f6620626f756e647360a81b60648201526084016108e2565b506001600160a01b03919091166000908152609760209081526040808320938352929052205490565b60fb546001600160a01b0316331480610a735750610192546001600160a01b031633145b80610a895750610194546001600160a01b031633145b610ad05760405162461bcd60e51b815260206004820152601860248201527710d85b1b195c881a5cc81b9bdd08185d5d1a1bdc9a5e995960421b60448201526064016108e2565b600085815261019660209081526040918290206001810187905560028101869055600381018590556004810184905582518781529182018690529181018490526060810183905286907fb70e68f6fd18262f55884ad7d689bdc61f52d169c76b2d367cf31cb1dab415969060800160405180910390a2505050505050565b6001600160a01b037f0000000000000000000000000000000000000000000000000000000000000000163003610b965760405162461bcd60e51b81526004016108e29061353c565b7f00000000000000000000000000000000000000000000000000000000000000006001600160a01b0316610bdf600080516020613923833981519152546001600160a01b031690565b6001600160a01b031614610c055760405162461bcd60e51b81526004016108e290613588565b610c0e81611cce565b60408051600080825260208201909252610c2a91839190611cd6565b50565b60fb546001600160a01b0316331480610c515750610192546001600160a01b031633145b80610c675750610194546001600160a01b031633145b610cae5760405162461bcd60e51b815260206004820152601860248201527710d85b1b195c881a5cc81b9bdd08185d5d1a1bdc9a5e995960421b60448201526064016108e2565b61019580549081906000610cc1836135ea565b9190505550610cd08782611e41565b60008181526101966020526040812082815560018101889055600281018790556003810186905560048101859055905b8351811015610d605781600501848281518110610d1f57610d1f613603565b602090810291909101810151825460018181018555600094855293839020825160029092020190815591015191015580610d58816135ea565b915050610d00565b50604080518381526020810189905283916001600160a01b038b16917f4ffea8258fd4ba8a26a47fda6aaec73595284de939dfd5209a47df2929f77e8e910160405180910390a35050505050505050565b61098383838360405180602001604052806000815250611733565b6001600160a01b037f0000000000000000000000000000000000000000000000000000000000000000163003610e145760405162461bcd60e51b81526004016108e29061353c565b7f00000000000000000000000000000000000000000000000000000000000000006001600160a01b0316610e5d600080516020613923833981519152546001600160a01b031690565b6001600160a01b031614610e835760405162461bcd60e51b81526004016108e290613588565b610e8c82611cce565b610e9882826001611cd6565b5050565b6000610ea760995490565b8210610f0a5760405162461bcd60e51b815260206004820152602c60248201527f455243373231456e756d657261626c653a20676c6f62616c20696e646578206f60448201526b7574206f6620626f756e647360a01b60648201526084016108e2565b60998281548110610f1d57610f1d613603565b90600052602060002001549050919050565b6000306001600160a01b037f00000000000000000000000000000000000000000000000000000000000000001614610fcf5760405162461bcd60e51b815260206004820152603860248201527f555550535570677261646561626c653a206d757374206e6f742062652063616c60448201527f6c6564207468726f7567682064656c656761746563616c6c000000000000000060648201526084016108e2565b5060008051602061392383398151915290565b610fea6119c6565b610197610e988282613667565b610fff611e5b565b805160e08201513390611011846118e5565b826001600160a01b0316846001600160a01b0316146040518060400160405280600e81526020016d2bb937b733903932b1b2b4bb32b960911b8152509061106b5760405162461bcd60e51b81526004016108e29190612ee2565b5061107582611eb6565b1560405180604001604052806011815260200170496e76616c6964205369676e617475726560781b815250906110be5760405162461bcd60e51b81526004016108e29190612ee2565b506110c882611ee2565b60006110ec6110d78484611f18565b610192546001600160a01b0390811691161490565b90508060405180604001604052806011815260200170496e76616c6964205369676e617475726560781b815250906111375760405162461bcd60e51b81526004016108e29190612ee2565b506111458660200151611f2d565b61118a5760405162461bcd60e51b8152602060048201526016602482015275135bdb9cdd195c88191bd95cc81b9bdd08195e1a5cdd60521b60448201526064016108e2565b85600001516001600160a01b03166111a587602001516113da565b6001600160a01b0316146111eb5760405162461bcd60e51b815260206004820152600d60248201526c2737ba103a34329037bbb732b960991b60448201526064016108e2565b6020868101805160009081526101968352604090819020818a0151600182018190556060808c0151600284018190556080808e01516003860181905560a08f01516004870181905597518751958652988501929092529483015281019390935292917fb70e68f6fd18262f55884ad7d689bdc61f52d169c76b2d367cf31cb1dab41596910160405180910390a2505050505050610c2a600161015f55565b6112c26040518060c001604052806000815260200160008152602001600081526020016000815260200160008152602001606081525090565b6112cb82611f2d565b6113105760405162461bcd60e51b8152602060048201526016602482015275135bdb9cdd195c88191bd95cc81b9bdd08195e1a5cdd60521b60448201526064016108e2565b61019660008381526020019081526020016000206040518060c0016040529081600082015481526020016001820154815260200160028201548152602001600382015481526020016004820154815260200160058201805480602002602001604051908101604052809291908181526020016000905b828210156113cc57838290600052602060002090600202016040518060400160405290816000820154815260200160018201548152505081526020019060010190611386565b505050915250909392505050565b6000818152606760205260408120546001600160a01b0316806107845760405162461bcd60e51b8152602060048201526018602482015277115490cdcc8c4e881a5b9d985b1a59081d1bdad95b88125160421b60448201526064016108e2565b600054610100900460ff161580801561145a5750600054600160ff909116105b806114745750303b158015611474575060005460ff166001145b6114d75760405162461bcd60e51b815260206004820152602e60248201527f496e697469616c697a61626c653a20636f6e747261637420697320616c72656160448201526d191e481a5b9a5d1a585b1a5e995960921b60648201526084016108e2565b6000805460ff1916600117905580156114fa576000805461ff0019166101001790555b61154d604051806040016040528060128152602001712430ba31b43cbb32b939b2aab63a34b3b2b760711b815250604051806040016040528060078152602001662aa62a24a3a2a760c91b815250611f4a565b611555611f7b565b61155d611fa2565b611565611f7b565b61156e85611fd1565b61019380546001600160a01b038086166001600160a01b0319928316179092556101948054928716929091169190911790556001610195556101976115b38382613667565b5080156115fa576000805461ff0019169055604051600181527f7f26b83ff96e1f2b6a682f133852f6798a09c465da95921460cefb38474024989060200160405180910390a15b5050505050565b6116096119c6565b61019480546001600160a01b0319166001600160a01b0392909216919091179055565b6116346119c6565b61019280546001600160a01b0319166001600160a01b0383169081179091556040517f1d4fc2100fc6a16b01f961ed088b79195c405adc33f92ae3a76e70662cb2096f90600090a250565b60006001600160a01b0382166116e95760405162461bcd60e51b815260206004820152602960248201527f4552433732313a2061646472657373207a65726f206973206e6f7420612076616044820152683634b21037bbb732b960b91b60648201526084016108e2565b506001600160a01b031660009081526068602052604090205490565b61170d6119c6565b6117176000611ff8565b565b6060606680546107c4906134b5565b610e9833838361204a565b61173d3383611ade565b6117595760405162461bcd60e51b81526004016108e2906134ef565b61176584848484612118565b50505050565b606061177682611f2d565b6117da5760405162461bcd60e51b815260206004820152602f60248201527f4552433732314d657461646174613a2055524920717565727920666f72206e6f60448201526e3732bc34b9ba32b73a103a37b5b2b760891b60648201526084016108e2565b60006117e461214b565b90506000815111611804576040518060200160405280600081525061182f565b8061180e8461215b565b60405160200161181f929190613727565b6040516020818303038152906040525b9392505050565b6113106040518060c001604052806000815260200160008152602001600081526020016000815260200160008152602001606081525090565b6118776119c6565b6001600160a01b0381166118dc5760405162461bcd60e51b815260206004820152602660248201527f4f776e61626c653a206e6577206f776e657220697320746865207a65726f206160448201526564647265737360d01b60648201526084016108e2565b610c2a81611ff8565b80516020808301516040808501516060860151608087015160a088015160c0890151945160009861195998909796910160609790971b6bffffffffffffffffffffffff191687526014870195909552603486019390935260548501919091526074840152609483015260b482015260d40190565b604051602081830303815290604052805190602001209050919050565b60006001600160e01b031982166380ac58cd60e01b14806119a757506001600160e01b03198216635b5e139f60e01b145b8061078457506301ffc9a760e01b6001600160e01b0319831614610784565b60fb546001600160a01b031633146117175760405162461bcd60e51b815260206004820181905260248201527f4f776e61626c653a2063616c6c6572206973206e6f7420746865206f776e657260448201526064016108e2565b611a2981611f2d565b610c2a5760405162461bcd60e51b8152602060048201526018602482015277115490cdcc8c4e881a5b9d985b1a59081d1bdad95b88125160421b60448201526064016108e2565b600081815260696020526040902080546001600160a01b0319166001600160a01b0384169081179091558190611aa5826113da565b6001600160a01b03167f8c5be1e5ebec7d5bd14f71427d1e84f3dd0314c0f7b2291e5b200ac8c7c3b92560405160405180910390a45050565b600080611aea836113da565b9050806001600160a01b0316846001600160a01b03161480611b3157506001600160a01b038082166000908152606a602090815260408083209388168352929052205460ff165b80611b555750836001600160a01b0316611b4a84610847565b6001600160a01b0316145b949350505050565b826001600160a01b0316611b70826113da565b6001600160a01b031614611b965760405162461bcd60e51b81526004016108e290613756565b6001600160a01b038216611bf85760405162461bcd60e51b8152602060048201526024808201527f4552433732313a207472616e7366657220746f20746865207a65726f206164646044820152637265737360e01b60648201526084016108e2565b611c0583838360016121ee565b826001600160a01b0316611c18826113da565b6001600160a01b031614611c3e5760405162461bcd60e51b81526004016108e290613756565b600081815260696020908152604080832080546001600160a01b03199081169091556001600160a01b0387811680865260688552838620805460001901905590871680865283862080546001019055868652606790945282852080549092168417909155905184937fddf252ad1be2c89b69c2b068fc378daa952ba7f163c4a11628f55a4df523b3ef91a4505050565b610c2a6119c6565b7f4910fdfa16fed3260ed0e7147f7cc6da11a60208b5b9406d12a635614ffd91435460ff1615611d095761098383612327565b826001600160a01b03166352d1902d6040518163ffffffff1660e01b8152600401602060405180830381865afa925050508015611d63575060408051601f3d908101601f19168201909252611d609181019061379b565b60015b611dc65760405162461bcd60e51b815260206004820152602e60248201527f45524331393637557067726164653a206e657720696d706c656d656e7461746960448201526d6f6e206973206e6f74205555505360901b60648201526084016108e2565b6000805160206139238339815191528114611e355760405162461bcd60e51b815260206004820152602960248201527f45524331393637557067726164653a20756e737570706f727465642070726f786044820152681a58589b195555525160ba1b60648201526084016108e2565b506109838383836123c3565b610e988282604051806020016040528060008152506123e8565b600261015f5403611eae5760405162461bcd60e51b815260206004820152601f60248201527f5265656e7472616e637947756172643a207265656e7472616e742063616c6c0060448201526064016108e2565b600261015f55565b600061019182604051611ec991906137b4565b9081526040519081900360200190205460ff1692915050565b600161019182604051611ef591906137b4565b908152604051908190036020019020805491151560ff1990921691909117905550565b600061182f83611f278461241b565b90612456565b6000908152606760205260409020546001600160a01b0316151590565b600054610100900460ff16611f715760405162461bcd60e51b81526004016108e2906137d0565b610e98828261247a565b600054610100900460ff166117175760405162461bcd60e51b81526004016108e2906137d0565b600054610100900460ff16611fc95760405162461bcd60e51b81526004016108e2906137d0565b6117176124ba565b600054610100900460ff166116345760405162461bcd60e51b81526004016108e2906137d0565b60fb80546001600160a01b038381166001600160a01b0319831681179093556040519116919082907f8be0079c531659141344cd1fd0a4f28419497f9722a3daafe3b4186f6b6457e090600090a35050565b816001600160a01b0316836001600160a01b0316036120ab5760405162461bcd60e51b815260206004820152601960248201527f4552433732313a20617070726f766520746f2063616c6c65720000000000000060448201526064016108e2565b6001600160a01b038381166000818152606a6020908152604080832094871680845294825291829020805460ff191686151590811790915591519182527f17307eab39ab6107e8899845ad3d59bd9653f200f220920489ca2b5937696c31910160405180910390a3505050565b612123848484611b5d565b61212f848484846124ea565b6117655760405162461bcd60e51b81526004016108e29061381b565b606061019780546107c4906134b5565b60606000612168836125eb565b600101905060008167ffffffffffffffff81111561218857612188612faf565b6040519080825280601f01601f1916602001820160405280156121b2576020820181803683370190505b5090508181016020015b600019016f181899199a1a9b1b9c1cb0b131b232b360811b600a86061a8153600a85049450846121bc57509392505050565b6121fa848484846126c3565b60018111156122695760405162461bcd60e51b815260206004820152603560248201527f455243373231456e756d657261626c653a20636f6e7365637574697665207472604482015274185b9cd9995c9cc81b9bdd081cdd5c1c1bdc9d1959605a1b60648201526084016108e2565b816001600160a01b0385166122c5576122c081609980546000838152609a60205260408120829055600182018355919091527f72a152ddfb8e864297c917af52ea6c1c68aead0fee1a62673fcc7e0c94979d000155565b6122e8565b836001600160a01b0316856001600160a01b0316146122e8576122e8858261274b565b6001600160a01b038416612304576122ff816127e8565b6115fa565b846001600160a01b0316846001600160a01b0316146115fa576115fa8482612897565b6001600160a01b0381163b6123945760405162461bcd60e51b815260206004820152602d60248201527f455243313936373a206e657720696d706c656d656e746174696f6e206973206e60448201526c1bdd08184818dbdb9d1c9858dd609a1b60648201526084016108e2565b60008051602061392383398151915280546001600160a01b0319166001600160a01b0392909216919091179055565b6123cc836128db565b6000825111806123d95750805b1561098357611765838361291b565b6123f28383612a0f565b6123ff60008484846124ea565b6109835760405162461bcd60e51b81526004016108e29061381b565b6040517f19457468657265756d205369676e6564204d6573736167653a0a3332000000006020820152603c8101829052600090605c01611959565b60008060006124658585612b8a565b9150915061247281612bcf565b509392505050565b600054610100900460ff166124a15760405162461bcd60e51b81526004016108e2906137d0565b60656124ad8382613667565b5060666109838282613667565b600054610100900460ff166124e15760405162461bcd60e51b81526004016108e2906137d0565b61171733611ff8565b60006001600160a01b0384163b156125e057604051630a85bd0160e11b81526001600160a01b0385169063150b7a029061252e90339089908890889060040161386d565b6020604051808303816000875af1925050508015612569575060408051601f3d908101601f19168201909252612566918101906138aa565b60015b6125c6573d808015612597576040519150601f19603f3d011682016040523d82523d6000602084013e61259c565b606091505b5080516000036125be5760405162461bcd60e51b81526004016108e29061381b565b805181602001fd5b6001600160e01b031916630a85bd0160e11b149050611b55565b506001949350505050565b60008072184f03e93ff9f4daa797ed6e38ed64bf6a1f0160401b831061262a5772184f03e93ff9f4daa797ed6e38ed64bf6a1f0160401b830492506040015b6d04ee2d6d415b85acef81000000008310612656576d04ee2d6d415b85acef8100000000830492506020015b662386f26fc10000831061267457662386f26fc10000830492506010015b6305f5e100831061268c576305f5e100830492506008015b61271083106126a057612710830492506004015b606483106126b2576064830492506002015b600a83106107845760010192915050565b6001811115611765576001600160a01b03841615612709576001600160a01b038416600090815260686020526040812080548392906127039084906138c7565b90915550505b6001600160a01b03831615611765576001600160a01b038316600090815260686020526040812080548392906127409084906138de565b909155505050505050565b600060016127588461167f565b61276291906138c7565b6000838152609860205260409020549091508082146127b5576001600160a01b03841660009081526097602090815260408083208584528252808320548484528184208190558352609890915290208190555b5060009182526098602090815260408084208490556001600160a01b039094168352609781528383209183525290812055565b6099546000906127fa906001906138c7565b6000838152609a60205260408120546099805493945090928490811061282257612822613603565b90600052602060002001549050806099838154811061284357612843613603565b6000918252602080832090910192909255828152609a9091526040808220849055858252812055609980548061287b5761287b6138f6565b6001900381819060005260206000200160009055905550505050565b60006128a28361167f565b6001600160a01b039093166000908152609760209081526040808320868452825280832085905593825260989052919091209190915550565b6128e481612327565b6040516001600160a01b038216907fbc7cd75a20ee27fd9adebab32041f755214dbc6bffa90cc0225b39da2e5c2d3b90600090a250565b60606001600160a01b0383163b6129835760405162461bcd60e51b815260206004820152602660248201527f416464726573733a2064656c65676174652063616c6c20746f206e6f6e2d636f6044820152651b9d1c9858dd60d21b60648201526084016108e2565b600080846001600160a01b03168460405161299e91906137b4565b600060405180830381855af49150503d80600081146129d9576040519150601f19603f3d011682016040523d82523d6000602084013e6129de565b606091505b5091509150612a06828260405180606001604052806027815260200161394360279139612d19565b95945050505050565b6001600160a01b038216612a655760405162461bcd60e51b815260206004820181905260248201527f4552433732313a206d696e7420746f20746865207a65726f206164647265737360448201526064016108e2565b612a6e81611f2d565b15612abb5760405162461bcd60e51b815260206004820152601c60248201527f4552433732313a20746f6b656e20616c7265616479206d696e7465640000000060448201526064016108e2565b612ac96000838360016121ee565b612ad281611f2d565b15612b1f5760405162461bcd60e51b815260206004820152601c60248201527f4552433732313a20746f6b656e20616c7265616479206d696e7465640000000060448201526064016108e2565b6001600160a01b038216600081815260686020908152604080832080546001019055848352606790915280822080546001600160a01b0319168417905551839291907fddf252ad1be2c89b69c2b068fc378daa952ba7f163c4a11628f55a4df523b3ef908290a45050565b6000808251604103612bc05760208301516040840151606085015160001a612bb487828585612d32565b94509450505050612bc8565b506000905060025b9250929050565b6000816004811115612be357612be361390c565b03612beb5750565b6001816004811115612bff57612bff61390c565b03612c4c5760405162461bcd60e51b815260206004820152601860248201527f45434453413a20696e76616c6964207369676e6174757265000000000000000060448201526064016108e2565b6002816004811115612c6057612c6061390c565b03612cad5760405162461bcd60e51b815260206004820152601f60248201527f45434453413a20696e76616c6964207369676e6174757265206c656e6774680060448201526064016108e2565b6003816004811115612cc157612cc161390c565b03610c2a5760405162461bcd60e51b815260206004820152602260248201527f45434453413a20696e76616c6964207369676e6174757265202773272076616c604482015261756560f01b60648201526084016108e2565b60608315612d2857508161182f565b61182f8383612df6565b6000807f7fffffffffffffffffffffffffffffff5d576e7357a4501ddfe92f46681b20a0831115612d695750600090506003612ded565b6040805160008082526020820180845289905260ff881692820192909252606081018690526080810185905260019060a0016020604051602081039080840390855afa158015612dbd573d6000803e3d6000fd5b5050604051601f1901519150506001600160a01b038116612de657600060019250925050612ded565b9150600090505b94509492505050565b815115612e065781518083602001fd5b8060405162461bcd60e51b81526004016108e29190612ee2565b6001600160e01b031981168114610c2a57600080fd5b600060208284031215612e4857600080fd5b813561182f81612e20565b80356001600160a01b0381168114612e6a57600080fd5b919050565b600060208284031215612e8157600080fd5b61182f82612e53565b60005b83811015612ea5578181015183820152602001612e8d565b838111156117655750506000910152565b60008151808452612ece816020860160208601612e8a565b601f01601f19169290920160200192915050565b60208152600061182f6020830184612eb6565b600060208284031215612f0757600080fd5b5035919050565b60008060408385031215612f2157600080fd5b612f2a83612e53565b946020939093013593505050565b600080600060608486031215612f4d57600080fd5b612f5684612e53565b9250612f6460208501612e53565b9150604084013590509250925092565b600080600080600060a08688031215612f8c57600080fd5b505083359560208501359550604085013594606081013594506080013592509050565b634e487b7160e01b600052604160045260246000fd5b6040805190810167ffffffffffffffff81118282101715612fe857612fe8612faf565b60405290565b604051610100810167ffffffffffffffff81118282101715612fe857612fe8612faf565b604051601f8201601f1916810167ffffffffffffffff8111828210171561303b5761303b612faf565b604052919050565b60008060008060008060c0878903121561305c57600080fd5b61306587612e53565b955060208088013595506040808901359550606089013594506080890135935060a089013567ffffffffffffffff808211156130a057600080fd5b818b0191508b601f8301126130b457600080fd5b8135818111156130c6576130c6612faf565b6130d4858260051b01613012565b818152858101925060069190911b83018501908d8211156130f457600080fd5b928501925b818410156131345784848f0312156131115760008081fd5b613119612fc5565b843581528685013587820152835292840192918501916130f9565b8096505050505050509295509295509295565b600082601f83011261315857600080fd5b813567ffffffffffffffff81111561317257613172612faf565b613185601f8201601f1916602001613012565b81815284602083860101111561319a57600080fd5b816020850160208301376000918101602001919091529392505050565b600080604083850312156131ca57600080fd5b6131d383612e53565b9150602083013567ffffffffffffffff8111156131ef57600080fd5b6131fb85828601613147565b9150509250929050565b60006020828403121561321757600080fd5b813567ffffffffffffffff81111561322e57600080fd5b611b5584828501613147565b60006020828403121561324c57600080fd5b813567ffffffffffffffff8082111561326457600080fd5b90830190610100828603121561327957600080fd5b613281612fee565b61328a83612e53565b81526020830135602082015260408301356040820152606083013560608201526080830135608082015260a083013560a082015260c083013560c082015260e0830135828111156132da57600080fd5b6132e687828601613147565b60e08301525095945050505050565b6000602080835260e08301845182850152818501516040818187015280870151606087015260608701516080870152608087015160a087015260a0870151915060c080870152828251808552610100880191508584019450600093505b8084101561337b5784518051835286015186830152938501936001939093019290820190613352565b50979650505050505050565b6000806000806080858703121561339d57600080fd5b6133a685612e53565b93506133b460208601612e53565b92506133c260408601612e53565b9150606085013567ffffffffffffffff8111156133de57600080fd5b6133ea87828801613147565b91505092959194509250565b6000806040838503121561340957600080fd5b61341283612e53565b91506020830135801515811461342757600080fd5b809150509250929050565b6000806000806080858703121561344857600080fd5b61345185612e53565b935061345f60208601612e53565b925060408501359150606085013567ffffffffffffffff8111156133de57600080fd5b6000806040838503121561349557600080fd5b61349e83612e53565b91506134ac60208401612e53565b90509250929050565b600181811c908216806134c957607f821691505b6020821081036134e957634e487b7160e01b600052602260045260246000fd5b50919050565b6020808252602d908201527f4552433732313a2063616c6c6572206973206e6f7420746f6b656e206f776e6560408201526c1c881bdc88185c1c1c9bdd9959609a1b606082015260800190565b6020808252602c908201527f46756e6374696f6e206d7573742062652063616c6c6564207468726f7567682060408201526b19195b1959d85d1958d85b1b60a21b606082015260800190565b6020808252602c908201527f46756e6374696f6e206d7573742062652063616c6c6564207468726f7567682060408201526b6163746976652070726f787960a01b606082015260800190565b634e487b7160e01b600052601160045260246000fd5b6000600182016135fc576135fc6135d4565b5060010190565b634e487b7160e01b600052603260045260246000fd5b601f82111561098357600081815260208120601f850160051c810160208610156136405750805b601f850160051c820191505b8181101561365f5782815560010161364c565b505050505050565b815167ffffffffffffffff81111561368157613681612faf565b6136958161368f84546134b5565b84613619565b602080601f8311600181146136ca57600084156136b25750858301515b600019600386901b1c1916600185901b17855561365f565b600085815260208120601f198616915b828110156136f9578886015182559484019460019091019084016136da565b50858210156137175787850151600019600388901b60f8161c191681555b5050505050600190811b01905550565b60008351613739818460208801612e8a565b83519083019061374d818360208801612e8a565b01949350505050565b60208082526025908201527f4552433732313a207472616e736665722066726f6d20696e636f72726563742060408201526437bbb732b960d91b606082015260800190565b6000602082840312156137ad57600080fd5b5051919050565b600082516137c6818460208701612e8a565b9190910192915050565b6020808252602b908201527f496e697469616c697a61626c653a20636f6e7472616374206973206e6f74206960408201526a6e697469616c697a696e6760a81b606082015260800190565b60208082526032908201527f4552433732313a207472616e7366657220746f206e6f6e20455243373231526560408201527131b2b4bb32b91034b6b83632b6b2b73a32b960711b606082015260800190565b6001600160a01b03858116825284166020820152604081018390526080606082018190526000906138a090830184612eb6565b9695505050505050565b6000602082840312156138bc57600080fd5b815161182f81612e20565b6000828210156138d9576138d96135d4565b500390565b600082198211156138f1576138f16135d4565b500190565b634e487b7160e01b600052603160045260246000fd5b634e487b7160e01b600052602160045260246000fdfe360894a13ba1a3210667c828492db98dca3e2076cc3735a920a3ca505d382bbc416464726573733a206c6f772d6c6576656c2064656c65676174652063616c6c206661696c6564a2646970667358221220bbb4e788cfec7a0bb4c0d8c404f94593c7f1ae182ae9ae9993f5d57295516bd464736f6c634300080f0033",
  "linkReferences": {},
  "deployedLinkReferences": {}
}