{
  "_format": "hh-sol-artifact-1",
  "contractName": "HatchyGen2Staking",
  "sourceName": "contracts/HatchyGen2Staking.sol",
  "abi": [
    {
      "anonymous": false,
      "inputs": [
        {
          "indexed": false,
          "internalType": "address",
          "name": "previousAdmin",
          "type": "address"
        },
        {
          "indexed": false,
          "internalType": "address",
          "name": "newAdmin",
          "type": "address"
        }
      ],
      "name": "AdminChanged",
      "type": "event"
    },
    {
      "anonymous": false,
      "inputs": [
        {
          "indexed": true,
          "internalType": "address",
          "name": "account",
          "type": "address"
        },
        {
          "indexed": false,
          "internalType": "uint256[]",
          "name": "tokenIds",
          "type": "uint256[]"
        },
        {
          "indexed": false,
          "internalType": "uint256[]",
          "name": "amounts",
          "type": "uint256[]"
        }
      ],
      "name": "BatchStaked",
      "type": "event"
    },
    {
      "anonymous": false,
      "inputs": [
        {
          "indexed": true,
          "internalType": "address",
          "name": "account",
          "type": "address"
        },
        {
          "indexed": false,
          "internalType": "uint256[]",
          "name": "tokenIds",
          "type": "uint256[]"
        },
        {
          "indexed": false,
          "internalType": "uint256[]",
          "name": "amounts",
          "type": "uint256[]"
        }
      ],
      "name": "BatchWithdrawn",
      "type": "event"
    },
    {
      "anonymous": false,
      "inputs": [
        {
          "indexed": true,
          "internalType": "address",
          "name": "beacon",
          "type": "address"
        }
      ],
      "name": "BeaconUpgraded",
      "type": "event"
    },
    {
      "anonymous": false,
      "inputs": [
        {
          "indexed": false,
          "internalType": "uint8",
          "name": "version",
          "type": "uint8"
        }
      ],
      "name": "Initialized",
      "type": "event"
    },
    {
      "anonymous": false,
      "inputs": [
        {
          "indexed": true,
          "internalType": "address",
          "name": "previousOwner",
          "type": "address"
        },
        {
          "indexed": true,
          "internalType": "address",
          "name": "newOwner",
          "type": "address"
        }
      ],
      "name": "OwnershipTransferred",
      "type": "event"
    },
    {
      "anonymous": false,
      "inputs": [
        {
          "indexed": false,
          "internalType": "address",
          "name": "account",
          "type": "address"
        }
      ],
      "name": "Paused",
      "type": "event"
    },
    {
      "anonymous": false,
      "inputs": [
        {
          "indexed": true,
          "internalType": "address",
          "name": "account",
          "type": "address"
        },
        {
          "indexed": false,
          "internalType": "uint256",
          "name": "tokenId",
          "type": "uint256"
        },
        {
          "indexed": false,
          "internalType": "uint256",
          "name": "amount",
          "type": "uint256"
        }
      ],
      "name": "Staked",
      "type": "event"
    },
    {
      "anonymous": false,
      "inputs": [
        {
          "indexed": true,
          "internalType": "address",
          "name": "account",
          "type": "address"
        },
        {
          "indexed": false,
          "internalType": "uint256",
          "name": "amount",
          "type": "uint256"
        }
      ],
      "name": "TokenStaked",
      "type": "event"
    },
    {
      "anonymous": false,
      "inputs": [
        {
          "indexed": true,
          "internalType": "address",
          "name": "account",
          "type": "address"
        },
        {
          "indexed": false,
          "internalType": "uint256",
          "name": "amount",
          "type": "uint256"
        }
      ],
      "name": "TokenWithdrawn",
      "type": "event"
    },
    {
      "anonymous": false,
      "inputs": [
        {
          "indexed": false,
          "internalType": "address",
          "name": "account",
          "type": "address"
        }
      ],
      "name": "Unpaused",
      "type": "event"
    },
    {
      "anonymous": false,
      "inputs": [
        {
          "indexed": true,
          "internalType": "address",
          "name": "implementation",
          "type": "address"
        }
      ],
      "name": "Upgraded",
      "type": "event"
    },
    {
      "anonymous": false,
      "inputs": [
        {
          "indexed": true,
          "internalType": "address",
          "name": "account",
          "type": "address"
        },
        {
          "indexed": false,
          "internalType": "uint256",
          "name": "tokenId",
          "type": "uint256"
        },
        {
          "indexed": false,
          "internalType": "uint256",
          "name": "amount",
          "type": "uint256"
        }
      ],
      "name": "Withdrawn",
      "type": "event"
    },
    {
      "inputs": [
        {
          "internalType": "uint256[]",
          "name": "tokenIds",
          "type": "uint256[]"
        },
        {
          "internalType": "uint256[]",
          "name": "amounts",
          "type": "uint256[]"
        },
        {
          "internalType": "address",
          "name": "referrer",
          "type": "address"
        }
      ],
      "name": "batchStake",
      "outputs": [],
      "stateMutability": "nonpayable",
      "type": "function"
    },
    {
      "inputs": [
        {
          "internalType": "uint256[]",
          "name": "tokenIds",
          "type": "uint256[]"
        },
        {
          "internalType": "uint256[]",
          "name": "amounts",
          "type": "uint256[]"
        }
      ],
      "name": "batchWithdraw",
      "outputs": [],
      "stateMutability": "nonpayable",
      "type": "function"
    },
    {
      "inputs": [
        {
          "internalType": "address",
          "name": "_account",
          "type": "address"
        }
      ],
      "name": "calculateWeight",
      "outputs": [
        {
          "internalType": "uint256",
          "name": "",
          "type": "uint256"
        },
        {
          "internalType": "uint256",
          "name": "",
          "type": "uint256"
        }
      ],
      "stateMutability": "view",
      "type": "function"
    },
    {
      "inputs": [
        {
          "internalType": "address",
          "name": "user",
          "type": "address"
        }
      ],
      "name": "getStakedTokens",
      "outputs": [
        {
          "internalType": "uint256",
          "name": "",
          "type": "uint256"
        }
      ],
      "stateMutability": "view",
      "type": "function"
    },
    {
      "inputs": [],
      "name": "hatchyGen2",
      "outputs": [
        {
          "internalType": "address",
          "name": "",
          "type": "address"
        }
      ],
      "stateMutability": "view",
      "type": "function"
    },
    {
      "inputs": [],
      "name": "hatchyRewarder",
      "outputs": [
        {
          "internalType": "address",
          "name": "",
          "type": "address"
        }
      ],
      "stateMutability": "view",
      "type": "function"
    },
    {
      "inputs": [],
      "name": "hatchyToken",
      "outputs": [
        {
          "internalType": "address",
          "name": "",
          "type": "address"
        }
      ],
      "stateMutability": "view",
      "type": "function"
    },
    {
      "inputs": [
        {
          "internalType": "address",
          "name": "_hatchyGen2",
          "type": "address"
        }
      ],
      "name": "initialize",
      "outputs": [],
      "stateMutability": "nonpayable",
      "type": "function"
    },
    {
      "inputs": [
        {
          "internalType": "address",
          "name": "account",
          "type": "address"
        },
        {
          "internalType": "uint256",
          "name": "tokenId",
          "type": "uint256"
        },
        {
          "internalType": "uint256",
          "name": "amount",
          "type": "uint256"
        }
      ],
      "name": "isStaked",
      "outputs": [
        {
          "internalType": "bool",
          "name": "",
          "type": "bool"
        }
      ],
      "stateMutability": "view",
      "type": "function"
    },
    {
      "inputs": [
        {
          "internalType": "address",
          "name": "",
          "type": "address"
        },
        {
          "internalType": "address",
          "name": "",
          "type": "address"
        },
        {
          "internalType": "uint256[]",
          "name": "",
          "type": "uint256[]"
        },
        {
          "internalType": "uint256[]",
          "name": "",
          "type": "uint256[]"
        },
        {
          "internalType": "bytes",
          "name": "",
          "type": "bytes"
        }
      ],
      "name": "onERC1155BatchReceived",
      "outputs": [
        {
          "internalType": "bytes4",
          "name": "",
          "type": "bytes4"
        }
      ],
      "stateMutability": "nonpayable",
      "type": "function"
    },
    {
      "inputs": [
        {
          "internalType": "address",
          "name": "",
          "type": "address"
        },
        {
          "internalType": "address",
          "name": "",
          "type": "address"
        },
        {
          "internalType": "uint256",
          "name": "",
          "type": "uint256"
        },
        {
          "internalType": "uint256",
          "name": "",
          "type": "uint256"
        },
        {
          "internalType": "bytes",
          "name": "",
          "type": "bytes"
        }
      ],
      "name": "onERC1155Received",
      "outputs": [
        {
          "internalType": "bytes4",
          "name": "",
          "type": "bytes4"
        }
      ],
      "stateMutability": "nonpayable",
      "type": "function"
    },
    {
      "inputs": [],
      "name": "owner",
      "outputs": [
        {
          "internalType": "address",
          "name": "",
          "type": "address"
        }
      ],
      "stateMutability": "view",
      "type": "function"
    },
    {
      "inputs": [],
      "name": "paused",
      "outputs": [
        {
          "internalType": "bool",
          "name": "",
          "type": "bool"
        }
      ],
      "stateMutability": "view",
      "type": "function"
    },
    {
      "inputs": [],
      "name": "proxiableUUID",
      "outputs": [
        {
          "internalType": "bytes32",
          "name": "",
          "type": "bytes32"
        }
      ],
      "stateMutability": "view",
      "type": "function"
    },
    {
      "inputs": [],
      "name": "renounceOwnership",
      "outputs": [],
      "stateMutability": "nonpayable",
      "type": "function"
    },
    {
      "inputs": [
        {
          "internalType": "address",
          "name": "gen2",
          "type": "address"
        }
      ],
      "name": "setHatchyGen2",
      "outputs": [],
      "stateMutability": "nonpayable",
      "type": "function"
    },
    {
      "inputs": [
        {
          "internalType": "address",
          "name": "_hatchToken",
          "type": "address"
        }
      ],
      "name": "setHatchyToken",
      "outputs": [],
      "stateMutability": "nonpayable",
      "type": "function"
    },
    {
      "inputs": [
        {
          "internalType": "address",
          "name": "_rewarder",
          "type": "address"
        }
      ],
      "name": "setRewarder",
      "outputs": [],
      "stateMutability": "nonpayable",
      "type": "function"
    },
    {
      "inputs": [
        {
          "internalType": "bytes4",
          "name": "interfaceId",
          "type": "bytes4"
        }
      ],
      "name": "supportsInterface",
      "outputs": [
        {
          "internalType": "bool",
          "name": "",
          "type": "bool"
        }
      ],
      "stateMutability": "view",
      "type": "function"
    },
    {
      "inputs": [
        {
          "internalType": "uint256",
          "name": "amount",
          "type": "uint256"
        },
        {
          "internalType": "address",
          "name": "referrer",
          "type": "address"
        }
      ],
      "name": "tokenStake",
      "outputs": [],
      "stateMutability": "nonpayable",
      "type": "function"
    },
    {
      "inputs": [
        {
          "internalType": "uint256",
          "name": "amount",
          "type": "uint256"
        }
      ],
      "name": "tokenWithdraw",
      "outputs": [],
      "stateMutability": "nonpayable",
      "type": "function"
    },
    {
      "inputs": [
        {
          "internalType": "address",
          "name": "newOwner",
          "type": "address"
        }
      ],
      "name": "transferOwnership",
      "outputs": [],
      "stateMutability": "nonpayable",
      "type": "function"
    },
    {
      "inputs": [
        {
          "internalType": "address",
          "name": "newImplementation",
          "type": "address"
        }
      ],
      "name": "upgradeTo",
      "outputs": [],
      "stateMutability": "nonpayable",
      "type": "function"
    },
    {
      "inputs": [
        {
          "internalType": "address",
          "name": "newImplementation",
          "type": "address"
        },
        {
          "internalType": "bytes",
          "name": "data",
          "type": "bytes"
        }
      ],
      "name": "upgradeToAndCall",
      "outputs": [],
      "stateMutability": "payable",
      "type": "function"
    },
    {
      "inputs": [
        {
          "internalType": "address",
          "name": "_account",
          "type": "address"
        }
      ],
      "name": "userSetInfo",
      "outputs": [
        {
          "internalType": "uint256",
          "name": "",
          "type": "uint256"
        },
        {
          "internalType": "uint256",
          "name": "",
          "type": "uint256"
        },
        {
          "internalType": "uint256",
          "name": "",
          "type": "uint256"
        },
        {
          "internalType": "uint256",
          "name": "",
          "type": "uint256"
        },
        {
          "internalType": "uint256",
          "name": "",
          "type": "uint256"
        },
        {
          "internalType": "uint256",
          "name": "",
          "type": "uint256"
        }
      ],
      "stateMutability": "view",
      "type": "function"
    },
    {
      "inputs": [
        {
          "internalType": "address",
          "name": "_account",
          "type": "address"
        }
      ],
      "name": "userShinySetInfo",
      "outputs": [
        {
          "internalType": "uint256",
          "name": "",
          "type": "uint256"
        },
        {
          "components": [
            {
              "internalType": "uint256",
              "name": "plant",
              "type": "uint256"
            },
            {
              "internalType": "uint256",
              "name": "water",
              "type": "uint256"
            },
            {
              "internalType": "uint256",
              "name": "fire",
              "type": "uint256"
            },
            {
              "internalType": "uint256",
              "name": "light",
              "type": "uint256"
            },
            {
              "internalType": "uint256",
              "name": "dark",
              "type": "uint256"
            },
            {
              "internalType": "uint256",
              "name": "dragon",
              "type": "uint256"
            },
            {
              "internalType": "uint256",
              "name": "void",
              "type": "uint256"
            }
          ],
          "internalType": "struct HatchyGen2Staking.ShinyInfo",
          "name": "",
          "type": "tuple"
        }
      ],
      "stateMutability": "view",
      "type": "function"
    },
    {
      "inputs": [
        {
          "internalType": "address",
          "name": "_owner",
          "type": "address"
        }
      ],
      "name": "userStakedNFT",
      "outputs": [
        {
          "internalType": "uint256[]",
          "name": "",
          "type": "uint256[]"
        },
        {
          "internalType": "uint256[]",
          "name": "",
          "type": "uint256[]"
        }
      ],
      "stateMutability": "view",
      "type": "function"
    },
    {
      "inputs": [
        {
          "internalType": "address",
          "name": "_account",
          "type": "address"
        }
      ],
      "name": "voidMonsterSetInfo",
      "outputs": [
        {
          "internalType": "uint256",
          "name": "",
          "type": "uint256"
        }
      ],
      "stateMutability": "view",
      "type": "function"
    }
  ],
  "bytecode": "0x60a06040523060805234801561001457600080fd5b5060805161317861004c60003960008181610ad301528181610b1c01528181610d4a01528181610d8a0152610e1d01526131786000f3fe6080604052600436106101b75760003560e01c806363c28db1116100ec578063a8b8d2361161008a578063d7e751ff11610064578063d7e751ff146105be578063da2ecb5c146105de578063f23a6e61146105fe578063f2fde38b1461062b57600080fd5b8063a8b8d23614610536578063bc197c8114610556578063c4d66de81461059e57600080fd5b806375ec45e4116100c657806375ec45e4146104b55780638da5cb5b146104d65780639a38e9e5146104f55780639f42fe731461051657600080fd5b806363c28db114610449578063715018a614610480578063715f5c871461049557600080fd5b80634bad4b98116101595780635c975abb116101335780635c975abb146103a45780635e63c031146103bc5780635fafd4a5146103dc57806363875c88146103fc57600080fd5b80634bad4b98146103355780634f1ef2861461036e57806352d1902d1461038157600080fd5b80632c193393116101955780632c193393146102905780633659cfe6146102c55780633a6462e4146102e757806340376ba21461030757600080fd5b806301ffc9a7146101bc5780631c112a44146101f15780632b677e1814610211575b600080fd5b3480156101c857600080fd5b506101dc6101d7366004612917565b61064b565b60405190151581526020015b60405180910390f35b3480156101fd57600080fd5b506101dc61020c36600461295d565b61065c565b34801561021d57600080fd5b5061023161022c366004612990565b6106a0565b6040516101e892919060006101008201905083825282516020830152602083015160408301526040830151606083015260608301516080830152608083015160a083015260a083015160c083015260c083015160e08301529392505050565b34801561029c57600080fd5b506102b06102ab366004612990565b610851565b604080519283526020830191909152016101e8565b3480156102d157600080fd5b506102e56102e0366004612990565b610ac9565b005b3480156102f357600080fd5b506102e5610302366004612990565b610bb1565b34801561031357600080fd5b50610327610322366004612990565b610bdc565b6040516101e89291906129e6565b34801561034157600080fd5b5061019254610356906001600160a01b031681565b6040516001600160a01b0390911681526020016101e8565b6102e561037c366004612a51565b610d40565b34801561038d57600080fd5b50610396610e10565b6040519081526020016101e8565b3480156103b057600080fd5b5060c95460ff166101dc565b3480156103c857600080fd5b506102e56103d7366004612b75565b610ec3565b3480156103e857600080fd5b506102e56103f7366004612990565b611235565b34801561040857600080fd5b5061041c610417366004612990565b611260565b604080519687526020870195909552938501929092526060840152608083015260a082015260c0016101e8565b34801561045557600080fd5b50610396610464366004612990565b6001600160a01b03166000908152610195602052604090205490565b34801561048c57600080fd5b506102e561135c565b3480156104a157600080fd5b506102e56104b0366004612990565b611370565b3480156104c157600080fd5b5061019454610356906001600160a01b031681565b3480156104e257600080fd5b5061015f546001600160a01b0316610356565b34801561050157600080fd5b5061019354610356906001600160a01b031681565b34801561052257600080fd5b506102e5610531366004612bd8565b61139b565b34801561054257600080fd5b506102e5610551366004612c04565b6114d5565b34801561056257600080fd5b50610585610571366004612cfc565b63bc197c8160e01b98975050505050505050565b6040516001600160e01b031990911681526020016101e8565b3480156105aa57600080fd5b506102e56105b9366004612990565b61187f565b3480156105ca57600080fd5b506102e56105d9366004612db6565b6119bc565b3480156105ea57600080fd5b506103966105f9366004612990565b611b29565b34801561060a57600080fd5b50610585610619366004612dcf565b63f23a6e6160e01b9695505050505050565b34801561063757600080fd5b506102e5610646366004612990565b611bf7565b600061065682611c6d565b92915050565b6001600160a01b038316600090815261019160205260408120819081906106839086611ca2565b915091508180156106945750838110155b925050505b9392505050565b60006106e26040518060e00160405280600081526020016000815260200160008152602001600081526020016000815260200160008152602001600081525090565b6001600160a01b03831660009081526101916020526040812061070490611cc0565b90508060000361075a5760006040518060e0016040528060008152602001600081526020016000815260200160008152602001600081526020016000815260200160008152509050600081935093505050915091565b6000610769856028603e611ccb565b9050600061077a86603f6055611ccb565b9050600061078b876056606c611ccb565b9050600061079c88607b6088611ccb565b905060006107ad89606d607a611ccb565b905060006107be8a6089608e611ccb565b905060006107cb8b611b29565b9050600081838587896107de8c8e612e5c565b6107e89190612e5c565b6107f29190612e5c565b6107fc9190612e5c565b6108069190612e5c565b6108109190612e5c565b6040805160e081018252998a5260208a0198909852968801959095526060870193909352608086019190915260a085015260c0840152509590945092505050565b6001600160a01b0381166000908152610191602052604081208190819061087790611cc0565b6001600160a01b038516600090815261019560205260408120549192508290036108b9576108ad670de0b6b3a764000082612e74565b95600095509350505050565b60008060005b8481101561094f576001600160a01b03881660009081526101916020526040812081906108ec9084611d5a565b915091506089821061092c57610903816014612e96565b61090f906103e8612e96565b6109199086612e5c565b94506109258185612e5c565b9350610945565b610938816103e8612e96565b6109429086612e5c565b94505b50506001016108bf565b506000806000806000806109628d611260565b95509550955095509550955060008061097a8f6106a0565b91509150600086881061098d578661098f565b875b905085811061099e57856109a0565b805b90508481106109af57846109b1565b805b90508381106109c057836109c2565b805b9050600082602001518360000151106109df5782602001516109e2565b82515b9050826040015181106109f95782604001516109fb565b805b905082606001518110610a12578260600151610a14565b805b905082608001518110610a2b578260800151610a2d565b805b9050610a41670de0b6b3a76400008e612e74565b610a4d82611f40612e96565b610a5984610190612e96565b610a6587610190612e96565b610a708e6014612e96565b610a7a9190612e5c565b610a849190612e5c565b610a8e9190612e5c565b610a9a906103e8612e96565b610aa49190612e5c565b610aae908d612e5c565b9b508b8b9f509f505050505050505050505050505050915091565b6001600160a01b037f0000000000000000000000000000000000000000000000000000000000000000163003610b1a5760405162461bcd60e51b8152600401610b1190612eb5565b60405180910390fd5b7f00000000000000000000000000000000000000000000000000000000000000006001600160a01b0316610b636000805160206130fc833981519152546001600160a01b031690565b6001600160a01b031614610b895760405162461bcd60e51b8152600401610b1190612f01565b610b9281611d69565b60408051600080825260208201909252610bae91839190611d71565b50565b610bb9611edc565b61019380546001600160a01b0319166001600160a01b0392909216919091179055565b6001600160a01b0381166000908152610191602052604081206060918291610c0390611cc0565b905080600003610c2d57505060408051600080825260208201908152818301909252939092509050565b6000816001600160401b03811115610c4757610c47612a0b565b604051908082528060200260200182016040528015610c70578160200160208202803683370190505b5090506000826001600160401b03811115610c8d57610c8d612a0b565b604051908082528060200260200182016040528015610cb6578160200160208202803683370190505b50905060005b83811015610d34576001600160a01b0387166000908152610191602052604081208190610ce99084611d5a565b9150915081858481518110610d0057610d00612f4d565b60200260200101818152505080848481518110610d1f57610d1f612f4d565b60209081029190910101525050600101610cbc565b50909590945092505050565b6001600160a01b037f0000000000000000000000000000000000000000000000000000000000000000163003610d885760405162461bcd60e51b8152600401610b1190612eb5565b7f00000000000000000000000000000000000000000000000000000000000000006001600160a01b0316610dd16000805160206130fc833981519152546001600160a01b031690565b6001600160a01b031614610df75760405162461bcd60e51b8152600401610b1190612f01565b610e0082611d69565b610e0c82826001611d71565b5050565b6000306001600160a01b037f00000000000000000000000000000000000000000000000000000000000000001614610eb05760405162461bcd60e51b815260206004820152603860248201527f555550535570677261646561626c653a206d757374206e6f742062652063616c60448201527f6c6564207468726f7567682064656c656761746563616c6c00000000000000006064820152608401610b11565b506000805160206130fc83398151915290565b610ecb611f37565b8051825114610f1c5760405162461bcd60e51b815260206004820152601860248201527f57726f6e6720776974686472617720706172616d6574657200000000000000006044820152606401610b11565b80516000816001600160401b03811115610f3857610f38612a0b565b604051908082528060200260200182016040528015610f61578160200160208202803683370190505b50905060005b8281101561106a576000610fe1868381518110610f8657610f86612f4d565b60200260200101516040518060400160405280600e81526020016d139bdd081cdd185ad959081b999d60921b8152506101916000610fc13390565b6001600160a01b0316815260208101919091526040016000209190611f90565b905080858381518110610ff657610ff6612f4d565b60200260200101511115611028578083838151811061101757611017612f4d565b602002602001018181525050611061565b84828151811061103a5761103a612f4d565b602002602001015183838151811061105457611054612f4d565b6020026020010181815250505b50600101610f67565b506101925460408051600081526020810191829052631759616b60e11b9091526001600160a01b0390911690632eb2c2d6906110b190309033908990879060248101612fbb565b600060405180830381600087803b1580156110cb57600080fd5b505af11580156110df573d6000803e3d6000fd5b5050505060005b828110156111da576000611105868381518110610f8657610f86612f4d565b90508083838151811061111a5761111a612f4d565b602002602001015110156111875761118186838151811061113d5761113d612f4d565b602002602001015184848151811061115757611157612f4d565b60200260200101518361116a9190613019565b336000908152610191602052604090209190611fa5565b506111d1565b6111cf86838151811061119c5761119c612f4d565b602002602001015161019160006111b03390565b6001600160a01b03168152602081019190915260400160002090611fb2565b505b506001016110e6565b506111e7335b6000611fbe565b336001600160a01b03167f77ae2db4fdca95a2c05a7c3e788250dd5ae433bfbcffcd5e40c62a438dcba33185856040516112229291906129e6565b60405180910390a25050610e0c60018055565b61123d611edc565b61019280546001600160a01b0319166001600160a01b0392909216919091179055565b600080600080600080600061129961019160008a6001600160a01b03166001600160a01b03168152602001908152602001600020611cc0565b9050806000036112be5760008060008060008096509650965096509650965050611353565b60006112cd896028603e612046565b905060006112de8a603f6055612046565b905060006112ef8b6056606c612046565b905060006113008c607b6088612046565b905060006113118d606d607a612046565b90508082846113208789612e5c565b61132a9190612e5c565b6113349190612e5c565b61133e9190612e5c565b9b509399509197509550935091506113539050565b91939550919395565b611364611edc565b61136e60006120ac565b565b611378611edc565b61019480546001600160a01b0319166001600160a01b0392909216919091179055565b6113a3611f37565b6113ab6120ff565b600082116113f35760405162461bcd60e51b8152602060048201526015602482015274416d6f756e742063616e6e6f74206265207a65726f60581b6044820152606401610b11565b610194546001600160a01b03166323b872dd336040516001600160e01b031960e084901b1681526001600160a01b039091166004820152306024820152604481018590526064016020604051808303816000875af1158015611459573d6000803e3d6000fd5b505050506040513d601f19601f8201168201806040525081019061147d9190613030565b6114c15760405162461bcd60e51b81526020600482015260156024820152741d1bdad95b881d1c985b9cd9995c8819985a5b1959605a1b6044820152606401610b11565b6114cc338383612145565b610e0c60018055565b6114dd611f37565b6114e56120ff565b815183511461152e5760405162461bcd60e51b81526020600482015260156024820152742bb937b7339039ba30b5b2903830b930b6b2ba32b960591b6044820152606401610b11565b610192546001600160a01b031663e985e9c5336040516001600160e01b031960e084901b1681526001600160a01b039091166004820152306024820152604401602060405180830381865afa15801561158b573d6000803e3d6000fd5b505050506040513d601f19601f820116820180604052508101906115af9190613030565b6115fb5760405162461bcd60e51b815260206004820152601d60248201527f4e6f7420617070726f766520746f207374616b657220616464726573730000006044820152606401610b11565b815160009081816001600160401b0381111561161957611619612a0b565b604051908082528060200260200182016040528015611642578160200160208202803683370190505b50905060005b828110156117a157610192546000906001600160a01b031662fdd58e338a858151811061167757611677612f4d565b60200260200101516040518363ffffffff1660e01b81526004016116b09291906001600160a01b03929092168252602082015260400190565b602060405180830381865afa1580156116cd573d6000803e3d6000fd5b505050506040513d601f19601f820116820180604052508101906116f19190613052565b90508087838151811061170657611706612f4d565b60200260200101511115611738578083838151811061172757611727612f4d565b602002602001018181525050611771565b86828151811061174a5761174a612f4d565b602002602001015183838151811061176457611764612f4d565b6020026020010181815250505b82828151811061178357611783612f4d565b6020026020010151856117969190612e5c565b945050600101611648565b50600083116117e45760405162461bcd60e51b815260206004820152600f60248201526e155cd95c881a185cc81b9bc81b999d608a1b6044820152606401610b11565b6101925460408051600081526020810191829052631759616b60e11b9091526001600160a01b0390911690632eb2c2d69061182a90339030908b90879060248101612fbb565b600060405180830381600087803b15801561184457600080fd5b505af1158015611858573d6000803e3d6000fd5b5050505061186e6118663390565b8783876121b2565b50505061187a60018055565b505050565b600054610100900460ff161580801561189f5750600054600160ff909116105b806118b95750303b1580156118b9575060005460ff166001145b61191c5760405162461bcd60e51b815260206004820152602e60248201527f496e697469616c697a61626c653a20636f6e747261637420697320616c72656160448201526d191e481a5b9a5d1a585b1a5e995960921b6064820152608401610b11565b6000805460ff19166001179055801561193f576000805461ff0019166101001790555b611947612352565b61194f612381565b6119576123b0565b61019280546001600160a01b0319166001600160a01b0384161790558015610e0c576000805461ff0019169055604051600181527f7f26b83ff96e1f2b6a682f133852f6798a09c465da95921460cefb38474024989060200160405180910390a15050565b6119c4611f37565b336000908152610195602052604081205490828211156119e457826119e6565b815b3360009081526101956020526040812080549293508392909190611a0b908490613019565b9091555050610194546001600160a01b031663a9059cbb336040516001600160e01b031960e084901b1681526001600160a01b039091166004820152602481018490526044016020604051808303816000875af1158015611a70573d6000803e3d6000fd5b505050506040513d601f19601f82011682018060405250810190611a949190613030565b611ae05760405162461bcd60e51b815260206004820152601b60248201527f47454e323a20746f6b656e207472616e73666572206661696c656400000000006044820152606401610b11565b611ae9336111e0565b60405181815233907fa2bd9fcfcdba69f52bcd9a520846ad4bd685b187483f53efc42d035b2ddebff09060200160405180910390a25050610bae60018055565b604080516080810182526298c1798152629a21096020820152629a1d859181019190915262a98ac76060820152600090600019825b6004811015611bef576000838260048110611b7b57611b7b612f4d565b60200201519050600080611bbd8361019160008b6001600160a01b03166001600160a01b03168152602001908152602001600020611ca290919063ffffffff16565b915091508115611bd85780851115611bd3578094505b611be4565b60009450505050611bef565b505050600101611b5e565b509392505050565b611bff611edc565b6001600160a01b038116611c645760405162461bcd60e51b815260206004820152602660248201527f4f776e61626c653a206e6577206f776e657220697320746865207a65726f206160448201526564647265737360d01b6064820152608401610b11565b610bae816120ac565b60006001600160e01b03198216630271189760e51b148061065657506301ffc9a760e01b6001600160e01b0319831614610656565b6000808080611cb186866123d7565b909450925050505b9250929050565b600061065682612411565b6000826000195b838211611d51576000611ce7836103e8612e96565b611cf390610378612e5c565b6001600160a01b038816600090815261019160205260408120919250908190611d1c9084611ca2565b915091508115611d375780841115611d32578093505b611d43565b60009350505050611d51565b505060019092019150611cd2565b95945050505050565b6000808080611cb1868661241c565b610bae611edc565b7f4910fdfa16fed3260ed0e7147f7cc6da11a60208b5b9406d12a635614ffd91435460ff1615611da45761187a83612447565b826001600160a01b03166352d1902d6040518163ffffffff1660e01b8152600401602060405180830381865afa925050508015611dfe575060408051601f3d908101601f19168201909252611dfb91810190613052565b60015b611e615760405162461bcd60e51b815260206004820152602e60248201527f45524331393637557067726164653a206e657720696d706c656d656e7461746960448201526d6f6e206973206e6f74205555505360901b6064820152608401610b11565b6000805160206130fc8339815191528114611ed05760405162461bcd60e51b815260206004820152602960248201527f45524331393637557067726164653a20756e737570706f727465642070726f786044820152681a58589b195555525160ba1b6064820152608401610b11565b5061187a8383836124e3565b61015f546001600160a01b0316331461136e5760405162461bcd60e51b815260206004820181905260248201527f4f776e61626c653a2063616c6c6572206973206e6f7420746865206f776e65726044820152606401610b11565b600260015403611f895760405162461bcd60e51b815260206004820152601f60248201527f5265656e7472616e637947756172643a207265656e7472616e742063616c6c006044820152606401610b11565b6002600155565b6000611f9d84848461250e565b949350505050565b6000611f9d84848461255a565b60006106998383612577565b6000611fc983610851565b5061019354604051639129554f60e01b81526001600160a01b038681166004830152602482018490528581166044830152929350911690639129554f90606401600060405180830381600087803b15801561202357600080fd5b505af1158015612037573d6000803e3d6000fd5b50505050505050565b60018055565b6000826000195b838211611d51576001600160a01b03861660009081526101916020526040812081906120799085611ca2565b915091508115612094578083111561208f578092505b61209f565b600092505050611d51565b505060019091019061204d565b61015f80546001600160a01b038381166001600160a01b0319831681179093556040519116919082907f8be0079c531659141344cd1fd0a4f28419497f9722a3daafe3b4186f6b6457e090600090a35050565b60c95460ff161561136e5760405162461bcd60e51b815260206004820152601060248201526f14185d5cd8589b194e881c185d5cd95960821b6044820152606401610b11565b336000908152610195602052604081208054849290612165908490612e5c565b90915550506040518281526001600160a01b038416907f1fdab8a8457aaf782e4b6217d6ffa6f5006eda7e50922dd092b2e1524275d7749060200160405180910390a261187a8382611fbe565b815160005b818110156122fd576000806122138784815181106121d7576121d7612f4d565b602002602001015161019160008b6001600160a01b03166001600160a01b03168152602001908152602001600020611ca290919063ffffffff16565b9150915081156122855761227f87848151811061223257612232612f4d565b602002602001015187858151811061224c5761224c612f4d565b60200260200101518361225f9190612e5c565b6001600160a01b038b166000908152610191602052604090209190611fa5565b506122f3565b6122f187848151811061229a5761229a612f4d565b60200260200101518785815181106122b4576122b4612f4d565b602002602001015161019160008c6001600160a01b03166001600160a01b03168152602001908152602001600020611fa59092919063ffffffff16565b505b50506001016121b7565b50846001600160a01b03167f648b098d3fd5004d32778dc4b02c48a787ec5a4fb928f04c64abaffb3b2e00d285856040516123399291906129e6565b60405180910390a261234b8583611fbe565b5050505050565b600054610100900460ff166123795760405162461bcd60e51b8152600401610b119061306b565b61136e612594565b600054610100900460ff166123a85760405162461bcd60e51b8152600401610b119061306b565b61136e6125c4565b600054610100900460ff1661136e5760405162461bcd60e51b8152600401610b119061306b565b6000818152600283016020526040812054819080612406576123f985856125eb565b925060009150611cb99050565b600192509050611cb9565b6000610656826125f7565b6000808061242a8585612601565b600081815260029690960160205260409095205494959350505050565b6001600160a01b0381163b6124b45760405162461bcd60e51b815260206004820152602d60248201527f455243313936373a206e657720696d706c656d656e746174696f6e206973206e60448201526c1bdd08184818dbdb9d1c9858dd609a1b6064820152608401610b11565b6000805160206130fc83398151915280546001600160a01b0319166001600160a01b0392909216919091179055565b6124ec8361260d565b6000825111806124f95750805b1561187a57612508838361264d565b50505050565b600082815260028401602052604081205480151580612532575061253285856125eb565b83906125515760405162461bcd60e51b8152600401610b1191906130b6565b50949350505050565b60008281526002840160205260408120829055611f9d8484612738565b600081815260028301602052604081208190556106998383612744565b600054610100900460ff166125bb5760405162461bcd60e51b8152600401610b119061306b565b61136e336120ac565b600054610100900460ff166120405760405162461bcd60e51b8152600401610b119061306b565b60006106998383612750565b6000610656825490565b60006106998383612768565b61261681612447565b6040516001600160a01b038216907fbc7cd75a20ee27fd9adebab32041f755214dbc6bffa90cc0225b39da2e5c2d3b90600090a250565b60606001600160a01b0383163b6126b55760405162461bcd60e51b815260206004820152602660248201527f416464726573733a2064656c65676174652063616c6c20746f206e6f6e2d636f6044820152651b9d1c9858dd60d21b6064820152608401610b11565b600080846001600160a01b0316846040516126d091906130c9565b600060405180830381855af49150503d806000811461270b576040519150601f19603f3d011682016040523d82523d6000602084013e612710565b606091505b5091509150611d51828260405180606001604052806027815260200161311c60279139612792565b600061069983836127ab565b600061069983836127fa565b60008181526001830160205260408120541515610699565b600082600001828154811061277f5761277f612f4d565b9060005260206000200154905092915050565b606083156127a1575081610699565b61069983836128ed565b60008181526001830160205260408120546127f257508154600181810184556000848152602080822090930184905584548482528286019093526040902091909155610656565b506000610656565b600081815260018301602052604081205480156128e357600061281e600183613019565b855490915060009061283290600190613019565b905081811461289757600086600001828154811061285257612852612f4d565b906000526020600020015490508087600001848154811061287557612875612f4d565b6000918252602080832090910192909255918252600188019052604090208390555b85548690806128a8576128a86130e5565b600190038181906000526020600020016000905590558560010160008681526020019081526020016000206000905560019350505050610656565b6000915050610656565b8151156128fd5781518083602001fd5b8060405162461bcd60e51b8152600401610b1191906130b6565b60006020828403121561292957600080fd5b81356001600160e01b03198116811461069957600080fd5b80356001600160a01b038116811461295857600080fd5b919050565b60008060006060848603121561297257600080fd5b61297b84612941565b95602085013595506040909401359392505050565b6000602082840312156129a257600080fd5b61069982612941565b600081518084526020808501945080840160005b838110156129db578151875295820195908201906001016129bf565b509495945050505050565b6040815260006129f960408301856129ab565b8281036020840152611d5181856129ab565b634e487b7160e01b600052604160045260246000fd5b604051601f8201601f191681016001600160401b0381118282101715612a4957612a49612a0b565b604052919050565b60008060408385031215612a6457600080fd5b612a6d83612941565b91506020808401356001600160401b0380821115612a8a57600080fd5b818601915086601f830112612a9e57600080fd5b813581811115612ab057612ab0612a0b565b612ac2601f8201601f19168501612a21565b91508082528784828501011115612ad857600080fd5b80848401858401376000848284010152508093505050509250929050565b600082601f830112612b0757600080fd5b813560206001600160401b03821115612b2257612b22612a0b565b8160051b612b31828201612a21565b9283528481018201928281019087851115612b4b57600080fd5b83870192505b84831015612b6a57823582529183019190830190612b51565b979650505050505050565b60008060408385031215612b8857600080fd5b82356001600160401b0380821115612b9f57600080fd5b612bab86838701612af6565b93506020850135915080821115612bc157600080fd5b50612bce85828601612af6565b9150509250929050565b60008060408385031215612beb57600080fd5b82359150612bfb60208401612941565b90509250929050565b600080600060608486031215612c1957600080fd5b83356001600160401b0380821115612c3057600080fd5b612c3c87838801612af6565b94506020860135915080821115612c5257600080fd5b50612c5f86828701612af6565b925050612c6e60408501612941565b90509250925092565b60008083601f840112612c8957600080fd5b5081356001600160401b03811115612ca057600080fd5b6020830191508360208260051b8501011115611cb957600080fd5b60008083601f840112612ccd57600080fd5b5081356001600160401b03811115612ce457600080fd5b602083019150836020828501011115611cb957600080fd5b60008060008060008060008060a0898b031215612d1857600080fd5b612d2189612941565b9750612d2f60208a01612941565b965060408901356001600160401b0380821115612d4b57600080fd5b612d578c838d01612c77565b909850965060608b0135915080821115612d7057600080fd5b612d7c8c838d01612c77565b909650945060808b0135915080821115612d9557600080fd5b50612da28b828c01612cbb565b999c989b5096995094979396929594505050565b600060208284031215612dc857600080fd5b5035919050565b60008060008060008060a08789031215612de857600080fd5b612df187612941565b9550612dff60208801612941565b9450604087013593506060870135925060808701356001600160401b03811115612e2857600080fd5b612e3489828a01612cbb565b979a9699509497509295939492505050565b634e487b7160e01b600052601160045260246000fd5b60008219821115612e6f57612e6f612e46565b500190565b600082612e9157634e487b7160e01b600052601260045260246000fd5b500490565b6000816000190483118215151615612eb057612eb0612e46565b500290565b6020808252602c908201527f46756e6374696f6e206d7573742062652063616c6c6564207468726f7567682060408201526b19195b1959d85d1958d85b1b60a21b606082015260800190565b6020808252602c908201527f46756e6374696f6e206d7573742062652063616c6c6564207468726f7567682060408201526b6163746976652070726f787960a01b606082015260800190565b634e487b7160e01b600052603260045260246000fd5b60005b83811015612f7e578181015183820152602001612f66565b838111156125085750506000910152565b60008151808452612fa7816020860160208601612f63565b601f01601f19169290920160200192915050565b6001600160a01b0386811682528516602082015260a060408201819052600090612fe7908301866129ab565b8281036060840152612ff981866129ab565b9050828103608084015261300d8185612f8f565b98975050505050505050565b60008282101561302b5761302b612e46565b500390565b60006020828403121561304257600080fd5b8151801515811461069957600080fd5b60006020828403121561306457600080fd5b5051919050565b6020808252602b908201527f496e697469616c697a61626c653a20636f6e7472616374206973206e6f74206960408201526a6e697469616c697a696e6760a81b606082015260800190565b6020815260006106996020830184612f8f565b600082516130db818460208701612f63565b9190910192915050565b634e487b7160e01b600052603160045260246000fdfe360894a13ba1a3210667c828492db98dca3e2076cc3735a920a3ca505d382bbc416464726573733a206c6f772d6c6576656c2064656c65676174652063616c6c206661696c6564a26469706673582212208be8caf7e252c01290f559a3c732f5310d13f8ce97ba05db4fe30264b5318a2964736f6c634300080f0033",
  "linkReferences": {},
  "deployedLinkReferences": {}
}