{
  "_format": "hh-sol-artifact-1",
  "contractName": "HatchyPocketGen2",
  "sourceName": "contracts/HatchyPocketGen2.sol",
  "abi": [
    {
      "anonymous": false,
      "inputs": [
        {
          "indexed": false,
          "internalType": "address",
          "name": "previousAdmin",
          "type": "address"
        },
        {
          "indexed": false,
          "internalType": "address",
          "name": "newAdmin",
          "type": "address"
        }
      ],
      "name": "AdminChanged",
      "type": "event"
    },
    {
      "anonymous": false,
      "inputs": [
        {
          "indexed": true,
          "internalType": "address",
          "name": "account",
          "type": "address"
        },
        {
          "indexed": true,
          "internalType": "address",
          "name": "operator",
          "type": "address"
        },
        {
          "indexed": false,
          "internalType": "bool",
          "name": "approved",
          "type": "bool"
        }
      ],
      "name": "ApprovalForAll",
      "type": "event"
    },
    {
      "anonymous": false,
      "inputs": [
        {
          "indexed": true,
          "internalType": "address",
          "name": "beacon",
          "type": "address"
        }
      ],
      "name": "BeaconUpgraded",
      "type": "event"
    },
    {
      "anonymous": false,
      "inputs": [
        {
          "indexed": false,
          "internalType": "uint8",
          "name": "version",
          "type": "uint8"
        }
      ],
      "name": "Initialized",
      "type": "event"
    },
    {
      "anonymous": false,
      "inputs": [
        {
          "indexed": true,
          "internalType": "address",
          "name": "previousOwner",
          "type": "address"
        },
        {
          "indexed": true,
          "internalType": "address",
          "name": "newOwner",
          "type": "address"
        }
      ],
      "name": "OwnershipTransferred",
      "type": "event"
    },
    {
      "anonymous": false,
      "inputs": [
        {
          "indexed": true,
          "internalType": "address",
          "name": "operator",
          "type": "address"
        },
        {
          "indexed": true,
          "internalType": "address",
          "name": "from",
          "type": "address"
        },
        {
          "indexed": true,
          "internalType": "address",
          "name": "to",
          "type": "address"
        },
        {
          "indexed": false,
          "internalType": "uint256[]",
          "name": "ids",
          "type": "uint256[]"
        },
        {
          "indexed": false,
          "internalType": "uint256[]",
          "name": "values",
          "type": "uint256[]"
        }
      ],
      "name": "TransferBatch",
      "type": "event"
    },
    {
      "anonymous": false,
      "inputs": [
        {
          "indexed": true,
          "internalType": "address",
          "name": "operator",
          "type": "address"
        },
        {
          "indexed": true,
          "internalType": "address",
          "name": "from",
          "type": "address"
        },
        {
          "indexed": true,
          "internalType": "address",
          "name": "to",
          "type": "address"
        },
        {
          "indexed": false,
          "internalType": "uint256",
          "name": "id",
          "type": "uint256"
        },
        {
          "indexed": false,
          "internalType": "uint256",
          "name": "value",
          "type": "uint256"
        }
      ],
      "name": "TransferSingle",
      "type": "event"
    },
    {
      "anonymous": false,
      "inputs": [
        {
          "indexed": false,
          "internalType": "string",
          "name": "value",
          "type": "string"
        },
        {
          "indexed": true,
          "internalType": "uint256",
          "name": "id",
          "type": "uint256"
        }
      ],
      "name": "URI",
      "type": "event"
    },
    {
      "anonymous": false,
      "inputs": [
        {
          "indexed": true,
          "internalType": "address",
          "name": "implementation",
          "type": "address"
        }
      ],
      "name": "Upgraded",
      "type": "event"
    },
    {
      "inputs": [],
      "name": "MAX_COMMON",
      "outputs": [
        {
          "internalType": "uint256",
          "name": "",
          "type": "uint256"
        }
      ],
      "stateMutability": "view",
      "type": "function"
    },
    {
      "inputs": [],
      "name": "MAX_SHINY",
      "outputs": [
        {
          "internalType": "uint256",
          "name": "",
          "type": "uint256"
        }
      ],
      "stateMutability": "view",
      "type": "function"
    },
    {
      "inputs": [
        {
          "internalType": "address",
          "name": "account",
          "type": "address"
        },
        {
          "internalType": "uint256[]",
          "name": "ids",
          "type": "uint256[]"
        }
      ],
      "name": "accountBalanceBatch",
      "outputs": [
        {
          "internalType": "uint256[]",
          "name": "",
          "type": "uint256[]"
        }
      ],
      "stateMutability": "view",
      "type": "function"
    },
    {
      "inputs": [],
      "name": "availableLunarCommonPool",
      "outputs": [
        {
          "internalType": "uint256[]",
          "name": "",
          "type": "uint256[]"
        }
      ],
      "stateMutability": "view",
      "type": "function"
    },
    {
      "inputs": [],
      "name": "availableLunarShinyPool",
      "outputs": [
        {
          "internalType": "uint256[]",
          "name": "",
          "type": "uint256[]"
        }
      ],
      "stateMutability": "view",
      "type": "function"
    },
    {
      "inputs": [],
      "name": "availableSharedCommonPool",
      "outputs": [
        {
          "internalType": "uint256[]",
          "name": "",
          "type": "uint256[]"
        }
      ],
      "stateMutability": "view",
      "type": "function"
    },
    {
      "inputs": [],
      "name": "availableSharedShinyPool",
      "outputs": [
        {
          "internalType": "uint256[]",
          "name": "",
          "type": "uint256[]"
        }
      ],
      "stateMutability": "view",
      "type": "function"
    },
    {
      "inputs": [],
      "name": "availableSolarCommonPool",
      "outputs": [
        {
          "internalType": "uint256[]",
          "name": "",
          "type": "uint256[]"
        }
      ],
      "stateMutability": "view",
      "type": "function"
    },
    {
      "inputs": [],
      "name": "availableSolarShinyPool",
      "outputs": [
        {
          "internalType": "uint256[]",
          "name": "",
          "type": "uint256[]"
        }
      ],
      "stateMutability": "view",
      "type": "function"
    },
    {
      "inputs": [
        {
          "internalType": "address",
          "name": "account",
          "type": "address"
        },
        {
          "internalType": "uint256",
          "name": "id",
          "type": "uint256"
        }
      ],
      "name": "balanceOf",
      "outputs": [
        {
          "internalType": "uint256",
          "name": "",
          "type": "uint256"
        }
      ],
      "stateMutability": "view",
      "type": "function"
    },
    {
      "inputs": [
        {
          "internalType": "address[]",
          "name": "accounts",
          "type": "address[]"
        },
        {
          "internalType": "uint256[]",
          "name": "ids",
          "type": "uint256[]"
        }
      ],
      "name": "balanceOfBatch",
      "outputs": [
        {
          "internalType": "uint256[]",
          "name": "",
          "type": "uint256[]"
        }
      ],
      "stateMutability": "view",
      "type": "function"
    },
    {
      "inputs": [],
      "name": "class",
      "outputs": [
        {
          "internalType": "string",
          "name": "",
          "type": "string"
        }
      ],
      "stateMutability": "view",
      "type": "function"
    },
    {
      "inputs": [
        {
          "internalType": "uint256",
          "name": "_input",
          "type": "uint256"
        },
        {
          "internalType": "uint256",
          "name": "_number",
          "type": "uint256"
        }
      ],
      "name": "dn",
      "outputs": [
        {
          "internalType": "uint256",
          "name": "",
          "type": "uint256"
        }
      ],
      "stateMutability": "view",
      "type": "function"
    },
    {
      "inputs": [],
      "name": "flipState",
      "outputs": [],
      "stateMutability": "nonpayable",
      "type": "function"
    },
    {
      "inputs": [
        {
          "internalType": "enum Hatchy.Egg",
          "name": "egg",
          "type": "uint8"
        },
        {
          "internalType": "uint256",
          "name": "amount",
          "type": "uint256"
        }
      ],
      "name": "hatchMultiple",
      "outputs": [],
      "stateMutability": "nonpayable",
      "type": "function"
    },
    {
      "inputs": [
        {
          "internalType": "enum Hatchy.Egg",
          "name": "egg",
          "type": "uint8"
        }
      ],
      "name": "hatchSingle",
      "outputs": [],
      "stateMutability": "nonpayable",
      "type": "function"
    },
    {
      "inputs": [
        {
          "internalType": "uint256",
          "name": "",
          "type": "uint256"
        }
      ],
      "name": "hatchySupplies",
      "outputs": [
        {
          "internalType": "uint256",
          "name": "",
          "type": "uint256"
        }
      ],
      "stateMutability": "view",
      "type": "function"
    },
    {
      "inputs": [
        {
          "internalType": "string",
          "name": "_baseUri",
          "type": "string"
        }
      ],
      "name": "initialize",
      "outputs": [],
      "stateMutability": "nonpayable",
      "type": "function"
    },
    {
      "inputs": [],
      "name": "initialize1",
      "outputs": [],
      "stateMutability": "nonpayable",
      "type": "function"
    },
    {
      "inputs": [],
      "name": "initialize2",
      "outputs": [],
      "stateMutability": "nonpayable",
      "type": "function"
    },
    {
      "inputs": [],
      "name": "initialize3",
      "outputs": [],
      "stateMutability": "nonpayable",
      "type": "function"
    },
    {
      "inputs": [],
      "name": "initialize4",
      "outputs": [],
      "stateMutability": "nonpayable",
      "type": "function"
    },
    {
      "inputs": [],
      "name": "initialize5",
      "outputs": [],
      "stateMutability": "nonpayable",
      "type": "function"
    },
    {
      "inputs": [],
      "name": "initialize6",
      "outputs": [],
      "stateMutability": "nonpayable",
      "type": "function"
    },
    {
      "inputs": [
        {
          "internalType": "address",
          "name": "account",
          "type": "address"
        },
        {
          "internalType": "address",
          "name": "operator",
          "type": "address"
        }
      ],
      "name": "isApprovedForAll",
      "outputs": [
        {
          "internalType": "bool",
          "name": "",
          "type": "bool"
        }
      ],
      "stateMutability": "view",
      "type": "function"
    },
    {
      "inputs": [],
      "name": "name",
      "outputs": [
        {
          "internalType": "string",
          "name": "_name",
          "type": "string"
        }
      ],
      "stateMutability": "pure",
      "type": "function"
    },
    {
      "inputs": [],
      "name": "noShinyStreak",
      "outputs": [
        {
          "internalType": "uint256",
          "name": "",
          "type": "uint256"
        }
      ],
      "stateMutability": "view",
      "type": "function"
    },
    {
      "inputs": [],
      "name": "owner",
      "outputs": [
        {
          "internalType": "address",
          "name": "",
          "type": "address"
        }
      ],
      "stateMutability": "view",
      "type": "function"
    },
    {
      "inputs": [],
      "name": "proxiableUUID",
      "outputs": [
        {
          "internalType": "bytes32",
          "name": "",
          "type": "bytes32"
        }
      ],
      "stateMutability": "view",
      "type": "function"
    },
    {
      "inputs": [],
      "name": "renounceOwnership",
      "outputs": [],
      "stateMutability": "nonpayable",
      "type": "function"
    },
    {
      "inputs": [
        {
          "internalType": "address",
          "name": "from",
          "type": "address"
        },
        {
          "internalType": "address",
          "name": "to",
          "type": "address"
        },
        {
          "internalType": "uint256[]",
          "name": "ids",
          "type": "uint256[]"
        },
        {
          "internalType": "uint256[]",
          "name": "amounts",
          "type": "uint256[]"
        },
        {
          "internalType": "bytes",
          "name": "data",
          "type": "bytes"
        }
      ],
      "name": "safeBatchTransferFrom",
      "outputs": [],
      "stateMutability": "nonpayable",
      "type": "function"
    },
    {
      "inputs": [
        {
          "internalType": "address",
          "name": "from",
          "type": "address"
        },
        {
          "internalType": "address",
          "name": "to",
          "type": "address"
        },
        {
          "internalType": "uint256",
          "name": "id",
          "type": "uint256"
        },
        {
          "internalType": "uint256",
          "name": "amount",
          "type": "uint256"
        },
        {
          "internalType": "bytes",
          "name": "data",
          "type": "bytes"
        }
      ],
      "name": "safeTransferFrom",
      "outputs": [],
      "stateMutability": "nonpayable",
      "type": "function"
    },
    {
      "inputs": [
        {
          "internalType": "address",
          "name": "operator",
          "type": "address"
        },
        {
          "internalType": "bool",
          "name": "approved",
          "type": "bool"
        }
      ],
      "name": "setApprovalForAll",
      "outputs": [],
      "stateMutability": "nonpayable",
      "type": "function"
    },
    {
      "inputs": [
        {
          "internalType": "address",
          "name": "_eggs",
          "type": "address"
        }
      ],
      "name": "setEggContract",
      "outputs": [],
      "stateMutability": "nonpayable",
      "type": "function"
    },
    {
      "inputs": [
        {
          "internalType": "bytes4",
          "name": "interfaceId",
          "type": "bytes4"
        }
      ],
      "name": "supportsInterface",
      "outputs": [
        {
          "internalType": "bool",
          "name": "",
          "type": "bool"
        }
      ],
      "stateMutability": "view",
      "type": "function"
    },
    {
      "inputs": [],
      "name": "symbol",
      "outputs": [
        {
          "internalType": "string",
          "name": "_name",
          "type": "string"
        }
      ],
      "stateMutability": "pure",
      "type": "function"
    },
    {
      "inputs": [
        {
          "internalType": "uint256",
          "name": "id",
          "type": "uint256"
        }
      ],
      "name": "tokenURI",
      "outputs": [
        {
          "internalType": "string",
          "name": "",
          "type": "string"
        }
      ],
      "stateMutability": "view",
      "type": "function"
    },
    {
      "inputs": [
        {
          "internalType": "address",
          "name": "newOwner",
          "type": "address"
        }
      ],
      "name": "transferOwnership",
      "outputs": [],
      "stateMutability": "nonpayable",
      "type": "function"
    },
    {
      "inputs": [
        {
          "internalType": "address",
          "name": "newImplementation",
          "type": "address"
        }
      ],
      "name": "upgradeTo",
      "outputs": [],
      "stateMutability": "nonpayable",
      "type": "function"
    },
    {
      "inputs": [
        {
          "internalType": "address",
          "name": "newImplementation",
          "type": "address"
        },
        {
          "internalType": "bytes",
          "name": "data",
          "type": "bytes"
        }
      ],
      "name": "upgradeToAndCall",
      "outputs": [],
      "stateMutability": "payable",
      "type": "function"
    },
    {
      "inputs": [
        {
          "internalType": "uint256",
          "name": "_id",
          "type": "uint256"
        }
      ],
      "name": "uri",
      "outputs": [
        {
          "internalType": "string",
          "name": "",
          "type": "string"
        }
      ],
      "stateMutability": "view",
      "type": "function"
    },
    {
      "inputs": [],
      "name": "version",
      "outputs": [
        {
          "internalType": "string",
          "name": "",
          "type": "string"
        }
      ],
      "stateMutability": "view",
      "type": "function"
    }
  ],
  "bytecode": "0x60a06040523060805234801561001457600080fd5b506080516140af61004c60003960008181610a7101528181610ab101528181610e4101528181610e810152610f1001526140af6000f3fe6080604052600436106102505760003560e01c80637ae6426111610139578063caeb50ed116100b6578063e985e9c51161007a578063e985e9c5146106b2578063ec918b65146106fb578063f17bdcce14610710578063f242432a14610730578063f2fde38b14610750578063f62d18881461077057600080fd5b8063caeb50ed1461063e578063d079ebf514610653578063e1dddb3414610668578063e3579fd81461067d578063e818ff0e1461069d57600080fd5b8063a22cb465116100fd578063a22cb465146105a2578063bff852fa146105c2578063c087dded146105f4578063c1233cc514610609578063c87b56dd1461061e57600080fd5b80637ae64261146105075780638da5cb5b1461051c5780638e9203511461054457806395d89b41146105595780639e02a1471461058d57600080fd5b80633f9fdf3c116101d257806354fd4d501161019657806354fd4d5014610449578063558ed2611461047a578063636ab114146104a85780636fe794dd146104c8578063715018a6146104dd57806372b9c21e146104f257600080fd5b80633f9fdf3c146103bf578063472abf68146103df5780634e1273f4146103f45780634f1ef2861461042157806352d1902d1461043457600080fd5b80631fbea948116102195780631fbea948146103315780632095170b146103535780632c468096146103685780632eb2c2d61461037f5780633659cfe61461039f57600080fd5b8062fdd58e1461025557806301ffc9a71461028857806306fdde03146102b85780630e89341c146102fb57806313a0f42d1461031b575b600080fd5b34801561026157600080fd5b5061027561027036600461333e565b610790565b6040519081526020015b60405180910390f35b34801561029457600080fd5b506102a86102a336600461337e565b61082b565b604051901515815260200161027f565b3480156102c457600080fd5b506040805180820190915260118152702430ba31b43ca837b1b5b2ba1023b2b71960791b60208201525b60405161027f91906133f3565b34801561030757600080fd5b506102ee610316366004613406565b61087b565b34801561032757600080fd5b5061027561138881565b34801561033d57600080fd5b5061035161034c36600461341f565b610886565b005b34801561035f57600080fd5b506103516108b7565b34801561037457600080fd5b5061027561013c5481565b34801561038b57600080fd5b5061035161039a36600461358d565b610a1b565b3480156103ab57600080fd5b506103516103ba36600461341f565b610a67565b3480156103cb57600080fd5b506102756103da366004613636565b610b46565b3480156103eb57600080fd5b50610351610b63565b34801561040057600080fd5b5061041461040f366004613658565b610d0e565b60405161027f919061375d565b61035161042f366004613770565b610e37565b34801561044057600080fd5b50610275610f03565b34801561045557600080fd5b506102ee60405180604001604052806005815260200164302e302e3160d81b81525081565b34801561048657600080fd5b50610275610495366004613406565b61012f6020526000908152604090205481565b3480156104b457600080fd5b506103516104c33660046137c2565b610fb7565b3480156104d457600080fd5b50610414611066565b3480156104e957600080fd5b50610351611078565b3480156104fe57600080fd5b5061041461108c565b34801561051357600080fd5b50610351611099565b34801561052857600080fd5b506033546040516001600160a01b03909116815260200161027f565b34801561055057600080fd5b50610351611232565b34801561056557600080fd5b5060408051808201909152600b81526a2420aa21a42c9023a2a71960a91b60208201526102ee565b34801561059957600080fd5b5061041461124f565b3480156105ae57600080fd5b506103516105bd3660046137dd565b61125c565b3480156105ce57600080fd5b506102ee6040518060400160405280600681526020016552616e646f6d60d01b81525081565b34801561060057600080fd5b50610414611267565b34801561061557600080fd5b50610414611274565b34801561062a57600080fd5b506102ee610639366004613406565b611281565b34801561064a57600080fd5b506103516112b6565b34801561065f57600080fd5b50610351611460565b34801561067457600080fd5b50610414611670565b34801561068957600080fd5b50610351610698366004613819565b61167d565b3480156106a957600080fd5b50610275608c81565b3480156106be57600080fd5b506102a86106cd366004613835565b6001600160a01b03918216600090815260986020908152604080832093909416825291909152205460ff1690565b34801561070757600080fd5b5061035161178a565b34801561071c57600080fd5b5061041461072b366004613868565b6118e8565b34801561073c57600080fd5b5061035161074b3660046138ab565b611978565b34801561075c57600080fd5b5061035161076b36600461341f565b6119bd565b34801561077c57600080fd5b5061035161078b36600461390f565b611a33565b60006001600160a01b0383166108005760405162461bcd60e51b815260206004820152602a60248201527f455243313135353a2061646472657373207a65726f206973206e6f742061207660448201526930b634b21037bbb732b960b11b60648201526084015b60405180910390fd5b5060008181526097602090815260408083206001600160a01b03861684529091529020545b92915050565b60006001600160e01b03198216636cdb3d1360e11b148061085c57506001600160e01b031982166303a24d0760e21b145b8061082557506301ffc9a760e01b6001600160e01b0319831614610825565b606061082582611281565b61088e611b6a565b61012d80546001600160a01b0390921661010002610100600160a81b0319909216919091179055565b6108bf611b6a565b6108ca610130611bc4565b51156108e85760405162461bcd60e51b81526004016107f79061395f565b604080516103c081018252602d8152602e602082015260379181019190915260386060820152603d608080830191909152604460a0830152604a60c0830152604b60e0830152604e610100830152605261012083015260546101408301526058610160830152606261018083015260666101a083015260696101c0830152606b6101e0830152607b610200830152607c610220830152607d610240830152607e610260830152607f6102808301526102a082015260816102c082015260826102e08201526083610300820152608461032082015260856103408201526086610360820152608761038082015260886103a082015260005b601e811015610a1757610a0e8282601e81106109fd576109fd61397e565b60200201516101309060ff16611bd1565b506001016109df565b5050565b6001600160a01b038516331480610a375750610a3785336106cd565b610a535760405162461bcd60e51b81526004016107f790613994565b610a608585858585611bdd565b5050505050565b6001600160a01b037f0000000000000000000000000000000000000000000000000000000000000000163003610aaf5760405162461bcd60e51b81526004016107f7906139e2565b7f00000000000000000000000000000000000000000000000000000000000000006001600160a01b0316610af8600080516020614033833981519152546001600160a01b031690565b6001600160a01b031614610b1e5760405162461bcd60e51b81526004016107f790613a2e565b610b2781611db5565b60408051600080825260208201909252610b4391839190611dbd565b50565b600081610b5284611f2d565b610b5c9190613a90565b9392505050565b610b6b611b6a565b610b76610132611bc4565b5115610b945760405162461bcd60e51b81526004016107f79061395f565b604080516104008101825262a98ac7815262022a40602082015261b3409181019190915261b728606082015261da50608082015261de3860a082015261f1c060c082015262010d1860e0820152620124886101008201526201287061012082015262013428610140820152620143c861016082015262014b9861018082015262015b386101a0820152620182486101c0820152620191e86101e082015262019da06102008201526201a5706102208201526201e3f06102408201526201e7d86102608201526201ebc06102808201526201efa86102a08201526201f3906102c08201526201f7786102e08201526201fb606103008201526201ff48610320820152620203306103408201526202071861036082015262020b0061038082015262020ee86103a0820152620212d06103c0820152620216b86103e082015260005b6020811015610a1757610d05828260208110610cf257610cf261397e565b60200201516101329062ffffff16611bd1565b50600101610cd4565b60608151835114610d735760405162461bcd60e51b815260206004820152602960248201527f455243313135353a206163636f756e747320616e6420696473206c656e677468604482015268040dad2e6dac2e8c6d60bb1b60648201526084016107f7565b600083516001600160401b03811115610d8e57610d8e61343a565b604051908082528060200260200182016040528015610db7578160200160208202803683370190505b50905060005b8451811015610e2f57610e02858281518110610ddb57610ddb61397e565b6020026020010151858381518110610df557610df561397e565b6020026020010151610790565b828281518110610e1457610e1461397e565b6020908102919091010152610e2881613aba565b9050610dbd565b509392505050565b6001600160a01b037f0000000000000000000000000000000000000000000000000000000000000000163003610e7f5760405162461bcd60e51b81526004016107f7906139e2565b7f00000000000000000000000000000000000000000000000000000000000000006001600160a01b0316610ec8600080516020614033833981519152546001600160a01b031690565b6001600160a01b031614610eee5760405162461bcd60e51b81526004016107f790613a2e565b610ef782611db5565b610a1782826001611dbd565b6000306001600160a01b037f00000000000000000000000000000000000000000000000000000000000000001614610fa35760405162461bcd60e51b815260206004820152603860248201527f555550535570677261646561626c653a206d757374206e6f742062652063616c60448201527f6c6564207468726f7567682064656c656761746563616c6c000000000000000060648201526084016107f7565b506000805160206140338339815191525b90565b61012d5460ff16610ff55760405162461bcd60e51b81526020600482015260086024820152673737ba103cb2ba1760c11b60448201526064016107f7565b610ffe81611f92565b61012d5460405163545bc2a760e11b81526101009091046001600160a01b03169063a8b7854e906110389084903390600190600401613b0b565b600060405180830381600087803b15801561105257600080fd5b505af1158015610a60573d6000803e3d6000fd5b6060611073610138611bc4565b905090565b611080611b6a565b61108a600061206a565b565b606061107361013a611bc4565b6110a1611b6a565b6110ac610138611bc4565b51156110ca5760405162461bcd60e51b81526004016107f79061395f565b604080516104a081018252602b8152602c6020820152602f81830152603060608083019190915260326080830152603360a0830152603460c0830152603560e08301526039610100830152603a610120830152603b610140830152603c610160830152603f6101808301526101a082019290925260416101c082015260426101e0820152604361020082015260456102208201526046610240820152604c610260820152604f61028082015260506102a082015260516102c082015260536102e082015260576103008201526059610320820152605a610340820152605b610360820152605c610380820152605d6103a08201526103c081019190915260616103e08201526063610400820152606561042082015260676104408201526068610460820152606a61048082015260005b6025811015610a17576112298282602581106112185761121861397e565b60200201516101389060ff16611bd1565b506001016111fa565b61123a611b6a565b61012d805460ff19811660ff90911615179055565b6060611073610132611bc4565b610a173383836120bc565b6060611073610134611bc4565b6060611073610136611bc4565b606061013d61128f8361219c565b6040516020016112a0929190613b6d565b6040516020818303038152906040529050919050565b6112be611b6a565b6112c9610136611bc4565b51156112e75760405162461bcd60e51b81526004016107f79061395f565b6040805161040081018252629a1d858152620226586020820152619fb89181019190915261a3a0606082015261a788608082015261c2e060a082015261d66860c082015261f5a860e0820152620118d061010082015262011cb8610120820152620120a06101408201526201304061016082015262014f80610180820152620153686101a0820152620172a86101c0820152620176906101e082015262018a186102008201526201a9586102208201526201ad406102408201526201b1286102608201526201b5106102808201526201b8f86102a08201526201bce06102c08201526201c0c86102e08201526201c4b06103008201526201c8986103208201526201cc806103408201526201d0686103608201526201d4506103808201526201d8386103a08201526201dc206103c08201526201e0086103e082015260005b6020811015610a17576114578282602081106114445761144461397e565b60200201516101369062ffffff16611bd1565b50600101611426565b611468611b6a565b61147361013a611bc4565b51156114915760405162461bcd60e51b81526004016107f79061395f565b60408051610560810182526298c1798152629a2109602082015262021aa09181019190915262021e88606082015262022270608082015262022e2860a082015261ab7060c082015261af5860e082015261bb1061010082015261bef861012082015261c6c861014082015261cab061016082015261ce9861018082015261d2806101a082015261e2206101c082015261e6086101e082015261e9f061020082015261edd861022082015261f99061024082015261fd7861026082015262010160610280820152620105486102a0820152620109306102c0820152620111006102e0820152620114e861030082015262012c586103208201526201381061034082015262013bf861036082015262013fe0610380820152620147b06103a0820152620157506103c082015262015f206103e082015262016308610400820152620166f061042082015262016ad861044082015262016ec061046082015262017a7861048082015262017e606104a0820152620186306104c082015262018e006104e0820152620195d0610500820152620199b86105208201526201a18861054082015260005b602b811015610a17576116678282602b81106116545761165461397e565b602002015161013a9062ffffff16611bd1565b50600101611636565b6060611073610130611bc4565b61012d5460ff166116bb5760405162461bcd60e51b81526020600482015260086024820152673737ba103cb2ba1760c11b60448201526064016107f7565b600a8111156116f45760405162461bcd60e51b8152602060048201526005602482015264326d616e7960d81b60448201526064016107f7565b60005b8181101561171a5761170883611f92565b8061171281613aba565b9150506116f7565b5061012d5460405163545bc2a760e11b81526101009091046001600160a01b03169063a8b7854e9061175490859033908690600401613b0b565b600060405180830381600087803b15801561176e57600080fd5b505af1158015611782573d6000803e3d6000fd5b505050505050565b611792611b6a565b61179d610134611bc4565b51156117bb5760405162461bcd60e51b81526004016107f79061395f565b604080516103c0810182526028815260296020820152602a918101919091526031606082015260366080820152603e60a0820152604760c0820152604860e08201526049610100820152604d61012082015260556101408201526056610160820152605e610180820152605f6101a082015260646101c0820152606c6101e0820152606d610200820152606e610220820152606f6102408201526070610260820152607161028082015260726102a082015260736102c082015260746102e082015260756103008201526076610320820152607761034082015260786103608201526079610380820152607a6103a082015260005b601e811015610a17576118df8282601e81106118ce576118ce61397e565b60200201516101349060ff16611bd1565b506001016118b0565b6060600082516001600160401b038111156119055761190561343a565b60405190808252806020026020018201604052801561192e578160200160208202803683370190505b50905060005b8351811015610e2f5761195385858381518110610df557610df561397e565b8282815181106119655761196561397e565b6020908102919091010152600101611934565b6001600160a01b038516331480611994575061199485336106cd565b6119b05760405162461bcd60e51b81526004016107f790613994565b610a60858585858561222e565b6119c5611b6a565b6001600160a01b038116611a2a5760405162461bcd60e51b815260206004820152602660248201527f4f776e61626c653a206e6577206f776e657220697320746865207a65726f206160448201526564647265737360d01b60648201526084016107f7565b610b438161206a565b600054610100900460ff1615808015611a535750600054600160ff909116105b80611a6d5750303b158015611a6d575060005460ff166001145b611ad05760405162461bcd60e51b815260206004820152602e60248201527f496e697469616c697a61626c653a20636f6e747261637420697320616c72656160448201526d191e481a5b9a5d1a585b1a5e995960921b60648201526084016107f7565b6000805460ff191660011790558015611af3576000805461ff0019166101001790555b611afb61235c565b611b048261238b565b611b0f600a43613a90565b61012e5561013d611b208382613c3a565b508015610a17576000805461ff0019169055604051600181527f7f26b83ff96e1f2b6a682f133852f6798a09c465da95921460cefb38474024989060200160405180910390a15050565b6033546001600160a01b0316331461108a5760405162461bcd60e51b815260206004820181905260248201527f4f776e61626c653a2063616c6c6572206973206e6f7420746865206f776e657260448201526064016107f7565b60606000610b5c836123bb565b6000610b5c8383612417565b8151835114611c3f5760405162461bcd60e51b815260206004820152602860248201527f455243313135353a2069647320616e6420616d6f756e7473206c656e677468206044820152670dad2e6dac2e8c6d60c31b60648201526084016107f7565b6001600160a01b038416611c655760405162461bcd60e51b81526004016107f790613cf9565b3360005b8451811015611d4f576000858281518110611c8657611c8661397e565b602002602001015190506000858381518110611ca457611ca461397e565b60209081029190910181015160008481526097835260408082206001600160a01b038e168352909352919091205490915081811015611cf55760405162461bcd60e51b81526004016107f790613d3e565b60008381526097602090815260408083206001600160a01b038e8116855292528083208585039055908b16825281208054849290611d34908490613d88565b9250508190555050505080611d4890613aba565b9050611c69565b50846001600160a01b0316866001600160a01b0316826001600160a01b03167f4a39dc06d4c0dbc64b70af90fd698a233a518aa5d07e595d983b8c0526c8f7fb8787604051611d9f929190613da0565b60405180910390a4611782818787878787612466565b610b43611b6a565b7f4910fdfa16fed3260ed0e7147f7cc6da11a60208b5b9406d12a635614ffd91435460ff1615611df557611df0836125ca565b505050565b826001600160a01b03166352d1902d6040518163ffffffff1660e01b8152600401602060405180830381865afa925050508015611e4f575060408051601f3d908101601f19168201909252611e4c91810190613dc5565b60015b611eb25760405162461bcd60e51b815260206004820152602e60248201527f45524331393637557067726164653a206e657720696d706c656d656e7461746960448201526d6f6e206973206e6f74205555505360901b60648201526084016107f7565b6000805160206140338339815191528114611f215760405162461bcd60e51b815260206004820152602960248201527f45524331393637557067726164653a20756e737570706f727465642070726f786044820152681a58589b195555525160ba1b60648201526084016107f7565b50611df0838383612666565b6000610825425a60408051602081019390935282015260608082018590526bffffffffffffffffffffffff1933821b811660808401524360948401523090911b1660b482015261075960c882015260e801604051602081830303815290604052612691565b6000611f9d826126c2565b61012e80549192506000611fb083613aba565b919050555080611fd55761013c8054906000611fcb83613aba565b9190505550611fdc565b600061013c555b8015612026576000611fed8361279c565b9050801561201e57600183600181111561200957612009613ad3565b0361201657611df0612846565b611df0612939565b611df06129f5565b600061203183612ab1565b9050801561206257600183600181111561204d5761204d613ad3565b0361205a57611df0612b2b565b611df0612be8565b611df0612ca5565b603380546001600160a01b038381166001600160a01b0319831681179093556040519116919082907f8be0079c531659141344cd1fd0a4f28419497f9722a3daafe3b4186f6b6457e090600090a35050565b816001600160a01b0316836001600160a01b03160361212f5760405162461bcd60e51b815260206004820152602960248201527f455243313135353a2073657474696e6720617070726f76616c20737461747573604482015268103337b91039b2b63360b91b60648201526084016107f7565b6001600160a01b03838116600081815260986020908152604080832094871680845294825291829020805460ff191686151590811790915591519182527f17307eab39ab6107e8899845ad3d59bd9653f200f220920489ca2b5937696c31910160405180910390a3505050565b606060006121a983612d62565b60010190506000816001600160401b038111156121c8576121c861343a565b6040519080825280601f01601f1916602001820160405280156121f2576020820181803683370190505b5090508181016020015b600019016f181899199a1a9b1b9c1cb0b131b232b360811b600a86061a8153600a85049450846121fc57509392505050565b6001600160a01b0384166122545760405162461bcd60e51b81526004016107f790613cf9565b33600061226085612e3a565b9050600061226d85612e3a565b905060008681526097602090815260408083206001600160a01b038c168452909152902054858110156122b25760405162461bcd60e51b81526004016107f790613d3e565b60008781526097602090815260408083206001600160a01b038d8116855292528083208985039055908a168252812080548892906122f1908490613d88565b909155505060408051888152602081018890526001600160a01b03808b16928c821692918816917fc3d58168c5ae7397731d063d5bbf3d657854427343f4c083240f7aacaa2d0f62910160405180910390a4612351848a8a8a8a8a612e85565b505050505050505050565b600054610100900460ff166123835760405162461bcd60e51b81526004016107f790613dde565b61108a612f40565b600054610100900460ff166123b25760405162461bcd60e51b81526004016107f790613dde565b610b4381612f70565b60608160000180548060200260200160405190810160405280929190818152602001828054801561240b57602002820191906000526020600020905b8154815260200190600101908083116123f7575b50505050509050919050565b600081815260018301602052604081205461245e57508154600181810184556000848152602080822090930184905584548482528286019093526040902091909155610825565b506000610825565b6001600160a01b0384163b156117825760405163bc197c8160e01b81526001600160a01b0385169063bc197c81906124aa9089908990889088908890600401613e29565b6020604051808303816000875af19250505080156124e5575060408051601f3d908101601f191682019092526124e291810190613e87565b60015b612591576124f1613ea4565b806308c379a00361252a5750612505613ebf565b80612510575061252c565b8060405162461bcd60e51b81526004016107f791906133f3565b505b60405162461bcd60e51b815260206004820152603460248201527f455243313135353a207472616e7366657220746f206e6f6e2d455243313135356044820152732932b1b2b4bb32b91034b6b83632b6b2b73a32b960611b60648201526084016107f7565b6001600160e01b0319811663bc197c8160e01b146125c15760405162461bcd60e51b81526004016107f790613f48565b50505050505050565b6001600160a01b0381163b6126375760405162461bcd60e51b815260206004820152602d60248201527f455243313936373a206e657720696d706c656d656e746174696f6e206973206e60448201526c1bdd08184818dbdb9d1c9858dd609a1b60648201526084016107f7565b60008051602061403383398151915280546001600160a01b0319166001600160a01b0392909216919091179055565b61266f83612fa0565b60008251118061267c5750805b15611df05761268b8383612fe0565b50505050565b6000816040516020016126a49190613f90565b60408051601f19818403018152919052805160209091012092915050565b600060018260018111156126d8576126d8613ad3565b1480156126ee57506126eb610134611bc4565b51155b80156127035750612700610138611bc4565b51155b1561271057506001919050565b600082600181111561272457612724613ad3565b14801561273a5750612737610130611bc4565b51155b801561274f575061274c610138611bc4565b51155b1561275c57506001919050565b6000603c61013c5461276e9190613fac565b905060618161277f61012e546130d4565b6127899190613d88565b612794906001613d88565b119392505050565b6000808260018111156127b1576127b1613ad3565b1480156127c757506127c4610132611bc4565b51155b156127d457506000919050565b60018260018111156127e8576127e8613ad3565b1480156127fe57506127fb610136611bc4565b51155b1561280b57506000919050565b61281661013a611bc4565b5160000361282657506001919050565b602b61283461012e546130d4565b61283f906001613d88565b1092915050565b6000612853610136611bc4565b905060006128704361012e546128699190613d88565b8351610b46565b61012e8054919250600061288383613aba565b9190505550600082828151811061289c5761289c61397e565b602002602001015190506128f63382600160006001600160401b038111156128c6576128c661343a565b6040519080825280601f01601f1916602001820160405280156128f0576020820181803683370190505b506130e1565b600081815261012f6020526040812080549161291183613aba565b9091555050600081815261012f6020526040902054608c11611df05761268b610136826131ee565b6000612946610132611bc4565b9050600061295c4361012e546128699190613d88565b61012e8054919250600061296f83613aba565b919050555060008282815181106129885761298861397e565b602002602001015190506129b23382600160006001600160401b038111156128c6576128c661343a565b600081815261012f602052604081208054916129cd83613aba565b9091555050600081815261012f6020526040902054608c11611df05761268b610132826131ee565b6000612a0261013a611bc4565b90506000612a184361012e546128699190613d88565b61012e80549192506000612a2b83613aba565b91905055506000828281518110612a4457612a4461397e565b60200260200101519050612a6e3382600160006001600160401b038111156128c6576128c661343a565b600081815261012f60205260408120805491612a8983613aba565b9091555050600081815261012f6020526040902054608c11611df05761268b61013a826131ee565b600080826001811115612ac657612ac6613ad3565b148015612adc5750612ad9610130611bc4565b51155b15612ae957506000919050565b6001826001811115612afd57612afd613ad3565b148015612b135750612b10610134611bc4565b51155b15612b2057506000919050565b612816610138611bc4565b6000612b38610134611bc4565b90506000612b4e4361012e546128699190613d88565b61012e80549192506000612b6183613aba565b91905055506000828281518110612b7a57612b7a61397e565b60200260200101519050612ba43382600160006001600160401b038111156128c6576128c661343a565b600081815261012f60205260408120805491612bbf83613aba565b9091555050600081815261012f602052604090205461138811611df05761268b610134826131ee565b6000612bf5610130611bc4565b90506000612c0b4361012e546128699190613d88565b61012e80549192506000612c1e83613aba565b91905055506000828281518110612c3757612c3761397e565b60200260200101519050612c613382600160006001600160401b038111156128c6576128c661343a565b600081815261012f60205260408120805491612c7c83613aba565b9091555050600081815261012f602052604090205461138811611df05761268b610130826131ee565b6000612cb2610138611bc4565b90506000612cc84361012e546128699190613d88565b61012e80549192506000612cdb83613aba565b91905055506000828281518110612cf457612cf461397e565b60200260200101519050612d1e3382600160006001600160401b038111156128c6576128c661343a565b600081815261012f60205260408120805491612d3983613aba565b9091555050600081815261012f602052604090205461138811611df05761268b610138826131ee565b60008072184f03e93ff9f4daa797ed6e38ed64bf6a1f0160401b8310612da15772184f03e93ff9f4daa797ed6e38ed64bf6a1f0160401b830492506040015b6d04ee2d6d415b85acef81000000008310612dcd576d04ee2d6d415b85acef8100000000830492506020015b662386f26fc100008310612deb57662386f26fc10000830492506010015b6305f5e1008310612e03576305f5e100830492506008015b6127108310612e1757612710830492506004015b60648310612e29576064830492506002015b600a83106108255760010192915050565b60408051600180825281830190925260609160009190602080830190803683370190505090508281600081518110612e7457612e7461397e565b602090810291909101015292915050565b6001600160a01b0384163b156117825760405163f23a6e6160e01b81526001600160a01b0385169063f23a6e6190612ec99089908990889088908890600401613fc0565b6020604051808303816000875af1925050508015612f04575060408051601f3d908101601f19168201909252612f0191810190613e87565b60015b612f10576124f1613ea4565b6001600160e01b0319811663f23a6e6160e01b146125c15760405162461bcd60e51b81526004016107f790613f48565b600054610100900460ff16612f675760405162461bcd60e51b81526004016107f790613dde565b61108a3361206a565b600054610100900460ff16612f975760405162461bcd60e51b81526004016107f790613dde565b610b43816131fa565b612fa9816125ca565b6040516001600160a01b038216907fbc7cd75a20ee27fd9adebab32041f755214dbc6bffa90cc0225b39da2e5c2d3b90600090a250565b60606001600160a01b0383163b6130485760405162461bcd60e51b815260206004820152602660248201527f416464726573733a2064656c65676174652063616c6c20746f206e6f6e2d636f6044820152651b9d1c9858dd60d21b60648201526084016107f7565b600080846001600160a01b0316846040516130639190613f90565b600060405180830381855af49150503d806000811461309e576040519150601f19603f3d011682016040523d82523d6000602084013e6130a3565b606091505b50915091506130cb828260405180606001604052806027815260200161405360279139613206565b95945050505050565b6000610825826064610b46565b6001600160a01b0384166131415760405162461bcd60e51b815260206004820152602160248201527f455243313135353a206d696e7420746f20746865207a65726f206164647265736044820152607360f81b60648201526084016107f7565b33600061314d85612e3a565b9050600061315a85612e3a565b905060008681526097602090815260408083206001600160a01b038b1684529091528120805487929061318e908490613d88565b909155505060408051878152602081018790526001600160a01b03808a1692600092918716917fc3d58168c5ae7397731d063d5bbf3d657854427343f4c083240f7aacaa2d0f62910160405180910390a46125c183600089898989612e85565b6000610b5c838361321f565b6099610a178282613c3a565b60608315613215575081610b5c565b610b5c8383613312565b60008181526001830160205260408120548015613308576000613243600183614005565b855490915060009061325790600190614005565b90508181146132bc5760008660000182815481106132775761327761397e565b906000526020600020015490508087600001848154811061329a5761329a61397e565b6000918252602080832090910192909255918252600188019052604090208390555b85548690806132cd576132cd61401c565b600190038181906000526020600020016000905590558560010160008681526020019081526020016000206000905560019350505050610825565b6000915050610825565b8151156125105781518083602001fd5b80356001600160a01b038116811461333957600080fd5b919050565b6000806040838503121561335157600080fd5b61335a83613322565b946020939093013593505050565b6001600160e01b031981168114610b4357600080fd5b60006020828403121561339057600080fd5b8135610b5c81613368565b60005b838110156133b657818101518382015260200161339e565b8381111561268b5750506000910152565b600081518084526133df81602086016020860161339b565b601f01601f19169290920160200192915050565b602081526000610b5c60208301846133c7565b60006020828403121561341857600080fd5b5035919050565b60006020828403121561343157600080fd5b610b5c82613322565b634e487b7160e01b600052604160045260246000fd5b601f8201601f191681016001600160401b03811182821017156134755761347561343a565b6040525050565b60006001600160401b038211156134955761349561343a565b5060051b60200190565b600082601f8301126134b057600080fd5b813560206134bd8261347c565b6040516134ca8282613450565b83815260059390931b85018201928281019150868411156134ea57600080fd5b8286015b8481101561350557803583529183019183016134ee565b509695505050505050565b60006001600160401b038311156135295761352961343a565b604051613540601f8501601f191660200182613450565b80915083815284848401111561355557600080fd5b83836020830137600060208583010152509392505050565b600082601f83011261357e57600080fd5b610b5c83833560208501613510565b600080600080600060a086880312156135a557600080fd5b6135ae86613322565b94506135bc60208701613322565b935060408601356001600160401b03808211156135d857600080fd5b6135e489838a0161349f565b945060608801359150808211156135fa57600080fd5b61360689838a0161349f565b9350608088013591508082111561361c57600080fd5b506136298882890161356d565b9150509295509295909350565b6000806040838503121561364957600080fd5b50508035926020909101359150565b6000806040838503121561366b57600080fd5b82356001600160401b038082111561368257600080fd5b818501915085601f83011261369657600080fd5b813560206136a38261347c565b6040516136b08282613450565b83815260059390931b85018201928281019150898411156136d057600080fd5b948201945b838610156136f5576136e686613322565b825294820194908201906136d5565b9650508601359250508082111561370b57600080fd5b506137188582860161349f565b9150509250929050565b600081518084526020808501945080840160005b8381101561375257815187529582019590820190600101613736565b509495945050505050565b602081526000610b5c6020830184613722565b6000806040838503121561378357600080fd5b61378c83613322565b915060208301356001600160401b038111156137a757600080fd5b6137188582860161356d565b80356002811061333957600080fd5b6000602082840312156137d457600080fd5b610b5c826137b3565b600080604083850312156137f057600080fd5b6137f983613322565b91506020830135801515811461380e57600080fd5b809150509250929050565b6000806040838503121561382c57600080fd5b61335a836137b3565b6000806040838503121561384857600080fd5b61385183613322565b915061385f60208401613322565b90509250929050565b6000806040838503121561387b57600080fd5b61388483613322565b915060208301356001600160401b0381111561389f57600080fd5b6137188582860161349f565b600080600080600060a086880312156138c357600080fd5b6138cc86613322565b94506138da60208701613322565b9350604086013592506060860135915060808601356001600160401b0381111561390357600080fd5b6136298882890161356d565b60006020828403121561392157600080fd5b81356001600160401b0381111561393757600080fd5b8201601f8101841361394857600080fd5b61395784823560208401613510565b949350505050565b60208082526005908201526434b734ba1760d91b604082015260600190565b634e487b7160e01b600052603260045260246000fd5b6020808252602e908201527f455243313135353a2063616c6c6572206973206e6f7420746f6b656e206f776e60408201526d195c881bdc88185c1c1c9bdd995960921b606082015260800190565b6020808252602c908201527f46756e6374696f6e206d7573742062652063616c6c6564207468726f7567682060408201526b19195b1959d85d1958d85b1b60a21b606082015260800190565b6020808252602c908201527f46756e6374696f6e206d7573742062652063616c6c6564207468726f7567682060408201526b6163746976652070726f787960a01b606082015260800190565b634e487b7160e01b600052601260045260246000fd5b600082613a9f57613a9f613a7a565b500690565b634e487b7160e01b600052601160045260246000fd5b600060018201613acc57613acc613aa4565b5060010190565b634e487b7160e01b600052602160045260246000fd5b60028110613b0757634e487b7160e01b600052602160045260246000fd5b9052565b60608101613b198286613ae9565b6001600160a01b0393909316602082015260400152919050565b600181811c90821680613b4757607f821691505b602082108103613b6757634e487b7160e01b600052602260045260246000fd5b50919050565b6000808454613b7b81613b33565b60018281168015613b935760018114613ba857613bd7565b60ff1984168752821515830287019450613bd7565b8860005260208060002060005b85811015613bce5781548a820152908401908201613bb5565b50505082870194505b505050508351613beb81836020880161339b565b01949350505050565b601f821115611df057600081815260208120601f850160051c81016020861015613c1b5750805b601f850160051c820191505b8181101561178257828155600101613c27565b81516001600160401b03811115613c5357613c5361343a565b613c6781613c618454613b33565b84613bf4565b602080601f831160018114613c9c5760008415613c845750858301515b600019600386901b1c1916600185901b178555611782565b600085815260208120601f198616915b82811015613ccb57888601518255948401946001909101908401613cac565b5085821015613ce95787850151600019600388901b60f8161c191681555b5050505050600190811b01905550565b60208082526025908201527f455243313135353a207472616e7366657220746f20746865207a65726f206164604082015264647265737360d81b606082015260800190565b6020808252602a908201527f455243313135353a20696e73756666696369656e742062616c616e636520666f60408201526939103a3930b739b332b960b11b606082015260800190565b60008219821115613d9b57613d9b613aa4565b500190565b604081526000613db36040830185613722565b82810360208401526130cb8185613722565b600060208284031215613dd757600080fd5b5051919050565b6020808252602b908201527f496e697469616c697a61626c653a20636f6e7472616374206973206e6f74206960408201526a6e697469616c697a696e6760a81b606082015260800190565b6001600160a01b0386811682528516602082015260a060408201819052600090613e5590830186613722565b8281036060840152613e678186613722565b90508281036080840152613e7b81856133c7565b98975050505050505050565b600060208284031215613e9957600080fd5b8151610b5c81613368565b600060033d1115610fb45760046000803e5060005160e01c90565b600060443d1015613ecd5790565b6040516003193d81016004833e81513d6001600160401b038160248401118184111715613efc57505050505090565b8285019150815181811115613f145750505050505090565b843d8701016020828501011115613f2e5750505050505090565b613f3d60208286010187613450565b509095945050505050565b60208082526028908201527f455243313135353a204552433131353552656365697665722072656a656374656040820152676420746f6b656e7360c01b606082015260800190565b60008251613fa281846020870161339b565b9190910192915050565b600082613fbb57613fbb613a7a565b500490565b6001600160a01b03868116825285166020820152604081018490526060810183905260a060808201819052600090613ffa908301846133c7565b979650505050505050565b60008282101561401757614017613aa4565b500390565b634e487b7160e01b600052603160045260246000fdfe360894a13ba1a3210667c828492db98dca3e2076cc3735a920a3ca505d382bbc416464726573733a206c6f772d6c6576656c2064656c65676174652063616c6c206661696c6564a2646970667358221220d21522838ca764f415dd3dae9820a08628e4721edf389ccb1391bfa9bcca5ec264736f6c634300080f0033",
  "linkReferences": {},
  "deployedLinkReferences": {}
}