{
  "_format": "hh-sol-artifact-1",
  "contractName": "HatchyRewardDealer",
  "sourceName": "contracts/HatchyPocket/HatchyRewardDealer.sol",
  "abi": [
    {
      "anonymous": false,
      "inputs": [
        {
          "indexed": false,
          "internalType": "address",
          "name": "previousAdmin",
          "type": "address"
        },
        {
          "indexed": false,
          "internalType": "address",
          "name": "newAdmin",
          "type": "address"
        }
      ],
      "name": "AdminChanged",
      "type": "event"
    },
    {
      "anonymous": false,
      "inputs": [
        {
          "indexed": true,
          "internalType": "address",
          "name": "beacon",
          "type": "address"
        }
      ],
      "name": "BeaconUpgraded",
      "type": "event"
    },
    {
      "anonymous": false,
      "inputs": [
        {
          "indexed": true,
          "internalType": "address",
          "name": "account",
          "type": "address"
        },
        {
          "indexed": false,
          "internalType": "enum HatchyRewardDealer.RewardContractType",
          "name": "rewardType",
          "type": "uint8"
        },
        {
          "indexed": true,
          "internalType": "address",
          "name": "contractAddress",
          "type": "address"
        },
        {
          "indexed": true,
          "internalType": "uint256",
          "name": "tokenId",
          "type": "uint256"
        },
        {
          "indexed": false,
          "internalType": "uint256",
          "name": "amount",
          "type": "uint256"
        }
      ],
      "name": "Claim",
      "type": "event"
    },
    {
      "anonymous": false,
      "inputs": [
        {
          "indexed": false,
          "internalType": "uint8",
          "name": "version",
          "type": "uint8"
        }
      ],
      "name": "Initialized",
      "type": "event"
    },
    {
      "anonymous": false,
      "inputs": [
        {
          "indexed": true,
          "internalType": "address",
          "name": "previousOwner",
          "type": "address"
        },
        {
          "indexed": true,
          "internalType": "address",
          "name": "newOwner",
          "type": "address"
        }
      ],
      "name": "OwnershipTransferred",
      "type": "event"
    },
    {
      "anonymous": false,
      "inputs": [
        {
          "indexed": false,
          "internalType": "address",
          "name": "account",
          "type": "address"
        }
      ],
      "name": "Paused",
      "type": "event"
    },
    {
      "anonymous": false,
      "inputs": [
        {
          "indexed": true,
          "internalType": "address",
          "name": "account",
          "type": "address"
        }
      ],
      "name": "SignerAdded",
      "type": "event"
    },
    {
      "anonymous": false,
      "inputs": [
        {
          "indexed": true,
          "internalType": "address",
          "name": "account",
          "type": "address"
        }
      ],
      "name": "SignerRemoved",
      "type": "event"
    },
    {
      "anonymous": false,
      "inputs": [
        {
          "indexed": false,
          "internalType": "address",
          "name": "account",
          "type": "address"
        }
      ],
      "name": "Unpaused",
      "type": "event"
    },
    {
      "anonymous": false,
      "inputs": [
        {
          "indexed": true,
          "internalType": "address",
          "name": "implementation",
          "type": "address"
        }
      ],
      "name": "Upgraded",
      "type": "event"
    },
    {
      "inputs": [
        {
          "internalType": "bytes",
          "name": "",
          "type": "bytes"
        }
      ],
      "name": "UsedSignatures",
      "outputs": [
        {
          "internalType": "bool",
          "name": "",
          "type": "bool"
        }
      ],
      "stateMutability": "view",
      "type": "function"
    },
    {
      "inputs": [
        {
          "internalType": "uint256",
          "name": "",
          "type": "uint256"
        }
      ],
      "name": "UsedVoucherIds",
      "outputs": [
        {
          "internalType": "bool",
          "name": "",
          "type": "bool"
        }
      ],
      "stateMutability": "view",
      "type": "function"
    },
    {
      "inputs": [
        {
          "internalType": "address",
          "name": "account",
          "type": "address"
        }
      ],
      "name": "addSignerRole",
      "outputs": [],
      "stateMutability": "nonpayable",
      "type": "function"
    },
    {
      "inputs": [
        {
          "internalType": "bytes",
          "name": "sig",
          "type": "bytes"
        }
      ],
      "name": "banSignature",
      "outputs": [],
      "stateMutability": "nonpayable",
      "type": "function"
    },
    {
      "inputs": [
        {
          "components": [
            {
              "internalType": "enum HatchyRewardDealer.RewardContractType",
              "name": "rewardContractType",
              "type": "uint8"
            },
            {
              "internalType": "address",
              "name": "rewardHolderAddress",
              "type": "address"
            },
            {
              "internalType": "address",
              "name": "rewardContract",
              "type": "address"
            },
            {
              "internalType": "address",
              "name": "receiver",
              "type": "address"
            },
            {
              "internalType": "uint256",
              "name": "tokenId",
              "type": "uint256"
            },
            {
              "internalType": "uint256",
              "name": "amount",
              "type": "uint256"
            },
            {
              "internalType": "uint256",
              "name": "clabimableUntil",
              "type": "uint256"
            },
            {
              "internalType": "uint256",
              "name": "voucherId",
              "type": "uint256"
            },
            {
              "internalType": "bytes",
              "name": "signature",
              "type": "bytes"
            }
          ],
          "internalType": "struct HatchyRewardDealer.Payload",
          "name": "payload",
          "type": "tuple"
        }
      ],
      "name": "claimReward",
      "outputs": [],
      "stateMutability": "nonpayable",
      "type": "function"
    },
    {
      "inputs": [
        {
          "components": [
            {
              "internalType": "enum HatchyRewardDealer.RewardContractType",
              "name": "rewardContractType",
              "type": "uint8"
            },
            {
              "internalType": "address",
              "name": "rewardHolderAddress",
              "type": "address"
            },
            {
              "internalType": "address",
              "name": "rewardContract",
              "type": "address"
            },
            {
              "internalType": "address",
              "name": "receiver",
              "type": "address"
            },
            {
              "internalType": "uint256",
              "name": "tokenId",
              "type": "uint256"
            },
            {
              "internalType": "uint256",
              "name": "amount",
              "type": "uint256"
            },
            {
              "internalType": "uint256",
              "name": "clabimableUntil",
              "type": "uint256"
            },
            {
              "internalType": "uint256",
              "name": "voucherId",
              "type": "uint256"
            },
            {
              "internalType": "bytes",
              "name": "signature",
              "type": "bytes"
            }
          ],
          "internalType": "struct HatchyRewardDealer.Payload",
          "name": "payload",
          "type": "tuple"
        }
      ],
      "name": "encodePackedData",
      "outputs": [
        {
          "internalType": "bytes32",
          "name": "",
          "type": "bytes32"
        }
      ],
      "stateMutability": "pure",
      "type": "function"
    },
    {
      "inputs": [
        {
          "internalType": "address",
          "name": "_signer",
          "type": "address"
        },
        {
          "internalType": "address",
          "name": "gen2Eggs",
          "type": "address"
        }
      ],
      "name": "initialize",
      "outputs": [],
      "stateMutability": "nonpayable",
      "type": "function"
    },
    {
      "inputs": [
        {
          "internalType": "address",
          "name": "account",
          "type": "address"
        }
      ],
      "name": "isSigner",
      "outputs": [
        {
          "internalType": "bool",
          "name": "",
          "type": "bool"
        }
      ],
      "stateMutability": "view",
      "type": "function"
    },
    {
      "inputs": [
        {
          "components": [
            {
              "internalType": "address",
              "name": "receiver",
              "type": "address"
            },
            {
              "internalType": "uint256",
              "name": "eggType",
              "type": "uint256"
            },
            {
              "internalType": "uint256",
              "name": "amount",
              "type": "uint256"
            },
            {
              "internalType": "uint256",
              "name": "clabimableUntil",
              "type": "uint256"
            },
            {
              "internalType": "uint256",
              "name": "voucherId",
              "type": "uint256"
            },
            {
              "internalType": "bytes",
              "name": "signature",
              "type": "bytes"
            }
          ],
          "internalType": "struct HatchyRewardDealer.HatchyAirdropPayload",
          "name": "payload",
          "type": "tuple"
        }
      ],
      "name": "mintAirdropEgg",
      "outputs": [],
      "stateMutability": "nonpayable",
      "type": "function"
    },
    {
      "inputs": [
        {
          "internalType": "address",
          "name": "",
          "type": "address"
        },
        {
          "internalType": "address",
          "name": "",
          "type": "address"
        },
        {
          "internalType": "uint256",
          "name": "",
          "type": "uint256"
        },
        {
          "internalType": "bytes",
          "name": "",
          "type": "bytes"
        }
      ],
      "name": "onERC721Received",
      "outputs": [
        {
          "internalType": "bytes4",
          "name": "",
          "type": "bytes4"
        }
      ],
      "stateMutability": "nonpayable",
      "type": "function"
    },
    {
      "inputs": [],
      "name": "owner",
      "outputs": [
        {
          "internalType": "address",
          "name": "",
          "type": "address"
        }
      ],
      "stateMutability": "view",
      "type": "function"
    },
    {
      "inputs": [],
      "name": "paused",
      "outputs": [
        {
          "internalType": "bool",
          "name": "",
          "type": "bool"
        }
      ],
      "stateMutability": "view",
      "type": "function"
    },
    {
      "inputs": [],
      "name": "proxiableUUID",
      "outputs": [
        {
          "internalType": "bytes32",
          "name": "",
          "type": "bytes32"
        }
      ],
      "stateMutability": "view",
      "type": "function"
    },
    {
      "inputs": [
        {
          "internalType": "address",
          "name": "account",
          "type": "address"
        }
      ],
      "name": "removeSignerRole",
      "outputs": [],
      "stateMutability": "nonpayable",
      "type": "function"
    },
    {
      "inputs": [],
      "name": "renounceOwnership",
      "outputs": [],
      "stateMutability": "nonpayable",
      "type": "function"
    },
    {
      "inputs": [],
      "name": "renounceSigner",
      "outputs": [],
      "stateMutability": "nonpayable",
      "type": "function"
    },
    {
      "inputs": [
        {
          "internalType": "bytes",
          "name": "sig",
          "type": "bytes"
        },
        {
          "internalType": "bool",
          "name": "value",
          "type": "bool"
        }
      ],
      "name": "setSignatureUsed",
      "outputs": [],
      "stateMutability": "nonpayable",
      "type": "function"
    },
    {
      "inputs": [
        {
          "internalType": "uint256",
          "name": "voucherId",
          "type": "uint256"
        },
        {
          "internalType": "bool",
          "name": "value",
          "type": "bool"
        }
      ],
      "name": "setVoucherUsed",
      "outputs": [],
      "stateMutability": "nonpayable",
      "type": "function"
    },
    {
      "inputs": [
        {
          "internalType": "uint256[]",
          "name": "voucherIds",
          "type": "uint256[]"
        },
        {
          "internalType": "bool",
          "name": "value",
          "type": "bool"
        }
      ],
      "name": "setVouchersUsed",
      "outputs": [],
      "stateMutability": "nonpayable",
      "type": "function"
    },
    {
      "inputs": [
        {
          "internalType": "bytes",
          "name": "sig",
          "type": "bytes"
        }
      ],
      "name": "splitSignature",
      "outputs": [
        {
          "internalType": "uint8",
          "name": "v",
          "type": "uint8"
        },
        {
          "internalType": "bytes32",
          "name": "r",
          "type": "bytes32"
        },
        {
          "internalType": "bytes32",
          "name": "s",
          "type": "bytes32"
        }
      ],
      "stateMutability": "pure",
      "type": "function"
    },
    {
      "inputs": [
        {
          "internalType": "address",
          "name": "newOwner",
          "type": "address"
        }
      ],
      "name": "transferOwnership",
      "outputs": [],
      "stateMutability": "nonpayable",
      "type": "function"
    },
    {
      "inputs": [
        {
          "internalType": "address",
          "name": "newImplementation",
          "type": "address"
        }
      ],
      "name": "upgradeTo",
      "outputs": [],
      "stateMutability": "nonpayable",
      "type": "function"
    },
    {
      "inputs": [
        {
          "internalType": "address",
          "name": "newImplementation",
          "type": "address"
        },
        {
          "internalType": "bytes",
          "name": "data",
          "type": "bytes"
        }
      ],
      "name": "upgradeToAndCall",
      "outputs": [],
      "stateMutability": "payable",
      "type": "function"
    }
  ],
  "bytecode": "0x60a06040523060805234801561001457600080fd5b5060805161243161004c60003960008181610abc01528181610afc01528181610ce001528181610d200152610db301526124316000f3fe6080604052600436106101405760003560e01c8063715018a6116100b65780638e3d792a1161006f5780638e3d792a14610399578063a7bb5803146103d5578063e455b24614610414578063e5c8b03d14610434578063ebcc968b14610449578063f2fde38b1461046957600080fd5b8063715018a6146102ca578063733a8b91146102df578063751b6080146102ff5780637df73e27146103305780638a948c61146103505780638da5cb5b1461037057600080fd5b80632925de55116101085780632925de551461021e5780633659cfe61461023e578063485cc9551461025e5780634f1ef2861461027e57806352d1902d146102915780635c975abb146102a657600080fd5b8063083a5b531461014557806308ff114d14610167578063150b7a0214610187578063200efb82146101d05780632402cca3146101f0575b600080fd5b34801561015157600080fd5b50610165610160366004611c26565b610489565b005b34801561017357600080fd5b50610165610182366004611c7f565b6104c7565b34801561019357600080fd5b506101b26101a2366004611c9a565b630a85bd0160e11b949350505050565b6040516001600160e01b031990911681526020015b60405180910390f35b3480156101dc57600080fd5b506101656101eb366004611d11565b6104db565b3480156101fc57600080fd5b5061021061020b366004611d11565b610a01565b6040519081526020016101c7565b34801561022a57600080fd5b50610165610239366004611e08565b610a57565b34801561024a57600080fd5b50610165610259366004611c7f565b610ab2565b34801561026a57600080fd5b50610165610279366004611e5a565b610b8e565b61016561028c366004611e8d565b610cd6565b34801561029d57600080fd5b50610210610da6565b3480156102b257600080fd5b5060975460ff165b60405190151581526020016101c7565b3480156102d657600080fd5b50610165610e59565b3480156102eb57600080fd5b506101656102fa366004611edb565b610e6d565b34801561030b57600080fd5b506102ba61031a366004611f00565b6101626020526000908152604090205460ff1681565b34801561033c57600080fd5b506102ba61034b366004611c7f565b610eb3565b34801561035c57600080fd5b5061016561036b366004611f19565b610ec7565b34801561037c57600080fd5b5061012d546040516001600160a01b0390911681526020016101c7565b3480156103a557600080fd5b506102ba6103b4366004611c26565b80516020818301810180516101618252928201919093012091525460ff1681565b3480156103e157600080fd5b506103f56103f0366004611c26565b6111b1565b6040805160ff90941684526020840192909252908201526060016101c7565b34801561042057600080fd5b5061016561042f366004611fbf565b6111e0565b34801561044057600080fd5b50610165611269565b34801561045557600080fd5b50610165610464366004611c7f565b611272565b34801561047557600080fd5b50610165610484366004611c7f565b611283565b6104916112f9565b6001610161826040516104a4919061209b565b908152604051908190036020019020805491151560ff1990921691909117905550565b6104cf6112f9565b6104d881611354565b50565b6104e3611397565b6104eb6113f0565b80610100015161016181604051610502919061209b565b9081526040519081900360200190205460ff16156105585760405162461bcd60e51b815260206004820152600e60248201526d75736564207369676e617475726560901b60448201526064015b60405180910390fd5b60e08201516000818152610162602052604090205460ff16156105ac5760405162461bcd60e51b815260206004820152600c60248201526b3ab9b2b2103b37bab1b432b960a11b604482015260640161054f565b82606001516001600160a01b0316336001600160a01b0316146105fe5760405162461bcd60e51b815260206004820152600a6024820152693bb937b733903ab9b2b960b11b604482015260640161054f565b6001610161846101000151604051610616919061209b565b90815260408051918290036020908101909220805493151560ff1994851617905560e086015160009081526101629092528120805490921660011790915561010084015181908190610667906111b1565b92509250925060006106e260016106856106808a610a01565b611436565b6040805160008152602081018083529290925260ff881690820152606081018690526080810185905260a0016020604051602081039080840390855afa1580156106d3573d6000803e3d6000fd5b50505060206040510351610eb3565b9050801561095f5760c087015115610732578660c0015142106107325760405162461bcd60e51b8152602060048201526008602482015267657870697265642160c01b604482015260640161054f565b600087516002811115610747576107476120b7565b036107d057604080880151602089015160608a015160808b01519351632142170760e11b81526001600160a01b0392831660048201529082166024820152604481019390935216906342842e0e906064015b600060405180830381600087803b1580156107b357600080fd5b505af11580156107c7573d6000803e3d6000fd5b50505050610994565b6001875160028111156107e5576107e56120b7565b036108765786604001516001600160a01b031663f242432a886020015189606001518a608001518b60a00151600067ffffffffffffffff81111561082b5761082b611b22565b6040519080825280601f01601f191660200182016040528015610855576020820181803683370190505b506040518663ffffffff1660e01b81526004016107999594939291906120f9565b60028751600281111561088b5761088b6120b7565b0361095a57604080880151602089015160608a015160a08b015193516323b872dd60e01b81526001600160a01b0392831660048201529082166024820152604481019390935216906323b872dd906064016020604051808303816000875af11580156108fb573d6000803e3d6000fd5b505050506040513d601f19601f8201168201806040525081019061091f919061213e565b61095a5760405162461bcd60e51b815260206004820152600c60248201526b3a3930b739b332b91032b93960a11b604482015260640161054f565b610994565b60405162461bcd60e51b815260206004820152600a6024820152693130b21039b4b3b732b960b11b604482015260640161054f565b608087015160408801516001600160a01b0316336001600160a01b03167f3d39fe5944bbeb5d33825c47767b16cac4b4b1f01c4569ed4e4414379c6c4fa68a600001518b60a001516040516109ea92919061215b565b60405180910390a45050505050506104d860018055565b60208082015182516040808501516060860151608087015160a088015160c089015160e08a01519551600099610a3a9998979101612179565b604051602081830303815290604052805190602001209050919050565b610a6033610eb3565b610a7c5760405162461bcd60e51b815260040161054f906121e7565b8061016183604051610a8e919061209b565b908152604051908190036020019020805491151560ff199092169190911790555050565b6001600160a01b037f0000000000000000000000000000000000000000000000000000000000000000163003610afa5760405162461bcd60e51b815260040161054f90612237565b7f00000000000000000000000000000000000000000000000000000000000000006001600160a01b0316610b436000805160206123b5833981519152546001600160a01b031690565b6001600160a01b031614610b695760405162461bcd60e51b815260040161054f90612283565b610b7281611477565b604080516000808252602082019092526104d89183919061147f565b600054610100900460ff1615808015610bae5750600054600160ff909116105b80610bc85750303b158015610bc8575060005460ff166001145b610c2b5760405162461bcd60e51b815260206004820152602e60248201527f496e697469616c697a61626c653a20636f6e747261637420697320616c72656160448201526d191e481a5b9a5d1a585b1a5e995960921b606482015260840161054f565b6000805460ff191660011790558015610c4e576000805461ff0019166101001790555b610c566115ea565b610c5e611619565b610c66611648565b610c6f8361166f565b61016080546001600160a01b0319166001600160a01b0384161790558015610cd1576000805461ff0019169055604051600181527f7f26b83ff96e1f2b6a682f133852f6798a09c465da95921460cefb38474024989060200160405180910390a15b505050565b6001600160a01b037f0000000000000000000000000000000000000000000000000000000000000000163003610d1e5760405162461bcd60e51b815260040161054f90612237565b7f00000000000000000000000000000000000000000000000000000000000000006001600160a01b0316610d676000805160206123b5833981519152546001600160a01b031690565b6001600160a01b031614610d8d5760405162461bcd60e51b815260040161054f90612283565b610d9682611477565b610da28282600161147f565b5050565b6000306001600160a01b037f00000000000000000000000000000000000000000000000000000000000000001614610e465760405162461bcd60e51b815260206004820152603860248201527f555550535570677261646561626c653a206d757374206e6f742062652063616c60448201527f6c6564207468726f7567682064656c656761746563616c6c0000000000000000606482015260840161054f565b506000805160206123b583398151915290565b610e616112f9565b610e6b60006116b2565b565b610e7633610eb3565b610e925760405162461bcd60e51b815260040161054f906121e7565b60009182526101626020526040909120805460ff1916911515919091179055565b6000610ec161015f83611705565b92915050565b610ecf611397565b610ed76113f0565b8060a0015161016181604051610eed919061209b565b9081526040519081900360200190205460ff1615610f3e5760405162461bcd60e51b815260206004820152600e60248201526d75736564207369676e617475726560901b604482015260640161054f565b60808201516000818152610162602052604090205460ff1615610f925760405162461bcd60e51b815260206004820152600c60248201526b3ab9b2b2103b37bab1b432b960a11b604482015260640161054f565b82516001600160a01b03163314610fd85760405162461bcd60e51b815260206004820152600a6024820152693bb937b733903ab9b2b960b11b604482015260640161054f565b60016101618460a00151604051610fef919061209b565b90815260408051918290036020908101909220805493151560ff19948516179055608086015160009081526101629092528120805490921660011790915560a08401518190819061103f906111b1565b92509250925060008660600151111561109057856060015142106110905760405162461bcd60e51b8152602060048201526008602482015267657870697265642160c01b604482015260640161054f565b6000611114600161068589600001518a602001518b604001518c606001518d608001516040516020016110f995949392919060609590951b6bffffffffffffffffffffffff19168552601485019390935260348401919091526054830152607482015260940190565b60405160208183030381529060405280519060200120611436565b905080156111a2576101605460208801516001600160a01b039091169063ba0bcbde9015611143576001611146565b60005b6040808b01518b5191516001600160e01b031960e086901b16815261116f9392906004016122cf565b600060405180830381600087803b15801561118957600080fd5b505af115801561119d573d6000803e3d6000fd5b505050505b5050505050506104d860018055565b600080600083516041146111c457600080fd5b5050506020810151604082015160609092015160001a92909190565b6111e933610eb3565b6112055760405162461bcd60e51b815260040161054f906121e7565b60005b8251811015610cd15781610162600085848151811061122957611229612300565b6020026020010151815260200190815260200160002060006101000a81548160ff021916908315150217905550808061126190612316565b915050611208565b610e6b33611354565b61127a6112f9565b6104d88161166f565b61128b6112f9565b6001600160a01b0381166112f05760405162461bcd60e51b815260206004820152602660248201527f4f776e61626c653a206e6577206f776e657220697320746865207a65726f206160448201526564647265737360d01b606482015260840161054f565b6104d8816116b2565b61012d546001600160a01b03163314610e6b5760405162461bcd60e51b815260206004820181905260248201527f4f776e61626c653a2063616c6c6572206973206e6f7420746865206f776e6572604482015260640161054f565b61136061015f82611788565b6040516001600160a01b038216907f3525e22824a8a7df2c9a6029941c824cf95b6447f1e13d5128fd3826d35afe8b90600090a250565b6002600154036113e95760405162461bcd60e51b815260206004820152601f60248201527f5265656e7472616e637947756172643a207265656e7472616e742063616c6c00604482015260640161054f565b6002600155565b60975460ff1615610e6b5760405162461bcd60e51b815260206004820152601060248201526f14185d5cd8589b194e881c185d5cd95960821b604482015260640161054f565b6040517f19457468657265756d205369676e6564204d6573736167653a0a3332000000006020820152603c8101829052600090605c01610a3a565b60018055565b6104d86112f9565b7f4910fdfa16fed3260ed0e7147f7cc6da11a60208b5b9406d12a635614ffd91435460ff16156114b257610cd18361180a565b826001600160a01b03166352d1902d6040518163ffffffff1660e01b8152600401602060405180830381865afa92505050801561150c575060408051601f3d908101601f191682019092526115099181019061233d565b60015b61156f5760405162461bcd60e51b815260206004820152602e60248201527f45524331393637557067726164653a206e657720696d706c656d656e7461746960448201526d6f6e206973206e6f74205555505360901b606482015260840161054f565b6000805160206123b583398151915281146115de5760405162461bcd60e51b815260206004820152602960248201527f45524331393637557067726164653a20756e737570706f727465642070726f786044820152681a58589b195555525160ba1b606482015260840161054f565b50610cd18383836118a6565b600054610100900460ff166116115760405162461bcd60e51b815260040161054f90612356565b610e6b6118d1565b600054610100900460ff166116405760405162461bcd60e51b815260040161054f90612356565b610e6b611901565b600054610100900460ff16610e6b5760405162461bcd60e51b815260040161054f90612356565b61167b61015f82611928565b6040516001600160a01b038216907f47d1c22a25bb3a5d4e481b9b1e6944c2eade3181a0a20b495ed61d35b5323f2490600090a250565b61012d80546001600160a01b038381166001600160a01b0319831681179093556040519116919082907f8be0079c531659141344cd1fd0a4f28419497f9722a3daafe3b4186f6b6457e090600090a35050565b60006001600160a01b0382166117685760405162461bcd60e51b815260206004820152602260248201527f526f6c65733a206163636f756e7420697320746865207a65726f206164647265604482015261737360f01b606482015260840161054f565b506001600160a01b03166000908152602091909152604090205460ff1690565b6117928282611705565b6117e85760405162461bcd60e51b815260206004820152602160248201527f526f6c65733a206163636f756e7420646f6573206e6f74206861766520726f6c6044820152606560f81b606482015260840161054f565b6001600160a01b0316600090815260209190915260409020805460ff19169055565b6001600160a01b0381163b6118775760405162461bcd60e51b815260206004820152602d60248201527f455243313936373a206e657720696d706c656d656e746174696f6e206973206e60448201526c1bdd08184818dbdb9d1c9858dd609a1b606482015260840161054f565b6000805160206123b583398151915280546001600160a01b0319166001600160a01b0392909216919091179055565b6118af836119a4565b6000825111806118bc5750805b15610cd1576118cb83836119e4565b50505050565b600054610100900460ff166118f85760405162461bcd60e51b815260040161054f90612356565b610e6b336116b2565b600054610100900460ff166114715760405162461bcd60e51b815260040161054f90612356565b6119328282611705565b1561197f5760405162461bcd60e51b815260206004820152601f60248201527f526f6c65733a206163636f756e7420616c72656164792068617320726f6c6500604482015260640161054f565b6001600160a01b0316600090815260209190915260409020805460ff19166001179055565b6119ad8161180a565b6040516001600160a01b038216907fbc7cd75a20ee27fd9adebab32041f755214dbc6bffa90cc0225b39da2e5c2d3b90600090a250565b60606001600160a01b0383163b611a4c5760405162461bcd60e51b815260206004820152602660248201527f416464726573733a2064656c65676174652063616c6c20746f206e6f6e2d636f6044820152651b9d1c9858dd60d21b606482015260840161054f565b600080846001600160a01b031684604051611a67919061209b565b600060405180830381855af49150503d8060008114611aa2576040519150601f19603f3d011682016040523d82523d6000602084013e611aa7565b606091505b5091509150611acf82826040518060600160405280602781526020016123d560279139611ad8565b95945050505050565b60608315611ae7575081611af1565b611af18383611af8565b9392505050565b815115611b085781518083602001fd5b8060405162461bcd60e51b815260040161054f91906123a1565b634e487b7160e01b600052604160045260246000fd5b604051610120810167ffffffffffffffff81118282101715611b5c57611b5c611b22565b60405290565b60405160c0810167ffffffffffffffff81118282101715611b5c57611b5c611b22565b604051601f8201601f1916810167ffffffffffffffff81118282101715611bae57611bae611b22565b604052919050565b600082601f830112611bc757600080fd5b813567ffffffffffffffff811115611be157611be1611b22565b611bf4601f8201601f1916602001611b85565b818152846020838601011115611c0957600080fd5b816020850160208301376000918101602001919091529392505050565b600060208284031215611c3857600080fd5b813567ffffffffffffffff811115611c4f57600080fd5b611c5b84828501611bb6565b949350505050565b80356001600160a01b0381168114611c7a57600080fd5b919050565b600060208284031215611c9157600080fd5b611af182611c63565b60008060008060808587031215611cb057600080fd5b611cb985611c63565b9350611cc760208601611c63565b925060408501359150606085013567ffffffffffffffff811115611cea57600080fd5b611cf687828801611bb6565b91505092959194509250565b803560038110611c7a57600080fd5b600060208284031215611d2357600080fd5b813567ffffffffffffffff80821115611d3b57600080fd5b908301906101208286031215611d5057600080fd5b611d58611b38565b611d6183611d02565b8152611d6f60208401611c63565b6020820152611d8060408401611c63565b6040820152611d9160608401611c63565b60608201526080830135608082015260a083013560a082015260c083013560c082015260e083013560e08201526101008084013583811115611dd257600080fd5b611dde88828701611bb6565b918301919091525095945050505050565b80151581146104d857600080fd5b8035611c7a81611def565b60008060408385031215611e1b57600080fd5b823567ffffffffffffffff811115611e3257600080fd5b611e3e85828601611bb6565b9250506020830135611e4f81611def565b809150509250929050565b60008060408385031215611e6d57600080fd5b611e7683611c63565b9150611e8460208401611c63565b90509250929050565b60008060408385031215611ea057600080fd5b611ea983611c63565b9150602083013567ffffffffffffffff811115611ec557600080fd5b611ed185828601611bb6565b9150509250929050565b60008060408385031215611eee57600080fd5b823591506020830135611e4f81611def565b600060208284031215611f1257600080fd5b5035919050565b600060208284031215611f2b57600080fd5b813567ffffffffffffffff80821115611f4357600080fd5b9083019060c08286031215611f5757600080fd5b611f5f611b62565b611f6883611c63565b81526020830135602082015260408301356040820152606083013560608201526080830135608082015260a083013582811115611fa457600080fd5b611fb087828601611bb6565b60a08301525095945050505050565b60008060408385031215611fd257600080fd5b823567ffffffffffffffff80821115611fea57600080fd5b818501915085601f830112611ffe57600080fd5b813560208282111561201257612012611b22565b8160051b9250612023818401611b85565b828152928401810192818101908985111561203d57600080fd5b948201945b8486101561205b57853582529482019490820190612042565b965061206a9050878201611dfd565b9450505050509250929050565b60005b8381101561209257818101518382015260200161207a565b50506000910152565b600082516120ad818460208701612077565b9190910192915050565b634e487b7160e01b600052602160045260246000fd5b600081518084526120e5816020860160208601612077565b601f01601f19169290920160200192915050565b6001600160a01b03868116825285166020820152604081018490526060810183905260a060808201819052600090612133908301846120cd565b979650505050505050565b60006020828403121561215057600080fd5b8151611af181611def565b604081016003841061216f5761216f6120b7565b9281526020015290565b60006bffffffffffffffffffffffff19808b60601b16835260038a106121a1576121a16120b7565b60f89990991b601483015250606096871b881660158201529490951b9095166029840152603d830191909152605d820152607d810192909252609d82015260bd01919050565b60208082526030908201527f5369676e6572526f6c653a2063616c6c657220646f6573206e6f74206861766560408201526f20746865205369676e657220726f6c6560801b606082015260800190565b6020808252602c908201527f46756e6374696f6e206d7573742062652063616c6c6564207468726f7567682060408201526b19195b1959d85d1958d85b1b60a21b606082015260800190565b6020808252602c908201527f46756e6374696f6e206d7573742062652063616c6c6564207468726f7567682060408201526b6163746976652070726f787960a01b606082015260800190565b60608101600285106122e3576122e36120b7565b93815260208101929092526001600160a01b031660409091015290565b634e487b7160e01b600052603260045260246000fd5b60006001820161233657634e487b7160e01b600052601160045260246000fd5b5060010190565b60006020828403121561234f57600080fd5b5051919050565b6020808252602b908201527f496e697469616c697a61626c653a20636f6e7472616374206973206e6f74206960408201526a6e697469616c697a696e6760a81b606082015260800190565b602081526000611af160208301846120cd56fe360894a13ba1a3210667c828492db98dca3e2076cc3735a920a3ca505d382bbc416464726573733a206c6f772d6c6576656c2064656c65676174652063616c6c206661696c6564a26469706673582212201dcb0376063ffe8c7cfa2a6845d81d75392ae58f6c7d0412e03e781b1db7e44f64736f6c63430008120033",
  "linkReferences": {},
  "deployedLinkReferences": {}
}