{
  "_format": "hh-sol-artifact-1",
  "contractName": "BatchNFTTransferService",
  "sourceName": "contracts/BatchTransfer.sol",
  "abi": [
    {
      "anonymous": false,
      "inputs": [
        {
          "indexed": true,
          "internalType": "address",
          "name": "previousOwner",
          "type": "address"
        },
        {
          "indexed": true,
          "internalType": "address",
          "name": "newOwner",
          "type": "address"
        }
      ],
      "name": "OwnershipTransferred",
      "type": "event"
    },
    {
      "inputs": [
        {
          "internalType": "address",
          "name": "_tokenAddress",
          "type": "address"
        },
        {
          "internalType": "address[]",
          "name": "_receivers",
          "type": "address[]"
        },
        {
          "internalType": "uint256[]",
          "name": "tokenIds",
          "type": "uint256[]"
        }
      ],
      "name": "batchSafeTransfer",
      "outputs": [],
      "stateMutability": "nonpayable",
      "type": "function"
    },
    {
      "inputs": [
        {
          "internalType": "address",
          "name": "_tokenAddress",
          "type": "address"
        },
        {
          "internalType": "address[]",
          "name": "_receivers",
          "type": "address[]"
        },
        {
          "internalType": "uint256[]",
          "name": "tokenIds",
          "type": "uint256[]"
        }
      ],
      "name": "batchTransfer",
      "outputs": [],
      "stateMutability": "nonpayable",
      "type": "function"
    },
    {
      "inputs": [],
      "name": "owner",
      "outputs": [
        {
          "internalType": "address",
          "name": "",
          "type": "address"
        }
      ],
      "stateMutability": "view",
      "type": "function"
    },
    {
      "inputs": [],
      "name": "renounceOwnership",
      "outputs": [],
      "stateMutability": "nonpayable",
      "type": "function"
    },
    {
      "inputs": [
        {
          "internalType": "address",
          "name": "_erc721",
          "type": "address"
        },
        {
          "internalType": "address",
          "name": "to",
          "type": "address"
        },
        {
          "internalType": "uint256[]",
          "name": "tokenIds",
          "type": "uint256[]"
        }
      ],
      "name": "saveNFTs",
      "outputs": [],
      "stateMutability": "nonpayable",
      "type": "function"
    },
    {
      "inputs": [
        {
          "internalType": "address",
          "name": "newOwner",
          "type": "address"
        }
      ],
      "name": "transferOwnership",
      "outputs": [],
      "stateMutability": "nonpayable",
      "type": "function"
    }
  ],
  "bytecode": "0x608060405234801561001057600080fd5b5061001a3361001f565b61006f565b600080546001600160a01b038381166001600160a01b0319831681178455604051919092169283917f8be0079c531659141344cd1fd0a4f28419497f9722a3daafe3b4186f6b6457e09190a35050565b6108cb8061007e6000396000f3fe608060405234801561001057600080fd5b50600436106100625760003560e01c80631239ec8c14610067578063715018a61461007c5780638da5cb5b14610084578063bdc867f2146100a3578063e0280aaa146100b6578063f2fde38b146100c9575b600080fd5b61007a610075366004610710565b6100dc565b005b61007a610289565b600054604080516001600160a01b039092168252519081900360200190f35b61007a6100b1366004610710565b61029d565b61007a6100c43660046107e2565b61043e565b61007a6100d7366004610836565b6104fb565b805182511461011d5760405162461bcd60e51b81526020600482015260086024820152670dad2e6dac2e8c6d60c31b60448201526064015b60405180910390fd5b8260005b83518110156102825760006001600160a01b031684828151811061014757610147610858565b60200260200101516001600160a01b0316141580156101915750336001600160a01b031684828151811061017d5761017d610858565b60200260200101516001600160a01b031614155b6101c15760405162461bcd60e51b81526020600482015260016024820152600360fc1b6044820152606401610114565b816001600160a01b03166323b872dd338684815181106101e3576101e3610858565b60200260200101518685815181106101fd576101fd610858565b60209081029190910101516040516001600160e01b031960e086901b1681526001600160a01b0393841660048201529290911660248301526044820152606401600060405180830381600087803b15801561025757600080fd5b505af115801561026b573d6000803e3d6000fd5b50505050808061027a9061086e565b915050610121565b5050505050565b610291610574565b61029b60006105ce565b565b80518251146102d95760405162461bcd60e51b81526020600482015260086024820152670dad2e6dac2e8c6d60c31b6044820152606401610114565b8260005b83518110156102825760006001600160a01b031684828151811061030357610303610858565b60200260200101516001600160a01b03161415801561034d5750336001600160a01b031684828151811061033957610339610858565b60200260200101516001600160a01b031614155b61037d5760405162461bcd60e51b81526020600482015260016024820152600360fc1b6044820152606401610114565b816001600160a01b03166342842e0e3386848151811061039f5761039f610858565b60200260200101518685815181106103b9576103b9610858565b60209081029190910101516040516001600160e01b031960e086901b1681526001600160a01b0393841660048201529290911660248301526044820152606401600060405180830381600087803b15801561041357600080fd5b505af1158015610427573d6000803e3d6000fd5b5050505080806104369061086e565b9150506102dd565b610446610574565b8260005b825181101561028257816001600160a01b03166342842e0e308686858151811061047657610476610858565b60209081029190910101516040516001600160e01b031960e086901b1681526001600160a01b0393841660048201529290911660248301526044820152606401600060405180830381600087803b1580156104d057600080fd5b505af11580156104e4573d6000803e3d6000fd5b5050505080806104f39061086e565b91505061044a565b610503610574565b6001600160a01b0381166105685760405162461bcd60e51b815260206004820152602660248201527f4f776e61626c653a206e6577206f776e657220697320746865207a65726f206160448201526564647265737360d01b6064820152608401610114565b610571816105ce565b50565b6000546001600160a01b0316331461029b5760405162461bcd60e51b815260206004820181905260248201527f4f776e61626c653a2063616c6c6572206973206e6f7420746865206f776e65726044820152606401610114565b600080546001600160a01b038381166001600160a01b0319831681178455604051919092169283917f8be0079c531659141344cd1fd0a4f28419497f9722a3daafe3b4186f6b6457e09190a35050565b80356001600160a01b038116811461063557600080fd5b919050565b634e487b7160e01b600052604160045260246000fd5b604051601f8201601f1916810167ffffffffffffffff811182821017156106795761067961063a565b604052919050565b600067ffffffffffffffff82111561069b5761069b61063a565b5060051b60200190565b600082601f8301126106b657600080fd5b813560206106cb6106c683610681565b610650565b82815260059290921b840181019181810190868411156106ea57600080fd5b8286015b8481101561070557803583529183019183016106ee565b509695505050505050565b60008060006060848603121561072557600080fd5b61072e8461061e565b925060208085013567ffffffffffffffff8082111561074c57600080fd5b818701915087601f83011261076057600080fd5b813561076e6106c682610681565b81815260059190911b8301840190848101908a83111561078d57600080fd5b938501935b828510156107b2576107a38561061e565b82529385019390850190610792565b9650505060408701359250808311156107ca57600080fd5b50506107d8868287016106a5565b9150509250925092565b6000806000606084860312156107f757600080fd5b6108008461061e565b925061080e6020850161061e565b9150604084013567ffffffffffffffff81111561082a57600080fd5b6107d8868287016106a5565b60006020828403121561084857600080fd5b6108518261061e565b9392505050565b634e487b7160e01b600052603260045260246000fd5b60006001820161088e57634e487b7160e01b600052601160045260246000fd5b506001019056fea2646970667358221220a7523131c0f712dff00ad81de601603307ed3b4fb5af6749aaec0cdc074a4c1864736f6c634300080f0033",
  "linkReferences": {},
  "deployedLinkReferences": {}
}