{
  "_format": "hh-sol-artifact-1",
  "contractName": "MastersItems",
  "sourceName": "contracts/masters/MastersItems.sol",
  "abi": [
    {
      "anonymous": false,
      "inputs": [
        {
          "indexed": false,
          "internalType": "address",
          "name": "previousAdmin",
          "type": "address"
        },
        {
          "indexed": false,
          "internalType": "address",
          "name": "newAdmin",
          "type": "address"
        }
      ],
      "name": "AdminChanged",
      "type": "event"
    },
    {
      "anonymous": false,
      "inputs": [
        {
          "indexed": true,
          "internalType": "address",
          "name": "account",
          "type": "address"
        },
        {
          "indexed": true,
          "internalType": "address",
          "name": "operator",
          "type": "address"
        },
        {
          "indexed": false,
          "internalType": "bool",
          "name": "approved",
          "type": "bool"
        }
      ],
      "name": "ApprovalForAll",
      "type": "event"
    },
    {
      "anonymous": false,
      "inputs": [
        {
          "indexed": true,
          "internalType": "address",
          "name": "beacon",
          "type": "address"
        }
      ],
      "name": "BeaconUpgraded",
      "type": "event"
    },
    {
      "anonymous": false,
      "inputs": [
        {
          "indexed": true,
          "internalType": "address",
          "name": "account",
          "type": "address"
        },
        {
          "indexed": false,
          "internalType": "uint256[]",
          "name": "tokenIds",
          "type": "uint256[]"
        },
        {
          "indexed": false,
          "internalType": "uint256[]",
          "name": "amounts",
          "type": "uint256[]"
        }
      ],
      "name": "Claim",
      "type": "event"
    },
    {
      "anonymous": false,
      "inputs": [
        {
          "indexed": false,
          "internalType": "uint8",
          "name": "version",
          "type": "uint8"
        }
      ],
      "name": "Initialized",
      "type": "event"
    },
    {
      "anonymous": false,
      "inputs": [
        {
          "indexed": true,
          "internalType": "address",
          "name": "owner",
          "type": "address"
        },
        {
          "indexed": false,
          "internalType": "uint256",
          "name": "id",
          "type": "uint256"
        }
      ],
      "name": "ItemEquipped",
      "type": "event"
    },
    {
      "anonymous": false,
      "inputs": [
        {
          "indexed": true,
          "internalType": "address",
          "name": "owner",
          "type": "address"
        },
        {
          "indexed": false,
          "internalType": "uint256",
          "name": "id",
          "type": "uint256"
        }
      ],
      "name": "ItemUnEquipped",
      "type": "event"
    },
    {
      "anonymous": false,
      "inputs": [
        {
          "indexed": true,
          "internalType": "address",
          "name": "previousOwner",
          "type": "address"
        },
        {
          "indexed": true,
          "internalType": "address",
          "name": "newOwner",
          "type": "address"
        }
      ],
      "name": "OwnershipTransferred",
      "type": "event"
    },
    {
      "anonymous": false,
      "inputs": [
        {
          "indexed": true,
          "internalType": "address",
          "name": "account",
          "type": "address"
        }
      ],
      "name": "SignerAdded",
      "type": "event"
    },
    {
      "anonymous": false,
      "inputs": [
        {
          "indexed": true,
          "internalType": "address",
          "name": "account",
          "type": "address"
        }
      ],
      "name": "SignerChange",
      "type": "event"
    },
    {
      "anonymous": false,
      "inputs": [
        {
          "indexed": true,
          "internalType": "address",
          "name": "account",
          "type": "address"
        }
      ],
      "name": "SignerRemoved",
      "type": "event"
    },
    {
      "anonymous": false,
      "inputs": [
        {
          "indexed": true,
          "internalType": "address",
          "name": "operator",
          "type": "address"
        },
        {
          "indexed": true,
          "internalType": "address",
          "name": "from",
          "type": "address"
        },
        {
          "indexed": true,
          "internalType": "address",
          "name": "to",
          "type": "address"
        },
        {
          "indexed": false,
          "internalType": "uint256[]",
          "name": "ids",
          "type": "uint256[]"
        },
        {
          "indexed": false,
          "internalType": "uint256[]",
          "name": "values",
          "type": "uint256[]"
        }
      ],
      "name": "TransferBatch",
      "type": "event"
    },
    {
      "anonymous": false,
      "inputs": [
        {
          "indexed": true,
          "internalType": "address",
          "name": "operator",
          "type": "address"
        },
        {
          "indexed": true,
          "internalType": "address",
          "name": "from",
          "type": "address"
        },
        {
          "indexed": true,
          "internalType": "address",
          "name": "to",
          "type": "address"
        },
        {
          "indexed": false,
          "internalType": "uint256",
          "name": "id",
          "type": "uint256"
        },
        {
          "indexed": false,
          "internalType": "uint256",
          "name": "value",
          "type": "uint256"
        }
      ],
      "name": "TransferSingle",
      "type": "event"
    },
    {
      "anonymous": false,
      "inputs": [
        {
          "indexed": false,
          "internalType": "string",
          "name": "value",
          "type": "string"
        },
        {
          "indexed": true,
          "internalType": "uint256",
          "name": "id",
          "type": "uint256"
        }
      ],
      "name": "URI",
      "type": "event"
    },
    {
      "anonymous": false,
      "inputs": [
        {
          "indexed": true,
          "internalType": "address",
          "name": "implementation",
          "type": "address"
        }
      ],
      "name": "Upgraded",
      "type": "event"
    },
    {
      "inputs": [
        {
          "internalType": "bytes",
          "name": "",
          "type": "bytes"
        }
      ],
      "name": "UsedSignatures",
      "outputs": [
        {
          "internalType": "bool",
          "name": "",
          "type": "bool"
        }
      ],
      "stateMutability": "view",
      "type": "function"
    },
    {
      "inputs": [],
      "name": "avatarsAddress",
      "outputs": [
        {
          "internalType": "address",
          "name": "",
          "type": "address"
        }
      ],
      "stateMutability": "view",
      "type": "function"
    },
    {
      "inputs": [
        {
          "internalType": "address",
          "name": "account",
          "type": "address"
        },
        {
          "internalType": "uint256",
          "name": "id",
          "type": "uint256"
        }
      ],
      "name": "balanceOf",
      "outputs": [
        {
          "internalType": "uint256",
          "name": "",
          "type": "uint256"
        }
      ],
      "stateMutability": "view",
      "type": "function"
    },
    {
      "inputs": [
        {
          "internalType": "address[]",
          "name": "accounts",
          "type": "address[]"
        },
        {
          "internalType": "uint256[]",
          "name": "ids",
          "type": "uint256[]"
        }
      ],
      "name": "balanceOfBatch",
      "outputs": [
        {
          "internalType": "uint256[]",
          "name": "",
          "type": "uint256[]"
        }
      ],
      "stateMutability": "view",
      "type": "function"
    },
    {
      "inputs": [],
      "name": "baseURI",
      "outputs": [
        {
          "internalType": "string",
          "name": "",
          "type": "string"
        }
      ],
      "stateMutability": "view",
      "type": "function"
    },
    {
      "inputs": [
        {
          "internalType": "address",
          "name": "owner",
          "type": "address"
        },
        {
          "internalType": "uint256",
          "name": "itemId",
          "type": "uint256"
        }
      ],
      "name": "burnEquippedItem",
      "outputs": [],
      "stateMutability": "nonpayable",
      "type": "function"
    },
    {
      "inputs": [],
      "name": "enabled",
      "outputs": [
        {
          "internalType": "bool",
          "name": "",
          "type": "bool"
        }
      ],
      "stateMutability": "view",
      "type": "function"
    },
    {
      "inputs": [
        {
          "components": [
            {
              "internalType": "address",
              "name": "receiver",
              "type": "address"
            },
            {
              "internalType": "uint256[]",
              "name": "tokenIds",
              "type": "uint256[]"
            },
            {
              "internalType": "uint256[]",
              "name": "amounts",
              "type": "uint256[]"
            },
            {
              "internalType": "uint256",
              "name": "voucherId",
              "type": "uint256"
            },
            {
              "internalType": "uint256",
              "name": "clabimableUntil",
              "type": "uint256"
            },
            {
              "internalType": "address",
              "name": "currency",
              "type": "address"
            },
            {
              "internalType": "uint256",
              "name": "price",
              "type": "uint256"
            },
            {
              "internalType": "bool",
              "name": "payWithTicket",
              "type": "bool"
            },
            {
              "internalType": "uint256",
              "name": "ticketId",
              "type": "uint256"
            },
            {
              "internalType": "bytes",
              "name": "signature",
              "type": "bytes"
            }
          ],
          "internalType": "struct ItemVoucher",
          "name": "payload",
          "type": "tuple"
        }
      ],
      "name": "encodePackedMintData",
      "outputs": [
        {
          "internalType": "bytes32",
          "name": "",
          "type": "bytes32"
        }
      ],
      "stateMutability": "pure",
      "type": "function"
    },
    {
      "inputs": [],
      "name": "flipState",
      "outputs": [],
      "stateMutability": "nonpayable",
      "type": "function"
    },
    {
      "inputs": [],
      "name": "getHatchyTicketsContract",
      "outputs": [
        {
          "internalType": "address",
          "name": "",
          "type": "address"
        }
      ],
      "stateMutability": "view",
      "type": "function"
    },
    {
      "inputs": [
        {
          "internalType": "string",
          "name": "_uri",
          "type": "string"
        },
        {
          "internalType": "address",
          "name": "_signer",
          "type": "address"
        },
        {
          "internalType": "address",
          "name": "_hatchyTickets",
          "type": "address"
        }
      ],
      "name": "initialize",
      "outputs": [],
      "stateMutability": "nonpayable",
      "type": "function"
    },
    {
      "inputs": [
        {
          "internalType": "address",
          "name": "account",
          "type": "address"
        },
        {
          "internalType": "address",
          "name": "operator",
          "type": "address"
        }
      ],
      "name": "isApprovedForAll",
      "outputs": [
        {
          "internalType": "bool",
          "name": "",
          "type": "bool"
        }
      ],
      "stateMutability": "view",
      "type": "function"
    },
    {
      "inputs": [
        {
          "components": [
            {
              "internalType": "address",
              "name": "receiver",
              "type": "address"
            },
            {
              "internalType": "uint256[]",
              "name": "tokenIds",
              "type": "uint256[]"
            },
            {
              "internalType": "uint256[]",
              "name": "amounts",
              "type": "uint256[]"
            },
            {
              "internalType": "uint256",
              "name": "voucherId",
              "type": "uint256"
            },
            {
              "internalType": "uint256",
              "name": "clabimableUntil",
              "type": "uint256"
            },
            {
              "internalType": "address",
              "name": "currency",
              "type": "address"
            },
            {
              "internalType": "uint256",
              "name": "price",
              "type": "uint256"
            },
            {
              "internalType": "bool",
              "name": "payWithTicket",
              "type": "bool"
            },
            {
              "internalType": "uint256",
              "name": "ticketId",
              "type": "uint256"
            },
            {
              "internalType": "bytes",
              "name": "signature",
              "type": "bytes"
            }
          ],
          "internalType": "struct ItemVoucher",
          "name": "payload",
          "type": "tuple"
        }
      ],
      "name": "mintItem",
      "outputs": [],
      "stateMutability": "payable",
      "type": "function"
    },
    {
      "inputs": [
        {
          "internalType": "address",
          "name": "receiver",
          "type": "address"
        },
        {
          "internalType": "uint256[]",
          "name": "itemIds",
          "type": "uint256[]"
        },
        {
          "internalType": "uint256[]",
          "name": "amounts",
          "type": "uint256[]"
        }
      ],
      "name": "mintRewardItem",
      "outputs": [],
      "stateMutability": "nonpayable",
      "type": "function"
    },
    {
      "inputs": [
        {
          "internalType": "address",
          "name": "",
          "type": "address"
        }
      ],
      "name": "mintedItems",
      "outputs": [
        {
          "internalType": "uint256",
          "name": "",
          "type": "uint256"
        }
      ],
      "stateMutability": "view",
      "type": "function"
    },
    {
      "inputs": [],
      "name": "owner",
      "outputs": [
        {
          "internalType": "address",
          "name": "",
          "type": "address"
        }
      ],
      "stateMutability": "view",
      "type": "function"
    },
    {
      "inputs": [],
      "name": "proxiableUUID",
      "outputs": [
        {
          "internalType": "bytes32",
          "name": "",
          "type": "bytes32"
        }
      ],
      "stateMutability": "view",
      "type": "function"
    },
    {
      "inputs": [],
      "name": "renounceOwnership",
      "outputs": [],
      "stateMutability": "nonpayable",
      "type": "function"
    },
    {
      "inputs": [
        {
          "internalType": "address",
          "name": "owner",
          "type": "address"
        },
        {
          "internalType": "uint256",
          "name": "itemId",
          "type": "uint256"
        }
      ],
      "name": "returnEquippedItem",
      "outputs": [],
      "stateMutability": "nonpayable",
      "type": "function"
    },
    {
      "inputs": [
        {
          "internalType": "uint256",
          "name": "",
          "type": "uint256"
        },
        {
          "internalType": "uint256",
          "name": "salePrice",
          "type": "uint256"
        }
      ],
      "name": "royaltyInfo",
      "outputs": [
        {
          "internalType": "address",
          "name": "",
          "type": "address"
        },
        {
          "internalType": "uint256",
          "name": "",
          "type": "uint256"
        }
      ],
      "stateMutability": "view",
      "type": "function"
    },
    {
      "inputs": [
        {
          "internalType": "address",
          "name": "from",
          "type": "address"
        },
        {
          "internalType": "address",
          "name": "to",
          "type": "address"
        },
        {
          "internalType": "uint256[]",
          "name": "ids",
          "type": "uint256[]"
        },
        {
          "internalType": "uint256[]",
          "name": "amounts",
          "type": "uint256[]"
        },
        {
          "internalType": "bytes",
          "name": "data",
          "type": "bytes"
        }
      ],
      "name": "safeBatchTransferFrom",
      "outputs": [],
      "stateMutability": "nonpayable",
      "type": "function"
    },
    {
      "inputs": [
        {
          "internalType": "address",
          "name": "from",
          "type": "address"
        },
        {
          "internalType": "address",
          "name": "to",
          "type": "address"
        },
        {
          "internalType": "uint256",
          "name": "id",
          "type": "uint256"
        },
        {
          "internalType": "uint256",
          "name": "amount",
          "type": "uint256"
        },
        {
          "internalType": "bytes",
          "name": "data",
          "type": "bytes"
        }
      ],
      "name": "safeTransferFrom",
      "outputs": [],
      "stateMutability": "nonpayable",
      "type": "function"
    },
    {
      "inputs": [
        {
          "internalType": "address",
          "name": "operator",
          "type": "address"
        },
        {
          "internalType": "bool",
          "name": "approved",
          "type": "bool"
        }
      ],
      "name": "setApprovalForAll",
      "outputs": [],
      "stateMutability": "nonpayable",
      "type": "function"
    },
    {
      "inputs": [
        {
          "internalType": "address",
          "name": "newAddress",
          "type": "address"
        }
      ],
      "name": "setAvatarsAddress",
      "outputs": [],
      "stateMutability": "nonpayable",
      "type": "function"
    },
    {
      "inputs": [
        {
          "internalType": "address",
          "name": "_hatchyTickets",
          "type": "address"
        }
      ],
      "name": "setHatchyTicketsContract",
      "outputs": [],
      "stateMutability": "nonpayable",
      "type": "function"
    },
    {
      "inputs": [
        {
          "internalType": "address",
          "name": "account",
          "type": "address"
        }
      ],
      "name": "setSigner",
      "outputs": [],
      "stateMutability": "nonpayable",
      "type": "function"
    },
    {
      "inputs": [
        {
          "internalType": "string",
          "name": "newuri",
          "type": "string"
        }
      ],
      "name": "setURI",
      "outputs": [],
      "stateMutability": "nonpayable",
      "type": "function"
    },
    {
      "inputs": [],
      "name": "signer",
      "outputs": [
        {
          "internalType": "address",
          "name": "",
          "type": "address"
        }
      ],
      "stateMutability": "view",
      "type": "function"
    },
    {
      "inputs": [
        {
          "internalType": "bytes4",
          "name": "interfaceId",
          "type": "bytes4"
        }
      ],
      "name": "supportsInterface",
      "outputs": [
        {
          "internalType": "bool",
          "name": "",
          "type": "bool"
        }
      ],
      "stateMutability": "view",
      "type": "function"
    },
    {
      "inputs": [
        {
          "internalType": "address",
          "name": "newOwner",
          "type": "address"
        }
      ],
      "name": "transferOwnership",
      "outputs": [],
      "stateMutability": "nonpayable",
      "type": "function"
    },
    {
      "inputs": [
        {
          "internalType": "address",
          "name": "newImplementation",
          "type": "address"
        }
      ],
      "name": "upgradeTo",
      "outputs": [],
      "stateMutability": "nonpayable",
      "type": "function"
    },
    {
      "inputs": [
        {
          "internalType": "address",
          "name": "newImplementation",
          "type": "address"
        },
        {
          "internalType": "bytes",
          "name": "data",
          "type": "bytes"
        }
      ],
      "name": "upgradeToAndCall",
      "outputs": [],
      "stateMutability": "payable",
      "type": "function"
    },
    {
      "inputs": [
        {
          "internalType": "uint256",
          "name": "",
          "type": "uint256"
        }
      ],
      "name": "uri",
      "outputs": [
        {
          "internalType": "string",
          "name": "",
          "type": "string"
        }
      ],
      "stateMutability": "view",
      "type": "function"
    }
  ],
  "bytecode": "0x60a06040523060805234801561001457600080fd5b50608051613a3a61004c600039600081816109a6015281816109e601528181610dff01528181610e3f0152610ed20152613a3a6000f3fe6080604052600436106101ed5760003560e01c80634f1ef2861161010d5780637edc0f4b116100a0578063a22cb4651161006f578063a22cb465146105cc578063e985e9c5146105ec578063f242432a14610636578063f2fde38b14610656578063f74f743a1461067657600080fd5b80637edc0f4b1461054a5780638da5cb5b1461055d5780638e3d792a1461057b5780638e920351146105b757600080fd5b80636a67722e116100dc5780636a67722e146104e05780636c0360eb146105005780636c19e78314610515578063715018a61461053557600080fd5b80634f1ef2861461046a5780635136674d1461047d57806352d1902d146104ab578063554fa8a2146104c057600080fd5b80632a55205a11610185578063463fd1af11610154578063463fd1af146103dd57806349472870146103fd5780634b01fe251461041d5780634e1273f41461043d57600080fd5b80632a55205a1461033f5780632eb2c2d61461037e5780633659cfe61461039e57806343a7c30e146103be57600080fd5b80631e07e55a116101c15780631e07e55a146102a4578063238ac933146102c4578063238dafe0146102fd57806323c4586b1461031f57600080fd5b8062fdd58e146101f257806301ffc9a71461022557806302fe5305146102555780630e89341c14610277575b600080fd5b3480156101fe57600080fd5b5061021261020d366004612b1a565b610697565b6040519081526020015b60405180910390f35b34801561023157600080fd5b50610245610240366004612b5a565b610730565b604051901515815260200161021c565b34801561026157600080fd5b50610275610270366004612c55565b610782565b005b34801561028357600080fd5b50610297610292366004612c91565b610796565b60405161021c9190612d02565b3480156102b057600080fd5b506102756102bf366004612d15565b61082b565b3480156102d057600080fd5b50610161546102e5906001600160a01b031681565b6040516001600160a01b03909116815260200161021c565b34801561030957600080fd5b506101625461024590600160a01b900460ff1681565b34801561032b57600080fd5b5061027561033a366004612b1a565b610856565b34801561034b57600080fd5b5061035f61035a366004612d30565b610913565b604080516001600160a01b03909316835260208301919091520161021c565b34801561038a57600080fd5b50610275610399366004612de6565b610950565b3480156103aa57600080fd5b506102756103b9366004612d15565b61099c565b3480156103ca57600080fd5b5061015f546001600160a01b03166102e5565b3480156103e957600080fd5b506102756103f8366004612e8f565b610a78565b34801561040957600080fd5b50610275610418366004612b1a565b610baf565b34801561042957600080fd5b50610212610438366004612f05565b610c6f565b34801561044957600080fd5b5061045d61045836600461301a565b610ccc565b60405161021c919061311f565b610275610478366004613132565b610df5565b34801561048957600080fd5b50610212610498366004612d15565b6101646020526000908152604090205481565b3480156104b757600080fd5b50610212610ec5565b3480156104cc57600080fd5b506102756104db366004612d15565b610f79565b3480156104ec57600080fd5b506102756104fb366004613175565b610fa4565b34801561050c57600080fd5b50610297611039565b34801561052157600080fd5b50610275610530366004612d15565b6110c8565b34801561054157600080fd5b5061027561111b565b610275610558366004612f05565b61112f565b34801561056957600080fd5b5060fb546001600160a01b03166102e5565b34801561058757600080fd5b50610245610596366004612c55565b80516020818301810180516101608252928201919093012091525460ff1681565b3480156105c357600080fd5b506102756115d3565b3480156105d857600080fd5b506102756105e73660046131e8565b6115fd565b3480156105f857600080fd5b5061024561060736600461321f565b6001600160a01b03918216600090815261012e6020908152604080832093909416825291909152205460ff1690565b34801561064257600080fd5b50610275610651366004613252565b611608565b34801561066257600080fd5b50610275610671366004612d15565b61164d565b34801561068257600080fd5b50610162546102e5906001600160a01b031681565b60006001600160a01b0383166107075760405162461bcd60e51b815260206004820152602a60248201527f455243313135353a2061646472657373207a65726f206973206e6f742061207660448201526930b634b21037bbb732b960b11b60648201526084015b60405180910390fd5b50600090815261012d602090815260408083206001600160a01b03949094168352929052205490565b60006001600160e01b03198216636cdb3d1360e11b148061076157506001600160e01b031982166303a24d0760e21b145b8061077c57506301ffc9a760e01b6001600160e01b03198316145b92915050565b61078a6116c3565b6107938161171d565b50565b606061012f80546107a6906132b6565b80601f01602080910402602001604051908101604052809291908181526020018280546107d2906132b6565b801561081f5780601f106107f45761010080835404028352916020019161081f565b820191906000526020600020905b81548152906001019060200180831161080257829003601f168201915b50505050509050919050565b6108336116c3565b61015f80546001600160a01b0319166001600160a01b0392909216919091179055565b61016254600160a01b900460ff166108805760405162461bcd60e51b81526004016106fe906132f0565b610162546001600160a01b031633146108bf5760405162461bcd60e51b81526020600482015260016024820152606160f81b60448201526064016106fe565b6108cb8282600161172a565b816001600160a01b03167fb713373387a266381fd4c432edd7d52ffd2fe61fc7f45c28b29eaf16f4b51400600060405161090791815260200190565b60405180910390a25050565b60008080612710610926856103e8613321565b6109309190613340565b905061094460fb546001600160a01b031690565b925090505b9250929050565b6001600160a01b03851633148061096c575061096c8533610607565b6109885760405162461bcd60e51b81526004016106fe90613362565b61099585858585856118b0565b5050505050565b6001600160a01b037f00000000000000000000000000000000000000000000000000000000000000001630036109e45760405162461bcd60e51b81526004016106fe906133b0565b7f00000000000000000000000000000000000000000000000000000000000000006001600160a01b0316610a2d6000805160206139be833981519152546001600160a01b031690565b6001600160a01b031614610a535760405162461bcd60e51b81526004016106fe906133fc565b610a5c81611a51565b6040805160008082526020820190925261079391839190611a59565b600054610100900460ff1615808015610a985750600054600160ff909116105b80610ab25750303b158015610ab2575060005460ff166001145b610b155760405162461bcd60e51b815260206004820152602e60248201527f496e697469616c697a61626c653a20636f6e747261637420697320616c72656160448201526d191e481a5b9a5d1a585b1a5e995960921b60648201526084016106fe565b6000805460ff191660011790558015610b38576000805461ff0019166101001790555b610b40611bc4565b610b48611bf3565b610b5184611c22565b610b5a82611c52565b610b6383611c79565b8015610ba9576000805461ff0019169055604051600181527f7f26b83ff96e1f2b6a682f133852f6798a09c465da95921460cefb38474024989060200160405180910390a15b50505050565b61016254600160a01b900460ff16610bd95760405162461bcd60e51b81526004016106fe906132f0565b610162546001600160a01b03163314610c185760405162461bcd60e51b81526020600482015260016024820152606160f81b60448201526064016106fe565b610c348282600160405180602001604052806000815250611ca0565b816001600160a01b03167f811e1fb9d78aa323a24635abd182f0e86a3102581702538cc347cc522ea2c30c8260405161090791815260200190565b80516020808301516040808501516060860151608087015160a088015160c089015160e08a01516101008b0151965160009a610caf9a909998910161346d565b604051602081830303815290604052805190602001209050919050565b60608151835114610d315760405162461bcd60e51b815260206004820152602960248201527f455243313135353a206163636f756e747320616e6420696473206c656e677468604482015268040dad2e6dac2e8c6d60bb1b60648201526084016106fe565b600083516001600160401b03811115610d4c57610d4c612b77565b604051908082528060200260200182016040528015610d75578160200160208202803683370190505b50905060005b8451811015610ded57610dc0858281518110610d9957610d996134d5565b6020026020010151858381518110610db357610db36134d5565b6020026020010151610697565b828281518110610dd257610dd26134d5565b6020908102919091010152610de6816134eb565b9050610d7b565b509392505050565b6001600160a01b037f0000000000000000000000000000000000000000000000000000000000000000163003610e3d5760405162461bcd60e51b81526004016106fe906133b0565b7f00000000000000000000000000000000000000000000000000000000000000006001600160a01b0316610e866000805160206139be833981519152546001600160a01b031690565b6001600160a01b031614610eac5760405162461bcd60e51b81526004016106fe906133fc565b610eb582611a51565b610ec182826001611a59565b5050565b6000306001600160a01b037f00000000000000000000000000000000000000000000000000000000000000001614610f655760405162461bcd60e51b815260206004820152603860248201527f555550535570677261646561626c653a206d757374206e6f742062652063616c60448201527f6c6564207468726f7567682064656c656761746563616c6c000000000000000060648201526084016106fe565b506000805160206139be8339815191525b90565b610f816116c3565b61016280546001600160a01b0319166001600160a01b0392909216919091179055565b61016254600160a01b900460ff16610fce5760405162461bcd60e51b81526004016106fe906132f0565b610fe8335b610161546001600160a01b0390811691161490565b6110195760405162461bcd60e51b81526020600482015260026024820152616e6f60f01b60448201526064016106fe565b61103483838360405180602001604052806000815250611d74565b505050565b6101638054611047906132b6565b80601f0160208091040260200160405190810160405280929190818152602001828054611073906132b6565b80156110c05780601f10611095576101008083540402835291602001916110c0565b820191906000526020600020905b8154815290600101906020018083116110a357829003601f168201915b505050505081565b6110d06116c3565b61016180546001600160a01b0319166001600160a01b0383169081179091556040517f1d4fc2100fc6a16b01f961ed088b79195c405adc33f92ae3a76e70662cb2096f90600090a250565b6111236116c3565b61112d6000611ec1565b565b611137611f13565b61016254600160a01b900460ff166111615760405162461bcd60e51b81526004016106fe906132f0565b80513382610120015161117384610c6f565b826001600160a01b0316846001600160a01b0316146040518060400160405280600e81526020016d2bb937b733903932b1b2b4bb32b960911b815250906111cd5760405162461bcd60e51b81526004016106fe9190612d02565b506111d782611f6c565b1560405180604001604052806011815260200170496e76616c6964205369676e617475726560781b815250906112205760405162461bcd60e51b81526004016106fe9190612d02565b5061122a82611f98565b6000611239610fd38484611fce565b90508060405180604001604052806011815260200170496e76616c6964205369676e617475726560781b815250906112845760405162461bcd60e51b81526004016106fe9190612d02565b50604080516001808252818301909252600091602080830190803683370190505090508660600151816000815181106112bf576112bf6134d5565b6020026020010181815250508660e0015115611344576000805b88602001515181101561131957886040015181815181106112fc576112fc6134d5565b60200260200101518261130f9190613504565b91506001016112d9565b50875161133e9061133260fb546001600160a01b031690565b8a610100015184611fea565b506114e6565b60c0870151156114e65773eeeeeeeeeeeeeeeeeeeeeeeeeeeeeeeeeeeeeeee6001600160a01b03168760a001516001600160a01b031603611406578660c001513410156113c85760405162461bcd60e51b8152602060048201526012602482015271496e73756666696369656e742066756e647360701b60448201526064016106fe565b60fb5460c08801516040516001600160a01b039092169181156108fc0291906000818181858888f1935050505015801561133e573d6000803e3d6000fd5b8660a001516001600160a01b03166323b872dd3361142c60fb546001600160a01b031690565b60c08b01516040516001600160e01b031960e086901b1681526001600160a01b03938416600482015292909116602483015260448201526064016020604051808303816000875af1158015611485573d6000803e3d6000fd5b505050506040513d601f19601f820116820180604052508101906114a9919061351c565b6114e65760405162461bcd60e51b815260206004820152600e60248201526d1c185e5b595b9d0819985a5b195960921b60448201526064016106fe565b61150d87600001518860200151896040015160405180602001604052806000815250611d74565b60005b8760200151518110156115815787604001518181518110611533576115336134d5565b602002602001015161016460008a600001516001600160a01b03166001600160a01b0316815260200190815260200160002060008282546115749190613504565b9091555050600101611510565b506020870151604080890151905133927fa78d18c9868a075fbb512fe99f8a102cd053eaa68e9c76fbab39d463509c6c4b926115bc92613539565b60405180910390a250505050505061079360018055565b6115db6116c3565b610162805460ff60a01b198116600160a01b9182900460ff1615909102179055565b610ec1338383612149565b6001600160a01b03851633148061162457506116248533610607565b6116405760405162461bcd60e51b81526004016106fe90613362565b610995858585858561222a565b6116556116c3565b6001600160a01b0381166116ba5760405162461bcd60e51b815260206004820152602660248201527f4f776e61626c653a206e6577206f776e657220697320746865207a65726f206160448201526564647265737360d01b60648201526084016106fe565b61079381611ec1565b60fb546001600160a01b0316331461112d5760405162461bcd60e51b815260206004820181905260248201527f4f776e61626c653a2063616c6c6572206973206e6f7420746865206f776e657260448201526064016106fe565b61012f610ec182826135a4565b6001600160a01b03831661178c5760405162461bcd60e51b815260206004820152602360248201527f455243313135353a206275726e2066726f6d20746865207a65726f206164647260448201526265737360e81b60648201526084016106fe565b3360006117988461235a565b905060006117a58461235a565b604080516020808201835260009182905288825261012d81528282206001600160a01b038b16835290522054909150848110156118305760405162461bcd60e51b8152602060048201526024808201527f455243313135353a206275726e20616d6f756e7420657863656564732062616c604482015263616e636560e01b60648201526084016106fe565b600086815261012d602090815260408083206001600160a01b038b81168086529184528285208a8703905582518b81529384018a90529092908816917fc3d58168c5ae7397731d063d5bbf3d657854427343f4c083240f7aacaa2d0f62910160405180910390a46040805160208101909152600090525b50505050505050565b81518351146118d15760405162461bcd60e51b81526004016106fe90613663565b6001600160a01b0384166118f75760405162461bcd60e51b81526004016106fe906136ab565b3360005b84518110156119e3576000858281518110611918576119186134d5565b602002602001015190506000858381518110611936576119366134d5565b602090810291909101810151600084815261012d835260408082206001600160a01b038e1683529093529190912054909150818110156119885760405162461bcd60e51b81526004016106fe906136f0565b600083815261012d602090815260408083206001600160a01b038e8116855292528083208585039055908b168252812080548492906119c8908490613504565b92505081905550505050806119dc906134eb565b90506118fb565b50846001600160a01b0316866001600160a01b0316826001600160a01b03167f4a39dc06d4c0dbc64b70af90fd698a233a518aa5d07e595d983b8c0526c8f7fb8787604051611a33929190613539565b60405180910390a4611a498187878787876123a5565b505050505050565b6107936116c3565b7f4910fdfa16fed3260ed0e7147f7cc6da11a60208b5b9406d12a635614ffd91435460ff1615611a8c5761103483612500565b826001600160a01b03166352d1902d6040518163ffffffff1660e01b8152600401602060405180830381865afa925050508015611ae6575060408051601f3d908101601f19168201909252611ae39181019061373a565b60015b611b495760405162461bcd60e51b815260206004820152602e60248201527f45524331393637557067726164653a206e657720696d706c656d656e7461746960448201526d6f6e206973206e6f74205555505360901b60648201526084016106fe565b6000805160206139be8339815191528114611bb85760405162461bcd60e51b815260206004820152602960248201527f45524331393637557067726164653a20756e737570706f727465642070726f786044820152681a58589b195555525160ba1b60648201526084016106fe565b5061103483838361259c565b600054610100900460ff16611beb5760405162461bcd60e51b81526004016106fe90613753565b61112d6125c1565b600054610100900460ff16611c1a5760405162461bcd60e51b81526004016106fe90613753565b61112d6125f1565b600054610100900460ff16611c495760405162461bcd60e51b81526004016106fe90613753565b61079381612618565b600054610100900460ff166108335760405162461bcd60e51b81526004016106fe90613753565b600054610100900460ff166110d05760405162461bcd60e51b81526004016106fe90613753565b6001600160a01b038416611cc65760405162461bcd60e51b81526004016106fe9061379e565b336000611cd28561235a565b90506000611cdf8561235a565b9050600086815261012d602090815260408083206001600160a01b038b16845290915281208054879290611d14908490613504565b909155505060408051878152602081018790526001600160a01b03808a1692600092918716917fc3d58168c5ae7397731d063d5bbf3d657854427343f4c083240f7aacaa2d0f62910160405180910390a46118a78360008989898961263f565b6001600160a01b038416611d9a5760405162461bcd60e51b81526004016106fe9061379e565b8151835114611dbb5760405162461bcd60e51b81526004016106fe90613663565b3360005b8451811015611e5957838181518110611dda57611dda6134d5565b602002602001015161012d6000878481518110611df957611df96134d5565b602002602001015181526020019081526020016000206000886001600160a01b03166001600160a01b031681526020019081526020016000206000828254611e419190613504565b90915550819050611e51816134eb565b915050611dbf565b50846001600160a01b031660006001600160a01b0316826001600160a01b03167f4a39dc06d4c0dbc64b70af90fd698a233a518aa5d07e595d983b8c0526c8f7fb8787604051611eaa929190613539565b60405180910390a4610995816000878787876123a5565b60fb80546001600160a01b038381166001600160a01b0319831681179093556040519116919082907f8be0079c531659141344cd1fd0a4f28419497f9722a3daafe3b4186f6b6457e090600090a35050565b600260015403611f655760405162461bcd60e51b815260206004820152601f60248201527f5265656e7472616e637947756172643a207265656e7472616e742063616c6c0060448201526064016106fe565b6002600155565b600061016082604051611f7f91906137df565b9081526040519081900360200190205460ff1692915050565b600161016082604051611fab91906137df565b908152604051908190036020019020805491151560ff1990921691909117905550565b6000611fe383611fdd846126fa565b90612735565b9392505050565b61015f54604051627eeac760e11b81526001600160a01b038681166004830152602482018590528392169062fdd58e90604401602060405180830381865afa15801561203a573d6000803e3d6000fd5b505050506040513d601f19601f8201168201806040525081019061205e919061373a565b1015604051806040016040528060128152602001714e6f7420656e6f756768207469636b65747360701b815250906120a95760405162461bcd60e51b81526004016106fe9190612d02565b5061015f54604051637921219560e11b81526001600160a01b0386811660048301528581166024830152604482018590526064820184905260a06084830152600660a48301526572656465656d60d01b60c48301529091169063f242432a9060e401600060405180830381600087803b15801561212557600080fd5b505af1158015612139573d6000803e3d6000fd5b5050505050505050565b60018055565b816001600160a01b0316836001600160a01b0316036121bc5760405162461bcd60e51b815260206004820152602960248201527f455243313135353a2073657474696e6720617070726f76616c20737461747573604482015268103337b91039b2b63360b91b60648201526084016106fe565b6001600160a01b03838116600081815261012e6020908152604080832094871680845294825291829020805460ff191686151590811790915591519182527f17307eab39ab6107e8899845ad3d59bd9653f200f220920489ca2b5937696c31910160405180910390a3505050565b6001600160a01b0384166122505760405162461bcd60e51b81526004016106fe906136ab565b33600061225c8561235a565b905060006122698561235a565b9050600086815261012d602090815260408083206001600160a01b038c168452909152902054858110156122af5760405162461bcd60e51b81526004016106fe906136f0565b600087815261012d602090815260408083206001600160a01b038d8116855292528083208985039055908a168252812080548892906122ef908490613504565b909155505060408051888152602081018890526001600160a01b03808b16928c821692918816917fc3d58168c5ae7397731d063d5bbf3d657854427343f4c083240f7aacaa2d0f62910160405180910390a461234f848a8a8a8a8a61263f565b505050505050505050565b60408051600180825281830190925260609160009190602080830190803683370190505090508281600081518110612394576123946134d5565b602090810291909101015292915050565b6001600160a01b0384163b15611a495760405163bc197c8160e01b81526001600160a01b0385169063bc197c81906123e990899089908890889088906004016137fb565b6020604051808303816000875af1925050508015612424575060408051601f3d908101601f1916820190925261242191810190613859565b60015b6124d057612430613876565b806308c379a0036124695750612444613891565b8061244f575061246b565b8060405162461bcd60e51b81526004016106fe9190612d02565b505b60405162461bcd60e51b815260206004820152603460248201527f455243313135353a207472616e7366657220746f206e6f6e2d455243313135356044820152732932b1b2b4bb32b91034b6b83632b6b2b73a32b960611b60648201526084016106fe565b6001600160e01b0319811663bc197c8160e01b146118a75760405162461bcd60e51b81526004016106fe9061391a565b6001600160a01b0381163b61256d5760405162461bcd60e51b815260206004820152602d60248201527f455243313936373a206e657720696d706c656d656e746174696f6e206973206e60448201526c1bdd08184818dbdb9d1c9858dd609a1b60648201526084016106fe565b6000805160206139be83398151915280546001600160a01b0319166001600160a01b0392909216919091179055565b6125a583612751565b6000825111806125b25750805b1561103457610ba98383612791565b600054610100900460ff166125e85760405162461bcd60e51b81526004016106fe90613753565b61112d33611ec1565b600054610100900460ff166121435760405162461bcd60e51b81526004016106fe90613753565b600054610100900460ff1661078a5760405162461bcd60e51b81526004016106fe90613753565b6001600160a01b0384163b15611a495760405163f23a6e6160e01b81526001600160a01b0385169063f23a6e61906126839089908990889088908890600401613962565b6020604051808303816000875af19250505080156126be575060408051601f3d908101601f191682019092526126bb91810190613859565b60015b6126ca57612430613876565b6001600160e01b0319811663f23a6e6160e01b146118a75760405162461bcd60e51b81526004016106fe9061391a565b6040517f19457468657265756d205369676e6564204d6573736167653a0a3332000000006020820152603c8101829052600090605c01610caf565b60008060006127448585612885565b91509150610ded816128c7565b61275a81612500565b6040516001600160a01b038216907fbc7cd75a20ee27fd9adebab32041f755214dbc6bffa90cc0225b39da2e5c2d3b90600090a250565b60606001600160a01b0383163b6127f95760405162461bcd60e51b815260206004820152602660248201527f416464726573733a2064656c65676174652063616c6c20746f206e6f6e2d636f6044820152651b9d1c9858dd60d21b60648201526084016106fe565b600080846001600160a01b03168460405161281491906137df565b600060405180830381855af49150503d806000811461284f576040519150601f19603f3d011682016040523d82523d6000602084013e612854565b606091505b509150915061287c82826040518060600160405280602781526020016139de60279139612a11565b95945050505050565b60008082516041036128bb5760208301516040840151606085015160001a6128af87828585612a2a565b94509450505050610949565b50600090506002610949565b60008160048111156128db576128db6139a7565b036128e35750565b60018160048111156128f7576128f76139a7565b036129445760405162461bcd60e51b815260206004820152601860248201527f45434453413a20696e76616c6964207369676e6174757265000000000000000060448201526064016106fe565b6002816004811115612958576129586139a7565b036129a55760405162461bcd60e51b815260206004820152601f60248201527f45434453413a20696e76616c6964207369676e6174757265206c656e6774680060448201526064016106fe565b60038160048111156129b9576129b96139a7565b036107935760405162461bcd60e51b815260206004820152602260248201527f45434453413a20696e76616c6964207369676e6174757265202773272076616c604482015261756560f01b60648201526084016106fe565b60608315612a20575081611fe3565b611fe38383612aee565b6000807f7fffffffffffffffffffffffffffffff5d576e7357a4501ddfe92f46681b20a0831115612a615750600090506003612ae5565b6040805160008082526020820180845289905260ff881692820192909252606081018690526080810185905260019060a0016020604051602081039080840390855afa158015612ab5573d6000803e3d6000fd5b5050604051601f1901519150506001600160a01b038116612ade57600060019250925050612ae5565b9150600090505b94509492505050565b81511561244f5781518083602001fd5b80356001600160a01b0381168114612b1557600080fd5b919050565b60008060408385031215612b2d57600080fd5b612b3683612afe565b946020939093013593505050565b6001600160e01b03198116811461079357600080fd5b600060208284031215612b6c57600080fd5b8135611fe381612b44565b634e487b7160e01b600052604160045260246000fd5b601f8201601f191681016001600160401b0381118282101715612bb257612bb2612b77565b6040525050565b60405161014081016001600160401b0381118282101715612bdc57612bdc612b77565b60405290565b600082601f830112612bf357600080fd5b81356001600160401b03811115612c0c57612c0c612b77565b604051612c23601f8301601f191660200182612b8d565b818152846020838601011115612c3857600080fd5b816020850160208301376000918101602001919091529392505050565b600060208284031215612c6757600080fd5b81356001600160401b03811115612c7d57600080fd5b612c8984828501612be2565b949350505050565b600060208284031215612ca357600080fd5b5035919050565b60005b83811015612cc5578181015183820152602001612cad565b83811115610ba95750506000910152565b60008151808452612cee816020860160208601612caa565b601f01601f19169290920160200192915050565b602081526000611fe36020830184612cd6565b600060208284031215612d2757600080fd5b611fe382612afe565b60008060408385031215612d4357600080fd5b50508035926020909101359150565b60006001600160401b03821115612d6b57612d6b612b77565b5060051b60200190565b600082601f830112612d8657600080fd5b81356020612d9382612d52565b604051612da08282612b8d565b83815260059390931b8501820192828101915086841115612dc057600080fd5b8286015b84811015612ddb5780358352918301918301612dc4565b509695505050505050565b600080600080600060a08688031215612dfe57600080fd5b612e0786612afe565b9450612e1560208701612afe565b935060408601356001600160401b0380821115612e3157600080fd5b612e3d89838a01612d75565b94506060880135915080821115612e5357600080fd5b612e5f89838a01612d75565b93506080880135915080821115612e7557600080fd5b50612e8288828901612be2565b9150509295509295909350565b600080600060608486031215612ea457600080fd5b83356001600160401b03811115612eba57600080fd5b612ec686828701612be2565b935050612ed560208501612afe565b9150612ee360408501612afe565b90509250925092565b801515811461079357600080fd5b8035612b1581612eec565b600060208284031215612f1757600080fd5b81356001600160401b0380821115612f2e57600080fd5b908301906101408286031215612f4357600080fd5b612f4b612bb9565b612f5483612afe565b8152602083013582811115612f6857600080fd5b612f7487828601612d75565b602083015250604083013582811115612f8c57600080fd5b612f9887828601612d75565b6040830152506060830135606082015260808301356080820152612fbe60a08401612afe565b60a082015260c083013560c0820152612fd960e08401612efa565b60e082015261010083810135908201526101208084013583811115612ffd57600080fd5b61300988828701612be2565b918301919091525095945050505050565b6000806040838503121561302d57600080fd5b82356001600160401b038082111561304457600080fd5b818501915085601f83011261305857600080fd5b8135602061306582612d52565b6040516130728282612b8d565b83815260059390931b850182019282810191508984111561309257600080fd5b948201945b838610156130b7576130a886612afe565b82529482019490820190613097565b965050860135925050808211156130cd57600080fd5b506130da85828601612d75565b9150509250929050565b600081518084526020808501945080840160005b83811015613114578151875295820195908201906001016130f8565b509495945050505050565b602081526000611fe360208301846130e4565b6000806040838503121561314557600080fd5b61314e83612afe565b915060208301356001600160401b0381111561316957600080fd5b6130da85828601612be2565b60008060006060848603121561318a57600080fd5b61319384612afe565b925060208401356001600160401b03808211156131af57600080fd5b6131bb87838801612d75565b935060408601359150808211156131d157600080fd5b506131de86828701612d75565b9150509250925092565b600080604083850312156131fb57600080fd5b61320483612afe565b9150602083013561321481612eec565b809150509250929050565b6000806040838503121561323257600080fd5b61323b83612afe565b915061324960208401612afe565b90509250929050565b600080600080600060a0868803121561326a57600080fd5b61327386612afe565b945061328160208701612afe565b9350604086013592506060860135915060808601356001600160401b038111156132aa57600080fd5b612e8288828901612be2565b600181811c908216806132ca57607f821691505b6020821081036132ea57634e487b7160e01b600052602260045260246000fd5b50919050565b6020808252600190820152606560f81b604082015260600190565b634e487b7160e01b600052601160045260246000fd5b600081600019048311821515161561333b5761333b61330b565b500290565b60008261335d57634e487b7160e01b600052601260045260246000fd5b500490565b6020808252602e908201527f455243313135353a2063616c6c6572206973206e6f7420746f6b656e206f776e60408201526d195c881bdc88185c1c1c9bdd995960921b606082015260800190565b6020808252602c908201527f46756e6374696f6e206d7573742062652063616c6c6564207468726f7567682060408201526b19195b1959d85d1958d85b1b60a21b606082015260800190565b6020808252602c908201527f46756e6374696f6e206d7573742062652063616c6c6564207468726f7567682060408201526b6163746976652070726f787960a01b606082015260800190565b80516000906020808401838315613114578151875295820195908201906001016130f8565b60006bffffffffffffffffffffffff19808c60601b16835261349b613495601485018d613448565b8b613448565b9889526020890197909752505060609390931b9093166040850152605484015290151560f81b607483015260758201526095019392505050565b634e487b7160e01b600052603260045260246000fd5b6000600182016134fd576134fd61330b565b5060010190565b600082198211156135175761351761330b565b500190565b60006020828403121561352e57600080fd5b8151611fe381612eec565b60408152600061354c60408301856130e4565b828103602084015261287c81856130e4565b601f82111561103457600081815260208120601f850160051c810160208610156135855750805b601f850160051c820191505b81811015611a4957828155600101613591565b81516001600160401b038111156135bd576135bd612b77565b6135d1816135cb84546132b6565b8461355e565b602080601f83116001811461360657600084156135ee5750858301515b600019600386901b1c1916600185901b178555611a49565b600085815260208120601f198616915b8281101561363557888601518255948401946001909101908401613616565b50858210156136535787850151600019600388901b60f8161c191681555b5050505050600190811b01905550565b60208082526028908201527f455243313135353a2069647320616e6420616d6f756e7473206c656e677468206040820152670dad2e6dac2e8c6d60c31b606082015260800190565b60208082526025908201527f455243313135353a207472616e7366657220746f20746865207a65726f206164604082015264647265737360d81b606082015260800190565b6020808252602a908201527f455243313135353a20696e73756666696369656e742062616c616e636520666f60408201526939103a3930b739b332b960b11b606082015260800190565b60006020828403121561374c57600080fd5b5051919050565b6020808252602b908201527f496e697469616c697a61626c653a20636f6e7472616374206973206e6f74206960408201526a6e697469616c697a696e6760a81b606082015260800190565b60208082526021908201527f455243313135353a206d696e7420746f20746865207a65726f206164647265736040820152607360f81b606082015260800190565b600082516137f1818460208701612caa565b9190910192915050565b6001600160a01b0386811682528516602082015260a060408201819052600090613827908301866130e4565b828103606084015261383981866130e4565b9050828103608084015261384d8185612cd6565b98975050505050505050565b60006020828403121561386b57600080fd5b8151611fe381612b44565b600060033d1115610f765760046000803e5060005160e01c90565b600060443d101561389f5790565b6040516003193d81016004833e81513d6001600160401b0381602484011181841117156138ce57505050505090565b82850191508151818111156138e65750505050505090565b843d87010160208285010111156139005750505050505090565b61390f60208286010187612b8d565b509095945050505050565b60208082526028908201527f455243313135353a204552433131353552656365697665722072656a656374656040820152676420746f6b656e7360c01b606082015260800190565b6001600160a01b03868116825285166020820152604081018490526060810183905260a06080820181905260009061399c90830184612cd6565b979650505050505050565b634e487b7160e01b600052602160045260246000fdfe360894a13ba1a3210667c828492db98dca3e2076cc3735a920a3ca505d382bbc416464726573733a206c6f772d6c6576656c2064656c65676174652063616c6c206661696c6564a2646970667358221220ab6a9e7b7f1998ea3175b44cfd356aae4532b89d5acb12034d251d20122c954664736f6c634300080f0033",
  "linkReferences": {},
  "deployedLinkReferences": {}
}