{
  "_format": "hh-sol-artifact-1",
  "contractName": "UltigenEggs",
  "sourceName": "contracts/ultigen/UltigenEggs.sol",
  "abi": [
    {
      "anonymous": false,
      "inputs": [
        {
          "indexed": false,
          "internalType": "address",
          "name": "previousAdmin",
          "type": "address"
        },
        {
          "indexed": false,
          "internalType": "address",
          "name": "newAdmin",
          "type": "address"
        }
      ],
      "name": "AdminChanged",
      "type": "event"
    },
    {
      "anonymous": false,
      "inputs": [
        {
          "indexed": true,
          "internalType": "address",
          "name": "account",
          "type": "address"
        },
        {
          "indexed": true,
          "internalType": "address",
          "name": "operator",
          "type": "address"
        },
        {
          "indexed": false,
          "internalType": "bool",
          "name": "approved",
          "type": "bool"
        }
      ],
      "name": "ApprovalForAll",
      "type": "event"
    },
    {
      "anonymous": false,
      "inputs": [
        {
          "indexed": true,
          "internalType": "address",
          "name": "beacon",
          "type": "address"
        }
      ],
      "name": "BeaconUpgraded",
      "type": "event"
    },
    {
      "anonymous": false,
      "inputs": [
        {
          "indexed": true,
          "internalType": "address",
          "name": "buyer",
          "type": "address"
        },
        {
          "indexed": true,
          "internalType": "uint256",
          "name": "eggType",
          "type": "uint256"
        },
        {
          "indexed": false,
          "internalType": "uint256",
          "name": "amount",
          "type": "uint256"
        }
      ],
      "name": "EggBought",
      "type": "event"
    },
    {
      "anonymous": false,
      "inputs": [
        {
          "indexed": true,
          "internalType": "address",
          "name": "hatcher",
          "type": "address"
        },
        {
          "indexed": true,
          "internalType": "uint256",
          "name": "eggType",
          "type": "uint256"
        },
        {
          "indexed": false,
          "internalType": "uint256",
          "name": "monsterId",
          "type": "uint256"
        }
      ],
      "name": "EggHatched",
      "type": "event"
    },
    {
      "anonymous": false,
      "inputs": [
        {
          "indexed": false,
          "internalType": "uint8",
          "name": "version",
          "type": "uint8"
        }
      ],
      "name": "Initialized",
      "type": "event"
    },
    {
      "anonymous": false,
      "inputs": [
        {
          "indexed": true,
          "internalType": "address",
          "name": "previousOwner",
          "type": "address"
        },
        {
          "indexed": true,
          "internalType": "address",
          "name": "newOwner",
          "type": "address"
        }
      ],
      "name": "OwnershipTransferred",
      "type": "event"
    },
    {
      "anonymous": false,
      "inputs": [
        {
          "indexed": true,
          "internalType": "address",
          "name": "account",
          "type": "address"
        }
      ],
      "name": "SignerChange",
      "type": "event"
    },
    {
      "anonymous": false,
      "inputs": [
        {
          "indexed": true,
          "internalType": "address",
          "name": "operator",
          "type": "address"
        },
        {
          "indexed": true,
          "internalType": "address",
          "name": "from",
          "type": "address"
        },
        {
          "indexed": true,
          "internalType": "address",
          "name": "to",
          "type": "address"
        },
        {
          "indexed": false,
          "internalType": "uint256[]",
          "name": "ids",
          "type": "uint256[]"
        },
        {
          "indexed": false,
          "internalType": "uint256[]",
          "name": "values",
          "type": "uint256[]"
        }
      ],
      "name": "TransferBatch",
      "type": "event"
    },
    {
      "anonymous": false,
      "inputs": [
        {
          "indexed": true,
          "internalType": "address",
          "name": "operator",
          "type": "address"
        },
        {
          "indexed": true,
          "internalType": "address",
          "name": "from",
          "type": "address"
        },
        {
          "indexed": true,
          "internalType": "address",
          "name": "to",
          "type": "address"
        },
        {
          "indexed": false,
          "internalType": "uint256",
          "name": "id",
          "type": "uint256"
        },
        {
          "indexed": false,
          "internalType": "uint256",
          "name": "value",
          "type": "uint256"
        }
      ],
      "name": "TransferSingle",
      "type": "event"
    },
    {
      "anonymous": false,
      "inputs": [
        {
          "indexed": false,
          "internalType": "string",
          "name": "value",
          "type": "string"
        },
        {
          "indexed": true,
          "internalType": "uint256",
          "name": "id",
          "type": "uint256"
        }
      ],
      "name": "URI",
      "type": "event"
    },
    {
      "anonymous": false,
      "inputs": [
        {
          "indexed": true,
          "internalType": "address",
          "name": "implementation",
          "type": "address"
        }
      ],
      "name": "Upgraded",
      "type": "event"
    },
    {
      "inputs": [],
      "name": "DARK_EGG",
      "outputs": [
        {
          "internalType": "uint256",
          "name": "",
          "type": "uint256"
        }
      ],
      "stateMutability": "view",
      "type": "function"
    },
    {
      "inputs": [],
      "name": "EGG_PRICE",
      "outputs": [
        {
          "internalType": "uint256",
          "name": "",
          "type": "uint256"
        }
      ],
      "stateMutability": "view",
      "type": "function"
    },
    {
      "inputs": [],
      "name": "FIRE_EGG",
      "outputs": [
        {
          "internalType": "uint256",
          "name": "",
          "type": "uint256"
        }
      ],
      "stateMutability": "view",
      "type": "function"
    },
    {
      "inputs": [],
      "name": "LIGHT_EGG",
      "outputs": [
        {
          "internalType": "uint256",
          "name": "",
          "type": "uint256"
        }
      ],
      "stateMutability": "view",
      "type": "function"
    },
    {
      "inputs": [],
      "name": "PLANT_EGG",
      "outputs": [
        {
          "internalType": "uint256",
          "name": "",
          "type": "uint256"
        }
      ],
      "stateMutability": "view",
      "type": "function"
    },
    {
      "inputs": [
        {
          "internalType": "bytes",
          "name": "",
          "type": "bytes"
        }
      ],
      "name": "UsedSignatures",
      "outputs": [
        {
          "internalType": "bool",
          "name": "",
          "type": "bool"
        }
      ],
      "stateMutability": "view",
      "type": "function"
    },
    {
      "inputs": [],
      "name": "WATER_EGG",
      "outputs": [
        {
          "internalType": "uint256",
          "name": "",
          "type": "uint256"
        }
      ],
      "stateMutability": "view",
      "type": "function"
    },
    {
      "inputs": [
        {
          "internalType": "address",
          "name": "account",
          "type": "address"
        },
        {
          "internalType": "uint256",
          "name": "id",
          "type": "uint256"
        }
      ],
      "name": "balanceOf",
      "outputs": [
        {
          "internalType": "uint256",
          "name": "",
          "type": "uint256"
        }
      ],
      "stateMutability": "view",
      "type": "function"
    },
    {
      "inputs": [
        {
          "internalType": "address[]",
          "name": "accounts",
          "type": "address[]"
        },
        {
          "internalType": "uint256[]",
          "name": "ids",
          "type": "uint256[]"
        }
      ],
      "name": "balanceOfBatch",
      "outputs": [
        {
          "internalType": "uint256[]",
          "name": "",
          "type": "uint256[]"
        }
      ],
      "stateMutability": "view",
      "type": "function"
    },
    {
      "inputs": [
        {
          "internalType": "uint256",
          "name": "eggType",
          "type": "uint256"
        },
        {
          "internalType": "uint256",
          "name": "amount",
          "type": "uint256"
        }
      ],
      "name": "buyEgg",
      "outputs": [],
      "stateMutability": "nonpayable",
      "type": "function"
    },
    {
      "inputs": [
        {
          "internalType": "uint256",
          "name": "",
          "type": "uint256"
        }
      ],
      "name": "eggToMonsterId",
      "outputs": [
        {
          "internalType": "uint256",
          "name": "",
          "type": "uint256"
        }
      ],
      "stateMutability": "view",
      "type": "function"
    },
    {
      "inputs": [
        {
          "components": [
            {
              "internalType": "address",
              "name": "receiver",
              "type": "address"
            },
            {
              "internalType": "uint256",
              "name": "eggType",
              "type": "uint256"
            },
            {
              "internalType": "uint256",
              "name": "amount",
              "type": "uint256"
            },
            {
              "internalType": "uint256[]",
              "name": "monsterIds",
              "type": "uint256[]"
            },
            {
              "internalType": "uint256",
              "name": "voucherId",
              "type": "uint256"
            },
            {
              "internalType": "bytes",
              "name": "signature",
              "type": "bytes"
            }
          ],
          "internalType": "struct HatchEggPayload",
          "name": "payload",
          "type": "tuple"
        }
      ],
      "name": "encodePackedHatchEggData",
      "outputs": [
        {
          "internalType": "bytes32",
          "name": "",
          "type": "bytes32"
        }
      ],
      "stateMutability": "pure",
      "type": "function"
    },
    {
      "inputs": [
        {
          "components": [
            {
              "internalType": "address",
              "name": "receiver",
              "type": "address"
            },
            {
              "internalType": "uint256",
              "name": "eggType",
              "type": "uint256"
            },
            {
              "internalType": "uint256",
              "name": "amount",
              "type": "uint256"
            },
            {
              "internalType": "uint256",
              "name": "voucherId",
              "type": "uint256"
            },
            {
              "internalType": "bytes",
              "name": "signature",
              "type": "bytes"
            }
          ],
          "internalType": "struct MintEggPayload",
          "name": "payload",
          "type": "tuple"
        }
      ],
      "name": "encodePackedMintEggData",
      "outputs": [
        {
          "internalType": "bytes32",
          "name": "",
          "type": "bytes32"
        }
      ],
      "stateMutability": "pure",
      "type": "function"
    },
    {
      "inputs": [],
      "name": "getHatchyTokenAddress",
      "outputs": [
        {
          "internalType": "address",
          "name": "",
          "type": "address"
        }
      ],
      "stateMutability": "view",
      "type": "function"
    },
    {
      "inputs": [],
      "name": "getUltigenAddress",
      "outputs": [
        {
          "internalType": "address",
          "name": "",
          "type": "address"
        }
      ],
      "stateMutability": "view",
      "type": "function"
    },
    {
      "inputs": [
        {
          "internalType": "address",
          "name": "to",
          "type": "address"
        },
        {
          "internalType": "uint256",
          "name": "eggType",
          "type": "uint256"
        },
        {
          "internalType": "uint256",
          "name": "amount",
          "type": "uint256"
        },
        {
          "internalType": "uint256[]",
          "name": "monsterIds",
          "type": "uint256[]"
        }
      ],
      "name": "hatchEggsToAddress",
      "outputs": [],
      "stateMutability": "nonpayable",
      "type": "function"
    },
    {
      "inputs": [
        {
          "components": [
            {
              "internalType": "address",
              "name": "receiver",
              "type": "address"
            },
            {
              "internalType": "uint256",
              "name": "eggType",
              "type": "uint256"
            },
            {
              "internalType": "uint256",
              "name": "amount",
              "type": "uint256"
            },
            {
              "internalType": "uint256[]",
              "name": "monsterIds",
              "type": "uint256[]"
            },
            {
              "internalType": "uint256",
              "name": "voucherId",
              "type": "uint256"
            },
            {
              "internalType": "bytes",
              "name": "signature",
              "type": "bytes"
            }
          ],
          "internalType": "struct HatchEggPayload",
          "name": "payload",
          "type": "tuple"
        }
      ],
      "name": "hatchEggsWithSignature",
      "outputs": [],
      "stateMutability": "nonpayable",
      "type": "function"
    },
    {
      "inputs": [],
      "name": "hatchyToken",
      "outputs": [
        {
          "internalType": "contract IERC20",
          "name": "",
          "type": "address"
        }
      ],
      "stateMutability": "view",
      "type": "function"
    },
    {
      "inputs": [],
      "name": "hatchyverseUltigen",
      "outputs": [
        {
          "internalType": "contract HatchyverseUltigen",
          "name": "",
          "type": "address"
        }
      ],
      "stateMutability": "view",
      "type": "function"
    },
    {
      "inputs": [
        {
          "internalType": "address",
          "name": "hatchyTokenAddress",
          "type": "address"
        },
        {
          "internalType": "address",
          "name": "hatchyverseUltigenAddress",
          "type": "address"
        },
        {
          "internalType": "string",
          "name": "_uri",
          "type": "string"
        },
        {
          "internalType": "address",
          "name": "_signer",
          "type": "address"
        }
      ],
      "name": "initialize",
      "outputs": [],
      "stateMutability": "nonpayable",
      "type": "function"
    },
    {
      "inputs": [
        {
          "internalType": "address",
          "name": "account",
          "type": "address"
        },
        {
          "internalType": "address",
          "name": "operator",
          "type": "address"
        }
      ],
      "name": "isApprovedForAll",
      "outputs": [
        {
          "internalType": "bool",
          "name": "",
          "type": "bool"
        }
      ],
      "stateMutability": "view",
      "type": "function"
    },
    {
      "inputs": [
        {
          "internalType": "address",
          "name": "to",
          "type": "address"
        },
        {
          "internalType": "uint256",
          "name": "eggType",
          "type": "uint256"
        },
        {
          "internalType": "uint256",
          "name": "amount",
          "type": "uint256"
        }
      ],
      "name": "mintEggToAddress",
      "outputs": [],
      "stateMutability": "nonpayable",
      "type": "function"
    },
    {
      "inputs": [
        {
          "components": [
            {
              "internalType": "address",
              "name": "receiver",
              "type": "address"
            },
            {
              "internalType": "uint256",
              "name": "eggType",
              "type": "uint256"
            },
            {
              "internalType": "uint256",
              "name": "amount",
              "type": "uint256"
            },
            {
              "internalType": "uint256",
              "name": "voucherId",
              "type": "uint256"
            },
            {
              "internalType": "bytes",
              "name": "signature",
              "type": "bytes"
            }
          ],
          "internalType": "struct MintEggPayload",
          "name": "payload",
          "type": "tuple"
        }
      ],
      "name": "mintEggWithSignature",
      "outputs": [],
      "stateMutability": "nonpayable",
      "type": "function"
    },
    {
      "inputs": [],
      "name": "owner",
      "outputs": [
        {
          "internalType": "address",
          "name": "",
          "type": "address"
        }
      ],
      "stateMutability": "view",
      "type": "function"
    },
    {
      "inputs": [],
      "name": "proxiableUUID",
      "outputs": [
        {
          "internalType": "bytes32",
          "name": "",
          "type": "bytes32"
        }
      ],
      "stateMutability": "view",
      "type": "function"
    },
    {
      "inputs": [],
      "name": "renounceOwnership",
      "outputs": [],
      "stateMutability": "nonpayable",
      "type": "function"
    },
    {
      "inputs": [
        {
          "internalType": "address",
          "name": "from",
          "type": "address"
        },
        {
          "internalType": "address",
          "name": "to",
          "type": "address"
        },
        {
          "internalType": "uint256[]",
          "name": "ids",
          "type": "uint256[]"
        },
        {
          "internalType": "uint256[]",
          "name": "amounts",
          "type": "uint256[]"
        },
        {
          "internalType": "bytes",
          "name": "data",
          "type": "bytes"
        }
      ],
      "name": "safeBatchTransferFrom",
      "outputs": [],
      "stateMutability": "nonpayable",
      "type": "function"
    },
    {
      "inputs": [
        {
          "internalType": "address",
          "name": "from",
          "type": "address"
        },
        {
          "internalType": "address",
          "name": "to",
          "type": "address"
        },
        {
          "internalType": "uint256",
          "name": "id",
          "type": "uint256"
        },
        {
          "internalType": "uint256",
          "name": "amount",
          "type": "uint256"
        },
        {
          "internalType": "bytes",
          "name": "data",
          "type": "bytes"
        }
      ],
      "name": "safeTransferFrom",
      "outputs": [],
      "stateMutability": "nonpayable",
      "type": "function"
    },
    {
      "inputs": [
        {
          "internalType": "address",
          "name": "operator",
          "type": "address"
        },
        {
          "internalType": "bool",
          "name": "approved",
          "type": "bool"
        }
      ],
      "name": "setApprovalForAll",
      "outputs": [],
      "stateMutability": "nonpayable",
      "type": "function"
    },
    {
      "inputs": [
        {
          "internalType": "address",
          "name": "hatchyTokenAddress",
          "type": "address"
        }
      ],
      "name": "setHatchyTokenAddress",
      "outputs": [],
      "stateMutability": "nonpayable",
      "type": "function"
    },
    {
      "inputs": [
        {
          "internalType": "address",
          "name": "account",
          "type": "address"
        }
      ],
      "name": "setSigner",
      "outputs": [],
      "stateMutability": "nonpayable",
      "type": "function"
    },
    {
      "inputs": [
        {
          "internalType": "string",
          "name": "newuri",
          "type": "string"
        }
      ],
      "name": "setURI",
      "outputs": [],
      "stateMutability": "nonpayable",
      "type": "function"
    },
    {
      "inputs": [
        {
          "internalType": "address",
          "name": "hatchyverseUltigenAddress",
          "type": "address"
        }
      ],
      "name": "setUltigenAddress",
      "outputs": [],
      "stateMutability": "nonpayable",
      "type": "function"
    },
    {
      "inputs": [],
      "name": "signer",
      "outputs": [
        {
          "internalType": "address",
          "name": "",
          "type": "address"
        }
      ],
      "stateMutability": "view",
      "type": "function"
    },
    {
      "inputs": [
        {
          "internalType": "bytes4",
          "name": "interfaceId",
          "type": "bytes4"
        }
      ],
      "name": "supportsInterface",
      "outputs": [
        {
          "internalType": "bool",
          "name": "",
          "type": "bool"
        }
      ],
      "stateMutability": "view",
      "type": "function"
    },
    {
      "inputs": [
        {
          "internalType": "address",
          "name": "newOwner",
          "type": "address"
        }
      ],
      "name": "transferOwnership",
      "outputs": [],
      "stateMutability": "nonpayable",
      "type": "function"
    },
    {
      "inputs": [
        {
          "internalType": "address",
          "name": "newImplementation",
          "type": "address"
        }
      ],
      "name": "upgradeTo",
      "outputs": [],
      "stateMutability": "nonpayable",
      "type": "function"
    },
    {
      "inputs": [
        {
          "internalType": "address",
          "name": "newImplementation",
          "type": "address"
        },
        {
          "internalType": "bytes",
          "name": "data",
          "type": "bytes"
        }
      ],
      "name": "upgradeToAndCall",
      "outputs": [],
      "stateMutability": "payable",
      "type": "function"
    },
    {
      "inputs": [
        {
          "internalType": "uint256",
          "name": "",
          "type": "uint256"
        }
      ],
      "name": "uri",
      "outputs": [
        {
          "internalType": "string",
          "name": "",
          "type": "string"
        }
      ],
      "stateMutability": "view",
      "type": "function"
    }
  ],
  "bytecode": "0x60a06040523060805234801561001457600080fd5b50608051613df161004c60003960008181610ec801528181610f08015281816110f80152818161113801526115580152613df16000f3fe60806040526004361061022f5760003560e01c806352d1902d1161012e578063b4748ba7116100ab578063e985e9c51161006f578063e985e9c5146106a2578063f0db947c146106eb578063f242432a1461070b578063f2fde38b1461072b578063f6797b8c1461074b57600080fd5b8063b4748ba714610623578063b6f162bf14610638578063ba294a461461064d578063baebbba714610662578063d36bfb821461068257600080fd5b806375ec45e4116100f257806375ec45e4146105695780638da5cb5b1461058a5780638e3d792a146105a85780639836315e146105e4578063a22cb4651461060357600080fd5b806352d1902d146104de5780635333ee4d146104f35780636c19e783146105135780636eea647414610533578063715018a61461055457600080fd5b8063238ac933116101bc5780633659cfe6116101805780633659cfe61461043e5780633857c92f1461045e5780634e1273f41461047e5780634f1ef286146104ab5780634f794983146104be57600080fd5b8063238ac933146103825780632bcf0981146103bb5780632e9699a7146103e95780632eb2c2d6146103fe578063323e99d41461041e57600080fd5b806309c26fb11161020357806309c26fb1146102d95780630d0e266d146102f95780630e89341c1461031957806311524e4a146103465780631d4e18c91461035b57600080fd5b8062fdd58e1461023457806301ffc9a71461026757806302fe5305146102975780630563f2cb146102b9575b600080fd5b34801561024057600080fd5b5061025461024f366004612e64565b61076a565b6040519081526020015b60405180910390f35b34801561027357600080fd5b50610287610282366004612ea4565b610802565b604051901515815260200161025e565b3480156102a357600080fd5b506102b76102b2366004612fc3565b610854565b005b3480156102c557600080fd5b506102b76102d4366004612fff565b610868565b3480156102e557600080fd5b506102b76102f436600461301a565b610893565b34801561030557600080fd5b50610254610314366004613088565b610ac0565b34801561032557600080fd5b50610339610334366004613127565b610b30565b60405161025e9190613198565b34801561035257600080fd5b50610254600281565b34801561036757600080fd5b506102546f29c30f1029939b146664242d97d9f64960361b81565b34801561038e57600080fd5b50610160546103a3906001600160a01b031681565b6040516001600160a01b03909116815260200161025e565b3480156103c757600080fd5b506102546103d6366004613127565b6101636020526000908152604090205481565b3480156103f557600080fd5b50610254600481565b34801561040a57600080fd5b506102b761041936600461323f565b610bc4565b34801561042a57600080fd5b506102b7610439366004613088565b610c09565b34801561044a57600080fd5b506102b7610459366004612fff565b610ebe565b34801561046a57600080fd5b506102b7610479366004612fff565b610f9a565b34801561048a57600080fd5b5061049e6104993660046132e8565b610fc5565b60405161025e91906133ed565b6102b76104b9366004613400565b6110ee565b3480156104ca57600080fd5b506102b76104d9366004613443565b6111be565b3480156104ea57600080fd5b5061025461154b565b3480156104ff57600080fd5b506102b761050e366004613502565b6115ff565b34801561051f57600080fd5b506102b761052e366004612fff565b61178c565b34801561053f57600080fd5b50610162546103a3906001600160a01b031681565b34801561056057600080fd5b506102b76117df565b34801561057557600080fd5b50610161546103a3906001600160a01b031681565b34801561059657600080fd5b5060c9546001600160a01b03166103a3565b3480156105b457600080fd5b506102876105c3366004612fc3565b805160208183018101805161015f8252928201919093012091525460ff1681565b3480156105f057600080fd5b50610162546001600160a01b03166103a3565b34801561060f57600080fd5b506102b761061e366004613532565b6117f3565b34801561062f57600080fd5b50610254600581565b34801561064457600080fd5b50610254600181565b34801561065957600080fd5b50610254600381565b34801561066e57600080fd5b5061025461067d366004613443565b6117fe565b34801561068e57600080fd5b506102b761069d366004613569565b611829565b3480156106ae57600080fd5b506102876106bd3660046135c9565b6001600160a01b03918216600090815260666020908152604080832093909416825291909152205460ff1690565b3480156106f757600080fd5b506102b76107063660046135fc565b611a61565b34801561071757600080fd5b506102b761072636600461362f565b611b7e565b34801561073757600080fd5b506102b7610746366004612fff565b611bc3565b34801561075757600080fd5b50610161546001600160a01b03166103a3565b60006001600160a01b0383166107da5760405162461bcd60e51b815260206004820152602a60248201527f455243313135353a2061646472657373207a65726f206973206e6f742061207660448201526930b634b21037bbb732b960b11b60648201526084015b60405180910390fd5b5060009081526065602090815260408083206001600160a01b03949094168352929052205490565b60006001600160e01b03198216636cdb3d1360e11b148061083357506001600160e01b031982166303a24d0760e21b145b8061084e57506301ffc9a760e01b6001600160e01b03198316145b92915050565b61085c611c39565b61086581611c93565b50565b610870611c39565b61016180546001600160a01b0319166001600160a01b0392909216919091179055565b600054610100900460ff16158080156108b35750600054600160ff909116105b806108cd5750303b1580156108cd575060005460ff166001145b6109305760405162461bcd60e51b815260206004820152602e60248201527f496e697469616c697a61626c653a20636f6e747261637420697320616c72656160448201526d191e481a5b9a5d1a585b1a5e995960921b60648201526084016107d1565b6000805460ff191660011790558015610953576000805461ff0019166101001790555b61095c83611c9f565b610964611ccf565b61096c611cfe565b610974611d25565b61097d82611d54565b61016180546001600160a01b038088166001600160a01b0319928316179092556101628054928716929091169190911790556101636020526127107fe2a33804cb5ccb3766c83bb48087f6b26d31fa3341acbaa22954b121be0df77055614e207f9841d2c9a55b2ca78cf249884af184e624e7dd679c89f11d1ce6a4a196be6032556175307f9dffe6fb928fd9e98de20741f4b451a539b8794ccffdcac7fee64b6ba2282ffe55619c407f7cedf39c1b02d93231a4cfbb20b1687101f704c05f41bc1c1395cb23382d8ea055600560005261c3507fa353a00e5bc390a369a3a7eb6600c08f5c46583776992b7248df5001ddb88353558015610ab9576000805461ff0019169055604051600181527f7f26b83ff96e1f2b6a682f133852f6798a09c465da95921460cefb38474024989060200160405180910390a15b5050505050565b60008160000151826020015183604001518460600151604051602001610b13949392919060609490941b6bffffffffffffffffffffffff1916845260148401929092526034830152605482015260740190565b604051602081830303815290604052805190602001209050919050565b606060678054610b3f90613693565b80601f0160208091040260200160405190810160405280929190818152602001828054610b6b90613693565b8015610bb85780601f10610b8d57610100808354040283529160200191610bb8565b820191906000526020600020905b815481529060010190602001808311610b9b57829003601f168201915b50505050509050919050565b6001600160a01b038516331480610be05750610be085336106bd565b610bfc5760405162461bcd60e51b81526004016107d1906136cd565b610ab98585858585611d7b565b610c11611f5b565b805160808201513390610c2384610ac0565b826001600160a01b0316846001600160a01b0316146040518060400160405280600e81526020016d2bb937b733903932b1b2b4bb32b960911b81525090610c7d5760405162461bcd60e51b81526004016107d19190613198565b50610c8782611fb6565b1560405180604001604052806011815260200170496e76616c6964205369676e617475726560781b81525090610cd05760405162461bcd60e51b81526004016107d19190613198565b50610cda82611fe2565b6000610cfe610ce98484612018565b610160546001600160a01b0390811691161490565b90508060405180604001604052806011815260200170496e76616c6964205369676e617475726560781b81525090610d495760405162461bcd60e51b81526004016107d19190613198565b50855160408051808201909152600e81526d2bb937b733903932b1b2b4bb32b960911b6020820152906001600160a01b03163314610d9a5760405162461bcd60e51b81526004016107d19190613198565b506000866040015111610def5760405162461bcd60e51b815260206004820152601d60248201527f416d6f756e74206d7573742062652067726561746572207468616e203000000060448201526064016107d1565b60018660200151146040518060400160405280601081526020016f496e76616c696420456767205479706560801b81525090610e3e5760405162461bcd60e51b81526004016107d19190613198565b50610e62338760200151886040015160405180602001604052806000815250612034565b8560200151336001600160a01b03167fecf6e0dfbbc2f7493d6254378d8ceee52ce7d4408dcc744f57b70ff90cc114568860400151604051610ea691815260200190565b60405180910390a35050505050610865600161012d55565b6001600160a01b037f0000000000000000000000000000000000000000000000000000000000000000163003610f065760405162461bcd60e51b81526004016107d19061371b565b7f00000000000000000000000000000000000000000000000000000000000000006001600160a01b0316610f4f600080516020613d75833981519152546001600160a01b031690565b6001600160a01b031614610f755760405162461bcd60e51b81526004016107d190613767565b610f7e81612149565b6040805160008082526020820190925261086591839190612151565b610fa2611c39565b61016280546001600160a01b0319166001600160a01b0392909216919091179055565b6060815183511461102a5760405162461bcd60e51b815260206004820152602960248201527f455243313135353a206163636f756e747320616e6420696473206c656e677468604482015268040dad2e6dac2e8c6d60bb1b60648201526084016107d1565b600083516001600160401b0381111561104557611045612ec1565b60405190808252806020026020018201604052801561106e578160200160208202803683370190505b50905060005b84518110156110e6576110b9858281518110611092576110926137b3565b60200260200101518583815181106110ac576110ac6137b3565b602002602001015161076a565b8282815181106110cb576110cb6137b3565b60209081029190910101526110df816137df565b9050611074565b509392505050565b6001600160a01b037f00000000000000000000000000000000000000000000000000000000000000001630036111365760405162461bcd60e51b81526004016107d19061371b565b7f00000000000000000000000000000000000000000000000000000000000000006001600160a01b031661117f600080516020613d75833981519152546001600160a01b031690565b6001600160a01b0316146111a55760405162461bcd60e51b81526004016107d190613767565b6111ae82612149565b6111ba82826001612151565b5050565b6111c6611f5b565b8060200151600181146040518060400160405280601081526020016f496e76616c696420456767205479706560801b815250906112165760405162461bcd60e51b81526004016107d19190613198565b50815160a08301513390611229856117fe565b826001600160a01b0316846001600160a01b0316146040518060400160405280600e81526020016d2bb937b733903932b1b2b4bb32b960911b815250906112835760405162461bcd60e51b81526004016107d19190613198565b5061128d82611fb6565b1560405180604001604052806011815260200170496e76616c6964205369676e617475726560781b815250906112d65760405162461bcd60e51b81526004016107d19190613198565b506112e082611fe2565b60006112ef610ce98484612018565b90508060405180604001604052806011815260200170496e76616c6964205369676e617475726560781b8152509061133a5760405162461bcd60e51b81526004016107d19190613198565b5086604001516113528860000151896020015161076a565b10156113a05760405162461bcd60e51b815260206004820152601a60248201527f496e73756666696369656e74206567677320746f20686174636800000000000060448201526064016107d1565b8660400151876060015151146113c85760405162461bcd60e51b81526004016107d1906137f8565b600087604001511161141c5760405162461bcd60e51b815260206004820152601d60248201527f416d6f756e74206d7573742062652067726561746572207468616e203000000060448201526064016107d1565b6114338760000151886020015189604001516122c1565b606060005b88604001518110156115385760008960600151828151811061145c5761145c6137b3565b6020908102919091010151610162548b51604051631cea37bb60e11b81529293506001600160a01b03909116916339d46f76916114a791859060019060009081908b90600401613848565b600060405180830381600087803b1580156114c157600080fd5b505af11580156114d5573d6000803e3d6000fd5b5050505089602001518a600001516001600160a01b03167ffb5524208c13c35801d6a771c1506a0a169687ef04692d793cd26722df18e7ce8360405161151d91815260200190565b60405180910390a35080611530816137df565b915050611438565b5050505050505050610865600161012d55565b6000306001600160a01b037f000000000000000000000000000000000000000000000000000000000000000016146115eb5760405162461bcd60e51b815260206004820152603860248201527f555550535570677261646561626c653a206d757374206e6f742062652063616c60448201527f6c6564207468726f7567682064656c656761746563616c6c000000000000000060648201526084016107d1565b50600080516020613d758339815191525b90565b611607611f5b565b81600181146040518060400160405280601081526020016f496e76616c696420456767205479706560801b815250906116535760405162461bcd60e51b81526004016107d19190613198565b506000611673836f29c30f1029939b146664242d97d9f64960361b6138c5565b610161546040516323b872dd60e01b8152336004820152306024820152604481018390529192506001600160a01b0316906323b872dd906064016020604051808303816000875af11580156116cc573d6000803e3d6000fd5b505050506040513d601f19601f820116820180604052508101906116f091906138e4565b61172d5760405162461bcd60e51b815260206004820152600e60248201526d14185e5b595b9d0819985a5b195960921b60448201526064016107d1565b61174833858560405180602001604052806000815250612034565b604051838152849033907fecf6e0dfbbc2f7493d6254378d8ceee52ce7d4408dcc744f57b70ff90cc114569060200160405180910390a350506111ba600161012d55565b611794611c39565b61016080546001600160a01b0319166001600160a01b0383169081179091556040517f1d4fc2100fc6a16b01f961ed088b79195c405adc33f92ae3a76e70662cb2096f90600090a250565b6117e7611c39565b6117f16000612440565b565b6111ba338383612492565b8051602080830151604080850151606086015160808701519251600096610b13969095949101613901565b60c9546001600160a01b031633148061184d5750610160546001600160a01b031633145b6118945760405162461bcd60e51b815260206004820152601860248201527710d85b1b195c881a5cc81b9bdd08185d5d1a1bdc9a5e995960421b60448201526064016107d1565b82600181146040518060400160405280601081526020016f496e76616c696420456767205479706560801b815250906118e05760405162461bcd60e51b81526004016107d19190613198565b50826118ec868661076a565b101561193a5760405162461bcd60e51b815260206004820152601a60248201527f496e73756666696369656e74206567677320746f20686174636800000000000060448201526064016107d1565b8282511461195a5760405162461bcd60e51b81526004016107d1906137f8565b6119658585856122c1565b606060005b84811015611a58576000848281518110611986576119866137b3565b602090810291909101015161016254604051631cea37bb60e11b81529192506001600160a01b0316906339d46f76906119cf908b90859060019060009081908b90600401613848565b600060405180830381600087803b1580156119e957600080fd5b505af11580156119fd573d6000803e3d6000fd5b5050505086886001600160a01b03167ffb5524208c13c35801d6a771c1506a0a169687ef04692d793cd26722df18e7ce83604051611a3d91815260200190565b60405180910390a35080611a50816137df565b91505061196a565b50505050505050565b60c9546001600160a01b0316331480611a855750610160546001600160a01b031633145b611acc5760405162461bcd60e51b815260206004820152601860248201527710d85b1b195c881a5cc81b9bdd08185d5d1a1bdc9a5e995960421b60448201526064016107d1565b81600181146040518060400160405280601081526020016f496e76616c696420456767205479706560801b81525090611b185760405162461bcd60e51b81526004016107d19190613198565b50611b3484848460405180602001604052806000815250612034565b82846001600160a01b03167fecf6e0dfbbc2f7493d6254378d8ceee52ce7d4408dcc744f57b70ff90cc1145684604051611b7091815260200190565b60405180910390a350505050565b6001600160a01b038516331480611b9a5750611b9a85336106bd565b611bb65760405162461bcd60e51b81526004016107d1906136cd565b610ab98585858585612572565b611bcb611c39565b6001600160a01b038116611c305760405162461bcd60e51b815260206004820152602660248201527f4f776e61626c653a206e6577206f776e657220697320746865207a65726f206160448201526564647265737360d01b60648201526084016107d1565b61086581612440565b60c9546001600160a01b031633146117f15760405162461bcd60e51b815260206004820181905260248201527f4f776e61626c653a2063616c6c6572206973206e6f7420746865206f776e657260448201526064016107d1565b60676111ba82826139a7565b600054610100900460ff16611cc65760405162461bcd60e51b81526004016107d190613a66565b610865816126a0565b600054610100900460ff16611cf65760405162461bcd60e51b81526004016107d190613a66565b6117f16126c7565b600054610100900460ff166117f15760405162461bcd60e51b81526004016107d190613a66565b600054610100900460ff16611d4c5760405162461bcd60e51b81526004016107d190613a66565b6117f16126f7565b600054610100900460ff166117945760405162461bcd60e51b81526004016107d190613a66565b8151835114611ddd5760405162461bcd60e51b815260206004820152602860248201527f455243313135353a2069647320616e6420616d6f756e7473206c656e677468206044820152670dad2e6dac2e8c6d60c31b60648201526084016107d1565b6001600160a01b038416611e035760405162461bcd60e51b81526004016107d190613ab1565b3360005b8451811015611eed576000858281518110611e2457611e246137b3565b602002602001015190506000858381518110611e4257611e426137b3565b60209081029190910181015160008481526065835260408082206001600160a01b038e168352909352919091205490915081811015611e935760405162461bcd60e51b81526004016107d190613af6565b60008381526065602090815260408083206001600160a01b038e8116855292528083208585039055908b16825281208054849290611ed2908490613b40565b9250508190555050505080611ee6906137df565b9050611e07565b50846001600160a01b0316866001600160a01b0316826001600160a01b03167f4a39dc06d4c0dbc64b70af90fd698a233a518aa5d07e595d983b8c0526c8f7fb8787604051611f3d929190613b58565b60405180910390a4611f5381878787878761271e565b505050505050565b600261012d5403611fae5760405162461bcd60e51b815260206004820152601f60248201527f5265656e7472616e637947756172643a207265656e7472616e742063616c6c0060448201526064016107d1565b600261012d55565b600061015f82604051611fc99190613b7d565b9081526040519081900360200190205460ff1692915050565b600161015f82604051611ff59190613b7d565b908152604051908190036020019020805491151560ff1990921691909117905550565b600061202d8361202784612879565b906128b4565b9392505050565b6001600160a01b0384166120945760405162461bcd60e51b815260206004820152602160248201527f455243313135353a206d696e7420746f20746865207a65726f206164647265736044820152607360f81b60648201526084016107d1565b3360006120a0856128d0565b905060006120ad856128d0565b905060008681526065602090815260408083206001600160a01b038b168452909152812080548792906120e1908490613b40565b909155505060408051878152602081018790526001600160a01b03808a1692600092918716917fc3d58168c5ae7397731d063d5bbf3d657854427343f4c083240f7aacaa2d0f62910160405180910390a4611a588360008989898961291b565b600161012d55565b610865611c39565b7f4910fdfa16fed3260ed0e7147f7cc6da11a60208b5b9406d12a635614ffd91435460ff161561218957612184836129d6565b505050565b826001600160a01b03166352d1902d6040518163ffffffff1660e01b8152600401602060405180830381865afa9250505080156121e3575060408051601f3d908101601f191682019092526121e091810190613b99565b60015b6122465760405162461bcd60e51b815260206004820152602e60248201527f45524331393637557067726164653a206e657720696d706c656d656e7461746960448201526d6f6e206973206e6f74205555505360901b60648201526084016107d1565b600080516020613d7583398151915281146122b55760405162461bcd60e51b815260206004820152602960248201527f45524331393637557067726164653a20756e737570706f727465642070726f786044820152681a58589b195555525160ba1b60648201526084016107d1565b50612184838383612a72565b6001600160a01b0383166123235760405162461bcd60e51b815260206004820152602360248201527f455243313135353a206275726e2066726f6d20746865207a65726f206164647260448201526265737360e81b60648201526084016107d1565b33600061232f846128d0565b9050600061233c846128d0565b6040805160208082018352600091829052888252606581528282206001600160a01b038b16835290522054909150848110156123c65760405162461bcd60e51b8152602060048201526024808201527f455243313135353a206275726e20616d6f756e7420657863656564732062616c604482015263616e636560e01b60648201526084016107d1565b60008681526065602090815260408083206001600160a01b038b81168086529184528285208a8703905582518b81529384018a90529092908816917fc3d58168c5ae7397731d063d5bbf3d657854427343f4c083240f7aacaa2d0f62910160405180910390a4604080516020810190915260009052611a58565b60c980546001600160a01b038381166001600160a01b0319831681179093556040519116919082907f8be0079c531659141344cd1fd0a4f28419497f9722a3daafe3b4186f6b6457e090600090a35050565b816001600160a01b0316836001600160a01b0316036125055760405162461bcd60e51b815260206004820152602960248201527f455243313135353a2073657474696e6720617070726f76616c20737461747573604482015268103337b91039b2b63360b91b60648201526084016107d1565b6001600160a01b03838116600081815260666020908152604080832094871680845294825291829020805460ff191686151590811790915591519182527f17307eab39ab6107e8899845ad3d59bd9653f200f220920489ca2b5937696c31910160405180910390a3505050565b6001600160a01b0384166125985760405162461bcd60e51b81526004016107d190613ab1565b3360006125a4856128d0565b905060006125b1856128d0565b905060008681526065602090815260408083206001600160a01b038c168452909152902054858110156125f65760405162461bcd60e51b81526004016107d190613af6565b60008781526065602090815260408083206001600160a01b038d8116855292528083208985039055908a16825281208054889290612635908490613b40565b909155505060408051888152602081018890526001600160a01b03808b16928c821692918816917fc3d58168c5ae7397731d063d5bbf3d657854427343f4c083240f7aacaa2d0f62910160405180910390a4612695848a8a8a8a8a61291b565b505050505050505050565b600054610100900460ff1661085c5760405162461bcd60e51b81526004016107d190613a66565b600054610100900460ff166126ee5760405162461bcd60e51b81526004016107d190613a66565b6117f133612440565b600054610100900460ff166121415760405162461bcd60e51b81526004016107d190613a66565b6001600160a01b0384163b15611f535760405163bc197c8160e01b81526001600160a01b0385169063bc197c81906127629089908990889088908890600401613bb2565b6020604051808303816000875af192505050801561279d575060408051601f3d908101601f1916820190925261279a91810190613c10565b60015b612849576127a9613c2d565b806308c379a0036127e257506127bd613c48565b806127c857506127e4565b8060405162461bcd60e51b81526004016107d19190613198565b505b60405162461bcd60e51b815260206004820152603460248201527f455243313135353a207472616e7366657220746f206e6f6e2d455243313135356044820152732932b1b2b4bb32b91034b6b83632b6b2b73a32b960611b60648201526084016107d1565b6001600160e01b0319811663bc197c8160e01b14611a585760405162461bcd60e51b81526004016107d190613cd1565b6040517f19457468657265756d205369676e6564204d6573736167653a0a3332000000006020820152603c8101829052600090605c01610b13565b60008060006128c38585612a9d565b915091506110e681612ae2565b6040805160018082528183019092526060916000919060208083019080368337019050509050828160008151811061290a5761290a6137b3565b602090810291909101015292915050565b6001600160a01b0384163b15611f535760405163f23a6e6160e01b81526001600160a01b0385169063f23a6e619061295f9089908990889088908890600401613d19565b6020604051808303816000875af192505050801561299a575060408051601f3d908101601f1916820190925261299791810190613c10565b60015b6129a6576127a9613c2d565b6001600160e01b0319811663f23a6e6160e01b14611a585760405162461bcd60e51b81526004016107d190613cd1565b6001600160a01b0381163b612a435760405162461bcd60e51b815260206004820152602d60248201527f455243313936373a206e657720696d706c656d656e746174696f6e206973206e60448201526c1bdd08184818dbdb9d1c9858dd609a1b60648201526084016107d1565b600080516020613d7583398151915280546001600160a01b0319166001600160a01b0392909216919091179055565b612a7b83612c2c565b600082511180612a885750805b1561218457612a978383612c6c565b50505050565b6000808251604103612ad35760208301516040840151606085015160001a612ac787828585612d60565b94509450505050612adb565b506000905060025b9250929050565b6000816004811115612af657612af6613d5e565b03612afe5750565b6001816004811115612b1257612b12613d5e565b03612b5f5760405162461bcd60e51b815260206004820152601860248201527f45434453413a20696e76616c6964207369676e6174757265000000000000000060448201526064016107d1565b6002816004811115612b7357612b73613d5e565b03612bc05760405162461bcd60e51b815260206004820152601f60248201527f45434453413a20696e76616c6964207369676e6174757265206c656e6774680060448201526064016107d1565b6003816004811115612bd457612bd4613d5e565b036108655760405162461bcd60e51b815260206004820152602260248201527f45434453413a20696e76616c6964207369676e6174757265202773272076616c604482015261756560f01b60648201526084016107d1565b612c35816129d6565b6040516001600160a01b038216907fbc7cd75a20ee27fd9adebab32041f755214dbc6bffa90cc0225b39da2e5c2d3b90600090a250565b60606001600160a01b0383163b612cd45760405162461bcd60e51b815260206004820152602660248201527f416464726573733a2064656c65676174652063616c6c20746f206e6f6e2d636f6044820152651b9d1c9858dd60d21b60648201526084016107d1565b600080846001600160a01b031684604051612cef9190613b7d565b600060405180830381855af49150503d8060008114612d2a576040519150601f19603f3d011682016040523d82523d6000602084013e612d2f565b606091505b5091509150612d578282604051806060016040528060278152602001613d9560279139612e24565b95945050505050565b6000807f7fffffffffffffffffffffffffffffff5d576e7357a4501ddfe92f46681b20a0831115612d975750600090506003612e1b565b6040805160008082526020820180845289905260ff881692820192909252606081018690526080810185905260019060a0016020604051602081039080840390855afa158015612deb573d6000803e3d6000fd5b5050604051601f1901519150506001600160a01b038116612e1457600060019250925050612e1b565b9150600090505b94509492505050565b60608315612e3357508161202d565b61202d83838151156127c85781518083602001fd5b80356001600160a01b0381168114612e5f57600080fd5b919050565b60008060408385031215612e7757600080fd5b612e8083612e48565b946020939093013593505050565b6001600160e01b03198116811461086557600080fd5b600060208284031215612eb657600080fd5b813561202d81612e8e565b634e487b7160e01b600052604160045260246000fd5b60a081018181106001600160401b0382111715612ef657612ef6612ec1565b60405250565b601f8201601f191681016001600160401b0381118282101715612f2157612f21612ec1565b6040525050565b60405160c081016001600160401b0381118282101715612f4a57612f4a612ec1565b60405290565b600082601f830112612f6157600080fd5b81356001600160401b03811115612f7a57612f7a612ec1565b604051612f91601f8301601f191660200182612efc565b818152846020838601011115612fa657600080fd5b816020850160208301376000918101602001919091529392505050565b600060208284031215612fd557600080fd5b81356001600160401b03811115612feb57600080fd5b612ff784828501612f50565b949350505050565b60006020828403121561301157600080fd5b61202d82612e48565b6000806000806080858703121561303057600080fd5b61303985612e48565b935061304760208601612e48565b925060408501356001600160401b0381111561306257600080fd5b61306e87828801612f50565b92505061307d60608601612e48565b905092959194509250565b60006020828403121561309a57600080fd5b81356001600160401b03808211156130b157600080fd5b9083019060a082860312156130c557600080fd5b6040516130d181612ed7565b6130da83612e48565b815260208301356020820152604083013560408201526060830135606082015260808301358281111561310c57600080fd5b61311887828601612f50565b60808301525095945050505050565b60006020828403121561313957600080fd5b5035919050565b60005b8381101561315b578181015183820152602001613143565b83811115612a975750506000910152565b60008151808452613184816020860160208601613140565b601f01601f19169290920160200192915050565b60208152600061202d602083018461316c565b60006001600160401b038211156131c4576131c4612ec1565b5060051b60200190565b600082601f8301126131df57600080fd5b813560206131ec826131ab565b6040516131f98282612efc565b83815260059390931b850182019282810191508684111561321957600080fd5b8286015b84811015613234578035835291830191830161321d565b509695505050505050565b600080600080600060a0868803121561325757600080fd5b61326086612e48565b945061326e60208701612e48565b935060408601356001600160401b038082111561328a57600080fd5b61329689838a016131ce565b945060608801359150808211156132ac57600080fd5b6132b889838a016131ce565b935060808801359150808211156132ce57600080fd5b506132db88828901612f50565b9150509295509295909350565b600080604083850312156132fb57600080fd5b82356001600160401b038082111561331257600080fd5b818501915085601f83011261332657600080fd5b81356020613333826131ab565b6040516133408282612efc565b83815260059390931b850182019282810191508984111561336057600080fd5b948201945b838610156133855761337686612e48565b82529482019490820190613365565b9650508601359250508082111561339b57600080fd5b506133a8858286016131ce565b9150509250929050565b600081518084526020808501945080840160005b838110156133e2578151875295820195908201906001016133c6565b509495945050505050565b60208152600061202d60208301846133b2565b6000806040838503121561341357600080fd5b61341c83612e48565b915060208301356001600160401b0381111561343757600080fd5b6133a885828601612f50565b60006020828403121561345557600080fd5b81356001600160401b038082111561346c57600080fd5b9083019060c0828603121561348057600080fd5b613488612f28565b61349183612e48565b815260208301356020820152604083013560408201526060830135828111156134b957600080fd5b6134c5878286016131ce565b6060830152506080830135608082015260a0830135828111156134e757600080fd5b6134f387828601612f50565b60a08301525095945050505050565b6000806040838503121561351557600080fd5b50508035926020909101359150565b801515811461086557600080fd5b6000806040838503121561354557600080fd5b61354e83612e48565b9150602083013561355e81613524565b809150509250929050565b6000806000806080858703121561357f57600080fd5b61358885612e48565b9350602085013592506040850135915060608501356001600160401b038111156135b157600080fd5b6135bd878288016131ce565b91505092959194509250565b600080604083850312156135dc57600080fd5b6135e583612e48565b91506135f360208401612e48565b90509250929050565b60008060006060848603121561361157600080fd5b61361a84612e48565b95602085013595506040909401359392505050565b600080600080600060a0868803121561364757600080fd5b61365086612e48565b945061365e60208701612e48565b9350604086013592506060860135915060808601356001600160401b0381111561368757600080fd5b6132db88828901612f50565b600181811c908216806136a757607f821691505b6020821081036136c757634e487b7160e01b600052602260045260246000fd5b50919050565b6020808252602e908201527f455243313135353a2063616c6c6572206973206e6f7420746f6b656e206f776e60408201526d195c881bdc88185c1c1c9bdd995960921b606082015260800190565b6020808252602c908201527f46756e6374696f6e206d7573742062652063616c6c6564207468726f7567682060408201526b19195b1959d85d1958d85b1b60a21b606082015260800190565b6020808252602c908201527f46756e6374696f6e206d7573742062652063616c6c6564207468726f7567682060408201526b6163746976652070726f787960a01b606082015260800190565b634e487b7160e01b600052603260045260246000fd5b634e487b7160e01b600052601160045260246000fd5b6000600182016137f1576137f16137c9565b5060010190565b60208082526030908201527f4d6f6e7374657220494473206c656e677468206d757374206d6174636820746860408201526f6520616d6f756e74206f66206567677360801b606082015260800190565b600060c0820160018060a01b0389168352602088818501526040888186015287606086015286608086015260c060a086015282865180855260e087019150838801945060005b818110156138b35785518051845285015185840152948401949183019160010161388e565b50909c9b505050505050505050505050565b60008160001904831182151516156138df576138df6137c9565b500290565b6000602082840312156138f657600080fd5b815161202d81613524565b6bffffffffffffffffffffffff198660601b1681528460148201528360348201526000605482018451602080870160005b8381101561394e57815185529382019390820190600101613932565b5050948252509092019695505050505050565b601f82111561218457600081815260208120601f850160051c810160208610156139885750805b601f850160051c820191505b81811015611f5357828155600101613994565b81516001600160401b038111156139c0576139c0612ec1565b6139d4816139ce8454613693565b84613961565b602080601f831160018114613a0957600084156139f15750858301515b600019600386901b1c1916600185901b178555611f53565b600085815260208120601f198616915b82811015613a3857888601518255948401946001909101908401613a19565b5085821015613a565787850151600019600388901b60f8161c191681555b5050505050600190811b01905550565b6020808252602b908201527f496e697469616c697a61626c653a20636f6e7472616374206973206e6f74206960408201526a6e697469616c697a696e6760a81b606082015260800190565b60208082526025908201527f455243313135353a207472616e7366657220746f20746865207a65726f206164604082015264647265737360d81b606082015260800190565b6020808252602a908201527f455243313135353a20696e73756666696369656e742062616c616e636520666f60408201526939103a3930b739b332b960b11b606082015260800190565b60008219821115613b5357613b536137c9565b500190565b604081526000613b6b60408301856133b2565b8281036020840152612d5781856133b2565b60008251613b8f818460208701613140565b9190910192915050565b600060208284031215613bab57600080fd5b5051919050565b6001600160a01b0386811682528516602082015260a060408201819052600090613bde908301866133b2565b8281036060840152613bf081866133b2565b90508281036080840152613c04818561316c565b98975050505050505050565b600060208284031215613c2257600080fd5b815161202d81612e8e565b600060033d11156115fc5760046000803e5060005160e01c90565b600060443d1015613c565790565b6040516003193d81016004833e81513d6001600160401b038160248401118184111715613c8557505050505090565b8285019150815181811115613c9d5750505050505090565b843d8701016020828501011115613cb75750505050505090565b613cc660208286010187612efc565b509095945050505050565b60208082526028908201527f455243313135353a204552433131353552656365697665722072656a656374656040820152676420746f6b656e7360c01b606082015260800190565b6001600160a01b03868116825285166020820152604081018490526060810183905260a060808201819052600090613d539083018461316c565b979650505050505050565b634e487b7160e01b600052602160045260246000fdfe360894a13ba1a3210667c828492db98dca3e2076cc3735a920a3ca505d382bbc416464726573733a206c6f772d6c6576656c2064656c65676174652063616c6c206661696c6564a2646970667358221220e8e2cd0e3b8900e86d5ad6f3c0e33fcdd6085e822fd655ddcf1753957800a1b564736f6c634300080f0033",
  "linkReferences": {},
  "deployedLinkReferences": {}
}