{
  "_format": "hh-sol-artifact-1",
  "contractName": "UltigenEggs",
  "sourceName": "contracts/ultigen/UltigenEggs.sol",
  "abi": [
    {
      "anonymous": false,
      "inputs": [
        {
          "indexed": false,
          "internalType": "address",
          "name": "previousAdmin",
          "type": "address"
        },
        {
          "indexed": false,
          "internalType": "address",
          "name": "newAdmin",
          "type": "address"
        }
      ],
      "name": "AdminChanged",
      "type": "event"
    },
    {
      "anonymous": false,
      "inputs": [
        {
          "indexed": true,
          "internalType": "address",
          "name": "account",
          "type": "address"
        },
        {
          "indexed": true,
          "internalType": "address",
          "name": "operator",
          "type": "address"
        },
        {
          "indexed": false,
          "internalType": "bool",
          "name": "approved",
          "type": "bool"
        }
      ],
      "name": "ApprovalForAll",
      "type": "event"
    },
    {
      "anonymous": false,
      "inputs": [
        {
          "indexed": true,
          "internalType": "address",
          "name": "beacon",
          "type": "address"
        }
      ],
      "name": "BeaconUpgraded",
      "type": "event"
    },
    {
      "anonymous": false,
      "inputs": [
        {
          "indexed": true,
          "internalType": "address",
          "name": "buyer",
          "type": "address"
        },
        {
          "indexed": true,
          "internalType": "uint256",
          "name": "eggType",
          "type": "uint256"
        },
        {
          "indexed": false,
          "internalType": "uint256",
          "name": "amount",
          "type": "uint256"
        }
      ],
      "name": "EggBought",
      "type": "event"
    },
    {
      "anonymous": false,
      "inputs": [
        {
          "indexed": true,
          "internalType": "address",
          "name": "hatcher",
          "type": "address"
        },
        {
          "indexed": true,
          "internalType": "uint256",
          "name": "eggType",
          "type": "uint256"
        },
        {
          "indexed": false,
          "internalType": "uint256",
          "name": "monsterId",
          "type": "uint256"
        }
      ],
      "name": "EggHatched",
      "type": "event"
    },
    {
      "anonymous": false,
      "inputs": [
        {
          "indexed": false,
          "internalType": "uint8",
          "name": "version",
          "type": "uint8"
        }
      ],
      "name": "Initialized",
      "type": "event"
    },
    {
      "anonymous": false,
      "inputs": [
        {
          "indexed": true,
          "internalType": "address",
          "name": "previousOwner",
          "type": "address"
        },
        {
          "indexed": true,
          "internalType": "address",
          "name": "newOwner",
          "type": "address"
        }
      ],
      "name": "OwnershipTransferred",
      "type": "event"
    },
    {
      "anonymous": false,
      "inputs": [
        {
          "indexed": true,
          "internalType": "address",
          "name": "operator",
          "type": "address"
        },
        {
          "indexed": true,
          "internalType": "address",
          "name": "from",
          "type": "address"
        },
        {
          "indexed": true,
          "internalType": "address",
          "name": "to",
          "type": "address"
        },
        {
          "indexed": false,
          "internalType": "uint256[]",
          "name": "ids",
          "type": "uint256[]"
        },
        {
          "indexed": false,
          "internalType": "uint256[]",
          "name": "values",
          "type": "uint256[]"
        }
      ],
      "name": "TransferBatch",
      "type": "event"
    },
    {
      "anonymous": false,
      "inputs": [
        {
          "indexed": true,
          "internalType": "address",
          "name": "operator",
          "type": "address"
        },
        {
          "indexed": true,
          "internalType": "address",
          "name": "from",
          "type": "address"
        },
        {
          "indexed": true,
          "internalType": "address",
          "name": "to",
          "type": "address"
        },
        {
          "indexed": false,
          "internalType": "uint256",
          "name": "id",
          "type": "uint256"
        },
        {
          "indexed": false,
          "internalType": "uint256",
          "name": "value",
          "type": "uint256"
        }
      ],
      "name": "TransferSingle",
      "type": "event"
    },
    {
      "anonymous": false,
      "inputs": [
        {
          "indexed": false,
          "internalType": "string",
          "name": "value",
          "type": "string"
        },
        {
          "indexed": true,
          "internalType": "uint256",
          "name": "id",
          "type": "uint256"
        }
      ],
      "name": "URI",
      "type": "event"
    },
    {
      "anonymous": false,
      "inputs": [
        {
          "indexed": true,
          "internalType": "address",
          "name": "implementation",
          "type": "address"
        }
      ],
      "name": "Upgraded",
      "type": "event"
    },
    {
      "inputs": [],
      "name": "DARK_EGG",
      "outputs": [
        {
          "internalType": "uint256",
          "name": "",
          "type": "uint256"
        }
      ],
      "stateMutability": "view",
      "type": "function"
    },
    {
      "inputs": [],
      "name": "EGG_PRICE",
      "outputs": [
        {
          "internalType": "uint256",
          "name": "",
          "type": "uint256"
        }
      ],
      "stateMutability": "view",
      "type": "function"
    },
    {
      "inputs": [],
      "name": "FIRE_EGG",
      "outputs": [
        {
          "internalType": "uint256",
          "name": "",
          "type": "uint256"
        }
      ],
      "stateMutability": "view",
      "type": "function"
    },
    {
      "inputs": [],
      "name": "LIGHT_EGG",
      "outputs": [
        {
          "internalType": "uint256",
          "name": "",
          "type": "uint256"
        }
      ],
      "stateMutability": "view",
      "type": "function"
    },
    {
      "inputs": [],
      "name": "PLANT_EGG",
      "outputs": [
        {
          "internalType": "uint256",
          "name": "",
          "type": "uint256"
        }
      ],
      "stateMutability": "view",
      "type": "function"
    },
    {
      "inputs": [],
      "name": "WATER_EGG",
      "outputs": [
        {
          "internalType": "uint256",
          "name": "",
          "type": "uint256"
        }
      ],
      "stateMutability": "view",
      "type": "function"
    },
    {
      "inputs": [
        {
          "internalType": "address",
          "name": "account",
          "type": "address"
        },
        {
          "internalType": "uint256",
          "name": "id",
          "type": "uint256"
        }
      ],
      "name": "balanceOf",
      "outputs": [
        {
          "internalType": "uint256",
          "name": "",
          "type": "uint256"
        }
      ],
      "stateMutability": "view",
      "type": "function"
    },
    {
      "inputs": [
        {
          "internalType": "address[]",
          "name": "accounts",
          "type": "address[]"
        },
        {
          "internalType": "uint256[]",
          "name": "ids",
          "type": "uint256[]"
        }
      ],
      "name": "balanceOfBatch",
      "outputs": [
        {
          "internalType": "uint256[]",
          "name": "",
          "type": "uint256[]"
        }
      ],
      "stateMutability": "view",
      "type": "function"
    },
    {
      "inputs": [
        {
          "internalType": "uint256",
          "name": "eggType",
          "type": "uint256"
        },
        {
          "internalType": "uint256",
          "name": "amount",
          "type": "uint256"
        }
      ],
      "name": "buyEgg",
      "outputs": [],
      "stateMutability": "nonpayable",
      "type": "function"
    },
    {
      "inputs": [
        {
          "internalType": "uint256",
          "name": "",
          "type": "uint256"
        }
      ],
      "name": "eggToMonsterId",
      "outputs": [
        {
          "internalType": "uint256",
          "name": "",
          "type": "uint256"
        }
      ],
      "stateMutability": "view",
      "type": "function"
    },
    {
      "inputs": [],
      "name": "getHatchyTokenAddress",
      "outputs": [
        {
          "internalType": "address",
          "name": "",
          "type": "address"
        }
      ],
      "stateMutability": "view",
      "type": "function"
    },
    {
      "inputs": [],
      "name": "getUltigenAddress",
      "outputs": [
        {
          "internalType": "address",
          "name": "",
          "type": "address"
        }
      ],
      "stateMutability": "view",
      "type": "function"
    },
    {
      "inputs": [
        {
          "internalType": "address",
          "name": "to",
          "type": "address"
        },
        {
          "internalType": "uint256",
          "name": "eggType",
          "type": "uint256"
        },
        {
          "internalType": "uint256",
          "name": "amount",
          "type": "uint256"
        },
        {
          "internalType": "uint256[]",
          "name": "monsterIds",
          "type": "uint256[]"
        }
      ],
      "name": "hatchEggsToAddress",
      "outputs": [],
      "stateMutability": "nonpayable",
      "type": "function"
    },
    {
      "inputs": [],
      "name": "hatchyToken",
      "outputs": [
        {
          "internalType": "contract IERC20",
          "name": "",
          "type": "address"
        }
      ],
      "stateMutability": "view",
      "type": "function"
    },
    {
      "inputs": [],
      "name": "hatchyverseUltigen",
      "outputs": [
        {
          "internalType": "contract HatchyverseUltigen",
          "name": "",
          "type": "address"
        }
      ],
      "stateMutability": "view",
      "type": "function"
    },
    {
      "inputs": [
        {
          "internalType": "address",
          "name": "hatchyTokenAddress",
          "type": "address"
        },
        {
          "internalType": "address",
          "name": "hatchyverseUltigenAddress",
          "type": "address"
        },
        {
          "internalType": "string",
          "name": "_uri",
          "type": "string"
        },
        {
          "internalType": "address",
          "name": "_signer",
          "type": "address"
        }
      ],
      "name": "initialize",
      "outputs": [],
      "stateMutability": "nonpayable",
      "type": "function"
    },
    {
      "inputs": [
        {
          "internalType": "address",
          "name": "account",
          "type": "address"
        },
        {
          "internalType": "address",
          "name": "operator",
          "type": "address"
        }
      ],
      "name": "isApprovedForAll",
      "outputs": [
        {
          "internalType": "bool",
          "name": "",
          "type": "bool"
        }
      ],
      "stateMutability": "view",
      "type": "function"
    },
    {
      "inputs": [
        {
          "internalType": "address",
          "name": "to",
          "type": "address"
        },
        {
          "internalType": "uint256",
          "name": "eggType",
          "type": "uint256"
        },
        {
          "internalType": "uint256",
          "name": "amount",
          "type": "uint256"
        }
      ],
      "name": "mintEggToAddress",
      "outputs": [],
      "stateMutability": "nonpayable",
      "type": "function"
    },
    {
      "inputs": [],
      "name": "owner",
      "outputs": [
        {
          "internalType": "address",
          "name": "",
          "type": "address"
        }
      ],
      "stateMutability": "view",
      "type": "function"
    },
    {
      "inputs": [],
      "name": "proxiableUUID",
      "outputs": [
        {
          "internalType": "bytes32",
          "name": "",
          "type": "bytes32"
        }
      ],
      "stateMutability": "view",
      "type": "function"
    },
    {
      "inputs": [],
      "name": "renounceOwnership",
      "outputs": [],
      "stateMutability": "nonpayable",
      "type": "function"
    },
    {
      "inputs": [
        {
          "internalType": "address",
          "name": "from",
          "type": "address"
        },
        {
          "internalType": "address",
          "name": "to",
          "type": "address"
        },
        {
          "internalType": "uint256[]",
          "name": "ids",
          "type": "uint256[]"
        },
        {
          "internalType": "uint256[]",
          "name": "amounts",
          "type": "uint256[]"
        },
        {
          "internalType": "bytes",
          "name": "data",
          "type": "bytes"
        }
      ],
      "name": "safeBatchTransferFrom",
      "outputs": [],
      "stateMutability": "nonpayable",
      "type": "function"
    },
    {
      "inputs": [
        {
          "internalType": "address",
          "name": "from",
          "type": "address"
        },
        {
          "internalType": "address",
          "name": "to",
          "type": "address"
        },
        {
          "internalType": "uint256",
          "name": "id",
          "type": "uint256"
        },
        {
          "internalType": "uint256",
          "name": "amount",
          "type": "uint256"
        },
        {
          "internalType": "bytes",
          "name": "data",
          "type": "bytes"
        }
      ],
      "name": "safeTransferFrom",
      "outputs": [],
      "stateMutability": "nonpayable",
      "type": "function"
    },
    {
      "inputs": [
        {
          "internalType": "address",
          "name": "operator",
          "type": "address"
        },
        {
          "internalType": "bool",
          "name": "approved",
          "type": "bool"
        }
      ],
      "name": "setApprovalForAll",
      "outputs": [],
      "stateMutability": "nonpayable",
      "type": "function"
    },
    {
      "inputs": [
        {
          "internalType": "address",
          "name": "hatchyTokenAddress",
          "type": "address"
        }
      ],
      "name": "setHatchyTokenAddress",
      "outputs": [],
      "stateMutability": "nonpayable",
      "type": "function"
    },
    {
      "inputs": [
        {
          "internalType": "address",
          "name": "_signer",
          "type": "address"
        }
      ],
      "name": "setSignerAddress",
      "outputs": [],
      "stateMutability": "nonpayable",
      "type": "function"
    },
    {
      "inputs": [
        {
          "internalType": "string",
          "name": "newuri",
          "type": "string"
        }
      ],
      "name": "setURI",
      "outputs": [],
      "stateMutability": "nonpayable",
      "type": "function"
    },
    {
      "inputs": [
        {
          "internalType": "address",
          "name": "hatchyverseUltigenAddress",
          "type": "address"
        }
      ],
      "name": "setUltigenAddress",
      "outputs": [],
      "stateMutability": "nonpayable",
      "type": "function"
    },
    {
      "inputs": [],
      "name": "signer",
      "outputs": [
        {
          "internalType": "address",
          "name": "",
          "type": "address"
        }
      ],
      "stateMutability": "view",
      "type": "function"
    },
    {
      "inputs": [
        {
          "internalType": "bytes4",
          "name": "interfaceId",
          "type": "bytes4"
        }
      ],
      "name": "supportsInterface",
      "outputs": [
        {
          "internalType": "bool",
          "name": "",
          "type": "bool"
        }
      ],
      "stateMutability": "view",
      "type": "function"
    },
    {
      "inputs": [
        {
          "internalType": "address",
          "name": "newOwner",
          "type": "address"
        }
      ],
      "name": "transferOwnership",
      "outputs": [],
      "stateMutability": "nonpayable",
      "type": "function"
    },
    {
      "inputs": [
        {
          "internalType": "address",
          "name": "newImplementation",
          "type": "address"
        }
      ],
      "name": "upgradeTo",
      "outputs": [],
      "stateMutability": "nonpayable",
      "type": "function"
    },
    {
      "inputs": [
        {
          "internalType": "address",
          "name": "newImplementation",
          "type": "address"
        },
        {
          "internalType": "bytes",
          "name": "data",
          "type": "bytes"
        }
      ],
      "name": "upgradeToAndCall",
      "outputs": [],
      "stateMutability": "payable",
      "type": "function"
    },
    {
      "inputs": [
        {
          "internalType": "uint256",
          "name": "",
          "type": "uint256"
        }
      ],
      "name": "uri",
      "outputs": [
        {
          "internalType": "string",
          "name": "",
          "type": "string"
        }
      ],
      "stateMutability": "view",
      "type": "function"
    }
  ],
  "bytecode": "0x60a06040523060805234801561001457600080fd5b5060805161303961004c60003960008181610ae001528181610b2001528181610d1001528181610d500152610de301526130396000f3fe6080604052600436106101f85760003560e01c806352d1902d1161010d578063b4748ba7116100a0578063e985e9c51161006f578063e985e9c5146105af578063f0db947c146105f8578063f242432a14610618578063f2fde38b14610638578063f6797b8c1461065857600080fd5b8063b4748ba714610550578063b6f162bf14610565578063ba294a461461057a578063d36bfb821461058f57600080fd5b806375ec45e4116100dc57806375ec45e4146104d25780638da5cb5b146104f35780639836315e14610511578063a22cb4651461053057600080fd5b806352d1902d146104675780635333ee4d1461047c5780636eea64741461049c578063715018a6146104bd57600080fd5b80631d4e18c9116101905780632eb2c2d61161015f5780632eb2c2d6146103c75780633659cfe6146103e75780633857c92f146104075780634e1273f4146104275780634f1ef2861461045457600080fd5b80631d4e18c914610324578063238ac9331461034b5780632bcf0981146103845780632e9699a7146103b257600080fd5b80630563f2cb116101cc5780630563f2cb146102a257806309c26fb1146102c25780630e89341c146102e257806311524e4a1461030f57600080fd5b8062fdd58e146101fd57806301ffc9a71461023057806302fe530514610260578063046dc16614610282575b600080fd5b34801561020957600080fd5b5061021d6102183660046122f3565b610677565b6040519081526020015b60405180910390f35b34801561023c57600080fd5b5061025061024b366004612333565b61070f565b6040519015158152602001610227565b34801561026c57600080fd5b5061028061027b366004612405565b610761565b005b34801561028e57600080fd5b5061028061029d366004612441565b610775565b3480156102ae57600080fd5b506102806102bd366004612441565b6107a0565b3480156102ce57600080fd5b506102806102dd36600461245c565b6107cb565b3480156102ee57600080fd5b506103026102fd3660046124ca565b6109fd565b604051610227919061253b565b34801561031b57600080fd5b5061021d600281565b34801561033057600080fd5b5061021d6f29c30f1029939b146664242d97d9f64960361b81565b34801561035757600080fd5b5061015f5461036c906001600160a01b031681565b6040516001600160a01b039091168152602001610227565b34801561039057600080fd5b5061021d61039f3660046124ca565b6101626020526000908152604090205481565b3480156103be57600080fd5b5061021d600481565b3480156103d357600080fd5b506102806103e23660046125e2565b610a91565b3480156103f357600080fd5b50610280610402366004612441565b610ad6565b34801561041357600080fd5b50610280610422366004612441565b610bb2565b34801561043357600080fd5b5061044761044236600461268b565b610bdd565b6040516102279190612790565b6102806104623660046127a3565b610d06565b34801561047357600080fd5b5061021d610dd6565b34801561048857600080fd5b506102806104973660046127e6565b610e8a565b3480156104a857600080fd5b506101615461036c906001600160a01b031681565b3480156104c957600080fd5b50610280610feb565b3480156104de57600080fd5b506101605461036c906001600160a01b031681565b3480156104ff57600080fd5b506097546001600160a01b031661036c565b34801561051d57600080fd5b50610161546001600160a01b031661036c565b34801561053c57600080fd5b5061028061054b366004612816565b610fff565b34801561055c57600080fd5b5061021d600581565b34801561057157600080fd5b5061021d600181565b34801561058657600080fd5b5061021d600381565b34801561059b57600080fd5b506102806105aa36600461284d565b61100a565b3480156105bb57600080fd5b506102506105ca3660046128ad565b6001600160a01b03918216600090815260666020908152604080832093909416825291909152205460ff1690565b34801561060457600080fd5b506102806106133660046128e0565b61125f565b34801561062457600080fd5b50610280610633366004612913565b611350565b34801561064457600080fd5b50610280610653366004612441565b611395565b34801561066457600080fd5b50610160546001600160a01b031661036c565b60006001600160a01b0383166106e75760405162461bcd60e51b815260206004820152602a60248201527f455243313135353a2061646472657373207a65726f206973206e6f742061207660448201526930b634b21037bbb732b960b11b60648201526084015b60405180910390fd5b5060009081526065602090815260408083206001600160a01b03949094168352929052205490565b60006001600160e01b03198216636cdb3d1360e11b148061074057506001600160e01b031982166303a24d0760e21b145b8061075b57506301ffc9a760e01b6001600160e01b03198316145b92915050565b61076961140b565b61077281611465565b50565b61077d61140b565b61015f80546001600160a01b0319166001600160a01b0392909216919091179055565b6107a861140b565b61016080546001600160a01b0319166001600160a01b0392909216919091179055565b600054610100900460ff16158080156107eb5750600054600160ff909116105b806108055750303b158015610805575060005460ff166001145b6108685760405162461bcd60e51b815260206004820152602e60248201527f496e697469616c697a61626c653a20636f6e747261637420697320616c72656160448201526d191e481a5b9a5d1a585b1a5e995960921b60648201526084016106de565b6000805460ff19166001179055801561088b576000805461ff0019166101001790555b61089483611471565b61089c6114a1565b6108a46114d0565b6108ac6114f7565b61015f80546001600160a01b038085166001600160a01b03199283161790925561016080548884169083161790556101618054928716929091169190911790556101626020526127107ff61987c9aed0045e23fa9dc39431e65f2e539c06326104393336bb7ee5513b4a55614e207f155836409e5d26526e47d89ac74876a79a7cbb23afb27a87ba13a73d51ace4be556175307fccbcdfd311f6d935565091d3de7fdc814ce5d5bb2338a9cd55bc8269bcf8e88f55619c407f462ca95cbe2f940b489690b1e049233bd61b15242328e4f9d6024e5031ead0b855600560005261c3507f1ebecf720c21f0247efa309db4cd88dde42fd85cadc67e77c5623945d51da7435580156109f6576000805461ff0019169055604051600181527f7f26b83ff96e1f2b6a682f133852f6798a09c465da95921460cefb38474024989060200160405180910390a15b5050505050565b606060678054610a0c90612977565b80601f0160208091040260200160405190810160405280929190818152602001828054610a3890612977565b8015610a855780601f10610a5a57610100808354040283529160200191610a85565b820191906000526020600020905b815481529060010190602001808311610a6857829003601f168201915b50505050509050919050565b6001600160a01b038516331480610aad5750610aad85336105ca565b610ac95760405162461bcd60e51b81526004016106de906129b1565b6109f68585858585611526565b6001600160a01b037f0000000000000000000000000000000000000000000000000000000000000000163003610b1e5760405162461bcd60e51b81526004016106de906129ff565b7f00000000000000000000000000000000000000000000000000000000000000006001600160a01b0316610b67600080516020612fbd833981519152546001600160a01b031690565b6001600160a01b031614610b8d5760405162461bcd60e51b81526004016106de90612a4b565b610b9681611706565b604080516000808252602082019092526107729183919061170e565b610bba61140b565b61016180546001600160a01b0319166001600160a01b0392909216919091179055565b60608151835114610c425760405162461bcd60e51b815260206004820152602960248201527f455243313135353a206163636f756e747320616e6420696473206c656e677468604482015268040dad2e6dac2e8c6d60bb1b60648201526084016106de565b600083516001600160401b03811115610c5d57610c5d612350565b604051908082528060200260200182016040528015610c86578160200160208202803683370190505b50905060005b8451811015610cfe57610cd1858281518110610caa57610caa612a97565b6020026020010151858381518110610cc457610cc4612a97565b6020026020010151610677565b828281518110610ce357610ce3612a97565b6020908102919091010152610cf781612ac3565b9050610c8c565b509392505050565b6001600160a01b037f0000000000000000000000000000000000000000000000000000000000000000163003610d4e5760405162461bcd60e51b81526004016106de906129ff565b7f00000000000000000000000000000000000000000000000000000000000000006001600160a01b0316610d97600080516020612fbd833981519152546001600160a01b031690565b6001600160a01b031614610dbd5760405162461bcd60e51b81526004016106de90612a4b565b610dc682611706565b610dd28282600161170e565b5050565b6000306001600160a01b037f00000000000000000000000000000000000000000000000000000000000000001614610e765760405162461bcd60e51b815260206004820152603860248201527f555550535570677261646561626c653a206d757374206e6f742062652063616c60448201527f6c6564207468726f7567682064656c656761746563616c6c000000000000000060648201526084016106de565b50600080516020612fbd8339815191525b90565b610e9261187e565b8160018114610eb35760405162461bcd60e51b81526004016106de90612adc565b6000610ed2836f29c30f1029939b146664242d97d9f64960361b612b06565b610160546040516323b872dd60e01b8152336004820152306024820152604481018390529192506001600160a01b0316906323b872dd906064016020604051808303816000875af1158015610f2b573d6000803e3d6000fd5b505050506040513d601f19601f82011682018060405250810190610f4f9190612b25565b610f8c5760405162461bcd60e51b815260206004820152600e60248201526d14185e5b595b9d0819985a5b195960921b60448201526064016106de565b610fa7338585604051806020016040528060008152506118d9565b604051838152849033907fecf6e0dfbbc2f7493d6254378d8ceee52ce7d4408dcc744f57b70ff90cc114569060200160405180910390a35050610dd2600161012d55565b610ff361140b565b610ffd60006119ee565b565b610dd2338383611a40565b6097546001600160a01b031633148061102e575061015f546001600160a01b031633145b6110755760405162461bcd60e51b815260206004820152601860248201527710d85b1b195c881a5cc81b9bdd08185d5d1a1bdc9a5e995960421b60448201526064016106de565b82600181146110965760405162461bcd60e51b81526004016106de90612adc565b826110a18686610677565b10156110ef5760405162461bcd60e51b815260206004820152601a60248201527f496e73756666696369656e74206567677320746f20686174636800000000000060448201526064016106de565b828251146111585760405162461bcd60e51b815260206004820152603060248201527f4d6f6e7374657220494473206c656e677468206d757374206d6174636820746860448201526f6520616d6f756e74206f66206567677360801b60648201526084016106de565b611163858585611b20565b606060005b8481101561125657600084828151811061118457611184612a97565b602090810291909101015161016154604051631cea37bb60e11b81529192506001600160a01b0316906339d46f76906111cd908b90859060019060009081908b90600401612b42565b600060405180830381600087803b1580156111e757600080fd5b505af11580156111fb573d6000803e3d6000fd5b5050505086886001600160a01b03167ffb5524208c13c35801d6a771c1506a0a169687ef04692d793cd26722df18e7ce8360405161123b91815260200190565b60405180910390a3508061124e81612ac3565b915050611168565b50505050505050565b6097546001600160a01b0316331480611283575061015f546001600160a01b031633145b6112ca5760405162461bcd60e51b815260206004820152601860248201527710d85b1b195c881a5cc81b9bdd08185d5d1a1bdc9a5e995960421b60448201526064016106de565b81600181146112eb5760405162461bcd60e51b81526004016106de90612adc565b611306848484604051806020016040528060008152506118d9565b82846001600160a01b03167fecf6e0dfbbc2f7493d6254378d8ceee52ce7d4408dcc744f57b70ff90cc114568460405161134291815260200190565b60405180910390a350505050565b6001600160a01b03851633148061136c575061136c85336105ca565b6113885760405162461bcd60e51b81526004016106de906129b1565b6109f68585858585611c9f565b61139d61140b565b6001600160a01b0381166114025760405162461bcd60e51b815260206004820152602660248201527f4f776e61626c653a206e6577206f776e657220697320746865207a65726f206160448201526564647265737360d01b60648201526084016106de565b610772816119ee565b6097546001600160a01b03163314610ffd5760405162461bcd60e51b815260206004820181905260248201527f4f776e61626c653a2063616c6c6572206973206e6f7420746865206f776e657260448201526064016106de565b6067610dd28282612c05565b600054610100900460ff166114985760405162461bcd60e51b81526004016106de90612cc4565b61077281611dcd565b600054610100900460ff166114c85760405162461bcd60e51b81526004016106de90612cc4565b610ffd611df4565b600054610100900460ff16610ffd5760405162461bcd60e51b81526004016106de90612cc4565b600054610100900460ff1661151e5760405162461bcd60e51b81526004016106de90612cc4565b610ffd611e24565b81518351146115885760405162461bcd60e51b815260206004820152602860248201527f455243313135353a2069647320616e6420616d6f756e7473206c656e677468206044820152670dad2e6dac2e8c6d60c31b60648201526084016106de565b6001600160a01b0384166115ae5760405162461bcd60e51b81526004016106de90612d0f565b3360005b84518110156116985760008582815181106115cf576115cf612a97565b6020026020010151905060008583815181106115ed576115ed612a97565b60209081029190910181015160008481526065835260408082206001600160a01b038e16835290935291909120549091508181101561163e5760405162461bcd60e51b81526004016106de90612d54565b60008381526065602090815260408083206001600160a01b038e8116855292528083208585039055908b1682528120805484929061167d908490612d9e565b925050819055505050508061169190612ac3565b90506115b2565b50846001600160a01b0316866001600160a01b0316826001600160a01b03167f4a39dc06d4c0dbc64b70af90fd698a233a518aa5d07e595d983b8c0526c8f7fb87876040516116e8929190612db6565b60405180910390a46116fe818787878787611e4b565b505050505050565b61077261140b565b7f4910fdfa16fed3260ed0e7147f7cc6da11a60208b5b9406d12a635614ffd91435460ff16156117465761174183611fa6565b505050565b826001600160a01b03166352d1902d6040518163ffffffff1660e01b8152600401602060405180830381865afa9250505080156117a0575060408051601f3d908101601f1916820190925261179d91810190612ddb565b60015b6118035760405162461bcd60e51b815260206004820152602e60248201527f45524331393637557067726164653a206e657720696d706c656d656e7461746960448201526d6f6e206973206e6f74205555505360901b60648201526084016106de565b600080516020612fbd83398151915281146118725760405162461bcd60e51b815260206004820152602960248201527f45524331393637557067726164653a20756e737570706f727465642070726f786044820152681a58589b195555525160ba1b60648201526084016106de565b50611741838383612042565b600261012d54036118d15760405162461bcd60e51b815260206004820152601f60248201527f5265656e7472616e637947756172643a207265656e7472616e742063616c6c0060448201526064016106de565b600261012d55565b6001600160a01b0384166119395760405162461bcd60e51b815260206004820152602160248201527f455243313135353a206d696e7420746f20746865207a65726f206164647265736044820152607360f81b60648201526084016106de565b3360006119458561206d565b905060006119528561206d565b905060008681526065602090815260408083206001600160a01b038b16845290915281208054879290611986908490612d9e565b909155505060408051878152602081018790526001600160a01b03808a1692600092918716917fc3d58168c5ae7397731d063d5bbf3d657854427343f4c083240f7aacaa2d0f62910160405180910390a4611256836000898989896120b8565b600161012d55565b609780546001600160a01b038381166001600160a01b0319831681179093556040519116919082907f8be0079c531659141344cd1fd0a4f28419497f9722a3daafe3b4186f6b6457e090600090a35050565b816001600160a01b0316836001600160a01b031603611ab35760405162461bcd60e51b815260206004820152602960248201527f455243313135353a2073657474696e6720617070726f76616c20737461747573604482015268103337b91039b2b63360b91b60648201526084016106de565b6001600160a01b03838116600081815260666020908152604080832094871680845294825291829020805460ff191686151590811790915591519182527f17307eab39ab6107e8899845ad3d59bd9653f200f220920489ca2b5937696c31910160405180910390a3505050565b6001600160a01b038316611b825760405162461bcd60e51b815260206004820152602360248201527f455243313135353a206275726e2066726f6d20746865207a65726f206164647260448201526265737360e81b60648201526084016106de565b336000611b8e8461206d565b90506000611b9b8461206d565b6040805160208082018352600091829052888252606581528282206001600160a01b038b1683529052205490915084811015611c255760405162461bcd60e51b8152602060048201526024808201527f455243313135353a206275726e20616d6f756e7420657863656564732062616c604482015263616e636560e01b60648201526084016106de565b60008681526065602090815260408083206001600160a01b038b81168086529184528285208a8703905582518b81529384018a90529092908816917fc3d58168c5ae7397731d063d5bbf3d657854427343f4c083240f7aacaa2d0f62910160405180910390a4604080516020810190915260009052611256565b6001600160a01b038416611cc55760405162461bcd60e51b81526004016106de90612d0f565b336000611cd18561206d565b90506000611cde8561206d565b905060008681526065602090815260408083206001600160a01b038c16845290915290205485811015611d235760405162461bcd60e51b81526004016106de90612d54565b60008781526065602090815260408083206001600160a01b038d8116855292528083208985039055908a16825281208054889290611d62908490612d9e565b909155505060408051888152602081018890526001600160a01b03808b16928c821692918816917fc3d58168c5ae7397731d063d5bbf3d657854427343f4c083240f7aacaa2d0f62910160405180910390a4611dc2848a8a8a8a8a6120b8565b505050505050505050565b600054610100900460ff166107695760405162461bcd60e51b81526004016106de90612cc4565b600054610100900460ff16611e1b5760405162461bcd60e51b81526004016106de90612cc4565b610ffd336119ee565b600054610100900460ff166119e65760405162461bcd60e51b81526004016106de90612cc4565b6001600160a01b0384163b156116fe5760405163bc197c8160e01b81526001600160a01b0385169063bc197c8190611e8f9089908990889088908890600401612df4565b6020604051808303816000875af1925050508015611eca575060408051601f3d908101601f19168201909252611ec791810190612e52565b60015b611f7657611ed6612e6f565b806308c379a003611f0f5750611eea612e8a565b80611ef55750611f11565b8060405162461bcd60e51b81526004016106de919061253b565b505b60405162461bcd60e51b815260206004820152603460248201527f455243313135353a207472616e7366657220746f206e6f6e2d455243313135356044820152732932b1b2b4bb32b91034b6b83632b6b2b73a32b960611b60648201526084016106de565b6001600160e01b0319811663bc197c8160e01b146112565760405162461bcd60e51b81526004016106de90612f13565b6001600160a01b0381163b6120135760405162461bcd60e51b815260206004820152602d60248201527f455243313936373a206e657720696d706c656d656e746174696f6e206973206e60448201526c1bdd08184818dbdb9d1c9858dd609a1b60648201526084016106de565b600080516020612fbd83398151915280546001600160a01b0319166001600160a01b0392909216919091179055565b61204b83612173565b6000825111806120585750805b156117415761206783836121b3565b50505050565b604080516001808252818301909252606091600091906020808301908036833701905050905082816000815181106120a7576120a7612a97565b602090810291909101015292915050565b6001600160a01b0384163b156116fe5760405163f23a6e6160e01b81526001600160a01b0385169063f23a6e61906120fc9089908990889088908890600401612f5b565b6020604051808303816000875af1925050508015612137575060408051601f3d908101601f1916820190925261213491810190612e52565b60015b61214357611ed6612e6f565b6001600160e01b0319811663f23a6e6160e01b146112565760405162461bcd60e51b81526004016106de90612f13565b61217c81611fa6565b6040516001600160a01b038216907fbc7cd75a20ee27fd9adebab32041f755214dbc6bffa90cc0225b39da2e5c2d3b90600090a250565b60606001600160a01b0383163b61221b5760405162461bcd60e51b815260206004820152602660248201527f416464726573733a2064656c65676174652063616c6c20746f206e6f6e2d636f6044820152651b9d1c9858dd60d21b60648201526084016106de565b600080846001600160a01b0316846040516122369190612fa0565b600060405180830381855af49150503d8060008114612271576040519150601f19603f3d011682016040523d82523d6000602084013e612276565b606091505b509150915061229e8282604051806060016040528060278152602001612fdd602791396122a7565b95945050505050565b606083156122b65750816122c0565b6122c083836122c7565b9392505050565b815115611ef55781518083602001fd5b80356001600160a01b03811681146122ee57600080fd5b919050565b6000806040838503121561230657600080fd5b61230f836122d7565b946020939093013593505050565b6001600160e01b03198116811461077257600080fd5b60006020828403121561234557600080fd5b81356122c08161231d565b634e487b7160e01b600052604160045260246000fd5b601f8201601f191681016001600160401b038111828210171561238b5761238b612350565b6040525050565b600082601f8301126123a357600080fd5b81356001600160401b038111156123bc576123bc612350565b6040516123d3601f8301601f191660200182612366565b8181528460208386010111156123e857600080fd5b816020850160208301376000918101602001919091529392505050565b60006020828403121561241757600080fd5b81356001600160401b0381111561242d57600080fd5b61243984828501612392565b949350505050565b60006020828403121561245357600080fd5b6122c0826122d7565b6000806000806080858703121561247257600080fd5b61247b856122d7565b9350612489602086016122d7565b925060408501356001600160401b038111156124a457600080fd5b6124b087828801612392565b9250506124bf606086016122d7565b905092959194509250565b6000602082840312156124dc57600080fd5b5035919050565b60005b838110156124fe5781810151838201526020016124e6565b838111156120675750506000910152565b600081518084526125278160208601602086016124e3565b601f01601f19169290920160200192915050565b6020815260006122c0602083018461250f565b60006001600160401b0382111561256757612567612350565b5060051b60200190565b600082601f83011261258257600080fd5b8135602061258f8261254e565b60405161259c8282612366565b83815260059390931b85018201928281019150868411156125bc57600080fd5b8286015b848110156125d757803583529183019183016125c0565b509695505050505050565b600080600080600060a086880312156125fa57600080fd5b612603866122d7565b9450612611602087016122d7565b935060408601356001600160401b038082111561262d57600080fd5b61263989838a01612571565b9450606088013591508082111561264f57600080fd5b61265b89838a01612571565b9350608088013591508082111561267157600080fd5b5061267e88828901612392565b9150509295509295909350565b6000806040838503121561269e57600080fd5b82356001600160401b03808211156126b557600080fd5b818501915085601f8301126126c957600080fd5b813560206126d68261254e565b6040516126e38282612366565b83815260059390931b850182019282810191508984111561270357600080fd5b948201945b8386101561272857612719866122d7565b82529482019490820190612708565b9650508601359250508082111561273e57600080fd5b5061274b85828601612571565b9150509250929050565b600081518084526020808501945080840160005b8381101561278557815187529582019590820190600101612769565b509495945050505050565b6020815260006122c06020830184612755565b600080604083850312156127b657600080fd5b6127bf836122d7565b915060208301356001600160401b038111156127da57600080fd5b61274b85828601612392565b600080604083850312156127f957600080fd5b50508035926020909101359150565b801515811461077257600080fd5b6000806040838503121561282957600080fd5b612832836122d7565b9150602083013561284281612808565b809150509250929050565b6000806000806080858703121561286357600080fd5b61286c856122d7565b9350602085013592506040850135915060608501356001600160401b0381111561289557600080fd5b6128a187828801612571565b91505092959194509250565b600080604083850312156128c057600080fd5b6128c9836122d7565b91506128d7602084016122d7565b90509250929050565b6000806000606084860312156128f557600080fd5b6128fe846122d7565b95602085013595506040909401359392505050565b600080600080600060a0868803121561292b57600080fd5b612934866122d7565b9450612942602087016122d7565b9350604086013592506060860135915060808601356001600160401b0381111561296b57600080fd5b61267e88828901612392565b600181811c9082168061298b57607f821691505b6020821081036129ab57634e487b7160e01b600052602260045260246000fd5b50919050565b6020808252602e908201527f455243313135353a2063616c6c6572206973206e6f7420746f6b656e206f776e60408201526d195c881bdc88185c1c1c9bdd995960921b606082015260800190565b6020808252602c908201527f46756e6374696f6e206d7573742062652063616c6c6564207468726f7567682060408201526b19195b1959d85d1958d85b1b60a21b606082015260800190565b6020808252602c908201527f46756e6374696f6e206d7573742062652063616c6c6564207468726f7567682060408201526b6163746976652070726f787960a01b606082015260800190565b634e487b7160e01b600052603260045260246000fd5b634e487b7160e01b600052601160045260246000fd5b600060018201612ad557612ad5612aad565b5060010190565b60208082526010908201526f496e76616c696420656767207479706560801b604082015260600190565b6000816000190483118215151615612b2057612b20612aad565b500290565b600060208284031215612b3757600080fd5b81516122c081612808565b600060c0820160018060a01b0389168352602088818501526040888186015287606086015286608086015260c060a086015282865180855260e087019150838801945060005b81811015612bad57855180518452850151858401529484019491830191600101612b88565b50909c9b505050505050505050505050565b601f82111561174157600081815260208120601f850160051c81016020861015612be65750805b601f850160051c820191505b818110156116fe57828155600101612bf2565b81516001600160401b03811115612c1e57612c1e612350565b612c3281612c2c8454612977565b84612bbf565b602080601f831160018114612c675760008415612c4f5750858301515b600019600386901b1c1916600185901b1785556116fe565b600085815260208120601f198616915b82811015612c9657888601518255948401946001909101908401612c77565b5085821015612cb45787850151600019600388901b60f8161c191681555b5050505050600190811b01905550565b6020808252602b908201527f496e697469616c697a61626c653a20636f6e7472616374206973206e6f74206960408201526a6e697469616c697a696e6760a81b606082015260800190565b60208082526025908201527f455243313135353a207472616e7366657220746f20746865207a65726f206164604082015264647265737360d81b606082015260800190565b6020808252602a908201527f455243313135353a20696e73756666696369656e742062616c616e636520666f60408201526939103a3930b739b332b960b11b606082015260800190565b60008219821115612db157612db1612aad565b500190565b604081526000612dc96040830185612755565b828103602084015261229e8185612755565b600060208284031215612ded57600080fd5b5051919050565b6001600160a01b0386811682528516602082015260a060408201819052600090612e2090830186612755565b8281036060840152612e328186612755565b90508281036080840152612e46818561250f565b98975050505050505050565b600060208284031215612e6457600080fd5b81516122c08161231d565b600060033d1115610e875760046000803e5060005160e01c90565b600060443d1015612e985790565b6040516003193d81016004833e81513d6001600160401b038160248401118184111715612ec757505050505090565b8285019150815181811115612edf5750505050505090565b843d8701016020828501011115612ef95750505050505090565b612f0860208286010187612366565b509095945050505050565b60208082526028908201527f455243313135353a204552433131353552656365697665722072656a656374656040820152676420746f6b656e7360c01b606082015260800190565b6001600160a01b03868116825285166020820152604081018490526060810183905260a060808201819052600090612f959083018461250f565b979650505050505050565b60008251612fb28184602087016124e3565b919091019291505056fe360894a13ba1a3210667c828492db98dca3e2076cc3735a920a3ca505d382bbc416464726573733a206c6f772d6c6576656c2064656c65676174652063616c6c206661696c6564a2646970667358221220711c9260aaf4272afafd64e826e449252d0fd19cab90b84ec386a9abbecf7b5a64736f6c634300080f0033",
  "linkReferences": {},
  "deployedLinkReferences": {}
}