{
  "_format": "hh-sol-artifact-1",
  "contractName": "UltigenEggs",
  "sourceName": "contracts/ultigen/UltigenEggs.sol",
  "abi": [
    {
      "anonymous": false,
      "inputs": [
        {
          "indexed": false,
          "internalType": "address",
          "name": "previousAdmin",
          "type": "address"
        },
        {
          "indexed": false,
          "internalType": "address",
          "name": "newAdmin",
          "type": "address"
        }
      ],
      "name": "AdminChanged",
      "type": "event"
    },
    {
      "anonymous": false,
      "inputs": [
        {
          "indexed": true,
          "internalType": "address",
          "name": "account",
          "type": "address"
        },
        {
          "indexed": true,
          "internalType": "address",
          "name": "operator",
          "type": "address"
        },
        {
          "indexed": false,
          "internalType": "bool",
          "name": "approved",
          "type": "bool"
        }
      ],
      "name": "ApprovalForAll",
      "type": "event"
    },
    {
      "anonymous": false,
      "inputs": [
        {
          "indexed": true,
          "internalType": "address",
          "name": "beacon",
          "type": "address"
        }
      ],
      "name": "BeaconUpgraded",
      "type": "event"
    },
    {
      "anonymous": false,
      "inputs": [
        {
          "indexed": true,
          "internalType": "address",
          "name": "buyer",
          "type": "address"
        },
        {
          "indexed": true,
          "internalType": "uint256",
          "name": "eggType",
          "type": "uint256"
        },
        {
          "indexed": false,
          "internalType": "uint256",
          "name": "amount",
          "type": "uint256"
        }
      ],
      "name": "EggBought",
      "type": "event"
    },
    {
      "anonymous": false,
      "inputs": [
        {
          "indexed": true,
          "internalType": "address",
          "name": "hatcher",
          "type": "address"
        },
        {
          "indexed": true,
          "internalType": "uint256",
          "name": "eggType",
          "type": "uint256"
        },
        {
          "indexed": false,
          "internalType": "uint256",
          "name": "monsterId",
          "type": "uint256"
        }
      ],
      "name": "EggHatched",
      "type": "event"
    },
    {
      "anonymous": false,
      "inputs": [
        {
          "indexed": false,
          "internalType": "uint8",
          "name": "version",
          "type": "uint8"
        }
      ],
      "name": "Initialized",
      "type": "event"
    },
    {
      "anonymous": false,
      "inputs": [
        {
          "indexed": true,
          "internalType": "address",
          "name": "previousOwner",
          "type": "address"
        },
        {
          "indexed": true,
          "internalType": "address",
          "name": "newOwner",
          "type": "address"
        }
      ],
      "name": "OwnershipTransferred",
      "type": "event"
    },
    {
      "anonymous": false,
      "inputs": [
        {
          "indexed": true,
          "internalType": "address",
          "name": "operator",
          "type": "address"
        },
        {
          "indexed": true,
          "internalType": "address",
          "name": "from",
          "type": "address"
        },
        {
          "indexed": true,
          "internalType": "address",
          "name": "to",
          "type": "address"
        },
        {
          "indexed": false,
          "internalType": "uint256[]",
          "name": "ids",
          "type": "uint256[]"
        },
        {
          "indexed": false,
          "internalType": "uint256[]",
          "name": "values",
          "type": "uint256[]"
        }
      ],
      "name": "TransferBatch",
      "type": "event"
    },
    {
      "anonymous": false,
      "inputs": [
        {
          "indexed": true,
          "internalType": "address",
          "name": "operator",
          "type": "address"
        },
        {
          "indexed": true,
          "internalType": "address",
          "name": "from",
          "type": "address"
        },
        {
          "indexed": true,
          "internalType": "address",
          "name": "to",
          "type": "address"
        },
        {
          "indexed": false,
          "internalType": "uint256",
          "name": "id",
          "type": "uint256"
        },
        {
          "indexed": false,
          "internalType": "uint256",
          "name": "value",
          "type": "uint256"
        }
      ],
      "name": "TransferSingle",
      "type": "event"
    },
    {
      "anonymous": false,
      "inputs": [
        {
          "indexed": false,
          "internalType": "string",
          "name": "value",
          "type": "string"
        },
        {
          "indexed": true,
          "internalType": "uint256",
          "name": "id",
          "type": "uint256"
        }
      ],
      "name": "URI",
      "type": "event"
    },
    {
      "anonymous": false,
      "inputs": [
        {
          "indexed": true,
          "internalType": "address",
          "name": "implementation",
          "type": "address"
        }
      ],
      "name": "Upgraded",
      "type": "event"
    },
    {
      "inputs": [],
      "name": "DARK_EGG",
      "outputs": [
        {
          "internalType": "uint256",
          "name": "",
          "type": "uint256"
        }
      ],
      "stateMutability": "view",
      "type": "function"
    },
    {
      "inputs": [],
      "name": "EGG_PRICE",
      "outputs": [
        {
          "internalType": "uint256",
          "name": "",
          "type": "uint256"
        }
      ],
      "stateMutability": "view",
      "type": "function"
    },
    {
      "inputs": [],
      "name": "FIRE_EGG",
      "outputs": [
        {
          "internalType": "uint256",
          "name": "",
          "type": "uint256"
        }
      ],
      "stateMutability": "view",
      "type": "function"
    },
    {
      "inputs": [],
      "name": "LIGHT_EGG",
      "outputs": [
        {
          "internalType": "uint256",
          "name": "",
          "type": "uint256"
        }
      ],
      "stateMutability": "view",
      "type": "function"
    },
    {
      "inputs": [],
      "name": "PLANT_EGG",
      "outputs": [
        {
          "internalType": "uint256",
          "name": "",
          "type": "uint256"
        }
      ],
      "stateMutability": "view",
      "type": "function"
    },
    {
      "inputs": [],
      "name": "WATER_EGG",
      "outputs": [
        {
          "internalType": "uint256",
          "name": "",
          "type": "uint256"
        }
      ],
      "stateMutability": "view",
      "type": "function"
    },
    {
      "inputs": [
        {
          "internalType": "address",
          "name": "account",
          "type": "address"
        },
        {
          "internalType": "uint256",
          "name": "id",
          "type": "uint256"
        }
      ],
      "name": "balanceOf",
      "outputs": [
        {
          "internalType": "uint256",
          "name": "",
          "type": "uint256"
        }
      ],
      "stateMutability": "view",
      "type": "function"
    },
    {
      "inputs": [
        {
          "internalType": "address[]",
          "name": "accounts",
          "type": "address[]"
        },
        {
          "internalType": "uint256[]",
          "name": "ids",
          "type": "uint256[]"
        }
      ],
      "name": "balanceOfBatch",
      "outputs": [
        {
          "internalType": "uint256[]",
          "name": "",
          "type": "uint256[]"
        }
      ],
      "stateMutability": "view",
      "type": "function"
    },
    {
      "inputs": [
        {
          "internalType": "uint256",
          "name": "eggType",
          "type": "uint256"
        },
        {
          "internalType": "uint256",
          "name": "amount",
          "type": "uint256"
        }
      ],
      "name": "buyEgg",
      "outputs": [],
      "stateMutability": "nonpayable",
      "type": "function"
    },
    {
      "inputs": [
        {
          "internalType": "uint256",
          "name": "",
          "type": "uint256"
        }
      ],
      "name": "eggToMonsterId",
      "outputs": [
        {
          "internalType": "uint256",
          "name": "",
          "type": "uint256"
        }
      ],
      "stateMutability": "view",
      "type": "function"
    },
    {
      "inputs": [],
      "name": "getHatchyTokenAddress",
      "outputs": [
        {
          "internalType": "address",
          "name": "",
          "type": "address"
        }
      ],
      "stateMutability": "view",
      "type": "function"
    },
    {
      "inputs": [],
      "name": "getUltigenAddress",
      "outputs": [
        {
          "internalType": "address",
          "name": "",
          "type": "address"
        }
      ],
      "stateMutability": "view",
      "type": "function"
    },
    {
      "inputs": [
        {
          "internalType": "uint256",
          "name": "eggType",
          "type": "uint256"
        },
        {
          "internalType": "uint256",
          "name": "amount",
          "type": "uint256"
        }
      ],
      "name": "hatchEggs",
      "outputs": [],
      "stateMutability": "nonpayable",
      "type": "function"
    },
    {
      "inputs": [
        {
          "internalType": "address",
          "name": "to",
          "type": "address"
        },
        {
          "internalType": "uint256",
          "name": "eggType",
          "type": "uint256"
        },
        {
          "internalType": "uint256",
          "name": "amount",
          "type": "uint256"
        }
      ],
      "name": "hatchEggsToAddress",
      "outputs": [],
      "stateMutability": "nonpayable",
      "type": "function"
    },
    {
      "inputs": [],
      "name": "hatchyToken",
      "outputs": [
        {
          "internalType": "contract IERC20",
          "name": "",
          "type": "address"
        }
      ],
      "stateMutability": "view",
      "type": "function"
    },
    {
      "inputs": [],
      "name": "hatchyverseUltigen",
      "outputs": [
        {
          "internalType": "contract HatchyverseUltigen",
          "name": "",
          "type": "address"
        }
      ],
      "stateMutability": "view",
      "type": "function"
    },
    {
      "inputs": [
        {
          "internalType": "address",
          "name": "hatchyTokenAddress",
          "type": "address"
        },
        {
          "internalType": "address",
          "name": "hatchyverseUltigenAddress",
          "type": "address"
        },
        {
          "internalType": "string",
          "name": "_uri",
          "type": "string"
        },
        {
          "internalType": "address",
          "name": "_signer",
          "type": "address"
        }
      ],
      "name": "initialize",
      "outputs": [],
      "stateMutability": "nonpayable",
      "type": "function"
    },
    {
      "inputs": [
        {
          "internalType": "address",
          "name": "account",
          "type": "address"
        },
        {
          "internalType": "address",
          "name": "operator",
          "type": "address"
        }
      ],
      "name": "isApprovedForAll",
      "outputs": [
        {
          "internalType": "bool",
          "name": "",
          "type": "bool"
        }
      ],
      "stateMutability": "view",
      "type": "function"
    },
    {
      "inputs": [
        {
          "internalType": "address",
          "name": "to",
          "type": "address"
        },
        {
          "internalType": "uint256",
          "name": "eggType",
          "type": "uint256"
        },
        {
          "internalType": "uint256",
          "name": "amount",
          "type": "uint256"
        }
      ],
      "name": "mintEggToAddress",
      "outputs": [],
      "stateMutability": "nonpayable",
      "type": "function"
    },
    {
      "inputs": [],
      "name": "owner",
      "outputs": [
        {
          "internalType": "address",
          "name": "",
          "type": "address"
        }
      ],
      "stateMutability": "view",
      "type": "function"
    },
    {
      "inputs": [],
      "name": "proxiableUUID",
      "outputs": [
        {
          "internalType": "bytes32",
          "name": "",
          "type": "bytes32"
        }
      ],
      "stateMutability": "view",
      "type": "function"
    },
    {
      "inputs": [],
      "name": "renounceOwnership",
      "outputs": [],
      "stateMutability": "nonpayable",
      "type": "function"
    },
    {
      "inputs": [
        {
          "internalType": "address",
          "name": "from",
          "type": "address"
        },
        {
          "internalType": "address",
          "name": "to",
          "type": "address"
        },
        {
          "internalType": "uint256[]",
          "name": "ids",
          "type": "uint256[]"
        },
        {
          "internalType": "uint256[]",
          "name": "amounts",
          "type": "uint256[]"
        },
        {
          "internalType": "bytes",
          "name": "data",
          "type": "bytes"
        }
      ],
      "name": "safeBatchTransferFrom",
      "outputs": [],
      "stateMutability": "nonpayable",
      "type": "function"
    },
    {
      "inputs": [
        {
          "internalType": "address",
          "name": "from",
          "type": "address"
        },
        {
          "internalType": "address",
          "name": "to",
          "type": "address"
        },
        {
          "internalType": "uint256",
          "name": "id",
          "type": "uint256"
        },
        {
          "internalType": "uint256",
          "name": "amount",
          "type": "uint256"
        },
        {
          "internalType": "bytes",
          "name": "data",
          "type": "bytes"
        }
      ],
      "name": "safeTransferFrom",
      "outputs": [],
      "stateMutability": "nonpayable",
      "type": "function"
    },
    {
      "inputs": [
        {
          "internalType": "address",
          "name": "operator",
          "type": "address"
        },
        {
          "internalType": "bool",
          "name": "approved",
          "type": "bool"
        }
      ],
      "name": "setApprovalForAll",
      "outputs": [],
      "stateMutability": "nonpayable",
      "type": "function"
    },
    {
      "inputs": [
        {
          "internalType": "address",
          "name": "hatchyTokenAddress",
          "type": "address"
        }
      ],
      "name": "setHatchyTokenAddress",
      "outputs": [],
      "stateMutability": "nonpayable",
      "type": "function"
    },
    {
      "inputs": [
        {
          "internalType": "address",
          "name": "_signer",
          "type": "address"
        }
      ],
      "name": "setSignerAddress",
      "outputs": [],
      "stateMutability": "nonpayable",
      "type": "function"
    },
    {
      "inputs": [
        {
          "internalType": "string",
          "name": "newuri",
          "type": "string"
        }
      ],
      "name": "setURI",
      "outputs": [],
      "stateMutability": "nonpayable",
      "type": "function"
    },
    {
      "inputs": [
        {
          "internalType": "address",
          "name": "hatchyverseUltigenAddress",
          "type": "address"
        }
      ],
      "name": "setUltigenAddress",
      "outputs": [],
      "stateMutability": "nonpayable",
      "type": "function"
    },
    {
      "inputs": [],
      "name": "signer",
      "outputs": [
        {
          "internalType": "address",
          "name": "",
          "type": "address"
        }
      ],
      "stateMutability": "view",
      "type": "function"
    },
    {
      "inputs": [
        {
          "internalType": "bytes4",
          "name": "interfaceId",
          "type": "bytes4"
        }
      ],
      "name": "supportsInterface",
      "outputs": [
        {
          "internalType": "bool",
          "name": "",
          "type": "bool"
        }
      ],
      "stateMutability": "view",
      "type": "function"
    },
    {
      "inputs": [
        {
          "internalType": "address",
          "name": "newOwner",
          "type": "address"
        }
      ],
      "name": "transferOwnership",
      "outputs": [],
      "stateMutability": "nonpayable",
      "type": "function"
    },
    {
      "inputs": [
        {
          "internalType": "address",
          "name": "newImplementation",
          "type": "address"
        }
      ],
      "name": "upgradeTo",
      "outputs": [],
      "stateMutability": "nonpayable",
      "type": "function"
    },
    {
      "inputs": [
        {
          "internalType": "address",
          "name": "newImplementation",
          "type": "address"
        },
        {
          "internalType": "bytes",
          "name": "data",
          "type": "bytes"
        }
      ],
      "name": "upgradeToAndCall",
      "outputs": [],
      "stateMutability": "payable",
      "type": "function"
    },
    {
      "inputs": [
        {
          "internalType": "uint256",
          "name": "",
          "type": "uint256"
        }
      ],
      "name": "uri",
      "outputs": [
        {
          "internalType": "string",
          "name": "",
          "type": "string"
        }
      ],
      "stateMutability": "view",
      "type": "function"
    }
  ],
  "bytecode": "0x60a06040523060805234801561001457600080fd5b5060805161312b61004c60003960008181610c8401528181610cc401528181610eb501528181610ef50152610f84015261312b6000f3fe6080604052600436106102035760003560e01c80634f1ef28611610118578063b4748ba7116100a0578063e985e9c51161006f578063e985e9c5146105d0578063f0db947c14610619578063f242432a14610639578063f2fde38b14610659578063f6797b8c1461067957600080fd5b8063b4748ba714610571578063b6f162bf14610586578063ba294a461461059b578063cec6a5a1146105b057600080fd5b8063715018a6116100e7578063715018a6146104de57806375ec45e4146104f35780638da5cb5b146105145780639836315e14610532578063a22cb4651461055157600080fd5b80634f1ef2861461047557806352d1902d146104885780635333ee4d1461049d5780636eea6474146104bd57600080fd5b80631d4e18c91161019b5780632eb2c2d61161016a5780632eb2c2d6146103c85780632fcb8c58146103e85780633659cfe6146104085780633857c92f146104285780634e1273f41461044857600080fd5b80631d4e18c91461032f578063238ac9331461034c5780632bcf0981146103855780632e9699a7146103b357600080fd5b80630563f2cb116101d75780630563f2cb146102ad57806309c26fb1146102cd5780630e89341c146102ed57806311524e4a1461031a57600080fd5b8062fdd58e1461020857806301ffc9a71461023b57806302fe53051461026b578063046dc1661461028d575b600080fd5b34801561021457600080fd5b5061022861022336600461243a565b610698565b6040519081526020015b60405180910390f35b34801561024757600080fd5b5061025b61025636600461247a565b610730565b6040519015158152602001610232565b34801561027757600080fd5b5061028b61028636600461254e565b610782565b005b34801561029957600080fd5b5061028b6102a836600461258b565b610796565b3480156102b957600080fd5b5061028b6102c836600461258b565b6107c1565b3480156102d957600080fd5b5061028b6102e83660046125a6565b6107ec565b3480156102f957600080fd5b5061030d610308366004612615565b610a1e565b6040516102329190612686565b34801561032657600080fd5b50610228600381565b34801561033b57600080fd5b50610228683635c9adc5dea0000081565b34801561035857600080fd5b5061015f5461036d906001600160a01b031681565b6040516001600160a01b039091168152602001610232565b34801561039157600080fd5b506102286103a0366004612615565b6101626020526000908152604090205481565b3480156103bf57600080fd5b50610228600581565b3480156103d457600080fd5b5061028b6103e336600461272e565b610ab2565b3480156103f457600080fd5b5061028b6104033660046127d8565b610af7565b34801561041457600080fd5b5061028b61042336600461258b565b610c7a565b34801561043457600080fd5b5061028b61044336600461258b565b610d56565b34801561045457600080fd5b506104686104633660046127fa565b610d81565b6040516102329190612900565b61028b610483366004612913565b610eab565b34801561049457600080fd5b50610228610f77565b3480156104a957600080fd5b5061028b6104b83660046127d8565b61102b565b3480156104c957600080fd5b506101615461036d906001600160a01b031681565b3480156104ea57600080fd5b5061028b611190565b3480156104ff57600080fd5b506101605461036d906001600160a01b031681565b34801561052057600080fd5b506097546001600160a01b031661036d565b34801561053e57600080fd5b50610161546001600160a01b031661036d565b34801561055d57600080fd5b5061028b61056c366004612965565b6111a4565b34801561057d57600080fd5b50610228600481565b34801561059257600080fd5b50610228600181565b3480156105a757600080fd5b50610228600281565b3480156105bc57600080fd5b5061028b6105cb36600461299c565b6111af565b3480156105dc57600080fd5b5061025b6105eb3660046129cf565b6001600160a01b03918216600090815260666020908152604080832093909416825291909152205460ff1690565b34801561062557600080fd5b5061028b61063436600461299c565b611398565b34801561064557600080fd5b5061028b610654366004612a02565b611497565b34801561066557600080fd5b5061028b61067436600461258b565b6114dc565b34801561068557600080fd5b50610160546001600160a01b031661036d565b60006001600160a01b0383166107085760405162461bcd60e51b815260206004820152602a60248201527f455243313135353a2061646472657373207a65726f206973206e6f742061207660448201526930b634b21037bbb732b960b11b60648201526084015b60405180910390fd5b5060009081526065602090815260408083206001600160a01b03949094168352929052205490565b60006001600160e01b03198216636cdb3d1360e11b148061076157506001600160e01b031982166303a24d0760e21b145b8061077c57506301ffc9a760e01b6001600160e01b03198316145b92915050565b61078a611552565b610793816115ac565b50565b61079e611552565b61015f80546001600160a01b0319166001600160a01b0392909216919091179055565b6107c9611552565b61016080546001600160a01b0319166001600160a01b0392909216919091179055565b600054610100900460ff161580801561080c5750600054600160ff909116105b806108265750303b158015610826575060005460ff166001145b6108895760405162461bcd60e51b815260206004820152602e60248201527f496e697469616c697a61626c653a20636f6e747261637420697320616c72656160448201526d191e481a5b9a5d1a585b1a5e995960921b60648201526084016106ff565b6000805460ff1916600117905580156108ac576000805461ff0019166101001790555b6108b5836115b8565b6108bd6115e8565b6108c5611617565b6108cd61163e565b61015f80546001600160a01b038085166001600160a01b03199283161790925561016080548884169083161790556101618054928716929091169190911790556101626020526127107ff61987c9aed0045e23fa9dc39431e65f2e539c06326104393336bb7ee5513b4a55614e207f155836409e5d26526e47d89ac74876a79a7cbb23afb27a87ba13a73d51ace4be556175307fccbcdfd311f6d935565091d3de7fdc814ce5d5bb2338a9cd55bc8269bcf8e88f55619c407f462ca95cbe2f940b489690b1e049233bd61b15242328e4f9d6024e5031ead0b855600560005261c3507f1ebecf720c21f0247efa309db4cd88dde42fd85cadc67e77c5623945d51da743558015610a17576000805461ff0019169055604051600181527f7f26b83ff96e1f2b6a682f133852f6798a09c465da95921460cefb38474024989060200160405180910390a15b5050505050565b606060678054610a2d90612a67565b80601f0160208091040260200160405190810160405280929190818152602001828054610a5990612a67565b8015610aa65780601f10610a7b57610100808354040283529160200191610aa6565b820191906000526020600020905b815481529060010190602001808311610a8957829003601f168201915b50505050509050919050565b6001600160a01b038516331480610ace5750610ace85336105eb565b610aea5760405162461bcd60e51b81526004016106ff90612aa1565b610a17858585858561166d565b610aff61184d565b8160018110158015610b12575060058111155b610b2e5760405162461bcd60e51b81526004016106ff90612aef565b81610b393385610698565b1015610b875760405162461bcd60e51b815260206004820152601a60248201527f496e73756666696369656e74206567677320746f20686174636800000000000060448201526064016106ff565b610b923384846118a8565b60008381526101626020526040812054906060905b84811015610c675761016154604051631cea37bb60e11b81526001600160a01b03909116906339d46f7690610bec903390879060019060009081908a90600401612b19565b600060405180830381600087803b158015610c0657600080fd5b505af1158015610c1a573d6000803e3d6000fd5b50506040518581528892503391507ffb5524208c13c35801d6a771c1506a0a169687ef04692d793cd26722df18e7ce9060200160405180910390a380610c5f81612bac565b915050610ba7565b50505050610c76600161012d55565b5050565b6001600160a01b037f0000000000000000000000000000000000000000000000000000000000000000163003610cc25760405162461bcd60e51b81526004016106ff90612bc5565b7f00000000000000000000000000000000000000000000000000000000000000006001600160a01b0316610d0b6000805160206130af833981519152546001600160a01b031690565b6001600160a01b031614610d315760405162461bcd60e51b81526004016106ff90612c11565b610d3a81611a2f565b6040805160008082526020820190925261079391839190611a37565b610d5e611552565b61016180546001600160a01b0319166001600160a01b0392909216919091179055565b60608151835114610de65760405162461bcd60e51b815260206004820152602960248201527f455243313135353a206163636f756e747320616e6420696473206c656e677468604482015268040dad2e6dac2e8c6d60bb1b60648201526084016106ff565b6000835167ffffffffffffffff811115610e0257610e02612497565b604051908082528060200260200182016040528015610e2b578160200160208202803683370190505b50905060005b8451811015610ea357610e76858281518110610e4f57610e4f612c5d565b6020026020010151858381518110610e6957610e69612c5d565b6020026020010151610698565b828281518110610e8857610e88612c5d565b6020908102919091010152610e9c81612bac565b9050610e31565b509392505050565b6001600160a01b037f0000000000000000000000000000000000000000000000000000000000000000163003610ef35760405162461bcd60e51b81526004016106ff90612bc5565b7f00000000000000000000000000000000000000000000000000000000000000006001600160a01b0316610f3c6000805160206130af833981519152546001600160a01b031690565b6001600160a01b031614610f625760405162461bcd60e51b81526004016106ff90612c11565b610f6b82611a2f565b610c7682826001611a37565b6000306001600160a01b037f000000000000000000000000000000000000000000000000000000000000000016146110175760405162461bcd60e51b815260206004820152603860248201527f555550535570677261646561626c653a206d757374206e6f742062652063616c60448201527f6c6564207468726f7567682064656c656761746563616c6c000000000000000060648201526084016106ff565b506000805160206130af8339815191525b90565b61103361184d565b8160018110158015611046575060058111155b6110625760405162461bcd60e51b81526004016106ff90612aef565b600061107783683635c9adc5dea00000612c73565b610160546040516323b872dd60e01b8152336004820152306024820152604481018390529192506001600160a01b0316906323b872dd906064016020604051808303816000875af11580156110d0573d6000803e3d6000fd5b505050506040513d601f19601f820116820180604052508101906110f49190612c92565b6111315760405162461bcd60e51b815260206004820152600e60248201526d14185e5b595b9d0819985a5b195960921b60448201526064016106ff565b61114c33858560405180602001604052806000815250611ba7565b604051838152849033907fecf6e0dfbbc2f7493d6254378d8ceee52ce7d4408dcc744f57b70ff90cc114569060200160405180910390a35050610c76600161012d55565b611198611552565b6111a26000611cb4565b565b610c76338383611d06565b6097546001600160a01b03163314806111d3575061015f546001600160a01b031633145b61121a5760405162461bcd60e51b815260206004820152601860248201527710d85b1b195c881a5cc81b9bdd08185d5d1a1bdc9a5e995960421b60448201526064016106ff565b816001811015801561122d575060058111155b6112495760405162461bcd60e51b81526004016106ff90612aef565b816112548585610698565b10156112a25760405162461bcd60e51b815260206004820152601a60248201527f496e73756666696369656e74206567677320746f20686174636800000000000060448201526064016106ff565b6112ad8484846118a8565b60008381526101626020526040812054906060905b8481101561138f5761016154604051631cea37bb60e11b81526001600160a01b03909116906339d46f7690611307908a90879060019060009081908a90600401612b19565b600060405180830381600087803b15801561132157600080fd5b505af1158015611335573d6000803e3d6000fd5b5050505085876001600160a01b03167ffb5524208c13c35801d6a771c1506a0a169687ef04692d793cd26722df18e7ce8560405161137591815260200190565b60405180910390a38061138781612bac565b9150506112c2565b50505050505050565b6097546001600160a01b03163314806113bc575061015f546001600160a01b031633145b6114035760405162461bcd60e51b815260206004820152601860248201527710d85b1b195c881a5cc81b9bdd08185d5d1a1bdc9a5e995960421b60448201526064016106ff565b8160018110158015611416575060058111155b6114325760405162461bcd60e51b81526004016106ff90612aef565b61144d84848460405180602001604052806000815250611ba7565b82846001600160a01b03167fecf6e0dfbbc2f7493d6254378d8ceee52ce7d4408dcc744f57b70ff90cc114568460405161148991815260200190565b60405180910390a350505050565b6001600160a01b0385163314806114b357506114b385336105eb565b6114cf5760405162461bcd60e51b81526004016106ff90612aa1565b610a178585858585611de6565b6114e4611552565b6001600160a01b0381166115495760405162461bcd60e51b815260206004820152602660248201527f4f776e61626c653a206e6577206f776e657220697320746865207a65726f206160448201526564647265737360d01b60648201526084016106ff565b61079381611cb4565b6097546001600160a01b031633146111a25760405162461bcd60e51b815260206004820181905260248201527f4f776e61626c653a2063616c6c6572206973206e6f7420746865206f776e657260448201526064016106ff565b6067610c768282612cf5565b600054610100900460ff166115df5760405162461bcd60e51b81526004016106ff90612db5565b61079381611f14565b600054610100900460ff1661160f5760405162461bcd60e51b81526004016106ff90612db5565b6111a2611f3b565b600054610100900460ff166111a25760405162461bcd60e51b81526004016106ff90612db5565b600054610100900460ff166116655760405162461bcd60e51b81526004016106ff90612db5565b6111a2611f6b565b81518351146116cf5760405162461bcd60e51b815260206004820152602860248201527f455243313135353a2069647320616e6420616d6f756e7473206c656e677468206044820152670dad2e6dac2e8c6d60c31b60648201526084016106ff565b6001600160a01b0384166116f55760405162461bcd60e51b81526004016106ff90612e00565b3360005b84518110156117df57600085828151811061171657611716612c5d565b60200260200101519050600085838151811061173457611734612c5d565b60209081029190910181015160008481526065835260408082206001600160a01b038e1683529093529190912054909150818110156117855760405162461bcd60e51b81526004016106ff90612e45565b60008381526065602090815260408083206001600160a01b038e8116855292528083208585039055908b168252812080548492906117c4908490612e8f565b92505081905550505050806117d890612bac565b90506116f9565b50846001600160a01b0316866001600160a01b0316826001600160a01b03167f4a39dc06d4c0dbc64b70af90fd698a233a518aa5d07e595d983b8c0526c8f7fb878760405161182f929190612ea7565b60405180910390a4611845818787878787611f92565b505050505050565b600261012d54036118a05760405162461bcd60e51b815260206004820152601f60248201527f5265656e7472616e637947756172643a207265656e7472616e742063616c6c0060448201526064016106ff565b600261012d55565b6001600160a01b03831661190a5760405162461bcd60e51b815260206004820152602360248201527f455243313135353a206275726e2066726f6d20746865207a65726f206164647260448201526265737360e81b60648201526084016106ff565b336000611916846120ed565b90506000611923846120ed565b6040805160208082018352600091829052888252606581528282206001600160a01b038b16835290522054909150848110156119ad5760405162461bcd60e51b8152602060048201526024808201527f455243313135353a206275726e20616d6f756e7420657863656564732062616c604482015263616e636560e01b60648201526084016106ff565b60008681526065602090815260408083206001600160a01b038b81168086529184528285208a8703905582518b81529384018a90529092908816917fc3d58168c5ae7397731d063d5bbf3d657854427343f4c083240f7aacaa2d0f62910160405180910390a460408051602081019091526000905261138f565b600161012d55565b610793611552565b7f4910fdfa16fed3260ed0e7147f7cc6da11a60208b5b9406d12a635614ffd91435460ff1615611a6f57611a6a83612138565b505050565b826001600160a01b03166352d1902d6040518163ffffffff1660e01b8152600401602060405180830381865afa925050508015611ac9575060408051601f3d908101601f19168201909252611ac691810190612ecc565b60015b611b2c5760405162461bcd60e51b815260206004820152602e60248201527f45524331393637557067726164653a206e657720696d706c656d656e7461746960448201526d6f6e206973206e6f74205555505360901b60648201526084016106ff565b6000805160206130af8339815191528114611b9b5760405162461bcd60e51b815260206004820152602960248201527f45524331393637557067726164653a20756e737570706f727465642070726f786044820152681a58589b195555525160ba1b60648201526084016106ff565b50611a6a8383836121d4565b6001600160a01b038416611c075760405162461bcd60e51b815260206004820152602160248201527f455243313135353a206d696e7420746f20746865207a65726f206164647265736044820152607360f81b60648201526084016106ff565b336000611c13856120ed565b90506000611c20856120ed565b905060008681526065602090815260408083206001600160a01b038b16845290915281208054879290611c54908490612e8f565b909155505060408051878152602081018790526001600160a01b03808a1692600092918716917fc3d58168c5ae7397731d063d5bbf3d657854427343f4c083240f7aacaa2d0f62910160405180910390a461138f836000898989896121ff565b609780546001600160a01b038381166001600160a01b0319831681179093556040519116919082907f8be0079c531659141344cd1fd0a4f28419497f9722a3daafe3b4186f6b6457e090600090a35050565b816001600160a01b0316836001600160a01b031603611d795760405162461bcd60e51b815260206004820152602960248201527f455243313135353a2073657474696e6720617070726f76616c20737461747573604482015268103337b91039b2b63360b91b60648201526084016106ff565b6001600160a01b03838116600081815260666020908152604080832094871680845294825291829020805460ff191686151590811790915591519182527f17307eab39ab6107e8899845ad3d59bd9653f200f220920489ca2b5937696c31910160405180910390a3505050565b6001600160a01b038416611e0c5760405162461bcd60e51b81526004016106ff90612e00565b336000611e18856120ed565b90506000611e25856120ed565b905060008681526065602090815260408083206001600160a01b038c16845290915290205485811015611e6a5760405162461bcd60e51b81526004016106ff90612e45565b60008781526065602090815260408083206001600160a01b038d8116855292528083208985039055908a16825281208054889290611ea9908490612e8f565b909155505060408051888152602081018890526001600160a01b03808b16928c821692918816917fc3d58168c5ae7397731d063d5bbf3d657854427343f4c083240f7aacaa2d0f62910160405180910390a4611f09848a8a8a8a8a6121ff565b505050505050505050565b600054610100900460ff1661078a5760405162461bcd60e51b81526004016106ff90612db5565b600054610100900460ff16611f625760405162461bcd60e51b81526004016106ff90612db5565b6111a233611cb4565b600054610100900460ff16611a275760405162461bcd60e51b81526004016106ff90612db5565b6001600160a01b0384163b156118455760405163bc197c8160e01b81526001600160a01b0385169063bc197c8190611fd69089908990889088908890600401612ee5565b6020604051808303816000875af1925050508015612011575060408051601f3d908101601f1916820190925261200e91810190612f43565b60015b6120bd5761201d612f60565b806308c379a0036120565750612031612f7b565b8061203c5750612058565b8060405162461bcd60e51b81526004016106ff9190612686565b505b60405162461bcd60e51b815260206004820152603460248201527f455243313135353a207472616e7366657220746f206e6f6e2d455243313135356044820152732932b1b2b4bb32b91034b6b83632b6b2b73a32b960611b60648201526084016106ff565b6001600160e01b0319811663bc197c8160e01b1461138f5760405162461bcd60e51b81526004016106ff90613005565b6040805160018082528183019092526060916000919060208083019080368337019050509050828160008151811061212757612127612c5d565b602090810291909101015292915050565b6001600160a01b0381163b6121a55760405162461bcd60e51b815260206004820152602d60248201527f455243313936373a206e657720696d706c656d656e746174696f6e206973206e60448201526c1bdd08184818dbdb9d1c9858dd609a1b60648201526084016106ff565b6000805160206130af83398151915280546001600160a01b0319166001600160a01b0392909216919091179055565b6121dd836122ba565b6000825111806121ea5750805b15611a6a576121f983836122fa565b50505050565b6001600160a01b0384163b156118455760405163f23a6e6160e01b81526001600160a01b0385169063f23a6e6190612243908990899088908890889060040161304d565b6020604051808303816000875af192505050801561227e575060408051601f3d908101601f1916820190925261227b91810190612f43565b60015b61228a5761201d612f60565b6001600160e01b0319811663f23a6e6160e01b1461138f5760405162461bcd60e51b81526004016106ff90613005565b6122c381612138565b6040516001600160a01b038216907fbc7cd75a20ee27fd9adebab32041f755214dbc6bffa90cc0225b39da2e5c2d3b90600090a250565b60606001600160a01b0383163b6123625760405162461bcd60e51b815260206004820152602660248201527f416464726573733a2064656c65676174652063616c6c20746f206e6f6e2d636f6044820152651b9d1c9858dd60d21b60648201526084016106ff565b600080846001600160a01b03168460405161237d9190613092565b600060405180830381855af49150503d80600081146123b8576040519150601f19603f3d011682016040523d82523d6000602084013e6123bd565b606091505b50915091506123e582826040518060600160405280602781526020016130cf602791396123ee565b95945050505050565b606083156123fd575081612407565b612407838361240e565b9392505050565b81511561203c5781518083602001fd5b80356001600160a01b038116811461243557600080fd5b919050565b6000806040838503121561244d57600080fd5b6124568361241e565b946020939093013593505050565b6001600160e01b03198116811461079357600080fd5b60006020828403121561248c57600080fd5b813561240781612464565b634e487b7160e01b600052604160045260246000fd5b601f8201601f1916810167ffffffffffffffff811182821017156124d3576124d3612497565b6040525050565b600082601f8301126124eb57600080fd5b813567ffffffffffffffff81111561250557612505612497565b60405161251c601f8301601f1916602001826124ad565b81815284602083860101111561253157600080fd5b816020850160208301376000918101602001919091529392505050565b60006020828403121561256057600080fd5b813567ffffffffffffffff81111561257757600080fd5b612583848285016124da565b949350505050565b60006020828403121561259d57600080fd5b6124078261241e565b600080600080608085870312156125bc57600080fd5b6125c58561241e565b93506125d36020860161241e565b9250604085013567ffffffffffffffff8111156125ef57600080fd5b6125fb878288016124da565b92505061260a6060860161241e565b905092959194509250565b60006020828403121561262757600080fd5b5035919050565b60005b83811015612649578181015183820152602001612631565b838111156121f95750506000910152565b6000815180845261267281602086016020860161262e565b601f01601f19169290920160200192915050565b602081526000612407602083018461265a565b600067ffffffffffffffff8211156126b3576126b3612497565b5060051b60200190565b600082601f8301126126ce57600080fd5b813560206126db82612699565b6040516126e882826124ad565b83815260059390931b850182019282810191508684111561270857600080fd5b8286015b84811015612723578035835291830191830161270c565b509695505050505050565b600080600080600060a0868803121561274657600080fd5b61274f8661241e565b945061275d6020870161241e565b9350604086013567ffffffffffffffff8082111561277a57600080fd5b61278689838a016126bd565b9450606088013591508082111561279c57600080fd5b6127a889838a016126bd565b935060808801359150808211156127be57600080fd5b506127cb888289016124da565b9150509295509295909350565b600080604083850312156127eb57600080fd5b50508035926020909101359150565b6000806040838503121561280d57600080fd5b823567ffffffffffffffff8082111561282557600080fd5b818501915085601f83011261283957600080fd5b8135602061284682612699565b60405161285382826124ad565b83815260059390931b850182019282810191508984111561287357600080fd5b948201945b83861015612898576128898661241e565b82529482019490820190612878565b965050860135925050808211156128ae57600080fd5b506128bb858286016126bd565b9150509250929050565b600081518084526020808501945080840160005b838110156128f5578151875295820195908201906001016128d9565b509495945050505050565b60208152600061240760208301846128c5565b6000806040838503121561292657600080fd5b61292f8361241e565b9150602083013567ffffffffffffffff81111561294b57600080fd5b6128bb858286016124da565b801515811461079357600080fd5b6000806040838503121561297857600080fd5b6129818361241e565b9150602083013561299181612957565b809150509250929050565b6000806000606084860312156129b157600080fd5b6129ba8461241e565b95602085013595506040909401359392505050565b600080604083850312156129e257600080fd5b6129eb8361241e565b91506129f96020840161241e565b90509250929050565b600080600080600060a08688031215612a1a57600080fd5b612a238661241e565b9450612a316020870161241e565b93506040860135925060608601359150608086013567ffffffffffffffff811115612a5b57600080fd5b6127cb888289016124da565b600181811c90821680612a7b57607f821691505b602082108103612a9b57634e487b7160e01b600052602260045260246000fd5b50919050565b6020808252602e908201527f455243313135353a2063616c6c6572206973206e6f7420746f6b656e206f776e60408201526d195c881bdc88185c1c1c9bdd995960921b606082015260800190565b60208082526010908201526f496e76616c696420656767207479706560801b604082015260600190565b600060c0820160018060a01b0389168352602088818501526040888186015287606086015286608086015260c060a086015282865180855260e087019150838801945060005b81811015612b8457855180518452850151858401529484019491830191600101612b5f565b50909c9b505050505050505050505050565b634e487b7160e01b600052601160045260246000fd5b600060018201612bbe57612bbe612b96565b5060010190565b6020808252602c908201527f46756e6374696f6e206d7573742062652063616c6c6564207468726f7567682060408201526b19195b1959d85d1958d85b1b60a21b606082015260800190565b6020808252602c908201527f46756e6374696f6e206d7573742062652063616c6c6564207468726f7567682060408201526b6163746976652070726f787960a01b606082015260800190565b634e487b7160e01b600052603260045260246000fd5b6000816000190483118215151615612c8d57612c8d612b96565b500290565b600060208284031215612ca457600080fd5b815161240781612957565b601f821115611a6a57600081815260208120601f850160051c81016020861015612cd65750805b601f850160051c820191505b8181101561184557828155600101612ce2565b815167ffffffffffffffff811115612d0f57612d0f612497565b612d2381612d1d8454612a67565b84612caf565b602080601f831160018114612d585760008415612d405750858301515b600019600386901b1c1916600185901b178555611845565b600085815260208120601f198616915b82811015612d8757888601518255948401946001909101908401612d68565b5085821015612da55787850151600019600388901b60f8161c191681555b5050505050600190811b01905550565b6020808252602b908201527f496e697469616c697a61626c653a20636f6e7472616374206973206e6f74206960408201526a6e697469616c697a696e6760a81b606082015260800190565b60208082526025908201527f455243313135353a207472616e7366657220746f20746865207a65726f206164604082015264647265737360d81b606082015260800190565b6020808252602a908201527f455243313135353a20696e73756666696369656e742062616c616e636520666f60408201526939103a3930b739b332b960b11b606082015260800190565b60008219821115612ea257612ea2612b96565b500190565b604081526000612eba60408301856128c5565b82810360208401526123e581856128c5565b600060208284031215612ede57600080fd5b5051919050565b6001600160a01b0386811682528516602082015260a060408201819052600090612f11908301866128c5565b8281036060840152612f2381866128c5565b90508281036080840152612f37818561265a565b98975050505050505050565b600060208284031215612f5557600080fd5b815161240781612464565b600060033d11156110285760046000803e5060005160e01c90565b600060443d1015612f895790565b6040516003193d81016004833e81513d67ffffffffffffffff8160248401118184111715612fb957505050505090565b8285019150815181811115612fd15750505050505090565b843d8701016020828501011115612feb5750505050505090565b612ffa602082860101876124ad565b509095945050505050565b60208082526028908201527f455243313135353a204552433131353552656365697665722072656a656374656040820152676420746f6b656e7360c01b606082015260800190565b6001600160a01b03868116825285166020820152604081018490526060810183905260a0608082018190526000906130879083018461265a565b979650505050505050565b600082516130a481846020870161262e565b919091019291505056fe360894a13ba1a3210667c828492db98dca3e2076cc3735a920a3ca505d382bbc416464726573733a206c6f772d6c6576656c2064656c65676174652063616c6c206661696c6564a26469706673582212200bc51c49df4f46e0984a1059fe257a4a28a6a525b0a9bc3a2a8111a9bd7c2d3764736f6c634300080f0033",
  "linkReferences": {},
  "deployedLinkReferences": {}
}