{
  "_format": "hh-sol-artifact-1",
  "contractName": "VoucherConverter",
  "sourceName": "contracts/vouchers/VoucherConverter.sol",
  "abi": [
    {
      "anonymous": false,
      "inputs": [
        {
          "indexed": false,
          "internalType": "address",
          "name": "previousAdmin",
          "type": "address"
        },
        {
          "indexed": false,
          "internalType": "address",
          "name": "newAdmin",
          "type": "address"
        }
      ],
      "name": "AdminChanged",
      "type": "event"
    },
    {
      "anonymous": false,
      "inputs": [
        {
          "indexed": true,
          "internalType": "address",
          "name": "beacon",
          "type": "address"
        }
      ],
      "name": "BeaconUpgraded",
      "type": "event"
    },
    {
      "anonymous": false,
      "inputs": [
        {
          "indexed": true,
          "internalType": "address",
          "name": "account",
          "type": "address"
        },
        {
          "indexed": false,
          "internalType": "uint256",
          "name": "nonce",
          "type": "uint256"
        }
      ],
      "name": "Deposit",
      "type": "event"
    },
    {
      "anonymous": false,
      "inputs": [
        {
          "indexed": false,
          "internalType": "uint8",
          "name": "version",
          "type": "uint8"
        }
      ],
      "name": "Initialized",
      "type": "event"
    },
    {
      "anonymous": false,
      "inputs": [
        {
          "indexed": true,
          "internalType": "address",
          "name": "previousOwner",
          "type": "address"
        },
        {
          "indexed": true,
          "internalType": "address",
          "name": "newOwner",
          "type": "address"
        }
      ],
      "name": "OwnershipTransferred",
      "type": "event"
    },
    {
      "anonymous": false,
      "inputs": [
        {
          "indexed": true,
          "internalType": "address",
          "name": "account",
          "type": "address"
        }
      ],
      "name": "SignerAdded",
      "type": "event"
    },
    {
      "anonymous": false,
      "inputs": [
        {
          "indexed": true,
          "internalType": "address",
          "name": "account",
          "type": "address"
        }
      ],
      "name": "SignerChange",
      "type": "event"
    },
    {
      "anonymous": false,
      "inputs": [
        {
          "indexed": true,
          "internalType": "address",
          "name": "account",
          "type": "address"
        }
      ],
      "name": "SignerRemoved",
      "type": "event"
    },
    {
      "anonymous": false,
      "inputs": [
        {
          "indexed": true,
          "internalType": "address",
          "name": "implementation",
          "type": "address"
        }
      ],
      "name": "Upgraded",
      "type": "event"
    },
    {
      "inputs": [
        {
          "internalType": "bytes",
          "name": "",
          "type": "bytes"
        }
      ],
      "name": "UsedSignatures",
      "outputs": [
        {
          "internalType": "bool",
          "name": "",
          "type": "bool"
        }
      ],
      "stateMutability": "view",
      "type": "function"
    },
    {
      "inputs": [
        {
          "internalType": "uint256",
          "name": "",
          "type": "uint256"
        }
      ],
      "name": "convertedAssets",
      "outputs": [
        {
          "internalType": "address",
          "name": "receiver",
          "type": "address"
        },
        {
          "internalType": "enum AssetType",
          "name": "assetType",
          "type": "uint8"
        },
        {
          "internalType": "address",
          "name": "assetAddress",
          "type": "address"
        },
        {
          "internalType": "uint256",
          "name": "amount",
          "type": "uint256"
        },
        {
          "internalType": "uint256",
          "name": "voucherId",
          "type": "uint256"
        }
      ],
      "stateMutability": "view",
      "type": "function"
    },
    {
      "inputs": [
        {
          "components": [
            {
              "internalType": "address",
              "name": "receiver",
              "type": "address"
            },
            {
              "internalType": "enum AssetType",
              "name": "assetType",
              "type": "uint8"
            },
            {
              "internalType": "address",
              "name": "assetAddress",
              "type": "address"
            },
            {
              "internalType": "uint256[]",
              "name": "tokenIds",
              "type": "uint256[]"
            },
            {
              "internalType": "uint256[]",
              "name": "amounts",
              "type": "uint256[]"
            },
            {
              "internalType": "uint256",
              "name": "amount",
              "type": "uint256"
            },
            {
              "internalType": "uint256",
              "name": "voucherId",
              "type": "uint256"
            }
          ],
          "internalType": "struct ConverterPayload",
          "name": "payload",
          "type": "tuple"
        },
        {
          "internalType": "bytes",
          "name": "signature",
          "type": "bytes"
        }
      ],
      "name": "createVoucher",
      "outputs": [],
      "stateMutability": "payable",
      "type": "function"
    },
    {
      "inputs": [],
      "name": "enabled",
      "outputs": [
        {
          "internalType": "bool",
          "name": "",
          "type": "bool"
        }
      ],
      "stateMutability": "view",
      "type": "function"
    },
    {
      "inputs": [
        {
          "components": [
            {
              "internalType": "address",
              "name": "receiver",
              "type": "address"
            },
            {
              "internalType": "enum AssetType",
              "name": "assetType",
              "type": "uint8"
            },
            {
              "internalType": "address",
              "name": "assetAddress",
              "type": "address"
            },
            {
              "internalType": "uint256[]",
              "name": "tokenIds",
              "type": "uint256[]"
            },
            {
              "internalType": "uint256[]",
              "name": "amounts",
              "type": "uint256[]"
            },
            {
              "internalType": "uint256",
              "name": "amount",
              "type": "uint256"
            },
            {
              "internalType": "uint256",
              "name": "voucherId",
              "type": "uint256"
            }
          ],
          "internalType": "struct ConverterPayload",
          "name": "payload",
          "type": "tuple"
        }
      ],
      "name": "encodePackedMintData",
      "outputs": [
        {
          "internalType": "bytes32",
          "name": "",
          "type": "bytes32"
        }
      ],
      "stateMutability": "pure",
      "type": "function"
    },
    {
      "inputs": [],
      "name": "flipState",
      "outputs": [],
      "stateMutability": "nonpayable",
      "type": "function"
    },
    {
      "inputs": [
        {
          "internalType": "uint256",
          "name": "nonce",
          "type": "uint256"
        }
      ],
      "name": "getConvertedAssets",
      "outputs": [
        {
          "components": [
            {
              "internalType": "address",
              "name": "receiver",
              "type": "address"
            },
            {
              "internalType": "enum AssetType",
              "name": "assetType",
              "type": "uint8"
            },
            {
              "internalType": "address",
              "name": "assetAddress",
              "type": "address"
            },
            {
              "internalType": "uint256[]",
              "name": "tokenIds",
              "type": "uint256[]"
            },
            {
              "internalType": "uint256[]",
              "name": "amounts",
              "type": "uint256[]"
            },
            {
              "internalType": "uint256",
              "name": "amount",
              "type": "uint256"
            },
            {
              "internalType": "uint256",
              "name": "voucherId",
              "type": "uint256"
            }
          ],
          "internalType": "struct ConverterPayload",
          "name": "",
          "type": "tuple"
        }
      ],
      "stateMutability": "view",
      "type": "function"
    },
    {
      "inputs": [
        {
          "internalType": "address",
          "name": "_signer",
          "type": "address"
        }
      ],
      "name": "initialize",
      "outputs": [],
      "stateMutability": "nonpayable",
      "type": "function"
    },
    {
      "inputs": [
        {
          "internalType": "address",
          "name": "",
          "type": "address"
        },
        {
          "internalType": "address",
          "name": "",
          "type": "address"
        },
        {
          "internalType": "uint256[]",
          "name": "",
          "type": "uint256[]"
        },
        {
          "internalType": "uint256[]",
          "name": "",
          "type": "uint256[]"
        },
        {
          "internalType": "bytes",
          "name": "",
          "type": "bytes"
        }
      ],
      "name": "onERC1155BatchReceived",
      "outputs": [
        {
          "internalType": "bytes4",
          "name": "",
          "type": "bytes4"
        }
      ],
      "stateMutability": "nonpayable",
      "type": "function"
    },
    {
      "inputs": [
        {
          "internalType": "address",
          "name": "",
          "type": "address"
        },
        {
          "internalType": "address",
          "name": "",
          "type": "address"
        },
        {
          "internalType": "uint256",
          "name": "",
          "type": "uint256"
        },
        {
          "internalType": "uint256",
          "name": "",
          "type": "uint256"
        },
        {
          "internalType": "bytes",
          "name": "",
          "type": "bytes"
        }
      ],
      "name": "onERC1155Received",
      "outputs": [
        {
          "internalType": "bytes4",
          "name": "",
          "type": "bytes4"
        }
      ],
      "stateMutability": "nonpayable",
      "type": "function"
    },
    {
      "inputs": [
        {
          "internalType": "address",
          "name": "",
          "type": "address"
        },
        {
          "internalType": "address",
          "name": "",
          "type": "address"
        },
        {
          "internalType": "uint256",
          "name": "",
          "type": "uint256"
        },
        {
          "internalType": "bytes",
          "name": "",
          "type": "bytes"
        }
      ],
      "name": "onERC721Received",
      "outputs": [
        {
          "internalType": "bytes4",
          "name": "",
          "type": "bytes4"
        }
      ],
      "stateMutability": "nonpayable",
      "type": "function"
    },
    {
      "inputs": [],
      "name": "owner",
      "outputs": [
        {
          "internalType": "address",
          "name": "",
          "type": "address"
        }
      ],
      "stateMutability": "view",
      "type": "function"
    },
    {
      "inputs": [],
      "name": "proxiableUUID",
      "outputs": [
        {
          "internalType": "bytes32",
          "name": "",
          "type": "bytes32"
        }
      ],
      "stateMutability": "view",
      "type": "function"
    },
    {
      "inputs": [],
      "name": "renounceOwnership",
      "outputs": [],
      "stateMutability": "nonpayable",
      "type": "function"
    },
    {
      "inputs": [
        {
          "internalType": "address",
          "name": "account",
          "type": "address"
        }
      ],
      "name": "setSigner",
      "outputs": [],
      "stateMutability": "nonpayable",
      "type": "function"
    },
    {
      "inputs": [],
      "name": "signer",
      "outputs": [
        {
          "internalType": "address",
          "name": "",
          "type": "address"
        }
      ],
      "stateMutability": "view",
      "type": "function"
    },
    {
      "inputs": [
        {
          "internalType": "bytes4",
          "name": "interfaceId",
          "type": "bytes4"
        }
      ],
      "name": "supportsInterface",
      "outputs": [
        {
          "internalType": "bool",
          "name": "",
          "type": "bool"
        }
      ],
      "stateMutability": "view",
      "type": "function"
    },
    {
      "inputs": [],
      "name": "totalConverts",
      "outputs": [
        {
          "internalType": "uint256",
          "name": "",
          "type": "uint256"
        }
      ],
      "stateMutability": "view",
      "type": "function"
    },
    {
      "inputs": [
        {
          "internalType": "address",
          "name": "newOwner",
          "type": "address"
        }
      ],
      "name": "transferOwnership",
      "outputs": [],
      "stateMutability": "nonpayable",
      "type": "function"
    },
    {
      "inputs": [
        {
          "internalType": "address",
          "name": "newImplementation",
          "type": "address"
        }
      ],
      "name": "upgradeTo",
      "outputs": [],
      "stateMutability": "nonpayable",
      "type": "function"
    },
    {
      "inputs": [
        {
          "internalType": "address",
          "name": "newImplementation",
          "type": "address"
        },
        {
          "internalType": "bytes",
          "name": "data",
          "type": "bytes"
        }
      ],
      "name": "upgradeToAndCall",
      "outputs": [],
      "stateMutability": "payable",
      "type": "function"
    }
  ],
  "bytecode": "0x60a06040523060805234801561001457600080fd5b506080516123ad61004c600039600081816105040152818161054d01528181610bab01528181610beb0152610c7a01526123ad6000f3fe60806040526004361061012a5760003560e01c80636c19e783116100ab5780638e9203511161006f5780638e920351146103975780639ee66772146103ac578063bc197c81146103d9578063c4d66de814610405578063f23a6e6114610425578063f2fde38b1461045157600080fd5b80636c19e783146102f2578063715018a6146103125780638c1787ea146103275780638da5cb5b1461033e5780638e3d792a1461035c57600080fd5b80633659cfe6116100f25780633659cfe614610229578063440f56221461024b5780634f1ef2861461025e57806352d1902d146102715780635631dacd1461028657600080fd5b806301ffc9a71461012f5780630c845d9814610164578063150b7a0214610192578063238ac933146101d6578063238dafe01461020e575b600080fd5b34801561013b57600080fd5b5061014f61014a3660046119e9565b610471565b60405190151581526020015b60405180910390f35b34801561017057600080fd5b5061018461017f366004611be4565b6104a8565b60405190815260200161015b565b34801561019e57600080fd5b506101bd6101ad366004611c91565b630a85bd0160e11b949350505050565b6040516001600160e01b0319909116815260200161015b565b3480156101e257600080fd5b5060fc546101f6906001600160a01b031681565b6040516001600160a01b03909116815260200161015b565b34801561021a57600080fd5b506101c55461014f9060ff1681565b34801561023557600080fd5b50610249610244366004611cf9565b6104fa565b005b610249610259366004611d14565b6105e2565b61024961026c366004611d78565b610ba1565b34801561027d57600080fd5b50610184610c6d565b34801561029257600080fd5b506102e16102a1366004611dbc565b6101c76020526000908152604090208054600182015460048301546005909301546001600160a01b0380841694600160a01b90940460ff16939216919085565b60405161015b959493929190611e0d565b3480156102fe57600080fd5b5061024961030d366004611cf9565b610d20565b34801561031e57600080fd5b50610249610d72565b34801561033357600080fd5b506101846101c65481565b34801561034a57600080fd5b5060c9546001600160a01b03166101f6565b34801561036857600080fd5b5061014f610377366004611e49565b805160208183018101805160fb8252928201919093012091525460ff1681565b3480156103a357600080fd5b50610249610d86565b3480156103b857600080fd5b506103cc6103c7366004611dbc565b610da3565b60405161015b9190611eb9565b3480156103e557600080fd5b506101bd6103f4366004611f47565b63bc197c8160e01b95945050505050565b34801561041157600080fd5b50610249610420366004611cf9565b610f26565b34801561043157600080fd5b506101bd610440366004611ff1565b63f23a6e6160e01b95945050505050565b34801561045d57600080fd5b5061024961046c366004611cf9565b611048565b60006001600160e01b03198216630271189760e51b14806104a257506301ffc9a760e01b6001600160e01b03198316145b92915050565b80516020808301516040808501516060860151608087015160a088015160c089015194516000986104dd98909796910161207b565b604051602081830303815290604052805190602001209050919050565b6001600160a01b037f000000000000000000000000000000000000000000000000000000000000000016300361054b5760405162461bcd60e51b8152600401610542906120f2565b60405180910390fd5b7f00000000000000000000000000000000000000000000000000000000000000006001600160a01b0316610594600080516020612331833981519152546001600160a01b031690565b6001600160a01b0316146105ba5760405162461bcd60e51b81526004016105429061213e565b6105c3816110be565b604080516000808252602082019092526105df918391906110c6565b50565b6105ea611236565b6101c55460ff1661062b5760405162461bcd60e51b815260206004820152600b60248201526a1b9bdd08195b98589b195960aa1b6044820152606401610542565b81513382610638856104a8565b826001600160a01b0316846001600160a01b0316146040518060400160405280600e81526020016d2bb937b733903932b1b2b4bb32b960911b815250906106925760405162461bcd60e51b815260040161054291906121b6565b5061069c8261128f565b1560405180604001604052806011815260200170496e76616c6964205369676e617475726560781b815250906106e55760405162461bcd60e51b815260040161054291906121b6565b506106ef826112ba565b60006107126106fe84846112ef565b60fc546001600160a01b0390811691161490565b90508060405180604001604052806011815260200170496e76616c6964205369676e617475726560781b8152509061075d5760405162461bcd60e51b815260040161054291906121b6565b5060408701516001600160a01b031661079c5760405162461bcd60e51b81526020600482015260016024820152600360fc1b6044820152606401610542565b6001876020015160028111156107b4576107b4611dd5565b0361080457866080015151876060015151146108045760405162461bcd60e51b815260206004820152600f60248201526e696e76616c696420616d6f756e747360881b6044820152606401610542565b60028760200151600281111561081c5761081c611dd5565b036108a85760408088015160a089015191516323b872dd60e01b815233600482015230602482015260448101929092526001600160a01b0316906323b872dd906064016020604051808303816000875af115801561087e573d6000803e3d6000fd5b505050506040513d601f19601f820116820180604052508101906108a291906121e9565b50610a54565b6000876020015160028111156108c0576108c0611dd5565b036109855760005b8760600151518110156108a25787604001516001600160a01b03166342842e0e33308b6060015185815181106109005761090061220b565b60209081029190910101516040516001600160e01b031960e086901b1681526001600160a01b0393841660048201529290911660248301526044820152606401600060405180830381600087803b15801561095a57600080fd5b505af115801561096e573d6000803e3d6000fd5b50505050808061097d90612221565b9150506108c8565b60018760200151600281111561099d5761099d611dd5565b03610a1757604080880151606089015160808a01519251631759616b60e11b81526001600160a01b0390921692632eb2c2d6926109e09233923092600401612248565b600060405180830381600087803b1580156109fa57600080fd5b505af1158015610a0e573d6000803e3d6000fd5b50505050610a54565b60405162461bcd60e51b8152602060048201526012602482015271696e76616c6964206173736574207479706560701b6044820152606401610542565b6101c65460009081526101c760209081526040909120885181546001600160a01b031981166001600160a01b039092169182178355928a01518a93909183916001600160a81b03191617600160a01b836002811115610ab557610ab5611dd5565b021790555060408201516001820180546001600160a01b0319166001600160a01b0390921691909117905560608201518051610afb916002840191602090910190611989565b5060808201518051610b17916003840191602090910190611989565b5060a0820151816004015560c0820151816005015590505086600001516001600160a01b03167fe1fffcc4923d04b559f4d29a8bfc6cda04eb5b0d3c460751c2402c5c5cc9109c6101c654604051610b7191815260200190565b60405180910390a26101c68054906000610b8a83612221565b91905055505050505050610b9d60018055565b5050565b6001600160a01b037f0000000000000000000000000000000000000000000000000000000000000000163003610be95760405162461bcd60e51b8152600401610542906120f2565b7f00000000000000000000000000000000000000000000000000000000000000006001600160a01b0316610c32600080516020612331833981519152546001600160a01b031690565b6001600160a01b031614610c585760405162461bcd60e51b81526004016105429061213e565b610c61826110be565b610b9d828260016110c6565b6000306001600160a01b037f00000000000000000000000000000000000000000000000000000000000000001614610d0d5760405162461bcd60e51b815260206004820152603860248201527f555550535570677261646561626c653a206d757374206e6f742062652063616c60448201527f6c6564207468726f7567682064656c656761746563616c6c00000000000000006064820152608401610542565b5060008051602061233183398151915290565b610d28611311565b60fc80546001600160a01b0319166001600160a01b0383169081179091556040517f1d4fc2100fc6a16b01f961ed088b79195c405adc33f92ae3a76e70662cb2096f90600090a250565b610d7a611311565b610d84600061136b565b565b610d8e611311565b6101c5805460ff19811660ff90911615179055565b610ded6040805160e0810190915260008082526020820190815260200160006001600160a01b03168152602001606081526020016060815260200160008152602001600081525090565b60008281526101c76020908152604091829020825160e0810190935280546001600160a01b03811684529091830190600160a01b900460ff166002811115610e3757610e37611dd5565b6002811115610e4857610e48611dd5565b815260018201546001600160a01b03166020808301919091526002830180546040805182850281018501825282815294019392830182828015610eaa57602002820191906000526020600020905b815481526020019060010190808311610e96575b5050505050815260200160038201805480602002602001604051908101604052809291908181526020018280548015610f0257602002820191906000526020600020905b815481526020019060010190808311610eee575b50505050508152602001600482015481526020016005820154815250509050919050565b600054610100900460ff1615808015610f465750600054600160ff909116105b80610f605750303b158015610f60575060005460ff166001145b610fc35760405162461bcd60e51b815260206004820152602e60248201527f496e697469616c697a61626c653a20636f6e747261637420697320616c72656160448201526d191e481a5b9a5d1a585b1a5e995960921b6064820152608401610542565b6000805460ff191660011790558015610fe6576000805461ff0019166101001790555b610fee6113bd565b610ff66113ec565b610fff8261141b565b8015610b9d576000805461ff0019169055604051600181527f7f26b83ff96e1f2b6a682f133852f6798a09c465da95921460cefb38474024989060200160405180910390a15050565b611050611311565b6001600160a01b0381166110b55760405162461bcd60e51b815260206004820152602660248201527f4f776e61626c653a206e6577206f776e657220697320746865207a65726f206160448201526564647265737360d01b6064820152608401610542565b6105df8161136b565b6105df611311565b7f4910fdfa16fed3260ed0e7147f7cc6da11a60208b5b9406d12a635614ffd91435460ff16156110fe576110f983611442565b505050565b826001600160a01b03166352d1902d6040518163ffffffff1660e01b8152600401602060405180830381865afa925050508015611158575060408051601f3d908101601f19168201909252611155918101906122b0565b60015b6111bb5760405162461bcd60e51b815260206004820152602e60248201527f45524331393637557067726164653a206e657720696d706c656d656e7461746960448201526d6f6e206973206e6f74205555505360901b6064820152608401610542565b600080516020612331833981519152811461122a5760405162461bcd60e51b815260206004820152602960248201527f45524331393637557067726164653a20756e737570706f727465642070726f786044820152681a58589b195555525160ba1b6064820152608401610542565b506110f98383836114de565b6002600154036112885760405162461bcd60e51b815260206004820152601f60248201527f5265656e7472616e637947756172643a207265656e7472616e742063616c6c006044820152606401610542565b6002600155565b600060fb826040516112a191906122c9565b9081526040519081900360200190205460ff1692915050565b600160fb826040516112cc91906122c9565b908152604051908190036020019020805491151560ff1990921691909117905550565b6000611304836112fe84611509565b90611544565b9392505050565b60018055565b60c9546001600160a01b03163314610d845760405162461bcd60e51b815260206004820181905260248201527f4f776e61626c653a2063616c6c6572206973206e6f7420746865206f776e65726044820152606401610542565b60c980546001600160a01b038381166001600160a01b0319831681179093556040519116919082907f8be0079c531659141344cd1fd0a4f28419497f9722a3daafe3b4186f6b6457e090600090a35050565b600054610100900460ff166113e45760405162461bcd60e51b8152600401610542906122e5565b610d84611568565b600054610100900460ff166114135760405162461bcd60e51b8152600401610542906122e5565b610d84611598565b600054610100900460ff16610d285760405162461bcd60e51b8152600401610542906122e5565b6001600160a01b0381163b6114af5760405162461bcd60e51b815260206004820152602d60248201527f455243313936373a206e657720696d706c656d656e746174696f6e206973206e60448201526c1bdd08184818dbdb9d1c9858dd609a1b6064820152608401610542565b60008051602061233183398151915280546001600160a01b0319166001600160a01b0392909216919091179055565b6114e7836115bf565b6000825111806114f45750805b156110f95761150383836115ff565b50505050565b6040517f19457468657265756d205369676e6564204d6573736167653a0a3332000000006020820152603c8101829052600090605c016104dd565b600080600061155385856116f3565b9150915061156081611738565b509392505050565b600054610100900460ff1661158f5760405162461bcd60e51b8152600401610542906122e5565b610d843361136b565b600054610100900460ff1661130b5760405162461bcd60e51b8152600401610542906122e5565b6115c881611442565b6040516001600160a01b038216907fbc7cd75a20ee27fd9adebab32041f755214dbc6bffa90cc0225b39da2e5c2d3b90600090a250565b60606001600160a01b0383163b6116675760405162461bcd60e51b815260206004820152602660248201527f416464726573733a2064656c65676174652063616c6c20746f206e6f6e2d636f6044820152651b9d1c9858dd60d21b6064820152608401610542565b600080846001600160a01b03168460405161168291906122c9565b600060405180830381855af49150503d80600081146116bd576040519150601f19603f3d011682016040523d82523d6000602084013e6116c2565b606091505b50915091506116ea828260405180606001604052806027815260200161235160279139611882565b95945050505050565b60008082516041036117295760208301516040840151606085015160001a61171d8782858561189b565b94509450505050611731565b506000905060025b9250929050565b600081600481111561174c5761174c611dd5565b036117545750565b600181600481111561176857611768611dd5565b036117b55760405162461bcd60e51b815260206004820152601860248201527f45434453413a20696e76616c6964207369676e617475726500000000000000006044820152606401610542565b60028160048111156117c9576117c9611dd5565b036118165760405162461bcd60e51b815260206004820152601f60248201527f45434453413a20696e76616c6964207369676e6174757265206c656e677468006044820152606401610542565b600381600481111561182a5761182a611dd5565b036105df5760405162461bcd60e51b815260206004820152602260248201527f45434453413a20696e76616c6964207369676e6174757265202773272076616c604482015261756560f01b6064820152608401610542565b60608315611891575081611304565b611304838361195f565b6000807f7fffffffffffffffffffffffffffffff5d576e7357a4501ddfe92f46681b20a08311156118d25750600090506003611956565b6040805160008082526020820180845289905260ff881692820192909252606081018690526080810185905260019060a0016020604051602081039080840390855afa158015611926573d6000803e3d6000fd5b5050604051601f1901519150506001600160a01b03811661194f57600060019250925050611956565b9150600090505b94509492505050565b81511561196f5781518083602001fd5b8060405162461bcd60e51b815260040161054291906121b6565b8280548282559060005260206000209081019282156119c4579160200282015b828111156119c45782518255916020019190600101906119a9565b506119d09291506119d4565b5090565b5b808211156119d057600081556001016119d5565b6000602082840312156119fb57600080fd5b81356001600160e01b03198116811461130457600080fd5b634e487b7160e01b600052604160045260246000fd5b60405160e0810167ffffffffffffffff81118282101715611a4c57611a4c611a13565b60405290565b604051601f8201601f1916810167ffffffffffffffff81118282101715611a7b57611a7b611a13565b604052919050565b80356001600160a01b0381168114611a9a57600080fd5b919050565b803560038110611a9a57600080fd5b600082601f830112611abf57600080fd5b8135602067ffffffffffffffff821115611adb57611adb611a13565b8160051b611aea828201611a52565b9283528481018201928281019087851115611b0457600080fd5b83870192505b84831015611b2357823582529183019190830190611b0a565b979650505050505050565b600060e08284031215611b4057600080fd5b611b48611a29565b9050611b5382611a83565b8152611b6160208301611a9f565b6020820152611b7260408301611a83565b6040820152606082013567ffffffffffffffff80821115611b9257600080fd5b611b9e85838601611aae565b60608401526080840135915080821115611bb757600080fd5b50611bc484828501611aae565b60808301525060a082013560a082015260c082013560c082015292915050565b600060208284031215611bf657600080fd5b813567ffffffffffffffff811115611c0d57600080fd5b611c1984828501611b2e565b949350505050565b600082601f830112611c3257600080fd5b813567ffffffffffffffff811115611c4c57611c4c611a13565b611c5f601f8201601f1916602001611a52565b818152846020838601011115611c7457600080fd5b816020850160208301376000918101602001919091529392505050565b60008060008060808587031215611ca757600080fd5b611cb085611a83565b9350611cbe60208601611a83565b925060408501359150606085013567ffffffffffffffff811115611ce157600080fd5b611ced87828801611c21565b91505092959194509250565b600060208284031215611d0b57600080fd5b61130482611a83565b60008060408385031215611d2757600080fd5b823567ffffffffffffffff80821115611d3f57600080fd5b611d4b86838701611b2e565b93506020850135915080821115611d6157600080fd5b50611d6e85828601611c21565b9150509250929050565b60008060408385031215611d8b57600080fd5b611d9483611a83565b9150602083013567ffffffffffffffff811115611db057600080fd5b611d6e85828601611c21565b600060208284031215611dce57600080fd5b5035919050565b634e487b7160e01b600052602160045260246000fd5b60038110611e0957634e487b7160e01b600052602160045260246000fd5b9052565b6001600160a01b03868116825260a0820190611e2c6020840188611deb565b949094166040820152606081019290925260809091015292915050565b600060208284031215611e5b57600080fd5b813567ffffffffffffffff811115611e7257600080fd5b611c1984828501611c21565b600081518084526020808501945080840160005b83811015611eae57815187529582019590820190600101611e92565b509495945050505050565b60208152600060018060a01b038084511660208401526020840151611ee16040850182611deb565b5080604085015116606084015250606083015160e06080840152611f09610100840182611e7e565b90506080840151601f198483030160a0850152611f268282611e7e565b91505060a084015160c084015260c084015160e08401528091505092915050565b600080600080600060a08688031215611f5f57600080fd5b611f6886611a83565b9450611f7660208701611a83565b9350604086013567ffffffffffffffff80821115611f9357600080fd5b611f9f89838a01611aae565b94506060880135915080821115611fb557600080fd5b611fc189838a01611aae565b93506080880135915080821115611fd757600080fd5b50611fe488828901611c21565b9150509295509295909350565b600080600080600060a0868803121561200957600080fd5b61201286611a83565b945061202060208701611a83565b93506040860135925060608601359150608086013567ffffffffffffffff81111561204a57600080fd5b611fe488828901611c21565b80516000906020808401838315611eae57815187529582019590820190600101611e92565b60006bffffffffffffffffffffffff19808a60601b168352600389106120b157634e487b7160e01b600052602160045260246000fd5b8860f81b6014840152808860601b166015840152506120dc6120d66029840188612056565b86612056565b9384525050602082015260400195945050505050565b6020808252602c908201527f46756e6374696f6e206d7573742062652063616c6c6564207468726f7567682060408201526b19195b1959d85d1958d85b1b60a21b606082015260800190565b6020808252602c908201527f46756e6374696f6e206d7573742062652063616c6c6564207468726f7567682060408201526b6163746976652070726f787960a01b606082015260800190565b60005b838110156121a557818101518382015260200161218d565b838111156115035750506000910152565b60208152600082518060208401526121d581604085016020870161218a565b601f01601f19169190910160400192915050565b6000602082840312156121fb57600080fd5b8151801515811461130457600080fd5b634e487b7160e01b600052603260045260246000fd5b60006001820161224157634e487b7160e01b600052601160045260246000fd5b5060010190565b6001600160a01b0385811682528416602082015260a06040820181905260009061227490830185611e7e565b82810360608401526122868185611e7e565b838103608090940193909352505060048152630307830360e41b6020820152604001949350505050565b6000602082840312156122c257600080fd5b5051919050565b600082516122db81846020870161218a565b9190910192915050565b6020808252602b908201527f496e697469616c697a61626c653a20636f6e7472616374206973206e6f74206960408201526a6e697469616c697a696e6760a81b60608201526080019056fe360894a13ba1a3210667c828492db98dca3e2076cc3735a920a3ca505d382bbc416464726573733a206c6f772d6c6576656c2064656c65676174652063616c6c206661696c6564a2646970667358221220efcecdce121a7db18b6b5a98bc2716e6f72838c278687585e60399f8ee80d22e64736f6c634300080f0033",
  "linkReferences": {},
  "deployedLinkReferences": {}
}