{
  "_format": "hh-sol-artifact-1",
  "contractName": "VoucherConverter",
  "sourceName": "contracts/vouchers/VoucherConverter.sol",
  "abi": [
    {
      "anonymous": false,
      "inputs": [
        {
          "indexed": false,
          "internalType": "address",
          "name": "previousAdmin",
          "type": "address"
        },
        {
          "indexed": false,
          "internalType": "address",
          "name": "newAdmin",
          "type": "address"
        }
      ],
      "name": "AdminChanged",
      "type": "event"
    },
    {
      "anonymous": false,
      "inputs": [
        {
          "indexed": true,
          "internalType": "address",
          "name": "beacon",
          "type": "address"
        }
      ],
      "name": "BeaconUpgraded",
      "type": "event"
    },
    {
      "anonymous": false,
      "inputs": [
        {
          "indexed": true,
          "internalType": "address",
          "name": "account",
          "type": "address"
        },
        {
          "indexed": false,
          "internalType": "uint256",
          "name": "nonce",
          "type": "uint256"
        }
      ],
      "name": "Deposit",
      "type": "event"
    },
    {
      "anonymous": false,
      "inputs": [
        {
          "indexed": false,
          "internalType": "uint8",
          "name": "version",
          "type": "uint8"
        }
      ],
      "name": "Initialized",
      "type": "event"
    },
    {
      "anonymous": false,
      "inputs": [
        {
          "indexed": true,
          "internalType": "address",
          "name": "previousOwner",
          "type": "address"
        },
        {
          "indexed": true,
          "internalType": "address",
          "name": "newOwner",
          "type": "address"
        }
      ],
      "name": "OwnershipTransferred",
      "type": "event"
    },
    {
      "anonymous": false,
      "inputs": [
        {
          "indexed": true,
          "internalType": "address",
          "name": "account",
          "type": "address"
        }
      ],
      "name": "SignerAdded",
      "type": "event"
    },
    {
      "anonymous": false,
      "inputs": [
        {
          "indexed": true,
          "internalType": "address",
          "name": "account",
          "type": "address"
        }
      ],
      "name": "SignerChange",
      "type": "event"
    },
    {
      "anonymous": false,
      "inputs": [
        {
          "indexed": true,
          "internalType": "address",
          "name": "account",
          "type": "address"
        }
      ],
      "name": "SignerRemoved",
      "type": "event"
    },
    {
      "anonymous": false,
      "inputs": [
        {
          "indexed": true,
          "internalType": "address",
          "name": "implementation",
          "type": "address"
        }
      ],
      "name": "Upgraded",
      "type": "event"
    },
    {
      "inputs": [
        {
          "internalType": "bytes",
          "name": "",
          "type": "bytes"
        }
      ],
      "name": "UsedSignatures",
      "outputs": [
        {
          "internalType": "bool",
          "name": "",
          "type": "bool"
        }
      ],
      "stateMutability": "view",
      "type": "function"
    },
    {
      "inputs": [
        {
          "internalType": "uint256",
          "name": "",
          "type": "uint256"
        }
      ],
      "name": "convertedAssets",
      "outputs": [
        {
          "internalType": "address",
          "name": "receiver",
          "type": "address"
        },
        {
          "internalType": "enum AssetType",
          "name": "assetType",
          "type": "uint8"
        },
        {
          "internalType": "address",
          "name": "assetAddress",
          "type": "address"
        },
        {
          "internalType": "uint256",
          "name": "amount",
          "type": "uint256"
        }
      ],
      "stateMutability": "view",
      "type": "function"
    },
    {
      "inputs": [
        {
          "components": [
            {
              "internalType": "address",
              "name": "receiver",
              "type": "address"
            },
            {
              "internalType": "enum AssetType",
              "name": "assetType",
              "type": "uint8"
            },
            {
              "internalType": "address",
              "name": "assetAddress",
              "type": "address"
            },
            {
              "internalType": "uint256[]",
              "name": "tokenIds",
              "type": "uint256[]"
            },
            {
              "internalType": "uint256[]",
              "name": "amounts",
              "type": "uint256[]"
            },
            {
              "internalType": "uint256",
              "name": "amount",
              "type": "uint256"
            }
          ],
          "internalType": "struct ConverterPayload",
          "name": "payload",
          "type": "tuple"
        },
        {
          "internalType": "bytes",
          "name": "signature",
          "type": "bytes"
        }
      ],
      "name": "createVoucher",
      "outputs": [],
      "stateMutability": "payable",
      "type": "function"
    },
    {
      "inputs": [],
      "name": "enabled",
      "outputs": [
        {
          "internalType": "bool",
          "name": "",
          "type": "bool"
        }
      ],
      "stateMutability": "view",
      "type": "function"
    },
    {
      "inputs": [
        {
          "components": [
            {
              "internalType": "address",
              "name": "receiver",
              "type": "address"
            },
            {
              "internalType": "enum AssetType",
              "name": "assetType",
              "type": "uint8"
            },
            {
              "internalType": "address",
              "name": "assetAddress",
              "type": "address"
            },
            {
              "internalType": "uint256[]",
              "name": "tokenIds",
              "type": "uint256[]"
            },
            {
              "internalType": "uint256[]",
              "name": "amounts",
              "type": "uint256[]"
            },
            {
              "internalType": "uint256",
              "name": "amount",
              "type": "uint256"
            }
          ],
          "internalType": "struct ConverterPayload",
          "name": "payload",
          "type": "tuple"
        }
      ],
      "name": "encodePackedMintData",
      "outputs": [
        {
          "internalType": "bytes32",
          "name": "",
          "type": "bytes32"
        }
      ],
      "stateMutability": "pure",
      "type": "function"
    },
    {
      "inputs": [],
      "name": "flipState",
      "outputs": [],
      "stateMutability": "nonpayable",
      "type": "function"
    },
    {
      "inputs": [
        {
          "internalType": "uint256",
          "name": "nonce",
          "type": "uint256"
        }
      ],
      "name": "getConvertedAssets",
      "outputs": [
        {
          "components": [
            {
              "internalType": "address",
              "name": "receiver",
              "type": "address"
            },
            {
              "internalType": "enum AssetType",
              "name": "assetType",
              "type": "uint8"
            },
            {
              "internalType": "address",
              "name": "assetAddress",
              "type": "address"
            },
            {
              "internalType": "uint256[]",
              "name": "tokenIds",
              "type": "uint256[]"
            },
            {
              "internalType": "uint256[]",
              "name": "amounts",
              "type": "uint256[]"
            },
            {
              "internalType": "uint256",
              "name": "amount",
              "type": "uint256"
            }
          ],
          "internalType": "struct ConverterPayload",
          "name": "",
          "type": "tuple"
        }
      ],
      "stateMutability": "view",
      "type": "function"
    },
    {
      "inputs": [
        {
          "internalType": "address",
          "name": "_signer",
          "type": "address"
        }
      ],
      "name": "initialize",
      "outputs": [],
      "stateMutability": "nonpayable",
      "type": "function"
    },
    {
      "inputs": [
        {
          "internalType": "address",
          "name": "",
          "type": "address"
        },
        {
          "internalType": "address",
          "name": "",
          "type": "address"
        },
        {
          "internalType": "uint256[]",
          "name": "",
          "type": "uint256[]"
        },
        {
          "internalType": "uint256[]",
          "name": "",
          "type": "uint256[]"
        },
        {
          "internalType": "bytes",
          "name": "",
          "type": "bytes"
        }
      ],
      "name": "onERC1155BatchReceived",
      "outputs": [
        {
          "internalType": "bytes4",
          "name": "",
          "type": "bytes4"
        }
      ],
      "stateMutability": "nonpayable",
      "type": "function"
    },
    {
      "inputs": [
        {
          "internalType": "address",
          "name": "",
          "type": "address"
        },
        {
          "internalType": "address",
          "name": "",
          "type": "address"
        },
        {
          "internalType": "uint256",
          "name": "",
          "type": "uint256"
        },
        {
          "internalType": "uint256",
          "name": "",
          "type": "uint256"
        },
        {
          "internalType": "bytes",
          "name": "",
          "type": "bytes"
        }
      ],
      "name": "onERC1155Received",
      "outputs": [
        {
          "internalType": "bytes4",
          "name": "",
          "type": "bytes4"
        }
      ],
      "stateMutability": "nonpayable",
      "type": "function"
    },
    {
      "inputs": [
        {
          "internalType": "address",
          "name": "",
          "type": "address"
        },
        {
          "internalType": "address",
          "name": "",
          "type": "address"
        },
        {
          "internalType": "uint256",
          "name": "",
          "type": "uint256"
        },
        {
          "internalType": "bytes",
          "name": "",
          "type": "bytes"
        }
      ],
      "name": "onERC721Received",
      "outputs": [
        {
          "internalType": "bytes4",
          "name": "",
          "type": "bytes4"
        }
      ],
      "stateMutability": "nonpayable",
      "type": "function"
    },
    {
      "inputs": [],
      "name": "owner",
      "outputs": [
        {
          "internalType": "address",
          "name": "",
          "type": "address"
        }
      ],
      "stateMutability": "view",
      "type": "function"
    },
    {
      "inputs": [],
      "name": "proxiableUUID",
      "outputs": [
        {
          "internalType": "bytes32",
          "name": "",
          "type": "bytes32"
        }
      ],
      "stateMutability": "view",
      "type": "function"
    },
    {
      "inputs": [],
      "name": "renounceOwnership",
      "outputs": [],
      "stateMutability": "nonpayable",
      "type": "function"
    },
    {
      "inputs": [
        {
          "internalType": "address",
          "name": "account",
          "type": "address"
        }
      ],
      "name": "setSigner",
      "outputs": [],
      "stateMutability": "nonpayable",
      "type": "function"
    },
    {
      "inputs": [],
      "name": "signer",
      "outputs": [
        {
          "internalType": "address",
          "name": "",
          "type": "address"
        }
      ],
      "stateMutability": "view",
      "type": "function"
    },
    {
      "inputs": [
        {
          "internalType": "bytes4",
          "name": "interfaceId",
          "type": "bytes4"
        }
      ],
      "name": "supportsInterface",
      "outputs": [
        {
          "internalType": "bool",
          "name": "",
          "type": "bool"
        }
      ],
      "stateMutability": "view",
      "type": "function"
    },
    {
      "inputs": [],
      "name": "totalConverts",
      "outputs": [
        {
          "internalType": "uint256",
          "name": "",
          "type": "uint256"
        }
      ],
      "stateMutability": "view",
      "type": "function"
    },
    {
      "inputs": [
        {
          "internalType": "address",
          "name": "newOwner",
          "type": "address"
        }
      ],
      "name": "transferOwnership",
      "outputs": [],
      "stateMutability": "nonpayable",
      "type": "function"
    },
    {
      "inputs": [
        {
          "internalType": "address",
          "name": "newImplementation",
          "type": "address"
        }
      ],
      "name": "upgradeTo",
      "outputs": [],
      "stateMutability": "nonpayable",
      "type": "function"
    },
    {
      "inputs": [
        {
          "internalType": "address",
          "name": "newImplementation",
          "type": "address"
        },
        {
          "internalType": "bytes",
          "name": "data",
          "type": "bytes"
        }
      ],
      "name": "upgradeToAndCall",
      "outputs": [],
      "stateMutability": "payable",
      "type": "function"
    }
  ],
  "bytecode": "0x60a06040523060805234801561001457600080fd5b506080516122e761004c600039600081816104f701528181610540015281816105df0152818161061f01526106b201526122e76000f3fe60806040526004361061012a5760003560e01c8063715018a6116100ab5780639ee667721161006f5780639ee6677214610391578063bc197c81146103be578063c4d66de8146103ea578063cf3026eb1461040a578063f23a6e611461041d578063f2fde38b1461044957600080fd5b8063715018a6146102f75780638c1787ea1461030c5780638da5cb5b146103235780638e3d792a146103415780638e9203511461037c57600080fd5b80633659cfe6116100f25780633659cfe6146102295780634f1ef2861461024b57806352d1902d1461025e5780635631dacd146102735780636c19e783146102d757600080fd5b806301ffc9a71461012f578063150b7a021461016457806315778e93146101a8578063238ac933146101d6578063238dafe01461020e575b600080fd5b34801561013b57600080fd5b5061014f61014a366004611947565b610469565b60405190151581526020015b60405180910390f35b34801561017057600080fd5b5061018f61017f366004611a6d565b630a85bd0160e11b949350505050565b6040516001600160e01b0319909116815260200161015b565b3480156101b457600080fd5b506101c86101c3366004611c10565b6104a0565b60405190815260200161015b565b3480156101e257600080fd5b5060fc546101f6906001600160a01b031681565b6040516001600160a01b03909116815260200161015b565b34801561021a57600080fd5b506101c55461014f9060ff1681565b34801561023557600080fd5b50610249610244366004611c4d565b6104ed565b005b610249610259366004611c68565b6105d5565b34801561026a57600080fd5b506101c86106a5565b34801561027f57600080fd5b506102c761028e366004611cb6565b6101c7602052600090815260409020805460018201546004909201546001600160a01b0380831693600160a01b90930460ff1692169084565b60405161015b9493929190611d07565b3480156102e357600080fd5b506102496102f2366004611c4d565b610758565b34801561030357600080fd5b506102496107aa565b34801561031857600080fd5b506101c86101c65481565b34801561032f57600080fd5b5060c9546001600160a01b03166101f6565b34801561034d57600080fd5b5061014f61035c366004611d39565b805160208183018101805160fb8252928201919093012091525460ff1681565b34801561038857600080fd5b506102496107be565b34801561039d57600080fd5b506103b16103ac366004611cb6565b6107db565b60405161015b9190611da9565b3480156103ca57600080fd5b5061018f6103d9366004611e2c565b63bc197c8160e01b95945050505050565b3480156103f657600080fd5b50610249610405366004611c4d565b61093b565b610249610418366004611ed6565b610a5d565b34801561042957600080fd5b5061018f610438366004611f30565b63f23a6e6160e01b95945050505050565b34801561045557600080fd5b50610249610464366004611c4d565b610fa6565b60006001600160e01b03198216630271189760e51b148061049a57506301ffc9a760e01b6001600160e01b03198316145b92915050565b80516020808301516040808501516060860151608087015160a088015193516000976104d0979096959101611fba565b604051602081830303815290604052805190602001209050919050565b6001600160a01b037f000000000000000000000000000000000000000000000000000000000000000016300361053e5760405162461bcd60e51b81526004016105359061202c565b60405180910390fd5b7f00000000000000000000000000000000000000000000000000000000000000006001600160a01b031661058760008051602061226b833981519152546001600160a01b031690565b6001600160a01b0316146105ad5760405162461bcd60e51b815260040161053590612078565b6105b68161101c565b604080516000808252602082019092526105d291839190611024565b50565b6001600160a01b037f000000000000000000000000000000000000000000000000000000000000000016300361061d5760405162461bcd60e51b81526004016105359061202c565b7f00000000000000000000000000000000000000000000000000000000000000006001600160a01b031661066660008051602061226b833981519152546001600160a01b031690565b6001600160a01b03161461068c5760405162461bcd60e51b815260040161053590612078565b6106958261101c565b6106a182826001611024565b5050565b6000306001600160a01b037f000000000000000000000000000000000000000000000000000000000000000016146107455760405162461bcd60e51b815260206004820152603860248201527f555550535570677261646561626c653a206d757374206e6f742062652063616c60448201527f6c6564207468726f7567682064656c656761746563616c6c00000000000000006064820152608401610535565b5060008051602061226b83398151915290565b610760611194565b60fc80546001600160a01b0319166001600160a01b0383169081179091556040517f1d4fc2100fc6a16b01f961ed088b79195c405adc33f92ae3a76e70662cb2096f90600090a250565b6107b2611194565b6107bc60006111ee565b565b6107c6611194565b6101c5805460ff19811660ff90911615179055565b6040805160c0810182526000808252602082018190529181018290526060808201819052608082015260a081019190915260008281526101c76020908152604091829020825160c0810190935280546001600160a01b03811684529091830190600160a01b900460ff16600281111561085657610856611ccf565b600281111561086757610867611ccf565b815260018201546001600160a01b031660208083019190915260028301805460408051828502810185018252828152940193928301828280156108c957602002820191906000526020600020905b8154815260200190600101908083116108b5575b505050505081526020016003820180548060200260200160405190810160405280929190818152602001828054801561092157602002820191906000526020600020905b81548152602001906001019080831161090d575b505050505081526020016004820154815250509050919050565b600054610100900460ff161580801561095b5750600054600160ff909116105b806109755750303b158015610975575060005460ff166001145b6109d85760405162461bcd60e51b815260206004820152602e60248201527f496e697469616c697a61626c653a20636f6e747261637420697320616c72656160448201526d191e481a5b9a5d1a585b1a5e995960921b6064820152608401610535565b6000805460ff1916600117905580156109fb576000805461ff0019166101001790555b610a03611240565b610a0b61126f565b610a148261129e565b80156106a1576000805461ff0019169055604051600181527f7f26b83ff96e1f2b6a682f133852f6798a09c465da95921460cefb38474024989060200160405180910390a15050565b610a656112c5565b6101c55460ff16610aa65760405162461bcd60e51b815260206004820152600b60248201526a1b9bdd08195b98589b195960aa1b6044820152606401610535565b81513382610ab3856104a0565b826001600160a01b0316846001600160a01b0316146040518060400160405280600e81526020016d2bb937b733903932b1b2b4bb32b960911b81525090610b0d5760405162461bcd60e51b815260040161053591906120f0565b50610b178261131e565b1560405180604001604052806011815260200170496e76616c6964205369676e617475726560781b81525090610b605760405162461bcd60e51b815260040161053591906120f0565b50610b6a82611349565b6000610b8d610b79848461137e565b60fc546001600160a01b0390811691161490565b90508060405180604001604052806011815260200170496e76616c6964205369676e617475726560781b81525090610bd85760405162461bcd60e51b815260040161053591906120f0565b5060408701516001600160a01b0316610c175760405162461bcd60e51b81526020600482015260016024820152600360fc1b6044820152606401610535565b600287602001516002811115610c2f57610c2f611ccf565b03610cbb5760408088015160a089015191516323b872dd60e01b815233600482015230602482015260448101929092526001600160a01b0316906323b872dd906064016020604051808303816000875af1158015610c91573d6000803e3d6000fd5b505050506040513d601f19601f82011682018060405250810190610cb59190612123565b50610e67565b600087602001516002811115610cd357610cd3611ccf565b03610d985760005b876060015151811015610cb55787604001516001600160a01b03166342842e0e33308b606001518581518110610d1357610d13612145565b60209081029190910101516040516001600160e01b031960e086901b1681526001600160a01b0393841660048201529290911660248301526044820152606401600060405180830381600087803b158015610d6d57600080fd5b505af1158015610d81573d6000803e3d6000fd5b505050508080610d909061215b565b915050610cdb565b600187602001516002811115610db057610db0611ccf565b03610e2a57604080880151606089015160808a01519251631759616b60e11b81526001600160a01b0390921692632eb2c2d692610df39233923092600401612182565b600060405180830381600087803b158015610e0d57600080fd5b505af1158015610e21573d6000803e3d6000fd5b50505050610e67565b60405162461bcd60e51b8152602060048201526012602482015271696e76616c6964206173736574207479706560701b6044820152606401610535565b6101c65460009081526101c760209081526040909120885181546001600160a01b031981166001600160a01b039092169182178355928a01518a93909183916001600160a81b03191617600160a01b836002811115610ec857610ec8611ccf565b021790555060408201516001820180546001600160a01b0319166001600160a01b0390921691909117905560608201518051610f0e9160028401916020909101906118e7565b5060808201518051610f2a9160038401916020909101906118e7565b5060a0820151816004015590505086600001516001600160a01b03167fe1fffcc4923d04b559f4d29a8bfc6cda04eb5b0d3c460751c2402c5c5cc9109c6101c654604051610f7a91815260200190565b60405180910390a26101c68054906000610f938361215b565b919050555050505050506106a160018055565b610fae611194565b6001600160a01b0381166110135760405162461bcd60e51b815260206004820152602660248201527f4f776e61626c653a206e6577206f776e657220697320746865207a65726f206160448201526564647265737360d01b6064820152608401610535565b6105d2816111ee565b6105d2611194565b7f4910fdfa16fed3260ed0e7147f7cc6da11a60208b5b9406d12a635614ffd91435460ff161561105c57611057836113a0565b505050565b826001600160a01b03166352d1902d6040518163ffffffff1660e01b8152600401602060405180830381865afa9250505080156110b6575060408051601f3d908101601f191682019092526110b3918101906121ea565b60015b6111195760405162461bcd60e51b815260206004820152602e60248201527f45524331393637557067726164653a206e657720696d706c656d656e7461746960448201526d6f6e206973206e6f74205555505360901b6064820152608401610535565b60008051602061226b83398151915281146111885760405162461bcd60e51b815260206004820152602960248201527f45524331393637557067726164653a20756e737570706f727465642070726f786044820152681a58589b195555525160ba1b6064820152608401610535565b5061105783838361143c565b60c9546001600160a01b031633146107bc5760405162461bcd60e51b815260206004820181905260248201527f4f776e61626c653a2063616c6c6572206973206e6f7420746865206f776e65726044820152606401610535565b60c980546001600160a01b038381166001600160a01b0319831681179093556040519116919082907f8be0079c531659141344cd1fd0a4f28419497f9722a3daafe3b4186f6b6457e090600090a35050565b600054610100900460ff166112675760405162461bcd60e51b815260040161053590612203565b6107bc611467565b600054610100900460ff166112965760405162461bcd60e51b815260040161053590612203565b6107bc611497565b600054610100900460ff166107605760405162461bcd60e51b815260040161053590612203565b6002600154036113175760405162461bcd60e51b815260206004820152601f60248201527f5265656e7472616e637947756172643a207265656e7472616e742063616c6c006044820152606401610535565b6002600155565b600060fb82604051611330919061224e565b9081526040519081900360200190205460ff1692915050565b600160fb8260405161135b919061224e565b908152604051908190036020019020805491151560ff1990921691909117905550565b60006113938361138d846114be565b906114f9565b9392505050565b60018055565b6001600160a01b0381163b61140d5760405162461bcd60e51b815260206004820152602d60248201527f455243313936373a206e657720696d706c656d656e746174696f6e206973206e60448201526c1bdd08184818dbdb9d1c9858dd609a1b6064820152608401610535565b60008051602061226b83398151915280546001600160a01b0319166001600160a01b0392909216919091179055565b6114458361151d565b6000825111806114525750805b1561105757611461838361155d565b50505050565b600054610100900460ff1661148e5760405162461bcd60e51b815260040161053590612203565b6107bc336111ee565b600054610100900460ff1661139a5760405162461bcd60e51b815260040161053590612203565b6040517f19457468657265756d205369676e6564204d6573736167653a0a3332000000006020820152603c8101829052600090605c016104d0565b60008060006115088585611651565b9150915061151581611696565b509392505050565b611526816113a0565b6040516001600160a01b038216907fbc7cd75a20ee27fd9adebab32041f755214dbc6bffa90cc0225b39da2e5c2d3b90600090a250565b60606001600160a01b0383163b6115c55760405162461bcd60e51b815260206004820152602660248201527f416464726573733a2064656c65676174652063616c6c20746f206e6f6e2d636f6044820152651b9d1c9858dd60d21b6064820152608401610535565b600080846001600160a01b0316846040516115e0919061224e565b600060405180830381855af49150503d806000811461161b576040519150601f19603f3d011682016040523d82523d6000602084013e611620565b606091505b5091509150611648828260405180606001604052806027815260200161228b602791396117e0565b95945050505050565b60008082516041036116875760208301516040840151606085015160001a61167b878285856117f9565b9450945050505061168f565b506000905060025b9250929050565b60008160048111156116aa576116aa611ccf565b036116b25750565b60018160048111156116c6576116c6611ccf565b036117135760405162461bcd60e51b815260206004820152601860248201527f45434453413a20696e76616c6964207369676e617475726500000000000000006044820152606401610535565b600281600481111561172757611727611ccf565b036117745760405162461bcd60e51b815260206004820152601f60248201527f45434453413a20696e76616c6964207369676e6174757265206c656e677468006044820152606401610535565b600381600481111561178857611788611ccf565b036105d25760405162461bcd60e51b815260206004820152602260248201527f45434453413a20696e76616c6964207369676e6174757265202773272076616c604482015261756560f01b6064820152608401610535565b606083156117ef575081611393565b61139383836118bd565b6000807f7fffffffffffffffffffffffffffffff5d576e7357a4501ddfe92f46681b20a083111561183057506000905060036118b4565b6040805160008082526020820180845289905260ff881692820192909252606081018690526080810185905260019060a0016020604051602081039080840390855afa158015611884573d6000803e3d6000fd5b5050604051601f1901519150506001600160a01b0381166118ad576000600192509250506118b4565b9150600090505b94509492505050565b8151156118cd5781518083602001fd5b8060405162461bcd60e51b815260040161053591906120f0565b828054828255906000526020600020908101928215611922579160200282015b82811115611922578251825591602001919060010190611907565b5061192e929150611932565b5090565b5b8082111561192e5760008155600101611933565b60006020828403121561195957600080fd5b81356001600160e01b03198116811461139357600080fd5b80356001600160a01b038116811461198857600080fd5b919050565b634e487b7160e01b600052604160045260246000fd5b60405160c0810167ffffffffffffffff811182821017156119c6576119c661198d565b60405290565b604051601f8201601f1916810167ffffffffffffffff811182821017156119f5576119f561198d565b604052919050565b600082601f830112611a0e57600080fd5b813567ffffffffffffffff811115611a2857611a2861198d565b611a3b601f8201601f19166020016119cc565b818152846020838601011115611a5057600080fd5b816020850160208301376000918101602001919091529392505050565b60008060008060808587031215611a8357600080fd5b611a8c85611971565b9350611a9a60208601611971565b925060408501359150606085013567ffffffffffffffff811115611abd57600080fd5b611ac9878288016119fd565b91505092959194509250565b80356003811061198857600080fd5b600082601f830112611af557600080fd5b8135602067ffffffffffffffff821115611b1157611b1161198d565b8160051b611b208282016119cc565b9283528481018201928281019087851115611b3a57600080fd5b83870192505b84831015611b5957823582529183019190830190611b40565b979650505050505050565b600060c08284031215611b7657600080fd5b611b7e6119a3565b9050611b8982611971565b8152611b9760208301611ad5565b6020820152611ba860408301611971565b6040820152606082013567ffffffffffffffff80821115611bc857600080fd5b611bd485838601611ae4565b60608401526080840135915080821115611bed57600080fd5b50611bfa84828501611ae4565b60808301525060a082013560a082015292915050565b600060208284031215611c2257600080fd5b813567ffffffffffffffff811115611c3957600080fd5b611c4584828501611b64565b949350505050565b600060208284031215611c5f57600080fd5b61139382611971565b60008060408385031215611c7b57600080fd5b611c8483611971565b9150602083013567ffffffffffffffff811115611ca057600080fd5b611cac858286016119fd565b9150509250929050565b600060208284031215611cc857600080fd5b5035919050565b634e487b7160e01b600052602160045260246000fd5b60038110611d0357634e487b7160e01b600052602160045260246000fd5b9052565b6001600160a01b0385811682526080820190611d266020840187611ce5565b9390931660408201526060015292915050565b600060208284031215611d4b57600080fd5b813567ffffffffffffffff811115611d6257600080fd5b611c45848285016119fd565b600081518084526020808501945080840160005b83811015611d9e57815187529582019590820190600101611d82565b509495945050505050565b60208152600060018060a01b038084511660208401526020840151611dd16040850182611ce5565b5080604085015116606084015250606083015160c06080840152611df860e0840182611d6e565b90506080840151601f198483030160a0850152611e158282611d6e565b91505060a084015160c08401528091505092915050565b600080600080600060a08688031215611e4457600080fd5b611e4d86611971565b9450611e5b60208701611971565b9350604086013567ffffffffffffffff80821115611e7857600080fd5b611e8489838a01611ae4565b94506060880135915080821115611e9a57600080fd5b611ea689838a01611ae4565b93506080880135915080821115611ebc57600080fd5b50611ec9888289016119fd565b9150509295509295909350565b60008060408385031215611ee957600080fd5b823567ffffffffffffffff80821115611f0157600080fd5b611f0d86838701611b64565b93506020850135915080821115611f2357600080fd5b50611cac858286016119fd565b600080600080600060a08688031215611f4857600080fd5b611f5186611971565b9450611f5f60208701611971565b93506040860135925060608601359150608086013567ffffffffffffffff811115611f8957600080fd5b611ec9888289016119fd565b80516000906020808401838315611d9e57815187529582019590820190600101611d82565b60006bffffffffffffffffffffffff19808960601b16835260038810611ff057634e487b7160e01b600052602160045260246000fd5b8760f81b6014840152808760601b1660158401525061201b6120156029840187611f95565b85611f95565b928352505060200195945050505050565b6020808252602c908201527f46756e6374696f6e206d7573742062652063616c6c6564207468726f7567682060408201526b19195b1959d85d1958d85b1b60a21b606082015260800190565b6020808252602c908201527f46756e6374696f6e206d7573742062652063616c6c6564207468726f7567682060408201526b6163746976652070726f787960a01b606082015260800190565b60005b838110156120df5781810151838201526020016120c7565b838111156114615750506000910152565b602081526000825180602084015261210f8160408501602087016120c4565b601f01601f19169190910160400192915050565b60006020828403121561213557600080fd5b8151801515811461139357600080fd5b634e487b7160e01b600052603260045260246000fd5b60006001820161217b57634e487b7160e01b600052601160045260246000fd5b5060010190565b6001600160a01b0385811682528416602082015260a0604082018190526000906121ae90830185611d6e565b82810360608401526121c08185611d6e565b838103608090940193909352505060048152630307830360e41b6020820152604001949350505050565b6000602082840312156121fc57600080fd5b5051919050565b6020808252602b908201527f496e697469616c697a61626c653a20636f6e7472616374206973206e6f74206960408201526a6e697469616c697a696e6760a81b606082015260800190565b600082516122608184602087016120c4565b919091019291505056fe360894a13ba1a3210667c828492db98dca3e2076cc3735a920a3ca505d382bbc416464726573733a206c6f772d6c6576656c2064656c65676174652063616c6c206661696c6564a2646970667358221220b5d97ad05570d406cfe26745a16cb0b958749b68129f434db52c4d0cc66e1e8264736f6c634300080f0033",
  "linkReferences": {},
  "deployedLinkReferences": {}
}